{
  "_format": "hh-sol-artifact-1",
  "contractName": "FundingToken",
  "sourceName": "contracts/FundingToken.sol",
  "abi": [
    {
      "inputs": [
        {
          "internalType": "string",
          "name": "_name",
          "type": "string"
        },
        {
          "internalType": "uint256",
          "name": "_maxCap",
          "type": "uint256"
        },
        {
          "internalType": "uint256",
          "name": "_saleStart",
          "type": "uint256"
        },
        {
          "internalType": "uint256",
          "name": "_saleEnd",
          "type": "uint256"
        },
        {
          "internalType": "address",
          "name": "_projectOwner",
          "type": "address"
        },
        {
          "internalType": "address",
          "name": "_tokenAddress",
          "type": "address"
        }
      ],
      "stateMutability": "nonpayable",
      "type": "constructor"
    },
    {
      "anonymous": false,
      "inputs": [
        {
          "indexed": true,
          "internalType": "address",
          "name": "previousOwner",
          "type": "address"
        },
        {
          "indexed": true,
          "internalType": "address",
          "name": "newOwner",
          "type": "address"
        }
      ],
      "name": "OwnershipTransferred",
      "type": "event"
    },
    {
      "anonymous": false,
      "inputs": [
        {
          "indexed": false,
          "internalType": "address",
          "name": "account",
          "type": "address"
        }
      ],
      "name": "Paused",
      "type": "event"
    },
    {
      "anonymous": false,
      "inputs": [
        {
          "indexed": false,
          "internalType": "address",
          "name": "account",
          "type": "address"
        }
      ],
      "name": "Unpaused",
      "type": "event"
    },
    {
      "anonymous": false,
      "inputs": [
        {
          "indexed": true,
          "internalType": "address",
          "name": "user",
          "type": "address"
        },
        {
          "indexed": false,
          "internalType": "uint256",
          "name": "amount",
          "type": "uint256"
        }
      ],
      "name": "UserInvestment",
      "type": "event"
    },
    {
      "inputs": [],
      "name": "ERC20Interface",
      "outputs": [
        {
          "internalType": "contract IERC20",
          "name": "",
          "type": "address"
        }
      ],
      "stateMutability": "view",
      "type": "function"
    },
    {
      "inputs": [
        {
          "internalType": "uint256",
          "name": "amount",
          "type": "uint256"
        },
        {
          "internalType": "uint256",
          "name": "percent",
          "type": "uint256"
        },
        {
          "internalType": "bytes32[]",
          "name": "proof",
          "type": "bytes32[]"
        }
      ],
      "name": "buyTokens",
      "outputs": [
        {
          "internalType": "bool",
          "name": "",
          "type": "bool"
        }
      ],
      "stateMutability": "nonpayable",
      "type": "function"
    },
    {
      "inputs": [
        {
          "internalType": "address",
          "name": "user",
          "type": "address"
        }
      ],
      "name": "getInvestment",
      "outputs": [
        {
          "internalType": "uint256",
          "name": "",
          "type": "uint256"
        }
      ],
      "stateMutability": "view",
      "type": "function"
    },
    {
      "inputs": [],
      "name": "maxCap",
      "outputs": [
        {
          "internalType": "uint256",
          "name": "",
          "type": "uint256"
        }
      ],
      "stateMutability": "view",
      "type": "function"
    },
    {
      "inputs": [],
      "name": "name",
      "outputs": [
        {
          "internalType": "string",
          "name": "",
          "type": "string"
        }
      ],
      "stateMutability": "view",
      "type": "function"
    },
    {
      "inputs": [],
      "name": "owner",
      "outputs": [
        {
          "internalType": "address",
          "name": "",
          "type": "address"
        }
      ],
      "stateMutability": "view",
      "type": "function"
    },
    {
      "inputs": [],
      "name": "participants",
      "outputs": [
        {
          "internalType": "uint256",
          "name": "",
          "type": "uint256"
        }
      ],
      "stateMutability": "view",
      "type": "function"
    },
    {
      "inputs": [],
      "name": "pause",
      "outputs": [],
      "stateMutability": "nonpayable",
      "type": "function"
    },
    {
      "inputs": [],
      "name": "paused",
      "outputs": [
        {
          "internalType": "bool",
          "name": "",
          "type": "bool"
        }
      ],
      "stateMutability": "view",
      "type": "function"
    },
    {
      "inputs": [],
      "name": "percentDivisor",
      "outputs": [
        {
          "internalType": "uint32",
          "name": "",
          "type": "uint32"
        }
      ],
      "stateMutability": "view",
      "type": "function"
    },
    {
      "inputs": [],
      "name": "projectOwner",
      "outputs": [
        {
          "internalType": "address",
          "name": "",
          "type": "address"
        }
      ],
      "stateMutability": "view",
      "type": "function"
    },
    {
      "inputs": [],
      "name": "raisedAmount",
      "outputs": [
        {
          "internalType": "uint256",
          "name": "",
          "type": "uint256"
        }
      ],
      "stateMutability": "view",
      "type": "function"
    },
    {
      "inputs": [],
      "name": "renounceOwnership",
      "outputs": [],
      "stateMutability": "nonpayable",
      "type": "function"
    },
    {
      "inputs": [],
      "name": "rootHash",
      "outputs": [
        {
          "internalType": "bytes32",
          "name": "",
          "type": "bytes32"
        }
      ],
      "stateMutability": "view",
      "type": "function"
    },
    {
      "inputs": [],
      "name": "saleEnd",
      "outputs": [
        {
          "internalType": "uint256",
          "name": "",
          "type": "uint256"
        }
      ],
      "stateMutability": "view",
      "type": "function"
    },
    {
      "inputs": [],
      "name": "saleStart",
      "outputs": [
        {
          "internalType": "uint256",
          "name": "",
          "type": "uint256"
        }
      ],
      "stateMutability": "view",
      "type": "function"
    },
    {
      "inputs": [],
      "name": "tokenAddress",
      "outputs": [
        {
          "internalType": "address",
          "name": "",
          "type": "address"
        }
      ],
      "stateMutability": "view",
      "type": "function"
    },
    {
      "inputs": [
        {
          "internalType": "address",
          "name": "newOwner",
          "type": "address"
        }
      ],
      "name": "transferOwnership",
      "outputs": [],
      "stateMutability": "nonpayable",
      "type": "function"
    },
    {
      "inputs": [],
      "name": "unpause",
      "outputs": [],
      "stateMutability": "nonpayable",
      "type": "function"
    },
    {
      "inputs": [
        {
          "internalType": "uint256",
          "name": "newSaleEnd",
          "type": "uint256"
        }
      ],
      "name": "updateEndTime",
      "outputs": [],
      "stateMutability": "nonpayable",
      "type": "function"
    },
    {
      "inputs": [
        {
          "internalType": "bytes32",
          "name": "_hash",
          "type": "bytes32"
        }
      ],
      "name": "updateHash",
      "outputs": [],
      "stateMutability": "nonpayable",
      "type": "function"
    },
    {
      "inputs": [
        {
          "internalType": "uint256",
          "name": "_maxCap",
          "type": "uint256"
        }
      ],
      "name": "updateMaxCap",
      "outputs": [],
      "stateMutability": "nonpayable",
      "type": "function"
    },
    {
      "inputs": [
        {
          "internalType": "uint256",
          "name": "newsaleStart",
          "type": "uint256"
        }
      ],
      "name": "updateStartTime",
      "outputs": [],
      "stateMutability": "nonpayable",
      "type": "function"
    },
    {
      "inputs": [
        {
          "internalType": "address",
          "name": "",
          "type": "address"
        }
      ],
      "name": "userInvestment",
      "outputs": [
        {
          "internalType": "uint256",
          "name": "",
          "type": "uint256"
        }
      ],
      "stateMutability": "view",
      "type": "function"
    },
    {
      "inputs": [
        {
          "internalType": "address",
          "name": "_wallet",
          "type": "address"
        },
        {
          "internalType": "uint256",
          "name": "_percent",
          "type": "uint256"
        },
        {
          "internalType": "bytes32[]",
          "name": "proof",
          "type": "bytes32[]"
        },
        {
          "internalType": "bytes32",
          "name": "_rootHash",
          "type": "bytes32"
        }
      ],
      "name": "verify",
      "outputs": [
        {
          "internalType": "bool",
          "name": "",
          "type": "bool"
        }
      ],
      "stateMutability": "pure",
      "type": "function"
    }
  ],
  "bytecode": "0x60806040523462000038575b62000026620000196200025a565b94939093929192620006e2565b604051612142620008a0823961214290f35b62000041600080fd5b6200000b565b600080fd5b50634e487b7160e01b600052604160045260246000fd5b90601f01601f191681019081106001600160401b038211176200008557604052565b6200008f6200004c565b604052565b90620000ab620000a360405190565b928362000063565b565b602090620000ce906001600160401b038111620000d257601f01601f191690565b0190565b620000dc6200004c565b601f01601f191690565b60005b838110620000fa5750506000910152565b8181015183820152602001620000e9565b929190620000ab91620001286200012283620000ad565b62000094565b9482865260208601918382011115620000e65762000144600080fd5b620000e6565b90620001699181601f820112156200016c575b6020815191016200010b565b90565b62000175600080fd5b6200015d565b805b036200004757565b90505190620000ab826200017b565b6001600160a01b031690565b6001600160a01b0381166200017d565b90505190620000ab82620001a0565b909160c0828403126200024b575b8151620001ee9084906001600160401b0381116200023c575b84016200014a565b92620001fe816020850162000185565b926200020e826040830162000185565b926200016962000222846060850162000185565b93620002328160808601620001b0565b9360a001620001b0565b62000245600080fd5b620001e6565b62000254600080fd5b620001cd565b6200027d620029e280380380620002718162000094565b928339810190620001bf565b909192939495565b50634e487b7160e01b600052602260045260246000fd5b9060016002830492168015620002c3575b6020831014620002b957565b620000ab62000285565b91607f1691620002ad565b9160001960089290920291821b911b5b9181191691161790565b6200016962000169620001699290565b91906200030d620001696200031693620002e8565b908354620002ce565b9055565b620000ab91600091620002f8565b81811062000334575050565b806200034460006001936200031a565b0162000328565b9190601f81116200035b57505050565b6200036f620000ab93600052602060002090565b906020601f84018190048301931062000393575b6020601f90910104019062000328565b909150819062000383565b620003b7600b620003b083546200029c565b836200034b565b7f4452452046756e64696e670000000000000000000000000000000000000000169055565b620000ab906200039e565b9063ffffffff90620002de565b6200040462000169620001699290565b63ffffffff1690565b9062000421620001696200031692620003f4565b8254620003e7565b9062000433815190565b906001600160401b0382116200050b575b6200045c826200045585546200029c565b856200034b565b602090601f83116001146200049b57620003169291600091836200048f575b5050600019600883021c1916906002021790565b0151905038806200047b565b601f19831691620004b185600052602060002090565b9260005b818110620004f257509160029391856001969410620004d8575b50505002019055565b01516000196008601f8516021c19169055388080620004cf565b91936020600181928787015181550195019201620004b5565b620005156200004c565b62000444565b90620000ab9162000429565b156200052f57565b60405162461bcd60e51b815260206004820152600c60248201526b05a65726f206d6178206361760a41b6044820152606490fd5b9060001990620002de565b9062000582620001696200031692620002e8565b825462000563565b156200059257565b60405162461bcd60e51b815260206004820152600f60248201526e496e76616c69642074696d696e677360881b6044820152606490fd5b6200019462000169620001699290565b6200016990620005c9565b15620005ec57565b60405162461bcd60e51b815260206004820152601a60248201527f5a65726f2070726f6a656374206f776e657220616464726573730000000000006044820152606490fd5b906001600160a01b0390620002de565b620001699062000194906001600160a01b031682565b620001699062000641565b620001699062000657565b906200068162000169620003169262000662565b825462000631565b156200069157565b60405162461bcd60e51b81526020600482015260126024820152715a65726f20746f6b656e206164647265737360701b6044820152606490fd5b620001699062000194565b620001699054620006cb565b62000787620007ca96959262000781620007c29662000779620007b0976200073662000194976200071262000821565b6200071e6001620003dc565b6200072e620186a060066200040d565b60016200051b565b6200075c600095620007546200074c88620002e8565b821162000527565b60026200056e565b42811180620007ec575b62000771906200058a565b60036200056e565b60046200056e565b620005d9565b91620007a86001600160a01b0384166001600160a01b0383161415620005e4565b60086200066d565b6001600160a01b038316141562000689565b60096200066d565b620000ab620007e4620007de6009620006d6565b62000662565b600a6200066d565b5080831162000766565b9060ff60a01b9060a01b620002de565b9062000819620001696200031692151590565b8254620007f6565b6200082b62000838565b620000ab60008062000806565b620000ab33620008496000620006d6565b90620008578160006200066d565b6200088e620008877f8be0079c531659141344cd1fd0a4f28419497f9722a3daafe3b4186f6b6457e09362000662565b9162000662565b916200089960405190565b600090a356fe60806040526004361015610018575b610016600080fd5b005b60003560e01c806306bcf02f1461020c57806306fdde0314610203578063146b58df146101fa5780631bbc4b83146101f15780631d80009a146101e857806323548b8b146101df5780633af98d39146101d65780633f4ba83a146101cd578063438114d0146101c45780634bc14a56146101bb5780635c975abb146101b25780636ab3846b146101a95780636c4470fb146101a0578063715018a6146101975780638456cb591461018e5780638733cfd3146101855780638da5cb5b1461017c5780639d76ea5814610173578063a4475ce41461016a578063ab0bcc4114610161578063c10b935814610158578063c59ee1dc1461014f578063e3f42a9b14610146578063e81ba0801461013d5763f2fde38b0361000e57610138610c09565b61000e565b50610138610be2565b50610138610ba1565b50610138610b4e565b50610138610b18565b50610138610ae2565b50610138610aac565b50610138610a76565b50610138610a18565b506101386109ee565b50610138610998565b50610138610971565b50610138610947565b50610138610914565b506101386108ea565b506101386108bc565b50610138610826565b506101386107ff565b506101386107bf565b506101386106e6565b506101386106b0565b50610138610658565b50610138610597565b506101386104fe565b50610138610256565b600080fd5b805b0361021557565b905035906102308261021a565b565b906102469160208183031261024957610223565b90565b610251600080fd5b610223565b5034610279575b61027061026b366004610232565b61105d565b604051005b0390f35b610281600080fd5b61025d565b600091031261029157565b610230600080fd5b507f4e487b7100000000000000000000000000000000000000000000000000000000600052600060045260246000fd5b507f4e487b7100000000000000000000000000000000000000000000000000000000600052602260045260246000fd5b906001600283049216801561031c575b602083101461031457565b6102306102c9565b91607f1691610309565b80546000939291610343610339836102f9565b8085529360200190565b9160018116908115610395575060011461035c57505050565b61036f9192939450600052602060002090565b916000925b8184106103815750500190565b805484840152602090930192600101610374565b92949550505060ff1916825215156020020190565b9061024691610326565b601f017fffffffffffffffffffffffffffffffffffffffffffffffffffffffffffffffe01690565b507f4e487b7100000000000000000000000000000000000000000000000000000000600052604160045260246000fd5b90601f017fffffffffffffffffffffffffffffffffffffffffffffffffffffffffffffffe016810190811067ffffffffffffffff82111761044c57604052565b6104546103dc565b604052565b906102306104739261046a60405190565b938480926103aa565b038361040c565b61024691156104595761048b610299565b610459565b6102466000600161047a565b60005b8381106104af5750506000910152565b818101518382015260200161049f565b6104e06103b46020936104e9936104d4815190565b80835293849260200190565b9586910161049c565b0190565b6020808252610246929101906104bf565b5034610527575b610510366004610286565b61027561051b610490565b604051918291826104ed565b61052f600080fd5b610505565b73ffffffffffffffffffffffffffffffffffffffff1690565b73ffffffffffffffffffffffffffffffffffffffff811661021c565b905035906102308261054d565b9061024691602081830312156105695761058e600080fd5b610569565b9052565b50346105c5575b6102756105b46105af366004610576565b611ec2565b6040515b9182918290815260200190565b6105cd600080fd5b61059e565b610246916008021c73ffffffffffffffffffffffffffffffffffffffff1690565b9061024691546105d2565b6102466000600a6105f3565b6105346102466102469273ffffffffffffffffffffffffffffffffffffffff1690565b6102469061060a565b6102469061062d565b61059390610636565b602081019291610230919061063f565b5034610681575b61066a366004610286565b6102756106756105fe565b60405191829182610648565b610689600080fd5b61065f565b610246916008021c81565b90610246915461068e565b6102466000600b610699565b50346106cd575b6106c2366004610286565b6102756105b46106a4565b6106d5600080fd5b6106b7565b61024660006002610699565b5034610703575b6106f8366004610286565b6102756105b46106da565b61070b600080fd5b6106ed565b909182601f8301121561074f575b602082359267ffffffffffffffff8411610742575b01926020830284011161029157565b61074a600080fd5b610733565b610757600080fd5b61071e565b90916060828403126107b2575b6107a16107768484610223565b936107848160208601610223565b9360408101359067ffffffffffffffff82116107a5575b01610710565b9091565b6107ad600080fd5b61079b565b6107ba600080fd5b610769565b50346107f2575b6102756107e06107d736600461075c565b92919091611953565b60405191829182901515815260200190565b6107fa600080fd5b6107c6565b5034610819575b610811366004610286565b610270611278565b610821600080fd5b610806565b5034610840575b61027061083b366004610232565b61136d565b610848600080fd5b61082d565b9190916080818403126108af575b6108658382610569565b926108738160208401610223565b9261024661089783604086013567ffffffffffffffff81116108a2575b8601610710565b939094606001610223565b6108aa600080fd5b610890565b6108b7600080fd5b61085b565b50346108dd575b6102756107e06108d436600461084d565b93929092611f9d565b6108e5600080fd5b6108c3565b5034610907575b6108fc366004610286565b6102756107e0610eb7565b61090f600080fd5b6108f1565b503461092e575b610270610929366004610232565b611135565b610936600080fd5b61091b565b61024660006007610699565b5034610964575b610959366004610286565b6102756105b461093b565b61096c600080fd5b61094e565b503461098b575b610983366004610286565b610270610c85565b610993600080fd5b610978565b50346109b2575b6109aa366004610286565b610270611151565b6109ba600080fd5b61099f565b906109c990610636565b600052602052604060002090565b610246906109e9600c916000926109bf565b610699565b5034610a0b575b6102756105b4610a06366004610576565b6109d7565b610a13600080fd5b6109f5565b5034610a5d575b610a2a366004610286565b610275610a35610c43565b6040515b9182918273ffffffffffffffffffffffffffffffffffffffff909116815260200190565b610a65600080fd5b610a1f565b610246600060096105f3565b5034610a93575b610a88366004610286565b610275610a35610a6a565b610a9b600080fd5b610a7d565b610246600060086105f3565b5034610ac9575b610abe366004610286565b610275610a35610aa0565b610ad1600080fd5b610ab3565b61024660006003610699565b5034610aff575b610af4366004610286565b6102756105b4610ad6565b610b07600080fd5b610ae9565b61024660006004610699565b5034610b35575b610b2a366004610286565b6102756105b4610b0c565b610b3d600080fd5b610b1f565b61024660006005610699565b5034610b6b575b610b60366004610286565b6102756105b4610b42565b610b73600080fd5b610b55565b610246916008021c5b63ffffffff1690565b906102469154610b78565b61024660006006610b8a565b5034610bd5575b610bb3366004610286565b610275610bbe610b95565b6040519182918263ffffffff909116815260200190565b610bdd600080fd5b610ba8565b5034610bfc575b610270610bf7366004610232565b610fa3565b610c04600080fd5b610be9565b5034610c23575b610270610c1e366004610576565b610e01565b610c2b600080fd5b610c10565b61024690610534565b6102469054610c30565b6102466000610c39565b610c55610cfb565b610230610c73565b6105346102466102469290565b61024690610c5d565b610230610c806000610c6a565b610e47565b610230610c4d565b15610c9457565b6040517f08c379a000000000000000000000000000000000000000000000000000000000815280610cf7600482016020808252818101527f4f776e61626c653a2063616c6c6572206973206e6f7420746865206f776e6572604082015260600190565b0390fd5b610230610d06610c43565b610d2c610d1233610534565b9173ffffffffffffffffffffffffffffffffffffffff1690565b14610c8d565b61023090610d3e610cfb565b610dcf565b15610d4a57565b6040517f08c379a000000000000000000000000000000000000000000000000000000000815260206004820152602660248201527f4f776e61626c653a206e6577206f776e657220697320746865207a65726f206160448201527f64647265737300000000000000000000000000000000000000000000000000006064820152608490fd5b61023090610c80610de36105346000610c6a565b73ffffffffffffffffffffffffffffffffffffffff83161415610d43565b61023090610d32565b9073ffffffffffffffffffffffffffffffffffffffff905b9181191691161790565b90610e3c610246610e4392610636565b8254610e0a565b9055565b610e516000610c39565b90610e5d816000610e2c565b610e90610e8a7f8be0079c531659141344cd1fd0a4f28419497f9722a3daafe3b4186f6b6457e093610636565b91610636565b91610e9a60405190565b600090a3565b6102469060a01c60ff1690565b6102469054610ea0565b6102466000610ead565b61023090610ecd610cfb565b610f84565b6102466102466102469290565b15610ee657565b6040517f08c379a000000000000000000000000000000000000000000000000000000000815260206004820152600c60248201527f5a65726f206d61782063617000000000000000000000000000000000000000006044820152606490fd5b907fffffffffffffffffffffffffffffffffffffffffffffffffffffffffffffffff90610e22565b90610f7d610246610e4392610ed2565b8254610f45565b61023090610f9c610f956000610ed2565b8211610edf565b6002610f6d565b61023090610ec1565b61023090610fb8610cfb565b611034565b6102469081565b6102469054610fbd565b15610fd557565b6040517f08c379a000000000000000000000000000000000000000000000000000000000815260206004820152601460248201527f53616c6520616c726561647920737461727465640000000000000000000000006044820152606490fd5b610230906110564261105061104c6102466003610fc4565b9190565b10610fce565b6003610f6d565b61023090610fac565b61023090611072610cfb565b611103565b1561107e57565b6040517f08c379a000000000000000000000000000000000000000000000000000000000815260206004820152602660248201527f53616c6520656e642063616e2774206265206c657373207468616e2073616c6560448201527f20737461727400000000000000000000000000000000000000000000000000006064820152608490fd5b610230906111146102466003610fc4565b81118061112c575b61112590611077565b6004610f6d565b5042811161111c565b61023090611066565b611146610cfb565b6102306102306111e0565b61023061113e565b61116161124e565b6102306111a0565b9074ff00000000000000000000000000000000000000009060a01b610e22565b90611199610246610e4392151590565b8254611169565b6111ac60016000611189565b336111db7f62e78cea01bee320cd4e420270b5ea74000d11b0c9f74754ebdbfc544b05a25891610a3960405190565b0390a1565b610230611159565b156111ef57565b6040517f08c379a000000000000000000000000000000000000000000000000000000000815260206004820152601060248201527f5061757361626c653a20706175736564000000000000000000000000000000006044820152606490fd5b61023061126061125c610eb7565b1590565b6111e8565b61126d610cfb565b6102306102306112c5565b610230611265565b611288611333565b610230611296600080611189565b336111db7f5db9ee0a495bf2e6ff9c91a7834c1ba4fdd244a5e8aa4e537bd38aeae4b073aa91610a3960405190565b610230611280565b156112d457565b6040517f08c379a000000000000000000000000000000000000000000000000000000000815260206004820152601460248201527f5061757361626c653a206e6f74207061757365640000000000000000000000006044820152606490fd5b61023061133e610eb7565b6112cd565b6102309061134f610cfb565b611362565b90610f7d610246610e439290565b61023090600b611354565b61023090611343565b906102469493929161138661124e565b61144e565b905051906102308261021a565b90610246916020818303121561138b576113b0600080fd5b61138b565b506040513d6000823e3d90fd5b156113c957565b6040517f08c379a000000000000000000000000000000000000000000000000000000000815260206004820152602160248201527f4d616b65207375726520746f2061646420656e6f75676820616c6c6f77616e6360448201527f65000000000000000000000000000000000000000000000000000000000000006064820152608490fd5b90610246949392916114e96114e133602061147161146c600a610c39565b610636565b9163dd62ed3e9261149e61148430610636565b946114ca61149160405190565b9687958694859460e01b90565b845273ffffffffffffffffffffffffffffffffffffffff90811660048501521660248301526044820190565b03915afa908115611516575b6000916114ee575090565b8311156113c2565b611747565b610246915060203d811161150f575b611507818361040c565b810190611398565b503d6114fd565b61151e6113b5565b6114d6565b1561152a57565b6040517f08c379a000000000000000000000000000000000000000000000000000000000815260206004820152601660248201527f55736572206e6f742061757468656e74696361746564000000000000000000006044820152606490fd5b1561159057565b6040517f08c379a000000000000000000000000000000000000000000000000000000000815260206004820152601460248201527f53616c65206e6f742073746172746564207965740000000000000000000000006044820152606490fd5b156115f657565b6040517f08c379a000000000000000000000000000000000000000000000000000000000815260206004820152600a60248201527f53616c6520456e646564000000000000000000000000000000000000000000006044820152606490fd5b1561165c57565b6040517f08c379a000000000000000000000000000000000000000000000000000000000815260206004820152601460248201527f4578636565647320706f6f6c206d6178206361700000000000000000000000006044820152606490fd5b61024690610b81565b61024690546116bb565b6102466102466102469263ffffffff1690565b156116e857565b6040517f08c379a000000000000000000000000000000000000000000000000000000000815260206004820152601a60248201527f45786365656473207075726368617361626c6520616d6f756e740000000000006044820152606490fd5b61183b6118236118c694611843939796975061177a61177533998a9961176d600b610fc4565b91858c611f9d565b611523565b6117ad4261179661178e6102466003610fc4565b821015611589565b6117a661104c6102466004610fc4565b11156115ef565b6117da6117c3866117be6005610fc4565b611e4b565b6117d361104c6102466002610fc4565b1115611655565b61180460206117ec61146c600a610c39565b6318160ddd906117fb60405190565b93849260e01b90565b825260049082905afa908115611946575b600091611928575b50611e68565b61183561183060066116c4565b6116ce565b90611eb8565b8211156116e1565b6118ab600c6118a661186661186061185b88856109bf565b610fc4565b85611e4b565b968261187661185b838b966109bf565b61188361104c6000610ed2565b14611905575b6118a161189a876117be6005610fc4565b6005610f6d565b6109bf565b610f6d565b6118b5600a610c39565b836118c06008610c39565b916119d0565b6118fd6118f37f79ccc25c788e491a0786bce4ed0b24852ea30b809e3d80092e1cdc6253e831b992610636565b926105b860405190565b0390a2600190565b6119226119126007610fc4565b61191c6001610ed2565b90611e4b565b50611889565b611940915060203d811161150f57611507818361040c565b3861181d565b61194e6113b5565b611815565b610246939291906000611376565b61197a6119746102469263ffffffff1690565b60e01b90565b7fffffffff000000000000000000000000000000000000000000000000000000001690565b73ffffffffffffffffffffffffffffffffffffffff9182168152911660208201526060810192916102309160400152565b90611a1590611a06610230956004956119ec6323b872dd611961565b936119f660405190565b978895602087019081520161199f565b6020820181038252038361040c565b611b83565b90610230611a2760405190565b928361040c565b6104e960209167ffffffffffffffff8111611a6b57601f017fffffffffffffffffffffffffffffffffffffffffffffffffffffffffffffffe01690565b6103b46103dc565b90611a85611a8083611a2e565b611a1a565b918252565b611a946020611a73565b7f5361666545524332303a206c6f772d6c6576656c2063616c6c206661696c6564602082015290565b610246611a8a565b80151561021c565b9050519061023082611ac5565b906102469160208183031215611acd57611af2600080fd5b611acd565b15611afe57565b6040517f08c379a000000000000000000000000000000000000000000000000000000000815260206004820152602a60248201527f5361666545524332303a204552433230206f7065726174696f6e20646964206e60448201527f6f742073756363656564000000000000000000000000000000000000000000006064820152608490fd5b61023091611b93611ba292610636565b90611b9c611abd565b91611be0565b8051611bb161104c6000610ed2565b14908115611bc0575b50611af7565b611bda91506020611bcf825190565b818301019101611ada565b38611bba565b6102469291611bef6000610ed2565b91611ca0565b15611bfc57565b6040517f08c379a000000000000000000000000000000000000000000000000000000000815260206004820152602660248201527f416464726573733a20696e73756666696369656e742062616c616e636520666f60448201527f722063616c6c00000000000000000000000000000000000000000000000000006064820152608490fd5b3d15611c9b57611c903d611a73565b903d6000602084013e565b606090565b90600061024694938192611cb2606090565b50611cc9611cbf30610636565b8390311015611bf5565b60208101905191855af1611cdb611c81565b91611d47565b15611ce857565b6040517f08c379a000000000000000000000000000000000000000000000000000000000815260206004820152601d60248201527f416464726573733a2063616c6c20746f206e6f6e2d636f6e74726163740000006044820152606490fd5b919260609115611d7c5750508151611d6261104c6000610ed2565b14611d6b575090565b611d7761024691611d89565b611ce1565b9093926102309250611d9b565b3b611d9761104c6000610ed2565b1190565b9150611da5825190565b611db261104c6000610ed2565b1115611dc15750805190602001fd5b610cf790611dce60405190565b9182917f08c379a0000000000000000000000000000000000000000000000000000000008352600483016104ed565b507f4e487b7100000000000000000000000000000000000000000000000000000000600052601160045260246000fd5b9190611e38565b9290565b8201809211611e4357565b610230611dfd565b6102469190611e2d565b81810292918115918404141715611e4357565b6102469190611e55565b507f4e487b7100000000000000000000000000000000000000000000000000000000600052601260045260246000fd5b8115611eac570490565b611eb4611e72565b0490565b6102469190611ea2565b61185b61024691611ed1600090565b50600c6109bf565b6105939073ffffffffffffffffffffffffffffffffffffffff1660601b90565b601481611f0c6104e99360209695611ed9565b01918252565b6020809167ffffffffffffffff8111611f2a57020190565b611f326103dc565b020190565b90929192611f47611a8082611f12565b9381855260208086019202830192818411611f85575b915b838310611f6c5750505050565b60208091611f7a8486610223565b815201920191611f5f565b611f8d600080fd5b611f5d565b610246913691611f37565b92611fc8611fd4611fed93610246979596611fb6600090565b50604051938492602084019283611ef9565b9081038252038261040c565b611fe6611fdf825190565b9160200190565b2093611f92565b611e34612007929361104c92612001600090565b50612099565b1490565b6001907fffffffffffffffffffffffffffffffffffffffffffffffffffffffffffffffff8114612039570190565b6104e9611dfd565b507f4e487b7100000000000000000000000000000000000000000000000000000000600052603260045260246000fd5b906020809161207e845190565b81101561208c575b02010190565b612094612041565b612086565b91906120a56000610ed2565b905b6120b2610246855190565b821015612107576120ef906120ce6120ca8487612071565b5190565b908181116120f557906120e991600052602052604060002090565b9161200b565b906120a7565b6120e991600052602052604060002090565b92505056fea2646970667358221220b0e810a39ca87209346313403768257ac8e99ddca64e3e94e5f6ed19e15d897c64736f6c63430008110033",
  "linkReferences": {},
  "deployedLinkReferences": {}
}