{
  "_format": "hh-sol-artifact-1",
  "contractName": "IGO",
  "sourceName": "contracts/IGO.sol",
  "abi": [
    {
      "inputs": [],
      "stateMutability": "nonpayable",
      "type": "constructor"
    },
    {
      "inputs": [
        {
          "internalType": "enum ISharedInternal.Status",
          "name": "current",
          "type": "uint8"
        }
      ],
      "name": "IGOWritableInternal_IGONotOpened",
      "type": "error"
    },
    {
      "inputs": [
        {
          "internalType": "string",
          "name": "tagId",
          "type": "string"
        },
        {
          "internalType": "enum ISharedInternal.Status",
          "name": "current",
          "type": "uint8"
        }
      ],
      "name": "IGOWritableInternal_TagNotOpened",
      "type": "error"
    },
    {
      "inputs": [
        {
          "internalType": "uint256",
          "name": "allocation",
          "type": "uint256"
        },
        {
          "internalType": "uint256",
          "name": "exceedsBy",
          "type": "uint256"
        }
      ],
      "name": "IGOWritable_AllocationExceeded",
      "type": "error"
    },
    {
      "inputs": [
        {
          "internalType": "uint256",
          "name": "grandTotal",
          "type": "uint256"
        },
        {
          "internalType": "uint256",
          "name": "exceedsBy",
          "type": "uint256"
        }
      ],
      "name": "IGOWritable_GrandTotalExceeded",
      "type": "error"
    },
    {
      "inputs": [
        {
          "internalType": "string",
          "name": "tagId",
          "type": "string"
        },
        {
          "internalType": "uint256",
          "name": "maxTagCap",
          "type": "uint256"
        },
        {
          "internalType": "uint256",
          "name": "exceedsBy",
          "type": "uint256"
        }
      ],
      "name": "IGOWritable_MaxTagCapExceeded",
      "type": "error"
    },
    {
      "inputs": [],
      "name": "IGOWritable_NoPaymentTokenUpdate",
      "type": "error"
    },
    {
      "inputs": [],
      "name": "IGOWritable_ProjectTokenPrice_ZERO",
      "type": "error"
    },
    {
      "inputs": [
        {
          "internalType": "uint256",
          "name": "greaterBy",
          "type": "uint256"
        }
      ],
      "name": "IGOWritable_SummedMaxTagCapGtGrandTotal",
      "type": "error"
    },
    {
      "anonymous": false,
      "inputs": [
        {
          "indexed": true,
          "internalType": "string",
          "name": "tagId",
          "type": "string"
        },
        {
          "indexed": true,
          "internalType": "address",
          "name": "buyer",
          "type": "address"
        },
        {
          "indexed": true,
          "internalType": "uint256",
          "name": "maxAllocation",
          "type": "uint256"
        },
        {
          "indexed": false,
          "internalType": "address",
          "name": "paymentToken",
          "type": "address"
        }
      ],
      "name": "AllocationReserved",
      "type": "event"
    },
    {
      "anonymous": false,
      "inputs": [
        {
          "indexed": false,
          "internalType": "uint8",
          "name": "version",
          "type": "uint8"
        }
      ],
      "name": "Initialized",
      "type": "event"
    },
    {
      "anonymous": false,
      "inputs": [
        {
          "indexed": true,
          "internalType": "bytes32",
          "name": "role",
          "type": "bytes32"
        },
        {
          "indexed": true,
          "internalType": "bytes32",
          "name": "previousAdminRole",
          "type": "bytes32"
        },
        {
          "indexed": true,
          "internalType": "bytes32",
          "name": "newAdminRole",
          "type": "bytes32"
        }
      ],
      "name": "RoleAdminChanged",
      "type": "event"
    },
    {
      "anonymous": false,
      "inputs": [
        {
          "indexed": true,
          "internalType": "bytes32",
          "name": "role",
          "type": "bytes32"
        },
        {
          "indexed": true,
          "internalType": "address",
          "name": "account",
          "type": "address"
        },
        {
          "indexed": true,
          "internalType": "address",
          "name": "sender",
          "type": "address"
        }
      ],
      "name": "RoleGranted",
      "type": "event"
    },
    {
      "anonymous": false,
      "inputs": [
        {
          "indexed": true,
          "internalType": "bytes32",
          "name": "role",
          "type": "bytes32"
        },
        {
          "indexed": true,
          "internalType": "address",
          "name": "account",
          "type": "address"
        },
        {
          "indexed": true,
          "internalType": "address",
          "name": "sender",
          "type": "address"
        }
      ],
      "name": "RoleRevoked",
      "type": "event"
    },
    {
      "inputs": [],
      "name": "DEFAULT_ADMIN_ROLE",
      "outputs": [
        {
          "internalType": "bytes32",
          "name": "",
          "type": "bytes32"
        }
      ],
      "stateMutability": "view",
      "type": "function"
    },
    {
      "inputs": [
        {
          "internalType": "address",
          "name": "account",
          "type": "address"
        },
        {
          "internalType": "string",
          "name": "tagId",
          "type": "string"
        }
      ],
      "name": "allocationReservedByIn",
      "outputs": [
        {
          "internalType": "uint256",
          "name": "",
          "type": "uint256"
        }
      ],
      "stateMutability": "view",
      "type": "function"
    },
    {
      "inputs": [
        {
          "internalType": "bytes32",
          "name": "role",
          "type": "bytes32"
        }
      ],
      "name": "getRoleAdmin",
      "outputs": [
        {
          "internalType": "bytes32",
          "name": "",
          "type": "bytes32"
        }
      ],
      "stateMutability": "view",
      "type": "function"
    },
    {
      "inputs": [
        {
          "internalType": "bytes32",
          "name": "role",
          "type": "bytes32"
        },
        {
          "internalType": "uint256",
          "name": "index",
          "type": "uint256"
        }
      ],
      "name": "getRoleMember",
      "outputs": [
        {
          "internalType": "address",
          "name": "",
          "type": "address"
        }
      ],
      "stateMutability": "view",
      "type": "function"
    },
    {
      "inputs": [
        {
          "internalType": "bytes32",
          "name": "role",
          "type": "bytes32"
        }
      ],
      "name": "getRoleMemberCount",
      "outputs": [
        {
          "internalType": "uint256",
          "name": "",
          "type": "uint256"
        }
      ],
      "stateMutability": "view",
      "type": "function"
    },
    {
      "inputs": [
        {
          "internalType": "bytes32",
          "name": "role",
          "type": "bytes32"
        },
        {
          "internalType": "address",
          "name": "account",
          "type": "address"
        }
      ],
      "name": "grantRole",
      "outputs": [],
      "stateMutability": "nonpayable",
      "type": "function"
    },
    {
      "inputs": [
        {
          "internalType": "bytes32",
          "name": "role",
          "type": "bytes32"
        },
        {
          "internalType": "address",
          "name": "account",
          "type": "address"
        }
      ],
      "name": "hasRole",
      "outputs": [
        {
          "internalType": "bool",
          "name": "",
          "type": "bool"
        }
      ],
      "stateMutability": "view",
      "type": "function"
    },
    {
      "inputs": [],
      "name": "igoStatus",
      "outputs": [
        {
          "internalType": "enum ISharedInternal.Status",
          "name": "",
          "type": "uint8"
        }
      ],
      "stateMutability": "view",
      "type": "function"
    },
    {
      "inputs": [
        {
          "internalType": "address",
          "name": "owner",
          "type": "address"
        },
        {
          "components": [
            {
              "internalType": "address",
              "name": "vestingContract",
              "type": "address"
            },
            {
              "internalType": "address",
              "name": "paymentToken",
              "type": "address"
            },
            {
              "internalType": "address",
              "name": "permit2",
              "type": "address"
            },
            {
              "internalType": "uint256",
              "name": "grandTotal",
              "type": "uint256"
            },
            {
              "internalType": "uint256",
              "name": "summedMaxTagCap",
              "type": "uint256"
            },
            {
              "internalType": "uint256",
              "name": "refundFeeDecimals",
              "type": "uint256"
            }
          ],
          "internalType": "struct IGOStorage.SetUp",
          "name": "setUp",
          "type": "tuple"
        },
        {
          "internalType": "string[]",
          "name": "tagIds_",
          "type": "string[]"
        },
        {
          "components": [
            {
              "internalType": "enum ISharedInternal.Status",
              "name": "status",
              "type": "uint8"
            },
            {
              "internalType": "bytes32",
              "name": "merkleRoot",
              "type": "bytes32"
            },
            {
              "internalType": "uint128",
              "name": "startAt",
              "type": "uint128"
            },
            {
              "internalType": "uint128",
              "name": "endAt",
              "type": "uint128"
            },
            {
              "internalType": "uint256",
              "name": "maxTagCap",
              "type": "uint256"
            }
          ],
          "internalType": "struct ISharedInternal.Tag[]",
          "name": "tags",
          "type": "tuple[]"
        }
      ],
      "name": "initialize",
      "outputs": [],
      "stateMutability": "nonpayable",
      "type": "function"
    },
    {
      "inputs": [],
      "name": "openIGO",
      "outputs": [],
      "stateMutability": "nonpayable",
      "type": "function"
    },
    {
      "inputs": [
        {
          "internalType": "string",
          "name": "tagId",
          "type": "string"
        }
      ],
      "name": "openTag",
      "outputs": [],
      "stateMutability": "nonpayable",
      "type": "function"
    },
    {
      "inputs": [],
      "name": "pauseIGO",
      "outputs": [],
      "stateMutability": "nonpayable",
      "type": "function"
    },
    {
      "inputs": [
        {
          "internalType": "string",
          "name": "tagId",
          "type": "string"
        }
      ],
      "name": "pauseTag",
      "outputs": [],
      "stateMutability": "nonpayable",
      "type": "function"
    },
    {
      "inputs": [
        {
          "internalType": "string",
          "name": "tagId",
          "type": "string"
        }
      ],
      "name": "raisedInTag",
      "outputs": [
        {
          "internalType": "uint256",
          "name": "",
          "type": "uint256"
        }
      ],
      "stateMutability": "view",
      "type": "function"
    },
    {
      "inputs": [
        {
          "internalType": "address",
          "name": "token",
          "type": "address"
        },
        {
          "internalType": "address",
          "name": "to",
          "type": "address"
        }
      ],
      "name": "recoverLostERC20",
      "outputs": [],
      "stateMutability": "nonpayable",
      "type": "function"
    },
    {
      "inputs": [
        {
          "internalType": "bytes32",
          "name": "role",
          "type": "bytes32"
        },
        {
          "internalType": "address",
          "name": "account",
          "type": "address"
        }
      ],
      "name": "renounceRole",
      "outputs": [],
      "stateMutability": "nonpayable",
      "type": "function"
    },
    {
      "inputs": [
        {
          "internalType": "uint256",
          "name": "amount",
          "type": "uint256"
        },
        {
          "components": [
            {
              "internalType": "string",
              "name": "tagId",
              "type": "string"
            },
            {
              "internalType": "address",
              "name": "account",
              "type": "address"
            },
            {
              "internalType": "uint256",
              "name": "maxAllocation",
              "type": "uint256"
            },
            {
              "internalType": "uint256",
              "name": "refundFee",
              "type": "uint256"
            },
            {
              "internalType": "uint256",
              "name": "igoTokenPerPaymentToken",
              "type": "uint256"
            }
          ],
          "internalType": "struct IIGOWritableInternal.Allocation",
          "name": "allocation",
          "type": "tuple"
        },
        {
          "internalType": "bytes32[]",
          "name": "proof",
          "type": "bytes32[]"
        },
        {
          "components": [
            {
              "internalType": "bytes",
              "name": "signature",
              "type": "bytes"
            },
            {
              "internalType": "uint256",
              "name": "deadline",
              "type": "uint256"
            },
            {
              "internalType": "uint256",
              "name": "nonce",
              "type": "uint256"
            }
          ],
          "internalType": "struct IIGOWritableInternal.BuyPermission",
          "name": "permission",
          "type": "tuple"
        }
      ],
      "name": "reserveAllocation",
      "outputs": [],
      "stateMutability": "nonpayable",
      "type": "function"
    },
    {
      "inputs": [
        {
          "internalType": "bytes32",
          "name": "role",
          "type": "bytes32"
        },
        {
          "internalType": "address",
          "name": "account",
          "type": "address"
        }
      ],
      "name": "revokeRole",
      "outputs": [],
      "stateMutability": "nonpayable",
      "type": "function"
    },
    {
      "inputs": [],
      "name": "setUp",
      "outputs": [
        {
          "internalType": "address",
          "name": "vestingContract",
          "type": "address"
        },
        {
          "internalType": "address",
          "name": "paymentToken",
          "type": "address"
        },
        {
          "internalType": "uint256",
          "name": "grandTotal",
          "type": "uint256"
        },
        {
          "internalType": "uint256",
          "name": "summedMaxTagCap",
          "type": "uint256"
        },
        {
          "internalType": "uint256",
          "name": "refundFeeDecimals",
          "type": "uint256"
        }
      ],
      "stateMutability": "view",
      "type": "function"
    },
    {
      "inputs": [
        {
          "internalType": "bytes4",
          "name": "interfaceId",
          "type": "bytes4"
        }
      ],
      "name": "supportsInterface",
      "outputs": [
        {
          "internalType": "bool",
          "name": "",
          "type": "bool"
        }
      ],
      "stateMutability": "view",
      "type": "function"
    },
    {
      "inputs": [
        {
          "internalType": "string",
          "name": "tagId",
          "type": "string"
        }
      ],
      "name": "tag",
      "outputs": [
        {
          "components": [
            {
              "internalType": "enum ISharedInternal.Status",
              "name": "status",
              "type": "uint8"
            },
            {
              "internalType": "bytes32",
              "name": "merkleRoot",
              "type": "bytes32"
            },
            {
              "internalType": "uint128",
              "name": "startAt",
              "type": "uint128"
            },
            {
              "internalType": "uint128",
              "name": "endAt",
              "type": "uint128"
            },
            {
              "internalType": "uint256",
              "name": "maxTagCap",
              "type": "uint256"
            }
          ],
          "internalType": "struct ISharedInternal.Tag",
          "name": "tag_",
          "type": "tuple"
        }
      ],
      "stateMutability": "view",
      "type": "function"
    },
    {
      "inputs": [],
      "name": "tagIds",
      "outputs": [
        {
          "internalType": "string[]",
          "name": "tagIds_",
          "type": "string[]"
        }
      ],
      "stateMutability": "view",
      "type": "function"
    },
    {
      "inputs": [],
      "name": "totalRaised",
      "outputs": [
        {
          "internalType": "uint256",
          "name": "",
          "type": "uint256"
        }
      ],
      "stateMutability": "view",
      "type": "function"
    },
    {
      "inputs": [
        {
          "internalType": "uint256",
          "name": "grandTotal_",
          "type": "uint256"
        }
      ],
      "name": "updateGrandTotal",
      "outputs": [],
      "stateMutability": "nonpayable",
      "type": "function"
    },
    {
      "inputs": [
        {
          "internalType": "string",
          "name": "tagId_",
          "type": "string"
        },
        {
          "components": [
            {
              "internalType": "enum ISharedInternal.Status",
              "name": "status",
              "type": "uint8"
            },
            {
              "internalType": "bytes32",
              "name": "merkleRoot",
              "type": "bytes32"
            },
            {
              "internalType": "uint128",
              "name": "startAt",
              "type": "uint128"
            },
            {
              "internalType": "uint128",
              "name": "endAt",
              "type": "uint128"
            },
            {
              "internalType": "uint256",
              "name": "maxTagCap",
              "type": "uint256"
            }
          ],
          "internalType": "struct ISharedInternal.Tag",
          "name": "tag_",
          "type": "tuple"
        }
      ],
      "name": "updateSetTag",
      "outputs": [],
      "stateMutability": "nonpayable",
      "type": "function"
    },
    {
      "inputs": [
        {
          "internalType": "string[]",
          "name": "tagIdentifiers_",
          "type": "string[]"
        },
        {
          "components": [
            {
              "internalType": "enum ISharedInternal.Status",
              "name": "status",
              "type": "uint8"
            },
            {
              "internalType": "bytes32",
              "name": "merkleRoot",
              "type": "bytes32"
            },
            {
              "internalType": "uint128",
              "name": "startAt",
              "type": "uint128"
            },
            {
              "internalType": "uint128",
              "name": "endAt",
              "type": "uint128"
            },
            {
              "internalType": "uint256",
              "name": "maxTagCap",
              "type": "uint256"
            }
          ],
          "internalType": "struct ISharedInternal.Tag[]",
          "name": "tags_",
          "type": "tuple[]"
        }
      ],
      "name": "updateSetTags",
      "outputs": [],
      "stateMutability": "nonpayable",
      "type": "function"
    },
    {
      "inputs": [
        {
          "internalType": "string",
          "name": "tagId",
          "type": "string"
        },
        {
          "internalType": "uint128",
          "name": "endAt",
          "type": "uint128"
        }
      ],
      "name": "updateTagEndDate",
      "outputs": [],
      "stateMutability": "nonpayable",
      "type": "function"
    },
    {
      "inputs": [
        {
          "internalType": "string",
          "name": "tagId",
          "type": "string"
        },
        {
          "internalType": "uint256",
          "name": "maxTagCap",
          "type": "uint256"
        }
      ],
      "name": "updateTagMaxCap",
      "outputs": [],
      "stateMutability": "nonpayable",
      "type": "function"
    },
    {
      "inputs": [
        {
          "internalType": "string",
          "name": "tagId",
          "type": "string"
        },
        {
          "internalType": "bytes32",
          "name": "merkleRoot",
          "type": "bytes32"
        }
      ],
      "name": "updateTagMerkleRoot",
      "outputs": [],
      "stateMutability": "nonpayable",
      "type": "function"
    },
    {
      "inputs": [
        {
          "internalType": "string",
          "name": "tagId",
          "type": "string"
        },
        {
          "internalType": "uint128",
          "name": "startAt",
          "type": "uint128"
        }
      ],
      "name": "updateTagStartDate",
      "outputs": [],
      "stateMutability": "nonpayable",
      "type": "function"
    }
  ],
  "bytecode": "0x60806040523462000027575b6200001562000055565b6040516147dd6200042f82396147dd90f35b62000030600080fd5b6200000b565b6200004662000046620000469290565b90565b62000046600062000036565b6200005f62000077565b620000756200006d62000049565b3390620000ed565b565b62000075620000bd565b62000046600162000036565b90600019905b9181191691161790565b90620000b162000046620000b99262000036565b82546200008d565b9055565b62000075620000cb62000081565b60036200009d565b90620000df9062000046565b600052602052604060002090565b906200010f62000046620001159362000107848262000187565b6002620000d3565b62000266565b50565b62000046906200012e906001600160a01b031682565b6001600160a01b031690565b620000469062000118565b62000046906200013a565b90620000df9062000145565b9060ff9062000093565b151590565b906200017f62000046620000b99262000166565b82546200015c565b906200019c6200019882846200022b565b1590565b620001a5575050565b620001cb6001620001c5836000620001be8785620000d3565b0162000150565b6200016b565b33906200020862000201620002017f2f8788117e7eff1d82e926ec794901d17c78024a50270940304540a733656f0d9562000046565b9262000145565b926200021360405190565b600090a4565b60ff1690565b62000046905462000219565b62000046916000620001be6200024d9362000244600090565b506001620000d3565b6200021f565b620000469081906001600160a01b031681565b90620002a06200029c62000296620002906000620000469662000287600090565b5001946200013a565b62000253565b62000036565b9190565b62000391565b50634e487b7160e01b600052604160045260246000fd5b50634e487b7160e01b600052603260045260246000fd5b620002f7600191620002e4815490565b8410156200030057600052602060002090565b91020190600090565b6200030a620002bd565b600052602060002090565b9160001960089290920291821b911b62000093565b9190620003456200033f620000b99362000046565b62000046565b90835462000315565b906200037a62000075928054906801000000000000000082101562000381575b600182018155620002d4565b906200032a565b6200038b620002a6565b6200036e565b620003a1620001988383620003f6565b15620003db57620003d691620003d0906001620003c884620003c484826200034e565b5490565b9301620000d3565b6200009d565b600190565b5050600090565b620000469081565b620000469054620003e2565b6200041991600162000413926200040b600090565b5001620000d3565b620003ea565b620004296200029c600062000036565b14159056fe60806040526004361015610018575b610016600080fd5b005b60003560e01c806301ffc9a7146102705780630a9254e41461026757806317dcd8e51461025e5780631bcaddc214610255578063248a9ca31461024c5780632f2ff15d1461024357806333e21bec1461023a57806336568abe146102315780635625671e146102285780635a5fdab71461021f5780637518d35c1461021657806376ec9b941461020d57806378e2cd431461020457806379198cb2146101fb5780637eae687e146101f257806383930808146101e9578063852c49a7146101e05780639010d07c146101d7578063907d3085146101ce57806391d14854146101c557806398e3fdc4146101bc578063a217fddf146101b3578063c5c4744c146101aa578063ca15c873146101a1578063d547741f14610198578063db365f841461018f578063e6807afd14610186578063f1efb9311461017d578063faf0c581146101745763ff77d0be0361000e5761016f6110f8565b61000e565b5061016f6110d0565b5061016f611081565b5061016f611059565b5061016f611031565b5061016f610fa1565b5061016f610f77565b5061016f610f4d565b5061016f610f23565b5061016f610edc565b5061016f610eb1565b5061016f610e89565b5061016f610e43565b5061016f610dea565b5061016f610d8a565b5061016f610d02565b5061016f610c03565b5061016f610b7f565b5061016f6109f2565b5061016f610979565b5061016f61079b565b5061016f610773565b5061016f6106b1565b5061016f61067b565b5061016f6105fe565b5061016f610577565b5061016f610533565b5061016f610503565b5061016f610390565b5061016f6102e0565b600080fd5b7fffffffff0000000000000000000000000000000000000000000000000000000081165b0361027957565b905035906102b68261027e565b565b906102cc916020818303126102cf576102a9565b90565b6102d7600080fd5b6102a9565b9052565b5034610313575b61030f6102fd6102f83660046102b8565b6113e9565b60405191829182901515815260200190565b0390f35b61031b600080fd5b6102e7565b600091031261032b57565b6102b6600080fd5b6001600160a01b031690565b909594926102b69461038561038c9261037e60809661036e60a088019c60008901906001600160a01b03169052565b6001600160a01b03166020870152565b6040850152565b6060830152565b0152565b50346103c3575b6103a2366004610320565b61030f6103ad611e78565b916103ba95939560405190565b9586958661033f565b6103cb600080fd5b610397565b806102a2565b905035906102b6826103d0565b908160a09103126103f15790565b6102cc600080fd5b909182601f83011215610438575b602082359267ffffffffffffffff841161042b575b01926020830284011161032b57565b610433600080fd5b61041c565b610440600080fd5b610407565b908160609103126103f15790565b9190916080818403126104f6575b61046b83826103d6565b9261048c81602084013567ffffffffffffffff81116104e9575b84016103e3565b926102cc6104b083604086013567ffffffffffffffff81116104dc575b86016103f9565b93909460608101359067ffffffffffffffff82116104cf575b01610445565b6104d7600080fd5b6104c9565b6104e4600080fd5b6104a9565b6104f1600080fd5b610485565b6104fe600080fd5b610461565b5034610526575b610521610518366004610453565b93929092612618565b604051005b61052e600080fd5b61050a565b503461054d575b610545366004610320565b6105216137e0565b610555600080fd5b61053a565b906102cc91602081830312156103d657610572600080fd5b6103d6565b50346105a4575b61030f61059461058f36600461055a565b6111b2565b6040519182918290815260200190565b6105ac600080fd5b61057e565b6001600160a01b0381166102a2565b905035906102b6826105b1565b91906102cc906040848203126105f1575b6105e881856103d6565b936020016105c0565b6105f9600080fd5b6105de565b5034610619575b6105216106133660046105cd565b906111e8565b610621600080fd5b610605565b50634e487b7160e01b600052602160045260246000fd5b6004111561064757565b6102b6610626565b906102b68261063d565b6102cc9061064f565b6102dc90610659565b6020810192916102b69190610662565b50346106a4575b61068d366004610320565b61030f610698611d3f565b6040519182918261066b565b6106ac600080fd5b610682565b50346106cc575b6105216106c63660046105cd565b906113c3565b6106d4600080fd5b6106b8565b909182601f83011215610715575b602082359267ffffffffffffffff8411610708575b01928284011161032b57565b610710600080fd5b6106fc565b61071d600080fd5b6106e7565b91604083830312610766575b6102cc61074e83853567ffffffffffffffff8111610759575b86016106d9565b9390946020016103d6565b610761600080fd5b610747565b61076e600080fd5b61072e565b503461078e575b610521610788366004610722565b91614237565b610796600080fd5b61077a565b50346107b5575b6107ad366004610320565b6105216137af565b6107bd600080fd5b6107a2565b601f01601f191690565b50634e487b7160e01b600052604160045260246000fd5b90601f01601f1916810190811067ffffffffffffffff82111761080557604052565b61080d6107cc565b604052565b906102b661081f60405190565b92836107e3565b61084560209167ffffffffffffffff811161084957601f01601f191690565b0190565b6107c26107cc565b90826000939282370152565b9291906102b69161087561087083610826565b610812565b94828652602086019183820111156108515761088f600080fd5b610851565b906102cc9181601f820112156108b0575b60208135910161085d565b6108b8600080fd5b6108a5565b906102cc916020818303126108f3575b80359067ffffffffffffffff82116108e6575b01610894565b6108ee600080fd5b6108e0565b6108fb600080fd5b6108cd565b906080806102b69361091a60008201516000860190610662565b61092960208201516020860152565b6040818101516fffffffffffffffffffffffffffffffff16908501526060818101516fffffffffffffffffffffffffffffffff16908501525b0151910152565b60a0810192916102b69190610900565b50346109a2575b61030f6109966109913660046108bd565b611fee565b60405191829182610969565b6109aa600080fd5b610980565b9160c0838303126109e5575b6102cc6109da83853567ffffffffffffffff81116107595786016106d9565b9390946020016103e3565b6109ed600080fd5b6109bb565b5034610a0d575b610521610a073660046109af565b91613e7d565b610a15600080fd5b6109f9565b91909160c081840312610a9e575b610a98610a3560c0610812565b936000610a4282856105c0565b908601526020610a54828286016105c0565b908601526040610a66828286016105c0565b908601526060610a78828286016103d6565b908601526080610a8a828286016103d6565b9086015260a08093016103d6565b90830152565b610aa6600080fd5b610a28565b909182601f83011215610aea575b602082359267ffffffffffffffff8411610add575b019260a0830284011161032b57565b610ae5600080fd5b610ace565b610af2600080fd5b610ab9565b91909161012081840312610b72575b610b1083826105c0565b92610b1e8160208401610a1a565b92610b61610b418360e086013567ffffffffffffffff81116104dc5786016103f9565b9390946101008101359067ffffffffffffffff8211610b65575b01610aab565b9091565b610b6d600080fd5b610b5b565b610b7a600080fd5b610b06565b5034610ba0575b610521610b94366004610af7565b94939093929192612cae565b610ba8600080fd5b610b86565b91604083830312610bf6575b610b61610bd883853567ffffffffffffffff81116104dc5786016103f9565b93909460208101359067ffffffffffffffff8211610b655701610aab565b610bfe600080fd5b610bb9565b5034610c21575b610521610c18366004610bad565b92919091613ea6565b610c29600080fd5b610c0a565b60005b838110610c415750506000910152565b8181015183820152602001610c31565b610c726107c260209361084593610c66815190565b80835293849260200190565b95869101610c2e565b906102cc91610c51565b90610c9b610c91835190565b8083529160200190565b9081610cad6020830284019460200190565b926000915b838310610cc157505050505090565b90919293946020610ce4610cdd83856001950387528951610c7b565b9760200190565b9301930191939290610cb2565b60208082526102cc92910190610c85565b5034610d2b575b610d14366004610320565b61030f610d1f6121a6565b60405191829182610cf1565b610d33600080fd5b610d09565b9190610b6190604084820312610d7d575b610d5381856105c0565b9360208101359067ffffffffffffffff8211610d70575b016106d9565b610d78600080fd5b610d6a565b610d85600080fd5b610d49565b5034610da8575b61030f610594610da2366004610d38565b91611d0a565b610db0600080fd5b610d91565b90610b6191602081830312610ddd575b80359067ffffffffffffffff8211610d7057016106d9565b610de5600080fd5b610dc5565b5034610e05575b610521610dff366004610db5565b90613ee6565b610e0d600080fd5b610df1565b91906102cc90604084820312610e36575b610e2d81856103d6565b936020016103d6565b610e3e600080fd5b610e23565b5034610e7c575b61030f610e61610e5b366004610e12565b906114da565b6040515b918291826001600160a01b03909116815260200190565b610e84600080fd5b610e4a565b5034610ea4575b610521610e9e366004610722565b91613fdf565b610eac600080fd5b610e90565b5034610ecf575b61030f6102fd610ec93660046105cd565b90611179565b610ed7600080fd5b610eb8565b5034610ef7575b610521610ef1366004610db5565b90613f25565b610eff600080fd5b610ee3565b6102cc6102cc6102cc9290565b6102cc6000610f04565b6102cc610f11565b5034610f40575b610f35366004610320565b61030f610594610f1b565b610f48600080fd5b610f2a565b5034610f6a575b610f5f366004610320565b61030f6105946121cf565b610f72600080fd5b610f54565b5034610f94575b61030f610594610f8f36600461055a565b6114fa565b610f9c600080fd5b610f7e565b5034610fbc575b610521610fb63660046105cd565b90611347565b610fc4600080fd5b610fa8565b6fffffffffffffffffffffffffffffffff81166102a2565b905035906102b682610fc9565b91604083830312611024575b6102cc61101983853567ffffffffffffffff81116107595786016106d9565b939094602001610fe1565b61102c600080fd5b610ffa565b503461104c575b610521611046366004610fee565b916141b6565b611054600080fd5b611038565b5034611074575b61052161106e366004610fee565b916140dd565b61107c600080fd5b611060565b503461109b575b61052161109636600461055a565b6138ab565b6110a3600080fd5b611088565b91906102cc906040848203126110c3575b6105e881856105c0565b6110cb600080fd5b6110b9565b50346110eb575b6105216110e53660046110a8565b90613a11565b6110f3600080fd5b6110d7565b5034611115575b61030f6105946111103660046108bd565b611d8b565b61111d600080fd5b6110ff565b905b600052602052604060002090565b6103336102cc6102cc926001600160a01b031690565b6102cc90611132565b6102cc90611148565b9061112490611151565b6102cc905b60ff1690565b6102cc9054611164565b6102cc91600061119661119c9361118e600090565b506001611122565b0161115a565b61116f565b6102cc9081565b6102cc90546111a1565b6102cc906111c260019182611122565b016111a8565b906102b6916111de6111d9826111b2565b6111f2565b906102b691611511565b906102b6916111c8565b6102b690339061129f565b6102cc90610f04565b61084561121e92602092611218815190565b94859290565b93849101610c2e565b6112656102cc939261125f61125f937f416363657373436f6e74726f6c3a206163636f756e7420000000000000000000815260170190565b90611206565b7f206973206d697373696e6720726f6c6520000000000000000000000000000000815260110190565b60208082526102cc92910190610c51565b906112b16112ad8284611179565b1590565b6112b9575050565b611328916102cc6112d56112cf61130f9461192d565b926111fd565b6112ea6020916112e483610f04565b906117a0565b926113036112f760405190565b94859384019283611227565b908103825203826107e3565b6040515b91829162461bcd60e51b83526004830161128e565b0390fd5b906102b69161133d6111d9826111b2565b906102b6916115d7565b906102b69161132c565b1561135857565b60405162461bcd60e51b815260206004820152602f60248201527f416363657373436f6e74726f6c3a2063616e206f6e6c792072656e6f756e636560448201527f20726f6c657320666f722073656c6600000000000000000000000000000000006064820152608490fd5b6102b691906113e46113d433610333565b6001600160a01b03841614611351565b6115d7565b7f5a05180f000000000000000000000000000000000000000000000000000000007fffffffff00000000000000000000000000000000000000000000000000000000821614908115611439575090565b6102cc91507f7965db0b000000000000000000000000000000000000000000000000000000007fffffffff0000000000000000000000000000000000000000000000000000000082161490811561148e575090565b6102cc91507fffffffff00000000000000000000000000000000000000000000000000000000167f01ffc9a7000000000000000000000000000000000000000000000000000000001490565b906114f56102cc6102cc936114ed600090565b506002611122565b611c79565b61150c6102cc6102cc926114ed600090565b611c42565b9061152d6102cc61153293611526848261155f565b6002611122565b61195e565b50565b9060ff905b9181191691161790565b906115546102cc61155b92151590565b8254611535565b9055565b9061156d6112ad8284611179565b611575575050565b61158f600161158a8360006111968785611122565b611544565b33906115c56115bf6115bf7f2f8788117e7eff1d82e926ec794901d17c78024a50270940304540a733656f0d9590565b92611151565b926115cf60405190565b80805b0390a4565b906115ec6102cc6115329361152684826115f1565b611aca565b906115fc8183611179565b611604575050565b611619600061158a8382611196876001611122565b33906115c56115bf6115bf7ff6391f5c32d9c69d2a47ea670b442974b53935d1edc7fd64eb21e047a839171b9590565b50634e487b7160e01b600052601160045260246000fd5b919061166b565b9290565b9180830292818404149015171561167e57565b6102b6611649565b9190820180921161167e57565b906116a061087083610826565b918252565b369037565b906102b66116c06116ba84611693565b93610826565b601f1901602084016116a5565b50634e487b7160e01b600052603260045260246000fd5b9060016020916116f2845190565b811015611700575b02010190565b6117086116cd565b6116fa565b600190801561171a570390565b611722611649565b0390565b6111696102cc6102cc9290565b6102cc9061174b6117476102cc9460ff1690565b9190565b901c90565b1561175757565b60405162461bcd60e51b815280611328600482016020808252818101527f537472696e67733a20686578206c656e67746820696e73756666696369656e74604082015260600190565b91906002906117d16117cc6117bd836117b886610f04565b611660565b6117c685610f04565b90611686565b6116aa565b9160009160306117e96117e385610f04565b866116e4565b5361183d6118347f7800000000000000000000000000000000000000000000000000000000000000926117b86001958695881a61182e61182888610f04565b8b6116e4565b53610f04565b6117c683610f04565b915b611860575b50506102cc929361185a6117476102cc93610f04565b14611750565b909461186b82610f04565b8611156118f7576118e46118de83926118c16118a47f303132333435363738396162636465660000000000000000000000000000000090565b6118ae600f610f04565b831660108110156118ea575b1a60f81b90565b861a6118cd8a896116e4565b536118d86004611726565b90611733565b9661170d565b9161183f565b6118f26116cd565b6118ba565b94611844565b6102cc6102cc6102cc926001600160a01b031690565b6102cc6014611726565b6102cc6102cc6102cc9260ff1690565b61194a6119456102cc9261193f606090565b50611148565b6118fd565b6112e4611955611913565b61191d565b1490565b9061198661174761198161194560006102cc96611979600090565b500194611148565b610f04565b611a54565b6119ab600191611999815490565b8410156119b457600052602060002090565b91020190600090565b6119bc6116cd565b600052602060002090565b9190600861153a9102916119dc600019841b90565b921b90565b91906119f06102cc61155b9390565b9083546119c7565b90611a206102b69280549068010000000000000000821015611a26575b60018201815561198b565b906119e1565b611a2e6107cc565b611a15565b906000199061153a565b90611a4d6102cc61155b92610f04565b8254611a33565b611a616112ad8383611a9a565b15611a9357611a8e91611a89906001611a8284611a7e84826119f8565b5490565b9301611122565b611a3d565b600190565b5050600090565b611ab8916001611ab392611aac600090565b5001611122565b6111a8565b611ac56117476000610f04565b141590565b90611ae561174761198161194560006102cc96611979600090565b611b83565b9190820391821161167e57565b6102cc916008021c81565b906102cc9154611af7565b50634e487b7160e01b600052603160045260246000fd5b6102b6916000916119e1565b6001611b3a825490565b8015611b59575b0390611b56611b50838361198b565b90611b24565b55565b611b61611b0d565b611b41565b91906119f06102cc61155b93610f04565b6102b691600091611b66565b90611b94611ab38260018501611122565b600092611ba084610f04565b8214611bf3576102cc92611bf99492611c0492611bfe6001978893611bcd611bc786610f04565b82611aea565b88850191611beb611bdc845490565b611be589610f04565b90611aea565b828103611c09575b50505090565b611b30565b01611122565b611b77565b611a20611c32611c3a94611c29611c23611a89958961198b565b90611b02565b9283918861198b565b888801611122565b388080611bf3565b611c5860006102cc92611c53600090565b500190565b60006102cc91611c66600090565b50015490565b6103336102cc6102cc9290565b611c9e611c996102cc93611c946000611ca395611c53600090565b611ca8565b6111fd565b611c6c565b611148565b6102cc916000611c2392611cba600090565b500161198b565b90916108459083908093610851565b6116a0906020949361084593611cc1565b9091611cf990611cf060405190565b93849384611cd0565b03902090565b90916102cc92611ce1565b91611ab391611d3a6102cc94611d1e600090565b50600360086000805160206147888339815191525b010161115a565b611cff565b6102cc600060086000805160206147888339815191525b010161116f565b6116a06108459160209493611206565b611cf9611d7960405190565b92839283611d5d565b6102cc91611d6d565b611ab36102cc91611d9a600090565b50600260086000805160206147888339815191525b0101611d82565b6102cc90610333565b6102cc9054611db6565b6102cc60c0610812565b906102b6611e686005611de4611dc9565b94611dfe611df182611dbf565b6001600160a01b03168752565b611e1d611e0d60018301611dbf565b6001600160a01b03166020880152565b611e3c611e2c60028301611dbf565b6001600160a01b03166040880152565b611e52611e4b600383016111a8565b6060880152565b6111c2611e61600483016111a8565b6080880152565b60a0840152565b6102cc90611dd3565b611e8f600080516020614788833981519152611e6f565b80516001600160a01b031691611eaf60208301516001600160a01b031690565b91611ebb606082015190565b916102cc60a0611ecc608085015190565b93015190565b6102cc60a0610812565b611ee4611ed2565b906000825260208080808086016000815201600081520160005b8152016000905250565b6102cc611edc565b906102dc9061064f565b6102cc905b6fffffffffffffffffffffffffffffffff1690565b6102cc9054611f1a565b6102cc9060801c611f1f565b6102cc9054611f3e565b906102b6611fde6003611f65611ed2565b94611f78611f728261116f565b87611f10565b611f8e611f87600183016111a8565b6020880152565b611fb6611f9d60028301611f34565b6fffffffffffffffffffffffffffffffff166040880152565b6111c2611fc560028301611f4a565b6fffffffffffffffffffffffffffffffff166060880152565b6080840152565b6102cc90611f54565b6120166102cc91611ffd611f08565b5060016006600080516020614788833981519152611daf565b611fe5565b6020809167ffffffffffffffff811161203357020190565b61203b6107cc565b020190565b906116a06108708361201b565b50634e487b7160e01b600052602260045260246000fd5b9060016002830492168015612087575b602083101461207f57565b6102b661204d565b91607f1691612074565b805460009392916120ae6120a483612064565b8085529360200190565b916001811690811561210057506001146120c757505050565b6120da9192939450600052602060002090565b916000925b8184106120ec5750500190565b8054848401526020909301926001016120df565b92949550505060ff1916825215156020020190565b906102cc91612091565b906102b66121399261213060405190565b93848092612115565b03836107e3565b6102cc9061211f565b90612152825490565b61215b81612040565b9261216f6020850191600052602060002090565b6000915b8383106121805750505050565b60016020819261218f85612140565b815201920192019190612173565b6102cc90612149565b6102cc7ff8bb2a4b5b30792eb350607495ebe7f79c5a5066287187429654459fae715b2261219d565b6102cc600160086000805160206147888339815191525b01016111a8565b90612202949392916121fd61267b565b612351565b6102b66126ad565b903590601e19368290030182121561224e575b01602081359167ffffffffffffffff8311612241575b019136829003831361032b57565b612249600080fd5b612233565b612256600080fd5b61221d565b356102cc816105b1565b356102cc816103d0565b6102cc91369161085d565b50634e487b7160e01b600052601260045260246000fd5b811561229b570490565b6122a361227a565b0490565b91906107c2816122be816108459560209181520190565b8095610851565b9297969461231d9061230d60a0966123066122f46102b69b9661038c9860c08b01918b830360008d01526122a7565b6001600160a01b03909d166020890152565b6040870152565b6001600160a01b03166060850152565b6080830152565b506040513d6000823e3d90fd5b90916102cc92611cc1565b611cf961234860405190565b92839283612331565b60008051602061478883398151915294909390927ff8bb2a4b5b30792eb350607495ebe7f79c5a5066287187429654459fae715b23612390848061220a565b9061239a92611cff565b6123a390611fe5565b956123ad90611e6f565b608090960151906123bf606088015190565b926123cc6020860161225b565b6123d860408701612265565b6123e2878061220a565b916123ed938b6130b3565b6123f96020860161225b565b6124029061317a565b61240c848861318d565b6124146131fd565b61241e858061220a565b6124279161226f565b6124309061329e565b828761243c878061220a565b6124469391613417565b612450918561364e565b61245a838061220a565b9092906124696020860161225b565b906124749488612f16565b612485670de0b6b3a7640000610f04565b61248f9084611660565b9161249c60808301612265565b90846124af87516001600160a01b031690565b6124b890611151565b6124c190611151565b96816124cd868061220a565b90996124db6020890161225b565b9060208501996124f28b516001600160a01b031690565b986124fc91612291565b9261250960608b01612265565b98823b159d61255960209f9b600097889461256f9e61260b575b6040519a8b998a9889977f37a97db7000000000000000000000000000000000000000000000000000000008952600489016122c5565b03925af180156125fe575b6125e0575b50612db6565b6115d26125d66125d06125ca6125a261259461258b878061220a565b9a90970161225b565b96516001600160a01b031690565b977f24b17f7cc1c323d081ca24ebe682df530605d2207ecdde5a86c1d0bb44a88a6d9561233c565b94611151565b94610f04565b94610e6560405190565b6125f89060006125f081836107e3565b810190610320565b38612569565b612606612324565b612564565b612613600080fd5b612523565b906102b6949392916121ed565b6102cc6002610f04565b1561263657565b60405162461bcd60e51b815260206004820152601f60248201527f5265656e7472616e637947756172643a207265656e7472616e742063616c6c006044820152606490fd5b6102b661268860036111a8565b61269c612693612625565b9182141561262f565b6003611a3d565b6102cc6001610f04565b6102b661269c6126a3565b6102cc9060081c611169565b6102cc90546126b8565b156126d557565b60405162461bcd60e51b815260206004820152602e60248201527f496e697469616c697a61626c653a20636f6e747261637420697320616c72656160448201527f647920696e697469616c697a65640000000000000000000000000000000000006064820152608490fd5b6111696102cc6102cc9260ff1690565b906115546102cc61155b92612740565b9061ff009060081b61153a565b9061277d6102cc61155b92151590565b8254612760565b6102dc90611726565b6020810192916102b69190612784565b9491926127ec939491946127b46112ad60006126c4565b95868061288f575b801561284a575b6127cc906126ce565b600197876127e36127dc8b611726565b6000612750565b61283a576128ad565b6127f35750565b6127fe60008061276d565b6128357f7f26b83ff96e1f2b6a682f133852f6798a09c465da95921460cefb38474024989161282c60405190565b9182918261278d565b0390a1565b61284589600061276d565b6128ad565b5061285f6112ad61285a30611151565b612cbc565b80156127c357506127cc612873600061116f565b6128876128806001611726565b9160ff1690565b1490506127c3565b5061289a600061116f565b6128a76128806001611726565b106127bc565b906102b695949392916128c16111d9610f11565b612b95565b6102cc90611c6c565b156128d657565b60405162461bcd60e51b815260206004820152601f60248201527f49474f5772697461626c655f5f6f776e65725f5a45524f5f41444452455353006044820152606490fd5b1561292257565b60405162461bcd60e51b815260206004820152602960248201527f49474f5772697461626c655f5f76657374696e67436f6e74726163745f5a455260448201527f4f5f4144445245535300000000000000000000000000000000000000000000006064820152608490fd5b1561299457565b60405162461bcd60e51b815260206004820152602660248201527f49474f5772697461626c655f5f7061796d656e74546f6b656e5f5a45524f5f4160448201527f44445245535300000000000000000000000000000000000000000000000000006064820152608490fd5b15612a0657565b60405162461bcd60e51b815260206004820152602160248201527f49474f5772697461626c655f5f7065726d6974325f5a45524f5f41444452455360448201527f53000000000000000000000000000000000000000000000000000000000000006064820152608490fd5b15612a7857565b60405162461bcd60e51b815260206004820152601c60248201527f49474f5772697461626c655f5f6772616e64546f74616c5f5a45524f000000006044820152606490fd5b50634e487b7160e01b600052600060045260246000fd5b906001600160a01b039061153a565b90612af36102cc61155b92611151565b8254612ad4565b6102b69190612b6c9060a090600590612b2481612b1e87516001600160a01b031690565b90612ae3565b612b3f60018201612b1e60208801516001600160a01b031690565b612b5a60028201612b1e60408801516001600160a01b031690565b612b7260038201612b6c606088015190565b90611a3d565b612b8460048201612b6c608088015190565b0192015190565b906102b691612afa565b6102b69594939291612ca991612c94600091612c67612bb3846128c6565b612bd16001600160a01b0382166001600160a01b03851614156128cf565b612c09612be7868801516001600160a01b031690565b612c026001600160a01b0384165b916001600160a01b031690565b141561291b565b612c39612c2060208801516001600160a01b031690565b612c326001600160a01b038416612bf5565b141561298d565b612c60612bf5612c5360408901516001600160a01b031690565b926001600160a01b031690565b14156129ff565b612c87612c75606086015190565b612c8161174786610f04565b11612a71565b612c8f610f11565b611511565b60008051602061478883398151915201612b8b565b61458d565b906102b6959493929161279d565b3b612cca6117476000610f04565b1190565b6102cc6040610812565b612ce0612cce565b906000825260006020830152565b6102cc612cd8565b6102cc6060610812565b612d08612cf6565b90612d11612cee565b82526020808084016000611efe565b6102cc612d00565b80516001600160a01b031682526102b691906020908190610962565b90606060406102b693612d5f60008201516000860190612d28565b610962602082015183860152565b9093916102cc9593612d99612da992612d8f6101008601986000870190612d44565b6080850190612d28565b6001600160a01b031660c0830152565b60e08185039101526122a7565b60408101519192916001600160a01b0316612dd090611151565b612dd8612cee565b50612de1612d20565b50612dea612cee565b5060208201516001600160a01b031691612e02612cce565b6001600160a01b039093168352612e1a856020850152565b612e2660408501612265565b612e3260208601612265565b90612e3b612cf6565b94855260208501526040840152516001600160a01b031693612e5b612cce565b6001600160a01b0390951685526020850152612e7690611151565b33926330f28b7a90612e88908061220a565b949091833b15600096612eb0948894612ebb93612eea575b6040519a8b998a98899760e01b90565b875260048701612d6d565b03925af18015612edd575b612ecd5750565b6102b69060006125f081836107e3565b612ee5612324565b612ec6565b612ef2600080fd5b612ea0565b6102cc6102cc6102cc926fffffffffffffffffffffffffffffffff1690565b90829592918195612f3260008051602061478883398151915290565b9560088701928486600186019383612f49866111a8565b90612f5391611686565b612f5d9086611a3d565b6002870196612f6d83858a611cff565b85612f77826111a8565b90612f8191611686565b612f8a91611a3d565b60030190612f979161115a565b91612fa192611cff565b90612fab826111a8565b90612fb591611686565b612fbe91611a3d565b612fc7906111a8565b14612fe1936117479361166793611ab39361303d57611cff565b1461302b575b61300f61174761300a600261300487876001600642990101611cff565b01611f4a565b612ef7565b1015613019575050565b6102b6916130269161226f565b613075565b613038613026848461226f565b612fe7565b611d3a613055565b906115546102cc61155b92610659565b6102b66002600060086000805160206147888339815191525b0101613045565b6102b690600061309a60029260016006611daf60008051602061478883398151915290565b01613045565b9081526040810192916102b69160200152565b9193611ab3906130dd94611d3a6117c69460036008611d3360008051602061478883398151915290565b8181116130e8575050565b816130f291611aea565b906113286130ff60405190565b9283927fadaa5532000000000000000000000000000000000000000000000000000000008452600484016130a0565b1561313557565b60405162461bcd60e51b815260206004820152601a60248201527f6d73672e73656e6465723a204e4f545f415554484f52495a45440000000000006044820152606490fd5b6102b69061318733612bf5565b1461312e565b6131ac906117c6600160086000805160206147888339815191526121e6565b8181116131b7575050565b816131c191611aea565b906113286131ce60405190565b9283927fcced311a000000000000000000000000000000000000000000000000000000008452600484016130a0565b61321860006008600080516020614788833981519152611d56565b613222600161064f565b61322b8261064f565b036132335750565b6113289061324060405190565b9182917fb293db190000000000000000000000000000000000000000000000000000000083526004830161066b565b6102cc905161064f565b929160206132966102b69360408701908782036000890152610c51565b940190610662565b7ff8bb2a4b5b30792eb350607495ebe7f79c5a5066287187429654459fae715b226132ec612016837ff8bb2a4b5b30792eb350607495ebe7f79c5a5066287187429654459fae715b23611d82565b6132f58161326f565b9160009261330b6133058561064f565b9161064f565b14806133c1575b80613396575b6133825750016133278161326f565b613334613305600161064f565b0361333d575050565b6133469061326f565b9061132861335360405190565b9283927f5f08440f00000000000000000000000000000000000000000000000000000000845260048401613279565b91905061309a6102b6936001809401611d82565b50426133bb61174761300a60608601516fffffffffffffffffffffffffffffffff1690565b10613318565b50426133e661174761300a60408601516fffffffffffffffffffffffffffffffff1690565b1015613312565b61038c61340f6040936102b696989795606085019185830360008701526122a7565b966020830152565b919092613446906117c6611ab386866002600861343f60008051602061478883398151915290565b0101611cff565b8181116134535750505050565b906134618161132893611aea565b9061346b60405190565b9485947f2877ff9e000000000000000000000000000000000000000000000000000000008652600486016133ed565b9035601e1936839003018112156134dd575b016020813591019167ffffffffffffffff82116134d0575b36829003831361032b57565b6134d8600080fd5b6134c4565b6134e5600080fd5b6134ac565b506102cc9060208101906105c0565b506102cc9060208101906103d6565b906102cc90608061358661352e60a08401613523878061349a565b8683038752906122a7565b9461354f61353f60208301836134ea565b6001600160a01b03166020860152565b61356661355f60408301836134f9565b6040860152565b61357d61357660608301836134f9565b6060860152565b828101906134f9565b910152565b60208082526102cc92910190613508565b909291926135ac6108708261201b565b93818552602080860192028301928184116135ea575b915b8383106135d15750505050565b602080916135df84866103d6565b8152019201916135c4565b6135f2600080fd5b6135c2565b6102cc91369161359c565b1561360957565b60405162461bcd60e51b815260206004820152601460248201527f414c4c4f434154494f4e5f4e4f545f464f554e440000000000000000000000006044820152606490fd5b906136c7916136c26102b69461368c60016111c281600661367a60008051602061478883398151915290565b0101613686878061220a565b91611cff565b926136a961369960405190565b809261130360208301918261358b565b6136bb6136b4825190565b9160200190565b20936135f7565b6136cc565b613602565b61166761195a9293611747926136e0600090565b5061370b565b60019060001981146136f6570190565b610845611649565b90602080916116f2845190565b6137156000610f04565b915b6137226102cc835190565b8310156137535761374761374d9161374161373d86866136fe565b5190565b90613759565b926136e6565b91613717565b91505090565b8181101561377457906102cc91600052602052604060002090565b6102cc91600052602052604060002090565b6137916111d9610f11565b6102b68060016000600860008051602061478883398151915261306e565b6102b6613786565b6137c26111d9610f11565b6102b68060036000600860008051602061478883398151915261306e565b6102b66137b7565b6102b6906137f76111d9610f11565b613848565b1561380357565b60405162461bcd60e51b815260206004820152601b60248201527f6772616e64546f74616c5f4c6f7765725468616e5f5f315f30303000000000006044820152606490fd5b6102b69061386261385a6103e8610f04565b8210156137fc565b60036000805160206147888339815191526138a5836138a07ff8bb2a4b5b30792eb350607495ebe7f79c5a5066287187429654459fae715b206111a8565b614739565b01611a3d565b6102b6906137e8565b906102b6916138c46111d9610f11565b61393f565b156138d057565b60405162461bcd60e51b815260206004820152601260248201527f546f6b656e5f5a45524f5f4144445245535300000000000000000000000000006044820152606490fd5b905051906102b6826103d0565b906102cc91602081830312156139155761393a600080fd5b613915565b6102b69161396e600092613969613958610333866128c6565b6001600160a01b03831614156138c9565b611151565b6139bc602061397c83611151565b6370a08231906139a561398e30611151565b9261399860405190565b9586948593849360e01b90565b83526001600160a01b031660048301526024820190565b03915afa938415613a04575b936139d4575b50613a76565b6139f691935060203d81116139fd575b6139ee81836107e3565b810190613922565b91386139ce565b503d6139e4565b613a0c612324565b6139c8565b906102b6916138b4565b613a34613a2e6102cc9263ffffffff1690565b60e01b90565b7fffffffff000000000000000000000000000000000000000000000000000000001690565b6001600160a01b0390911681526040810192916102b69160200152565b613ab9600492613aaa6102b695613a9063a9059cbb613a1b565b92613a9a60405190565b9687946020860190815201613a59565b602082018103825203836107e3565b613b9d565b613ac86020611693565b7f5361666545524332303a206c6f772d6c6576656c2063616c6c206661696c6564602082015290565b6102cc613abe565b8015156102a2565b905051906102b682613af9565b906102cc9160208183031215613b0157613b26600080fd5b613b01565b15613b3257565b60405162461bcd60e51b815260206004820152602a60248201527f5361666545524332303a204552433230206f7065726174696f6e20646964206e60448201527f6f742073756363656564000000000000000000000000000000000000000000006064820152608490fd5b6102b691613bad613bbc92611151565b90613bb6613af1565b91613bfa565b8051613bcb6117476000610f04565b14908115613bda575b50613b2b565b613bf491506020613be9825190565b818301019101613b0e565b38613bd4565b6102cc9291613c096000610f04565b91613ca0565b15613c1657565b60405162461bcd60e51b815260206004820152602660248201527f416464726573733a20696e73756666696369656e742062616c616e636520666f60448201527f722063616c6c00000000000000000000000000000000000000000000000000006064820152608490fd5b3d15613c9b57613c903d611693565b903d6000602084013e565b606090565b9060006102cc94938192613cb2606090565b50613cc9613cbf30611151565b8390311015613c0f565b60208101905191855af1613cdb613c81565b91613d2d565b15613ce857565b60405162461bcd60e51b815260206004820152601d60248201527f416464726573733a2063616c6c20746f206e6f6e2d636f6e74726163740000006044820152606490fd5b919260609115613d625750508151613d486117476000610f04565b14613d51575090565b613d5d6102cc91612cbc565b613ce1565b8351919493925090613d776117476000610f04565b1115613d865750805190602001fd5b6113289061131360405190565b906102b69291613da46111d9610f11565b613df5565b15613db057565b60405162461bcd60e51b815260206004820152600960248201527f454d5054595f54414700000000000000000000000000000000000000000000006044820152606490fd5b6102b69260008051602061478883398151915292612b6c9290916000613e3f61201685857ff8bb2a4b5b30792eb350607495ebe7f79c5a5066287187429654459fae715b23611cff565b95613e51613e4c846146a8565b613da9565b016004613e60600383016111a8565b910195613e776080613e71896111a8565b92015190565b91614465565b906102b69291613d93565b906102b6939291613e9a6111d9610f11565b906102b693929161458d565b906102b6939291613e88565b906102b691613ec26111d9610f11565b600061309a6102b69360019384600661343f60008051602061478883398151915290565b906102b691613eb2565b906102b691613f006111d9610f11565b600061309a6102b6936003936001600661343f60008051602061478883398151915290565b906102b691613ef0565b906102b69291613f406111d9610f11565b613f9f565b15613f4c57565b60405162461bcd60e51b815260206004820152601060248201527f4d65726b6c65526f6f745f454d505459000000000000000000000000000000006044820152606490fd5b90611a4d6102cc61155b9290565b613fd96102b69392600192613fc2613fba6102cc6000610f04565b861415613f45565b83600660008051602061478883398151915261343f565b01613f91565b906102b69291613f2f565b906102b69291613ffb6111d9610f11565b61409a565b1561400757565b60405162461bcd60e51b815260206004820152600d60248201527f53544152545f494e5f50415354000000000000000000000000000000000000006044820152606490fd5b906fffffffffffffffffffffffffffffffff9061153a565b611f1f6102cc6102cc926fffffffffffffffffffffffffffffffff1690565b906140936102cc61155b92614064565b825461404c565b6140d76102b693926002926140bf6140af4290565b6140b887612ef7565b1015614000565b6001600660008051602061478883398151915261343f565b01614083565b906102b69291613fea565b906102b692916140f96111d9610f11565b61418c565b1561410557565b60405162461bcd60e51b815260206004820152600b60248201527f454e445f494e5f504153540000000000000000000000000000000000000000006044820152606490fd5b907fffffffffffffffffffffffffffffffff000000000000000000000000000000009060801b61153a565b906141856102cc61155b92614064565b825461414a565b6141b06102b693926002926140bf6141a14290565b6141aa87612ef7565b116140fe565b01614175565b906102b692916140e8565b906102b692916141d26111d9610f11565b6138a56102b693926003926141f260008051602061478883398151915290565b611d3a6141fe82611e6f565b6142316060613e718a61422c60016006614219608089015190565b99010197611be58d6111c28d8d8d611cff565b611686565b90614739565b906102b692916141c1565b81811061424d575050565b8061425b6000600193611b77565b01614242565b9190601f811161427057505050565b6142826102b693600052602060002090565b906020601f8401819004830193106142a4575b6020601f909101040190614242565b9091508190614295565b919067ffffffffffffffff8211614379575b6142d4826142ce8554612064565b85614261565b600090601f831160011461430f5761155b929160009183614304575b5050600019600883021c1916906002021790565b0135905038806142f0565b601f1983169161432485600052602060002090565b92815b81811061436157509160029391856001969410614348575b50505002019055565b0135600019601f84166008021c1916905538808061433f565b91936020600181928787013581550195019201614327565b6143816107cc565b6142c0565b6102b6939291156142ae57614399612abd565b6142ae565b906143c66102b6939280549068010000000000000000821015611a265760018201815561198b565b90614386565b6004111561027957565b356102cc816143cc565b356102cc81610fc9565b6102b69190612b6c9060809060039061440c81614406876143d6565b90613045565b6144256001820161441f60208801612265565b90613f91565b6144536002820161444161443b604089016143e0565b82614083565b61444d606088016143e0565b90614175565b019201612265565b906102b6916143ea565b9490938261449b6144946144886144ce966102cc99614482600090565b50611aea565b6117c660808901612265565b9788614739565b82826000926144ac61174785610f04565b146144d3575b5050506001600661343f60008051602061478883398151915290565b61445b565b6144f66144fb9360066144f160008051602061478883398151915290565b010190565b61439e565b3882826144b2565b1561450a57565b60405162461bcd60e51b815260206004820152601f60248201527f49474f5772697461626c653a207461677320617272617973206c656e677468006044820152606490fd5b90610b6192602091811015614568575b0281019061220a565b6145706116cd565b61455f565b9160a09181101561458557020190565b61203b6116cd565b9093919290849361459f838614614503565b7ff8bb2a4b5b30792eb350607495ebe7f79c5a5066287187429654459fae715b22956000805160206147888339815191529360046145fc7ff8bb2a4b5b30792eb350607495ebe7f79c5a5066287187429654459fae715b1f6111a8565b950195614608876111a8565b96614611611f08565b506000975b895b8910156146945761468c614686614618928a8a8f61467e8f8c6146788f948e61467260808861466d613e4c6146688a878f612016614662916136868f869e9060018892019361454f565b95614575565b6146a8565b015190565b96614575565b9461454f565b949093614465565b996136e6565b989050614616565b975095509750505050506102b69250611a3d565b6146b460208201612265565b6000906146c66117476102cc84610f04565b1415918261471a575b826146fa575b826146df57505090565b612cca9192506146f460806117479201612265565b92610f04565b9150614708606083016143e0565b614713425b91612ef7565b11916146d5565b9150614728604083016143e0565b6147314261470d565b1015916146cf565b818111614744575050565b6113289161475191611aea565b6040519182917f2e2a5854000000000000000000000000000000000000000000000000000000008352600483019081526020019056fef8bb2a4b5b30792eb350607495ebe7f79c5a5066287187429654459fae715b1ca264697066735822122064c3b29a807de6b6c4873f0678656f2a36f77f56873b5e5c09b7d80b146979e064736f6c63430008110033",
  "linkReferences": {},
  "deployedLinkReferences": {}
}