{
  "_format": "hh-sol-artifact-1",
  "contractName": "IGO",
  "sourceName": "contracts/IGO.sol",
  "abi": [
    {
      "inputs": [
        {
          "internalType": "address",
          "name": "owner",
          "type": "address"
        }
      ],
      "stateMutability": "nonpayable",
      "type": "constructor"
    },
    {
      "inputs": [
        {
          "internalType": "enum ISharedInternal.Status",
          "name": "current",
          "type": "uint8"
        }
      ],
      "name": "IGOWritableInternal_IGONotOpened",
      "type": "error"
    },
    {
      "inputs": [
        {
          "internalType": "string",
          "name": "tagId",
          "type": "string"
        },
        {
          "internalType": "enum ISharedInternal.Status",
          "name": "current",
          "type": "uint8"
        }
      ],
      "name": "IGOWritableInternal_TagNotOpened",
      "type": "error"
    },
    {
      "inputs": [
        {
          "internalType": "uint256",
          "name": "allocation",
          "type": "uint256"
        },
        {
          "internalType": "uint256",
          "name": "exceedsBy",
          "type": "uint256"
        }
      ],
      "name": "IGOWritable_AllocationExceeded",
      "type": "error"
    },
    {
      "inputs": [
        {
          "internalType": "uint256",
          "name": "grandTotal",
          "type": "uint256"
        },
        {
          "internalType": "uint256",
          "name": "exceedsBy",
          "type": "uint256"
        }
      ],
      "name": "IGOWritable_GrandTotalExceeded",
      "type": "error"
    },
    {
      "inputs": [
        {
          "internalType": "string",
          "name": "tagId",
          "type": "string"
        },
        {
          "internalType": "uint256",
          "name": "maxParticipants",
          "type": "uint256"
        }
      ],
      "name": "IGOWritable_MaxParticipantsExceeded",
      "type": "error"
    },
    {
      "inputs": [
        {
          "internalType": "string",
          "name": "tagId",
          "type": "string"
        },
        {
          "internalType": "uint256",
          "name": "maxTagCap",
          "type": "uint256"
        },
        {
          "internalType": "uint256",
          "name": "exceedsBy",
          "type": "uint256"
        }
      ],
      "name": "IGOWritable_MaxTagCapExceeded",
      "type": "error"
    },
    {
      "inputs": [],
      "name": "IGOWritable_NoPaymentTokenUpdate",
      "type": "error"
    },
    {
      "inputs": [],
      "name": "IGOWritable_ProjectTokenPrice_ZERO",
      "type": "error"
    },
    {
      "inputs": [
        {
          "internalType": "uint256",
          "name": "greaterBy",
          "type": "uint256"
        }
      ],
      "name": "IGOWritable_SummedMaxTagCapGtGrandTotal",
      "type": "error"
    },
    {
      "anonymous": false,
      "inputs": [
        {
          "indexed": true,
          "internalType": "string",
          "name": "tagId",
          "type": "string"
        },
        {
          "indexed": true,
          "internalType": "address",
          "name": "buyer",
          "type": "address"
        },
        {
          "indexed": true,
          "internalType": "uint256",
          "name": "maxAllocation",
          "type": "uint256"
        },
        {
          "indexed": false,
          "internalType": "address",
          "name": "paymentToken",
          "type": "address"
        }
      ],
      "name": "AllocationReserved",
      "type": "event"
    },
    {
      "anonymous": false,
      "inputs": [
        {
          "indexed": false,
          "internalType": "uint8",
          "name": "version",
          "type": "uint8"
        }
      ],
      "name": "Initialized",
      "type": "event"
    },
    {
      "anonymous": false,
      "inputs": [
        {
          "indexed": true,
          "internalType": "bytes32",
          "name": "role",
          "type": "bytes32"
        },
        {
          "indexed": true,
          "internalType": "bytes32",
          "name": "previousAdminRole",
          "type": "bytes32"
        },
        {
          "indexed": true,
          "internalType": "bytes32",
          "name": "newAdminRole",
          "type": "bytes32"
        }
      ],
      "name": "RoleAdminChanged",
      "type": "event"
    },
    {
      "anonymous": false,
      "inputs": [
        {
          "indexed": true,
          "internalType": "bytes32",
          "name": "role",
          "type": "bytes32"
        },
        {
          "indexed": true,
          "internalType": "address",
          "name": "account",
          "type": "address"
        },
        {
          "indexed": true,
          "internalType": "address",
          "name": "sender",
          "type": "address"
        }
      ],
      "name": "RoleGranted",
      "type": "event"
    },
    {
      "anonymous": false,
      "inputs": [
        {
          "indexed": true,
          "internalType": "bytes32",
          "name": "role",
          "type": "bytes32"
        },
        {
          "indexed": true,
          "internalType": "address",
          "name": "account",
          "type": "address"
        },
        {
          "indexed": true,
          "internalType": "address",
          "name": "sender",
          "type": "address"
        }
      ],
      "name": "RoleRevoked",
      "type": "event"
    },
    {
      "inputs": [],
      "name": "DEFAULT_ADMIN_ROLE",
      "outputs": [
        {
          "internalType": "bytes32",
          "name": "",
          "type": "bytes32"
        }
      ],
      "stateMutability": "view",
      "type": "function"
    },
    {
      "inputs": [
        {
          "internalType": "address",
          "name": "account",
          "type": "address"
        },
        {
          "internalType": "string",
          "name": "tagId",
          "type": "string"
        }
      ],
      "name": "allocationReservedByIn",
      "outputs": [
        {
          "internalType": "uint256",
          "name": "",
          "type": "uint256"
        }
      ],
      "stateMutability": "view",
      "type": "function"
    },
    {
      "inputs": [
        {
          "internalType": "bytes32",
          "name": "role",
          "type": "bytes32"
        }
      ],
      "name": "getRoleAdmin",
      "outputs": [
        {
          "internalType": "bytes32",
          "name": "",
          "type": "bytes32"
        }
      ],
      "stateMutability": "view",
      "type": "function"
    },
    {
      "inputs": [
        {
          "internalType": "bytes32",
          "name": "role",
          "type": "bytes32"
        },
        {
          "internalType": "uint256",
          "name": "index",
          "type": "uint256"
        }
      ],
      "name": "getRoleMember",
      "outputs": [
        {
          "internalType": "address",
          "name": "",
          "type": "address"
        }
      ],
      "stateMutability": "view",
      "type": "function"
    },
    {
      "inputs": [
        {
          "internalType": "bytes32",
          "name": "role",
          "type": "bytes32"
        }
      ],
      "name": "getRoleMemberCount",
      "outputs": [
        {
          "internalType": "uint256",
          "name": "",
          "type": "uint256"
        }
      ],
      "stateMutability": "view",
      "type": "function"
    },
    {
      "inputs": [
        {
          "internalType": "bytes32",
          "name": "role",
          "type": "bytes32"
        },
        {
          "internalType": "address",
          "name": "account",
          "type": "address"
        }
      ],
      "name": "grantRole",
      "outputs": [],
      "stateMutability": "nonpayable",
      "type": "function"
    },
    {
      "inputs": [
        {
          "internalType": "bytes32",
          "name": "role",
          "type": "bytes32"
        },
        {
          "internalType": "address",
          "name": "account",
          "type": "address"
        }
      ],
      "name": "hasRole",
      "outputs": [
        {
          "internalType": "bool",
          "name": "",
          "type": "bool"
        }
      ],
      "stateMutability": "view",
      "type": "function"
    },
    {
      "inputs": [],
      "name": "igoStatus",
      "outputs": [
        {
          "internalType": "enum ISharedInternal.Status",
          "name": "",
          "type": "uint8"
        }
      ],
      "stateMutability": "view",
      "type": "function"
    },
    {
      "inputs": [
        {
          "internalType": "address",
          "name": "owner",
          "type": "address"
        },
        {
          "components": [
            {
              "internalType": "address",
              "name": "vestingContract",
              "type": "address"
            },
            {
              "internalType": "address",
              "name": "paymentToken",
              "type": "address"
            },
            {
              "internalType": "uint256",
              "name": "grandTotal",
              "type": "uint256"
            },
            {
              "internalType": "uint256",
              "name": "summedMaxTagCap",
              "type": "uint256"
            },
            {
              "internalType": "uint256",
              "name": "refundFeeDecimals",
              "type": "uint256"
            }
          ],
          "internalType": "struct IGOStorage.SetUp",
          "name": "setUp",
          "type": "tuple"
        },
        {
          "internalType": "string[]",
          "name": "tagIds_",
          "type": "string[]"
        },
        {
          "components": [
            {
              "internalType": "enum ISharedInternal.Status",
              "name": "status",
              "type": "uint8"
            },
            {
              "internalType": "bytes32",
              "name": "merkleRoot",
              "type": "bytes32"
            },
            {
              "internalType": "uint128",
              "name": "startAt",
              "type": "uint128"
            },
            {
              "internalType": "uint128",
              "name": "endAt",
              "type": "uint128"
            },
            {
              "internalType": "uint256",
              "name": "maxTagCap",
              "type": "uint256"
            },
            {
              "internalType": "uint256",
              "name": "minAllocation",
              "type": "uint256"
            },
            {
              "internalType": "uint256",
              "name": "maxAllocation",
              "type": "uint256"
            },
            {
              "internalType": "uint256",
              "name": "allocation",
              "type": "uint256"
            },
            {
              "internalType": "uint256",
              "name": "maxParticipants",
              "type": "uint256"
            }
          ],
          "internalType": "struct ISharedInternal.Tag[]",
          "name": "tags",
          "type": "tuple[]"
        }
      ],
      "name": "initialize",
      "outputs": [],
      "stateMutability": "nonpayable",
      "type": "function"
    },
    {
      "inputs": [
        {
          "internalType": "string",
          "name": "tagId",
          "type": "string"
        },
        {
          "internalType": "address",
          "name": "account",
          "type": "address"
        }
      ],
      "name": "investment",
      "outputs": [
        {
          "internalType": "uint256",
          "name": "amount",
          "type": "uint256"
        }
      ],
      "stateMutability": "view",
      "type": "function"
    },
    {
      "inputs": [],
      "name": "openIGO",
      "outputs": [],
      "stateMutability": "nonpayable",
      "type": "function"
    },
    {
      "inputs": [
        {
          "internalType": "string",
          "name": "tagId",
          "type": "string"
        }
      ],
      "name": "openTag",
      "outputs": [],
      "stateMutability": "nonpayable",
      "type": "function"
    },
    {
      "inputs": [
        {
          "internalType": "string",
          "name": "tagId",
          "type": "string"
        }
      ],
      "name": "participants",
      "outputs": [
        {
          "internalType": "uint256",
          "name": "count",
          "type": "uint256"
        }
      ],
      "stateMutability": "view",
      "type": "function"
    },
    {
      "inputs": [],
      "name": "pauseIGO",
      "outputs": [],
      "stateMutability": "nonpayable",
      "type": "function"
    },
    {
      "inputs": [
        {
          "internalType": "string",
          "name": "tagId",
          "type": "string"
        }
      ],
      "name": "pauseTag",
      "outputs": [],
      "stateMutability": "nonpayable",
      "type": "function"
    },
    {
      "inputs": [
        {
          "internalType": "string",
          "name": "tagId",
          "type": "string"
        }
      ],
      "name": "raisedInTag",
      "outputs": [
        {
          "internalType": "uint256",
          "name": "",
          "type": "uint256"
        }
      ],
      "stateMutability": "view",
      "type": "function"
    },
    {
      "inputs": [
        {
          "internalType": "address",
          "name": "token",
          "type": "address"
        },
        {
          "internalType": "address",
          "name": "to",
          "type": "address"
        }
      ],
      "name": "recoverLostERC20",
      "outputs": [],
      "stateMutability": "nonpayable",
      "type": "function"
    },
    {
      "inputs": [
        {
          "internalType": "bytes32",
          "name": "role",
          "type": "bytes32"
        },
        {
          "internalType": "address",
          "name": "account",
          "type": "address"
        }
      ],
      "name": "renounceRole",
      "outputs": [],
      "stateMutability": "nonpayable",
      "type": "function"
    },
    {
      "inputs": [
        {
          "internalType": "uint256",
          "name": "amount",
          "type": "uint256"
        },
        {
          "components": [
            {
              "internalType": "string",
              "name": "tagId",
              "type": "string"
            },
            {
              "internalType": "address",
              "name": "account",
              "type": "address"
            },
            {
              "internalType": "uint256",
              "name": "maxAllocation",
              "type": "uint256"
            },
            {
              "internalType": "uint256",
              "name": "refundFee",
              "type": "uint256"
            },
            {
              "internalType": "uint256",
              "name": "igoTokenPerPaymentToken",
              "type": "uint256"
            }
          ],
          "internalType": "struct IIGOWritableInternal.Allocation",
          "name": "allocation",
          "type": "tuple"
        },
        {
          "internalType": "bytes32[]",
          "name": "proof",
          "type": "bytes32[]"
        }
      ],
      "name": "reserveAllocation",
      "outputs": [],
      "stateMutability": "nonpayable",
      "type": "function"
    },
    {
      "inputs": [
        {
          "internalType": "bytes32",
          "name": "role",
          "type": "bytes32"
        },
        {
          "internalType": "address",
          "name": "account",
          "type": "address"
        }
      ],
      "name": "revokeRole",
      "outputs": [],
      "stateMutability": "nonpayable",
      "type": "function"
    },
    {
      "inputs": [],
      "name": "setUp",
      "outputs": [
        {
          "internalType": "address",
          "name": "vestingContract",
          "type": "address"
        },
        {
          "internalType": "address",
          "name": "paymentToken",
          "type": "address"
        },
        {
          "internalType": "uint256",
          "name": "grandTotal",
          "type": "uint256"
        },
        {
          "internalType": "uint256",
          "name": "summedMaxTagCap",
          "type": "uint256"
        },
        {
          "internalType": "uint256",
          "name": "refundFeeDecimals",
          "type": "uint256"
        }
      ],
      "stateMutability": "view",
      "type": "function"
    },
    {
      "inputs": [
        {
          "internalType": "bytes4",
          "name": "interfaceId",
          "type": "bytes4"
        }
      ],
      "name": "supportsInterface",
      "outputs": [
        {
          "internalType": "bool",
          "name": "",
          "type": "bool"
        }
      ],
      "stateMutability": "view",
      "type": "function"
    },
    {
      "inputs": [
        {
          "internalType": "string",
          "name": "tagId",
          "type": "string"
        }
      ],
      "name": "tag",
      "outputs": [
        {
          "components": [
            {
              "internalType": "enum ISharedInternal.Status",
              "name": "status",
              "type": "uint8"
            },
            {
              "internalType": "bytes32",
              "name": "merkleRoot",
              "type": "bytes32"
            },
            {
              "internalType": "uint128",
              "name": "startAt",
              "type": "uint128"
            },
            {
              "internalType": "uint128",
              "name": "endAt",
              "type": "uint128"
            },
            {
              "internalType": "uint256",
              "name": "maxTagCap",
              "type": "uint256"
            },
            {
              "internalType": "uint256",
              "name": "minAllocation",
              "type": "uint256"
            },
            {
              "internalType": "uint256",
              "name": "maxAllocation",
              "type": "uint256"
            },
            {
              "internalType": "uint256",
              "name": "allocation",
              "type": "uint256"
            },
            {
              "internalType": "uint256",
              "name": "maxParticipants",
              "type": "uint256"
            }
          ],
          "internalType": "struct ISharedInternal.Tag",
          "name": "tag_",
          "type": "tuple"
        }
      ],
      "stateMutability": "view",
      "type": "function"
    },
    {
      "inputs": [],
      "name": "tagIds",
      "outputs": [
        {
          "internalType": "string[]",
          "name": "tagIds_",
          "type": "string[]"
        }
      ],
      "stateMutability": "view",
      "type": "function"
    },
    {
      "inputs": [],
      "name": "totalRaised",
      "outputs": [
        {
          "internalType": "uint256",
          "name": "",
          "type": "uint256"
        }
      ],
      "stateMutability": "view",
      "type": "function"
    },
    {
      "inputs": [
        {
          "internalType": "uint256",
          "name": "grandTotal_",
          "type": "uint256"
        }
      ],
      "name": "updateGrandTotal",
      "outputs": [],
      "stateMutability": "nonpayable",
      "type": "function"
    },
    {
      "inputs": [
        {
          "internalType": "string",
          "name": "tagId_",
          "type": "string"
        },
        {
          "components": [
            {
              "internalType": "enum ISharedInternal.Status",
              "name": "status",
              "type": "uint8"
            },
            {
              "internalType": "bytes32",
              "name": "merkleRoot",
              "type": "bytes32"
            },
            {
              "internalType": "uint128",
              "name": "startAt",
              "type": "uint128"
            },
            {
              "internalType": "uint128",
              "name": "endAt",
              "type": "uint128"
            },
            {
              "internalType": "uint256",
              "name": "maxTagCap",
              "type": "uint256"
            },
            {
              "internalType": "uint256",
              "name": "minAllocation",
              "type": "uint256"
            },
            {
              "internalType": "uint256",
              "name": "maxAllocation",
              "type": "uint256"
            },
            {
              "internalType": "uint256",
              "name": "allocation",
              "type": "uint256"
            },
            {
              "internalType": "uint256",
              "name": "maxParticipants",
              "type": "uint256"
            }
          ],
          "internalType": "struct ISharedInternal.Tag",
          "name": "tag_",
          "type": "tuple"
        }
      ],
      "name": "updateSetTag",
      "outputs": [],
      "stateMutability": "nonpayable",
      "type": "function"
    },
    {
      "inputs": [
        {
          "internalType": "string[]",
          "name": "tagIdentifiers_",
          "type": "string[]"
        },
        {
          "components": [
            {
              "internalType": "enum ISharedInternal.Status",
              "name": "status",
              "type": "uint8"
            },
            {
              "internalType": "bytes32",
              "name": "merkleRoot",
              "type": "bytes32"
            },
            {
              "internalType": "uint128",
              "name": "startAt",
              "type": "uint128"
            },
            {
              "internalType": "uint128",
              "name": "endAt",
              "type": "uint128"
            },
            {
              "internalType": "uint256",
              "name": "maxTagCap",
              "type": "uint256"
            },
            {
              "internalType": "uint256",
              "name": "minAllocation",
              "type": "uint256"
            },
            {
              "internalType": "uint256",
              "name": "maxAllocation",
              "type": "uint256"
            },
            {
              "internalType": "uint256",
              "name": "allocation",
              "type": "uint256"
            },
            {
              "internalType": "uint256",
              "name": "maxParticipants",
              "type": "uint256"
            }
          ],
          "internalType": "struct ISharedInternal.Tag[]",
          "name": "tags_",
          "type": "tuple[]"
        }
      ],
      "name": "updateSetTags",
      "outputs": [],
      "stateMutability": "nonpayable",
      "type": "function"
    },
    {
      "inputs": [
        {
          "internalType": "string",
          "name": "tagId",
          "type": "string"
        },
        {
          "internalType": "uint128",
          "name": "endAt",
          "type": "uint128"
        }
      ],
      "name": "updateTagEndDate",
      "outputs": [],
      "stateMutability": "nonpayable",
      "type": "function"
    },
    {
      "inputs": [
        {
          "internalType": "string",
          "name": "tagId",
          "type": "string"
        },
        {
          "internalType": "uint256",
          "name": "maxTagCap",
          "type": "uint256"
        }
      ],
      "name": "updateTagMaxCap",
      "outputs": [],
      "stateMutability": "nonpayable",
      "type": "function"
    },
    {
      "inputs": [
        {
          "internalType": "string",
          "name": "tagId",
          "type": "string"
        },
        {
          "internalType": "bytes32",
          "name": "merkleRoot",
          "type": "bytes32"
        }
      ],
      "name": "updateTagMerkleRoot",
      "outputs": [],
      "stateMutability": "nonpayable",
      "type": "function"
    },
    {
      "inputs": [
        {
          "internalType": "string",
          "name": "tagId",
          "type": "string"
        },
        {
          "internalType": "uint128",
          "name": "startAt",
          "type": "uint128"
        }
      ],
      "name": "updateTagStartDate",
      "outputs": [],
      "stateMutability": "nonpayable",
      "type": "function"
    }
  ],
  "bytecode": "0x608034620000ec57601f62004bd138819003918201601f1916830192916001600160401b03841183851017620000f15780839260409586528339602092839181010312620000ec57516001600160a01b03811690819003620000ec578262000093926001600355600260009182805260018152838320858452815260ff848420541615620000a2575b828052522062000107565b5051614a3c9081620001958239f35b828052600181528383208584528152838320600160ff198254161790553385847f2f8788117e7eff1d82e926ec794901d17c78024a50270940304540a733656f0d8180a462000088565b600080fd5b634e487b7160e01b600052604160045260246000fd5b919060018301600090828252806020526040822054156000146200018e57845494680100000000000000008610156200017a57600186018082558610156200016657836040949596828552602085200155549382526020522055600190565b634e487b7160e01b83526032600452602483fd5b634e487b7160e01b83526041600452602483fd5b5092505056fe608080604052600436101561001357600080fd5b600090813560e01c90816301ffc9a714613025575080630917e7a014612b2e5780630a9254e414612aa75780631bcaddc214612a23578063248a9ca3146129d95780632f2ff15d146128cf57806333e21bec1461286a57806336568abe146127855780635625671e146126e95780635a5fdab7146126655780635b4b22ae146125dd5780637518d35c1461247257806375b2e5a614611db65780637eae687e14611bd35780638393080814611b68578063852c49a714611ae95780638f77ef3114611a645780638fea4e7a14610c055780639010d07c14610b95578063907d308514610ac457806391d1485414610a4c57806398e3fdc4146109bf578063a217fddf14610985578063adb680bf146108ba578063c5c4744c1461085f578063ca15c87314610817578063d547741f146107bb578063db365f84146106d7578063e6807afd1461060c578063f1efb9311461051a578063faf0c5811461021e5763ff77d0be1461018157600080fd5b3461021b5760207ffffffffffffffffffffffffffffffffffffffffffffffffffffffffffffffffc36011261021b576004359067ffffffffffffffff821161021b5760206101e9816101d636600487016132b6565b8160405193828580945193849201613337565b81017ff8bb2a4b5b30792eb350607495ebe7f79c5a5066287187429654459fae715b2581520301902054604051908152f35b80fd5b503461021b5760407ffffffffffffffffffffffffffffffffffffffffffffffffffffffffffffffffc36011261021b5761025661316c565b61025e613149565b610266613407565b73ffffffffffffffffffffffffffffffffffffffff8092169182156104bc57604051927f70a082310000000000000000000000000000000000000000000000000000000084523060048501526020938481602481855afa9081156104b1578691610480575b5060405192858401947fa9059cbb000000000000000000000000000000000000000000000000000000008652166024840152604483015260448252608082019167ffffffffffffffff818410818511176104515760c0820190811184821017610451576040528483527f5361666545524332303a206c6f772d6c6576656c2063616c6c206661696c656460a082015251610393938691829182855af13d15610449573d9161037883613245565b926103866040519485613204565b83523d878785013e614308565b805190828215928315610431575b505050156103ad575080f35b608490604051907f08c379a00000000000000000000000000000000000000000000000000000000082526004820152602a60248201527f5361666545524332303a204552433230206f7065726174696f6e20646964206e60448201527f6f742073756363656564000000000000000000000000000000000000000000006064820152fd5b61044193508201810191016140ae565b3882816103a1565b606091614308565b7f4e487b7100000000000000000000000000000000000000000000000000000000600052604160045260246000fd5b90508481813d83116104aa575b6104978183613204565b810103126104a65751386102cb565b8580fd5b503d61048d565b6040513d88823e3d90fd5b60646040517f08c379a000000000000000000000000000000000000000000000000000000000815260206004820152601260248201527f546f6b656e5f5a45524f5f4144445245535300000000000000000000000000006044820152fd5b503461021b5760207ffffffffffffffffffffffffffffffffffffffffffffffffffffffffffffffffc36011261021b57600435610555613407565b6103e881106105ae57610589817ff8bb2a4b5b30792eb350607495ebe7f79c5a5066287187429654459fae715b1f546149c1565b7ff8bb2a4b5b30792eb350607495ebe7f79c5a5066287187429654459fae715b1e5580f35b60646040517f08c379a000000000000000000000000000000000000000000000000000000000815260206004820152601b60248201527f6772616e64546f74616c5f4c6f7765725468616e5f5f315f30303000000000006044820152fd5b503461021b576fffffffffffffffffffffffffffffffff61062c3661339d565b61063893919293613407565b16914283106106795760029161064d91613d16565b01907fffffffffffffffffffffffffffffffff0000000000000000000000000000000082541617905580f35b60646040517f08c379a000000000000000000000000000000000000000000000000000000000815260206004820152600d60248201527f53544152545f494e5f50415354000000000000000000000000000000000000006044820152fd5b503461021b576106e63661339d565b906106ef613407565b426fffffffffffffffffffffffffffffffff8316111561075d5761071860029161075a94613d16565b01906fffffffffffffffffffffffffffffffff7fffffffffffffffffffffffffffffffff0000000000000000000000000000000083549260801b169116179055565b80f35b60646040517f08c379a000000000000000000000000000000000000000000000000000000000815260206004820152600b60248201527f454e445f494e5f504153540000000000000000000000000000000000000000006044820152fd5b503461021b5760407ffffffffffffffffffffffffffffffffffffffffffffffffffffffffffffffffc36011261021b5761075a6004356107f9613149565b90808452600160205261081260016040862001546136bc565b6137f6565b503461021b5760207ffffffffffffffffffffffffffffffffffffffffffffffffffffffffffffffffc36011261021b5760406020916004358152600283522054604051908152f35b503461021b57807ffffffffffffffffffffffffffffffffffffffffffffffffffffffffffffffffc36011261021b5760207ff8bb2a4b5b30792eb350607495ebe7f79c5a5066287187429654459fae715b2454604051908152f35b503461021b5760407ffffffffffffffffffffffffffffffffffffffffffffffffffffffffffffffffc36011261021b5760043567ffffffffffffffff81116109815761090a9036906004016132b6565b73ffffffffffffffffffffffffffffffffffffffff610940602061092c613149565b938160405193828580945193849201613337565b81017ff8bb2a4b5b30792eb350607495ebe7f79c5a5066287187429654459fae715b2781520301902091166000526020526020604060002054604051908152f35b5080fd5b503461021b57807ffffffffffffffffffffffffffffffffffffffffffffffffffffffffffffffffc36011261021b57602090604051908152f35b503461021b5760207ffffffffffffffffffffffffffffffffffffffffffffffffffffffffffffffffc36011261021b5760043567ffffffffffffffff811161098157610a12610a20913690600401613116565b90610a1b613407565b613d16565b60037fffffffffffffffffffffffffffffffffffffffffffffffffffffffffffffff0082541617905580f35b503461021b5760407ffffffffffffffffffffffffffffffffffffffffffffffffffffffffffffffffc36011261021b5773ffffffffffffffffffffffffffffffffffffffff6040610a9b613149565b9260043581526001602052209116600052602052602060ff604060002054166040519015158152f35b503461021b5760407ffffffffffffffffffffffffffffffffffffffffffffffffffffffffffffffffc36011261021b5760043567ffffffffffffffff811161098157610b14903690600401613116565b60243591610b20613407565b8215610b3757600191610b3291613d16565b015580f35b60646040517f08c379a000000000000000000000000000000000000000000000000000000000815260206004820152601060248201527f4d65726b6c65526f6f745f454d505459000000000000000000000000000000006044820152fd5b503461021b5760407ffffffffffffffffffffffffffffffffffffffffffffffffffffffffffffffffc36011261021b5773ffffffffffffffffffffffffffffffffffffffff610bf560209260043581526002845260406024359120613b02565b9190546040519260031b1c168152f35b503461021b577ffffffffffffffffffffffffffffffffffffffffffffffffffffffffffffffffc6060813601126109815767ffffffffffffffff602435116109815760a0906024353603011261021b5760443567ffffffffffffffff811161098157610c759036906004016132d4565b9190600260035414611a06576002600355610c9e610c9860046024350180613ffd565b90613d16565b9060405191610cac836131cb565b60ff81541660048110156119d9579060079184526001810154602085015260028101546fffffffffffffffffffffffffffffffff8116604086015260801c606085015260038101546080850152600481015460a0850152600581015460c0850152600681015460e08501520154610100830152610d27613e54565b60043560a08401511161197b5760043560446024350135106118f75760043560c08401511061187357608083015192604082015190610dd8610dcf610d6f602480350161404e565b610dc9610d8160046024350180613ffd565b91909273ffffffffffffffffffffffffffffffffffffffff166000527ff8bb2a4b5b30792eb350607495ebe7f79c5a5066287187429654459fae715b28602052604060002090565b91613df6565b546004356138ab565b6044602435013581116118285750610df3602480350161404e565b73ffffffffffffffffffffffffffffffffffffffff339116036117ca57610e3d7ff8bb2a4b5b30792eb350607495ebe7f79c5a5066287187429654459fae715b24546004356138ab565b82811161178a575060ff7ff8bb2a4b5b30792eb350607495ebe7f79c5a5066287187429654459fae715b235416600481101561175d57600181036117245750610e9d610e98610e9160046024350180613ffd565b369161327f565b6140fd565b610100610eaf60046024350180613ffd565b9190920151610ebe8284613d4e565b548111156116dd5750610ed991505060046024350180613ffd565b610ee6610dcf8284613d86565b868111611686575060019150610f069050610c9860046024350180613ffd565b015495604051602080820152602435600401357fffffffffffffffffffffffffffffffffffffffffffffffffffffffffffffffdd60243536030181121561168257602435016024600482013591019067ffffffffffffffff811161167e57803603821361167e5790610f839160a0604085015260e084019161406f565b60248035013573ffffffffffffffffffffffffffffffffffffffff811680910361167e57606083015260243560448101356080840152606481013560a08401526084013560c08301528190037fffffffffffffffffffffffffffffffffffffffffffffffffffffffffffffffe081018252610ffe9082613204565b602081519101209061100f81613f92565b9461101d6040519687613204565b8186526020860190368360051b82011161167e5780915b8360051b8201831061166e57505050509385945b84518610156110915760208660051b860101519081811060001461107f578752602052611079604087205b956142db565b94611048565b90875260205261107960408720611073565b908787939203611610576110aa60046024350180613ffd565b9190926110ba602480350161404e565b6110e76004357ff8bb2a4b5b30792eb350607495ebe7f79c5a5066287187429654459fae715b24546138ab565b7ff8bb2a4b5b30792eb350607495ebe7f79c5a5066287187429654459fae715b24556111138486613d86565b61112060043582546138ab565b905561112c8486613dbe565b73ffffffffffffffffffffffffffffffffffffffff821687526020526040862054156115c3575b6111d86111df916111648688613dbe565b73ffffffffffffffffffffffffffffffffffffffff821689526020526040882061119160043582546138ab565b905573ffffffffffffffffffffffffffffffffffffffff166000527ff8bb2a4b5b30792eb350607495ebe7f79c5a5066287187429654459fae715b28602052604060002090565b8486613df6565b6111ec60043582546138ab565b90557ff8bb2a4b5b30792eb350607495ebe7f79c5a5066287187429654459fae715b245414611555575b6112208284613d86565b5414611519575b60026112338284613d16565b015460801c4210156114d5575b5050815173ffffffffffffffffffffffffffffffffffffffff1661126960046024350180613ffd565b611276602480350161404e565b73ffffffffffffffffffffffffffffffffffffffff602087015116843b156104a65792856112f59373ffffffffffffffffffffffffffffffffffffffff96938296604051988997889687957f37a97db700000000000000000000000000000000000000000000000000000000875260c0600488015260c487019161406f565b92166024840152600435604484015260648301526084602435013560848301526064602435013560a483015203925af180156114ca57611485575b509081602073ffffffffffffffffffffffffffffffffffffffff8184015116606473ffffffffffffffffffffffffffffffffffffffff85511660405194859384927f23b872dd000000000000000000000000000000000000000000000000000000008452336004850152602484015260043560448401525af1801561147a5761144b575b506113c460046024350180613ffd565b73ffffffffffffffffffffffffffffffffffffffff60206113e8602480350161404e565b940151169181604051928392833781018581520390206040519182527f24b17f7cc1c323d081ca24ebe682df530605d2207ecdde5a86c1d0bb44a88a6d602073ffffffffffffffffffffffffffffffffffffffff600435951693a4600160035580f35b61146c9060203d602011611473575b6114648183613204565b8101906140ae565b50826113b4565b503d61145a565b6040513d85823e3d90fd5b67ffffffffffffffff811161149d5760405282611330565b6024827f4e487b710000000000000000000000000000000000000000000000000000000081526041600452fd5b6040513d84823e3d90fd5b6114e9916114e491369161327f565b613e0f565b60027fffffffffffffffffffffffffffffffffffffffffffffffffffffffffffffff008254161790558280611240565b6115276114e436838561327f565b60027fffffffffffffffffffffffffffffffffffffffffffffffffffffffffffffff00825416179055611227565b60027fffffffffffffffffffffffffffffffffffffffffffffffffffffffffffffff007ff8bb2a4b5b30792eb350607495ebe7f79c5a5066287187429654459fae715b235416177ff8bb2a4b5b30792eb350607495ebe7f79c5a5066287187429654459fae715b2355611216565b6115cd8486613d4e565b80546001810181116115e3576001019055611153565b6024887f4e487b710000000000000000000000000000000000000000000000000000000081526011600452fd5b60646040517f08c379a000000000000000000000000000000000000000000000000000000000815260206004820152601460248201527f414c4c4f434154494f4e5f4e4f545f464f554e440000000000000000000000006044820152fd5b8235815260209283019201611034565b8880fd5b8780fd5b611691878092613bdd565b6116ce6040519485947f2877ff9e00000000000000000000000000000000000000000000000000000000865260606004870152606486019161406f565b91602484015260448301520390fd5b61171a6040519384937f4fdac53700000000000000000000000000000000000000000000000000000000855260406004860152604485019161406f565b9060248301520390fd5b60249061175b604051917fb293db19000000000000000000000000000000000000000000000000000000008352600483019061318f565bfd5b6024877f4e487b710000000000000000000000000000000000000000000000000000000081526021600452fd5b8261179781604493613bdd565b604051917fcced311a00000000000000000000000000000000000000000000000000000000835260048301526024820152fd5b60646040517f08c379a000000000000000000000000000000000000000000000000000000000815260206004820152601a60248201527f6d73672e73656e6465723a204e4f545f415554484f52495a45440000000000006044820152fd5b61183a60449182602435013590613bdd565b604051907fadaa553200000000000000000000000000000000000000000000000000000000825282602435013560048301526024820152fd5b60846040517f08c379a000000000000000000000000000000000000000000000000000000000815260206004820152602260248201527f457863656564207468616e20746167206d6178696d756d20616c6c6f6361746960448201527f6f6e0000000000000000000000000000000000000000000000000000000000006064820152fd5b60846040517f08c379a000000000000000000000000000000000000000000000000000000000815260206004820152602660248201527f457863656564207468616e206772616e746564206d6178696d756d20616c6c6f60448201527f636174696f6e00000000000000000000000000000000000000000000000000006064820152fd5b60646040517f08c379a000000000000000000000000000000000000000000000000000000000815260206004820152601c60248201527f4c657373207468616e206d696e696d756d20616c6c6f636174696f6e000000006044820152fd5b6024857f4e487b710000000000000000000000000000000000000000000000000000000081526021600452fd5b60646040517f08c379a000000000000000000000000000000000000000000000000000000000815260206004820152601f60248201527f5265656e7472616e637947756172643a207265656e7472616e742063616c6c006044820152fd5b503461021b5760407ffffffffffffffffffffffffffffffffffffffffffffffffffffffffffffffffc36011261021b5767ffffffffffffffff600435818111611ae557611ab59036906004016132d4565b90602435928311611ae157611ad161075a933690600401613305565b929091611adc613407565b614482565b8380fd5b8280fd5b503461021b5760207ffffffffffffffffffffffffffffffffffffffffffffffffffffffffffffffffc36011261021b5760043567ffffffffffffffff811161098157610a12611b3c913690600401613116565b60017fffffffffffffffffffffffffffffffffffffffffffffffffffffffffffffff0082541617905580f35b503461021b5760407ffffffffffffffffffffffffffffffffffffffffffffffffffffffffffffffffc36011261021b57611ba061316c565b906024359067ffffffffffffffff821161021b576020611bca84610dc9610d813660048801613116565b54604051908152f35b503461021b57807ffffffffffffffffffffffffffffffffffffffffffffffffffffffffffffffffc36011261021b577ff8bb2a4b5b30792eb350607495ebe7f79c5a5066287187429654459fae715b2190815491611c3083613f92565b91611c3e6040519384613204565b83835260209384840190819383527f6fb13110a1c1a9ede6e6ea609efd6e6179fc9f1e56a50856c4379cfccb9552159183905b828210611cf45750505050604051928484019085855251809152604084019460408260051b8601019392955b828710611caa5785850386f35b909192938280611ce4837fffffffffffffffffffffffffffffffffffffffffffffffffffffffffffffffc08a60019603018652885161335a565b9601920196019592919092611c9d565b60409796949751878992865492611d0a84613faa565b808252600194808616908115611d7c5750600114611d44575b50611d32816001960382613204565b81520194019101909296939596611c71565b888d52838d2095508c905b808210611d655750810183019450611d32611d23565b8654838301860152958501958c9490910190611d4f565b7fffffffffffffffffffffffffffffffffffffffffffffffffffffffffffffff00168584015250151560051b810183019450611d32611d23565b503461021b576101007ffffffffffffffffffffffffffffffffffffffffffffffffffffffffffffffffc36011261021b57611def61316c565b60a07fffffffffffffffffffffffffffffffffffffffffffffffffffffffffffffffdc3601126109815760405167ffffffffffffffff60a082018181118382101761244557604052611e3f613149565b825260443573ffffffffffffffffffffffffffffffffffffffff811681036124415760208301526064356040830152608435606083015260a435608083015260c43581811161244157611e969036906004016132d4565b9160e4359081116104a657611eaf903690600401613305565b92909186549560ff8760081c161596878098612434575b801561241d575b15612399578760017fffffffffffffffffffffffffffffffffffffffffffffffffffffffffffffff008316178a5561236b575b50611f09613407565b73ffffffffffffffffffffffffffffffffffffffff81161561230d5773ffffffffffffffffffffffffffffffffffffffff865116156122895773ffffffffffffffffffffffffffffffffffffffff60208701511615612205576040860151156121a7576120dd95611fbf73ffffffffffffffffffffffffffffffffffffffff6080938b8052600160205260408c208282168d5260205260ff60408d20541615612138575b8b805260026020521660408b20613b1a565b5073ffffffffffffffffffffffffffffffffffffffff8151167fffffffffffffffffffffffff0000000000000000000000000000000000000000907ff8bb2a4b5b30792eb350607495ebe7f79c5a5066287187429654459fae715b1c908282541617905573ffffffffffffffffffffffffffffffffffffffff6020830151167ff8bb2a4b5b30792eb350607495ebe7f79c5a5066287187429654459fae715b1d9182541617905560408101517ff8bb2a4b5b30792eb350607495ebe7f79c5a5066287187429654459fae715b1e5560608101517ff8bb2a4b5b30792eb350607495ebe7f79c5a5066287187429654459fae715b1f5501517ff8bb2a4b5b30792eb350607495ebe7f79c5a5066287187429654459fae715b2055614482565b6120e45780f35b7fffffffffffffffffffffffffffffffffffffffffffffffffffffffffffff00ff81541681557f7f26b83ff96e1f2b6a682f133852f6798a09c465da95921460cefb3847402498602060405160018152a180f35b8b8052600160205260408c208282168d5260205260408c2060017fffffffffffffffffffffffffffffffffffffffffffffffffffffffffffffff00825416179055338282168d7f2f8788117e7eff1d82e926ec794901d17c78024a50270940304540a733656f0d8180a4611fad565b60646040517f08c379a000000000000000000000000000000000000000000000000000000000815260206004820152601c60248201527f49474f5772697461626c655f5f6772616e64546f74616c5f5a45524f000000006044820152fd5b60846040517f08c379a000000000000000000000000000000000000000000000000000000000815260206004820152602660248201527f49474f5772697461626c655f5f7061796d656e74546f6b656e5f5a45524f5f4160448201527f44445245535300000000000000000000000000000000000000000000000000006064820152fd5b60846040517f08c379a000000000000000000000000000000000000000000000000000000000815260206004820152602960248201527f49474f5772697461626c655f5f76657374696e67436f6e74726163745f5a455260448201527f4f5f4144445245535300000000000000000000000000000000000000000000006064820152fd5b60646040517f08c379a000000000000000000000000000000000000000000000000000000000815260206004820152601f60248201527f49474f5772697461626c655f5f6f776e65725f5a45524f5f41444452455353006044820152fd5b7fffffffffffffffffffffffffffffffffffffffffffffffffffffffffffff00001661010117885538611f00565b60846040517f08c379a000000000000000000000000000000000000000000000000000000000815260206004820152602e60248201527f496e697469616c697a61626c653a20636f6e747261637420697320616c72656160448201527f647920696e697469616c697a65640000000000000000000000000000000000006064820152fd5b50303b158015611ecd5750600160ff821614611ecd565b50600160ff821610611ec6565b8480fd5b6024857f4e487b710000000000000000000000000000000000000000000000000000000081526041600452fd5b503461021b5760207ffffffffffffffffffffffffffffffffffffffffffffffffffffffffffffffffc36011261021b5760043567ffffffffffffffff8111610981576124c56124d39136906004016132b6565b6124cd613f4d565b50613e0f565b6040516124df816131cb565b60ff8254169160048310156125b057610120935082825260018101549060208301918252600281015460408401906fffffffffffffffffffffffffffffffff8082168352606086019160801c82526003840154906080870191825260048501549260a088019384528160058701549560c08a01968752600760068901549860e08c01998a52015498610100809b01998a5261257d604051809d61318f565b5160208c0152511660408a0152511660608801525160808701525160a08601525160c08501525160e08401525190820152f35b6024847f4e487b710000000000000000000000000000000000000000000000000000000081526021600452fd5b503461021b5760207ffffffffffffffffffffffffffffffffffffffffffffffffffffffffffffffffc36011261021b576004359067ffffffffffffffff821161021b576020612633816101d636600487016132b6565b81017ff8bb2a4b5b30792eb350607495ebe7f79c5a5066287187429654459fae715b2681520301902054604051908152f35b503461021b57807ffffffffffffffffffffffffffffffffffffffffffffffffffffffffffffffffc36011261021b5761269c613407565b7ff8bb2a4b5b30792eb350607495ebe7f79c5a5066287187429654459fae715b2360017fffffffffffffffffffffffffffffffffffffffffffffffffffffffffffffff0082541617905580f35b503461021b5760407ffffffffffffffffffffffffffffffffffffffffffffffffffffffffffffffffc36011261021b5760043567ffffffffffffffff811161098157600361273e610b32923690600401613116565b602435939161274b613407565b610a1b612756613e54565b604061277c8861277760608501518a61276f8a8a613d16565b015490613bdd565b6138ab565b910151906149c1565b503461021b5760407ffffffffffffffffffffffffffffffffffffffffffffffffffffffffffffffffc36011261021b576127bd613149565b3373ffffffffffffffffffffffffffffffffffffffff8216036127e65761075a906004356137f6565b60846040517f08c379a000000000000000000000000000000000000000000000000000000000815260206004820152602f60248201527f416363657373436f6e74726f6c3a2063616e206f6e6c792072656e6f756e636560448201527f20726f6c657320666f722073656c6600000000000000000000000000000000006064820152fd5b503461021b57807ffffffffffffffffffffffffffffffffffffffffffffffffffffffffffffffffc36011261021b57602060ff7ff8bb2a4b5b30792eb350607495ebe7f79c5a5066287187429654459fae715b2354166128cd604051809261318f565bf35b503461021b5760407ffffffffffffffffffffffffffffffffffffffffffffffffffffffffffffffffc36011261021b5761296c600435600261290f613149565b918085526020906001825261292a60016040882001546136bc565b8086526001825273ffffffffffffffffffffffffffffffffffffffff60408720941693848752825260ff60408720541615612970575b85525260408320613b1a565b5080f35b808652600182526040862084875282526040862060017fffffffffffffffffffffffffffffffffffffffffffffffffffffffffffffff008254161790553384827f2f8788117e7eff1d82e926ec794901d17c78024a50270940304540a733656f0d8980a4612960565b503461021b5760207ffffffffffffffffffffffffffffffffffffffffffffffffffffffffffffffffc36011261021b57600160406020926004358152828452200154604051908152f35b503461021b57807ffffffffffffffffffffffffffffffffffffffffffffffffffffffffffffffffc36011261021b57612a5a613407565b7ff8bb2a4b5b30792eb350607495ebe7f79c5a5066287187429654459fae715b2360037fffffffffffffffffffffffffffffffffffffffffffffffffffffffffffffff0082541617905580f35b503461021b57807ffffffffffffffffffffffffffffffffffffffffffffffffffffffffffffffffc36011261021b5760a0612ae0613e54565b73ffffffffffffffffffffffffffffffffffffffff90818151169160208201511690604081015160806060830151920151926040519485526020850152604084015260608301526080820152f35b503461021b576101407ffffffffffffffffffffffffffffffffffffffffffffffffffffffffffffffffc36011261021b5767ffffffffffffffff600435818111611ae557612b80903690600401613116565b906101207fffffffffffffffffffffffffffffffffffffffffffffffffffffffffffffffdc360112611ae157612bb4613407565b612bbe8282613d16565b604051612bca816131cb565b60ff825416600481101561175d5781526001928383015494602095868401526002840154926fffffffffffffffffffffffffffffffff93848116604083015260801c6060820152610100600760038701549660808401978852600481015460a0850152600581015460c0850152600681015460e08501520154910152604435918215158061300f575b80612ff6575b80612feb575b612c68906143d4565b7ff8bb2a4b5b30792eb350607495ebe7f79c5a5066287187429654459fae715b1e54977ff8bb2a4b5b30792eb350607495ebe7f79c5a5066287187429654459fae715b1f97612cbb895497518098613bdd565b96612cd3612ccc60a435809a6138ab565b9b8c6149c1565b15612db2575b505090612ce591613d16565b93602435600481101561167e57612cfc90866140c6565b8401556002830190606435818116809103611682577fffffffffffffffffffffffffffffffff000000000000000000000000000000008354161782556084359081168103612dae5781546fffffffffffffffffffffffffffffffff1660809190911b7fffffffffffffffffffffffffffffffff0000000000000000000000000000000016179055600382015560c435600482015560e43560058201556101043560068201556007610124359101555580f35b8680fd5b7ff8bb2a4b5b30792eb350607495ebe7f79c5a5066287187429654459fae715b2180549068010000000000000000821015612fbe578982019055612df590613aad565b929092612f92578411612f6557612e0c8254613faa565b601f8111612f1f575b508a90601f8511600114612e7757509083612ce59493928c91612e6c575b5083891b907fffffffffffffffffffffffffffffffffffffffffffffffffffffffffffffffff8560031b1c19161790555b909138612cd9565b905082013538612e33565b849392918c917fffffffffffffffffffffffffffffffffffffffffffffffffffffffffffffffe08b97169084845280842093905b828210612f06575050612ce596508511612ece575b50508783811b019055612e64565b7fffffffffffffffffffffffffffffffffffffffffffffffffffffffffffffffff60f88660031b161c19908401351690553880612ec0565b8684013585558c98909401939283019290810190612eab565b828c52818c20601f860160051c810191838710612f5b575b601f0160051c019089905b828110612f50575050612e15565b8d8155018990612f42565b9091508190612f37565b60248b7f4e487b710000000000000000000000000000000000000000000000000000000081526041600452fd5b60248c7f4e487b7100000000000000000000000000000000000000000000000000000000815280600452fd5b60248d7f4e487b710000000000000000000000000000000000000000000000000000000081526041600452fd5b5060a4351515612c5f565b5060843584811680910361300b574210612c59565b8980fd5b5060643584811680910361300b57421115612c53565b9050346109815760207ffffffffffffffffffffffffffffffffffffffffffffffffffffffffffffffffc360112610981576004357fffffffff000000000000000000000000000000000000000000000000000000008116809103611ae557602092507f5a05180f0000000000000000000000000000000000000000000000000000000081149081156130b9575b5015158152f35b7f7965db0b000000000000000000000000000000000000000000000000000000008114915081156130ec575b50386130b2565b7f01ffc9a700000000000000000000000000000000000000000000000000000000915014386130e5565b9181601f840112156131445782359167ffffffffffffffff8311613144576020838186019501011161314457565b600080fd5b6024359073ffffffffffffffffffffffffffffffffffffffff8216820361314457565b6004359073ffffffffffffffffffffffffffffffffffffffff8216820361314457565b90600482101561319c5752565b7f4e487b7100000000000000000000000000000000000000000000000000000000600052602160045260246000fd5b610120810190811067ffffffffffffffff82111761045157604052565b6080810190811067ffffffffffffffff82111761045157604052565b90601f7fffffffffffffffffffffffffffffffffffffffffffffffffffffffffffffffe0910116810190811067ffffffffffffffff82111761045157604052565b67ffffffffffffffff811161045157601f017fffffffffffffffffffffffffffffffffffffffffffffffffffffffffffffffe01660200190565b92919261328b82613245565b916132996040519384613204565b829481845281830111613144578281602093846000960137010152565b9080601f83011215613144578160206132d19335910161327f565b90565b9181601f840112156131445782359167ffffffffffffffff8311613144576020808501948460051b01011161314457565b9181601f840112156131445782359167ffffffffffffffff831161314457602080850194610120850201011161314457565b60005b83811061334a5750506000910152565b818101518382015260200161333a565b907fffffffffffffffffffffffffffffffffffffffffffffffffffffffffffffffe0601f60209361339681518092818752878088019101613337565b0116010190565b60407ffffffffffffffffffffffffffffffffffffffffffffffffffffffffffffffffc820112613144576004359067ffffffffffffffff8211613144576133e691600401613116565b90916024356fffffffffffffffffffffffffffffffff811681036131445790565b3360009081527fa6eef7e35abe7026729641147f7915573c7e97b47efa546f5f6e3230263bcb496020908152604080832054909260019160ff161561344c5750505050565b61345533613927565b9181855191613463836131e8565b6042835285830193606036863783511561368f5760308553835182101561368f5790607860218501536041915b8183116135c45750505061356857604861356493869361352e9361351f98519889937f416363657373436f6e74726f6c3a206163636f756e74200000000000000000008a8601526134ea815180928c603789019101613337565b8401917f206973206d697373696e6720726f6c6520000000000000000000000000000000603784015251809386840190613337565b01036028810187520185613204565b519283927f08c379a00000000000000000000000000000000000000000000000000000000084526004840152602483019061335a565b0390fd5b6064848651907f08c379a000000000000000000000000000000000000000000000000000000000825280600483015260248201527f537472696e67733a20686578206c656e67746820696e73756666696369656e746044820152fd5b909192600f81166010811015613662577f3031323334353637383961626364656600000000000000000000000000000000901a61360185876138e7565b5360041c928015613635577fffffffffffffffffffffffffffffffffffffffffffffffffffffffffffffffff019190613490565b6024827f4e487b710000000000000000000000000000000000000000000000000000000081526011600452fd5b6024837f4e487b710000000000000000000000000000000000000000000000000000000081526032600452fd5b807f4e487b7100000000000000000000000000000000000000000000000000000000602492526032600452fd5b6000818152600191602091838352604093848220338352845260ff8583205416156136e8575050505050565b6136f133613927565b928551916136fe836131e8565b6042835285830193606036863783511561368f5760308553835182101561368f5790607860218501536041915b8183116137855750505061356857604861356493869361352e9361351f98519889937f416363657373436f6e74726f6c3a206163636f756e74200000000000000000008a8601526134ea815180928c603789019101613337565b909192600f81166010811015613662577f3031323334353637383961626364656600000000000000000000000000000000901a6137c285876138e7565b5360041c928015613635577fffffffffffffffffffffffffffffffffffffffffffffffffffffffffffffffff01919061372b565b90604061384292600090808252600160205273ffffffffffffffffffffffffffffffffffffffff83832094169384835260205260ff8383205416613845575b8152600260205220613bea565b50565b80825260016020528282208483526020528282207fffffffffffffffffffffffffffffffffffffffffffffffffffffffffffffff0081541690553384827ff6391f5c32d9c69d2a47ea670b442974b53935d1edc7fd64eb21e047a839171b8580a4613835565b919082018092116138b857565b7f4e487b7100000000000000000000000000000000000000000000000000000000600052601160045260246000fd5b9081518110156138f8570160200190565b7f4e487b7100000000000000000000000000000000000000000000000000000000600052603260045260246000fd5b604051906060820182811067ffffffffffffffff82111761045157604052602a82526020820160403682378251156138f8576030905381516001908110156138f857607860218401536029905b8082116139e25750506139845790565b60646040517f08c379a000000000000000000000000000000000000000000000000000000000815260206004820152602060248201527f537472696e67733a20686578206c656e67746820696e73756666696369656e746044820152fd5b9091600f81166010811015613a7f577f3031323334353637383961626364656600000000000000000000000000000000901a613a1e84866138e7565b5360041c918015613a51577fffffffffffffffffffffffffffffffffffffffffffffffffffffffffffffffff0190613974565b602460007f4e487b710000000000000000000000000000000000000000000000000000000081526011600452fd5b602460007f4e487b710000000000000000000000000000000000000000000000000000000081526032600452fd5b7ff8bb2a4b5b30792eb350607495ebe7f79c5a5066287187429654459fae715b2180548210156138f8576000527f6fb13110a1c1a9ede6e6ea609efd6e6179fc9f1e56a50856c4379cfccb9552150190600090565b80548210156138f85760005260206000200190600090565b91906001830160009082825280602052604082205415600014613bd75784549468010000000000000000861015613baa5783613b9a613b63886001604098999a01855584613b02565b819391549060031b7fffffffffffffffffffffffffffffffffffffffffffffffffffffffffffffffff811b9283911b169119161790565b9055549382526020522055600190565b6024837f4e487b710000000000000000000000000000000000000000000000000000000081526041600452fd5b50925050565b919082039182116138b857565b90600182019060009281845282602052604084205490811515600014613d0f577fffffffffffffffffffffffffffffffffffffffffffffffffffffffffffffffff91828101818111613ce2578254908482019182116115e357808203613cad575b50505080548015613c8057820191613c638383613b02565b909182549160031b1b191690555582526020526040812055600190565b6024867f4e487b710000000000000000000000000000000000000000000000000000000081526031600452fd5b613ccd613cbd613b639386613b02565b90549060031b1c92839286613b02565b90558652846020526040862055388080613c4b565b6024877f4e487b710000000000000000000000000000000000000000000000000000000081526011600452fd5b5050505090565b60209082604051938492833781017ff8bb2a4b5b30792eb350607495ebe7f79c5a5066287187429654459fae715b2281520301902090565b60209082604051938492833781017ff8bb2a4b5b30792eb350607495ebe7f79c5a5066287187429654459fae715b2681520301902090565b60209082604051938492833781017ff8bb2a4b5b30792eb350607495ebe7f79c5a5066287187429654459fae715b2581520301902090565b60209082604051938492833781017ff8bb2a4b5b30792eb350607495ebe7f79c5a5066287187429654459fae715b2781520301902090565b6020919283604051948593843782019081520301902090565b6020613e28918160405193828580945193849201613337565b81017ff8bb2a4b5b30792eb350607495ebe7f79c5a5066287187429654459fae715b2281520301902090565b6040519060a0820182811067ffffffffffffffff821117610451576040528173ffffffffffffffffffffffffffffffffffffffff807ff8bb2a4b5b30792eb350607495ebe7f79c5a5066287187429654459fae715b1c541682527ff8bb2a4b5b30792eb350607495ebe7f79c5a5066287187429654459fae715b1d541660208201527ff8bb2a4b5b30792eb350607495ebe7f79c5a5066287187429654459fae715b1e5460408201527ff8bb2a4b5b30792eb350607495ebe7f79c5a5066287187429654459fae715b1f54606082015260807ff8bb2a4b5b30792eb350607495ebe7f79c5a5066287187429654459fae715b2054910152565b60405190613f5a826131cb565b816101006000918281528260208201528260408201528260608201528260808201528260a08201528260c08201528260e08201520152565b67ffffffffffffffff81116104515760051b60200190565b90600182811c92168015613ff3575b6020831014613fc457565b7f4e487b7100000000000000000000000000000000000000000000000000000000600052602260045260246000fd5b91607f1691613fb9565b9035907fffffffffffffffffffffffffffffffffffffffffffffffffffffffffffffffe181360301821215613144570180359067ffffffffffffffff82116131445760200191813603831361314457565b3573ffffffffffffffffffffffffffffffffffffffff811681036131445790565b601f82602094937fffffffffffffffffffffffffffffffffffffffffffffffffffffffffffffffe0938186528686013760008582860101520116010190565b90816020910312613144575180151581036131445790565b90600481101561319c5760ff7fffffffffffffffffffffffffffffffffffffffffffffffffffffffffffffff008354169116179055565b61410681613e0f565b604051614112816131cb565b60ff825416600492838210156142ad578183526001810154602084015260028101549160076fffffffffffffffffffffffffffffffff84169384604087015260801c92836060870152600381015460808701528681015460a0870152600581015460c0870152600681015460e087015201546101008501521591826142a2575b5081614298575b5061426257805182811015614234576001036141b457505050565b5181811015614206576135646141fb60409485519586957f5f08440f000000000000000000000000000000000000000000000000000000008752860152604485019061335a565b91602484019061318f565b6021827f4e487b71000000000000000000000000000000000000000000000000000000006000525260246000fd5b6021837f4e487b71000000000000000000000000000000000000000000000000000000006000525260246000fd5b505061426d90613e0f565b60017fffffffffffffffffffffffffffffffffffffffffffffffffffffffffffffff00825416179055565b9050421038614199565b421015915038614192565b6021847f4e487b71000000000000000000000000000000000000000000000000000000006000525260246000fd5b7fffffffffffffffffffffffffffffffffffffffffffffffffffffffffffffffff81146138b85760010190565b91929015614383575081511561431c575090565b3b156143255790565b60646040517f08c379a000000000000000000000000000000000000000000000000000000000815260206004820152601d60248201527f416464726573733a2063616c6c20746f206e6f6e2d636f6e74726163740000006044820152fd5b8251909150156143965750805190602001fd5b613564906040519182917f08c379a000000000000000000000000000000000000000000000000000000000835260206004840152602483019061335a565b156143db57565b60646040517f08c379a000000000000000000000000000000000000000000000000000000000815260206004820152600960248201527f454d5054595f54414700000000000000000000000000000000000000000000006044820152fd5b356fffffffffffffffffffffffffffffffff811681036131445790565b908210156138f85761446d9160051b810190613ffd565b9091565b91908110156138f857610120020190565b90929192828103614963579192907ff8bb2a4b5b30792eb350607495ebe7f79c5a5066287187429654459fae715b1e54927ff8bb2a4b5b30792eb350607495ebe7f79c5a5066287187429654459fae715b1f938454956144e0613f4d565b506000945b8386106144f55750505050505055565b909192939496614509610c98898789614456565b604051614515816131cb565b60ff825416600481101561319c5760809260079183526001810154602084015260028101546fffffffffffffffffffffffffffffffff81166040850152841c6060840152600381015484840152600481015460a0840152600581015460c0840152600681015460e084015201546101008201526145b66145968b8787614471565b602081013515159081614939575b81614910575b81614903575b506143d4565b0151806145c48a8686614471565b926145e96145de6145d68d8b8d614456565b949093613bdd565b6080860135906138ab565b926145f488856149c1565b15614701575b9061460491613d16565b600483351015613144576007610100846146226146f79635856140c6565b602081013560018501556146c4600285016fffffffffffffffffffffffffffffffff61465060408501614439565b167fffffffffffffffffffffffffffffffff0000000000000000000000000000000082541617815561468460608401614439565b6fffffffffffffffffffffffffffffffff7fffffffffffffffffffffffffffffffff0000000000000000000000000000000083549260801b169116179055565b6080810135600385015560a0810135600485015560c0810135600585015560e081013560068501550135910155976142db565b94939291906144e5565b7ff8bb2a4b5b30792eb350607495ebe7f79c5a5066287187429654459fae715b218054680100000000000000008110156104515761474491600182019055613aad565b6148d45767ffffffffffffffff8311610451576147618154613faa565b601f8111614890575b506000601f84116001146147cd5790836146049493926000916147c2575b508360011b907fffffffffffffffffffffffffffffffffffffffffffffffffffffffffffffffff8560031b1c19161790555b9091506145fa565b905082013538614788565b92919080845260208420845b7fffffffffffffffffffffffffffffffffffffffffffffffffffffffffffffffe085168610614878576146049550847fffffffffffffffffffffffffffffffffffffffffffffffffffffffffffffffe0811610614840575b5050600183811b0190556147ba565b7fffffffffffffffffffffffffffffffffffffffffffffffffffffffffffffffff60f88660031b161c19908401351690553880614831565b838101358255602095860195600190920191016147d9565b816000526020600020601f850160051c8101602086106148cd575b601f830160051c820181106148c157505061476a565b600081556001016148ab565b50806148ab565b7f4e487b7100000000000000000000000000000000000000000000000000000000600052600060045260246000fd5b84915001351515386145b0565b905061491e60608201614439565b6fffffffffffffffffffffffffffffffff42911611906145aa565b905061494760408201614439565b6fffffffffffffffffffffffffffffffff4291161015906145a4565b60646040517f08c379a000000000000000000000000000000000000000000000000000000000815260206004820152601f60248201527f49474f5772697461626c653a207461677320617272617973206c656e677468006044820152fd5b8181116149cc575050565b6024916149d891613bdd565b604051907f2e2a58540000000000000000000000000000000000000000000000000000000082526004820152fdfea26469706673582212207483e82187adf0fda365c58e4dd2ba56af3d3c3d41e23de793a812468036b9cd64736f6c63430008110033",
  "linkReferences": {},
  "deployedLinkReferences": {}
}