{
  "_format": "hh-sol-artifact-1",
  "contractName": "IGO",
  "sourceName": "contracts/IGO.sol",
  "abi": [
    {
      "inputs": [
        {
          "internalType": "address",
          "name": "owner",
          "type": "address"
        }
      ],
      "stateMutability": "nonpayable",
      "type": "constructor"
    },
    {
      "inputs": [
        {
          "internalType": "enum ISharedInternal.Status",
          "name": "current",
          "type": "uint8"
        }
      ],
      "name": "IGOWritableInternal_IGONotOpened",
      "type": "error"
    },
    {
      "inputs": [
        {
          "internalType": "string",
          "name": "tagId",
          "type": "string"
        },
        {
          "internalType": "enum ISharedInternal.Status",
          "name": "current",
          "type": "uint8"
        }
      ],
      "name": "IGOWritableInternal_TagNotOpened",
      "type": "error"
    },
    {
      "inputs": [
        {
          "internalType": "uint256",
          "name": "allocation",
          "type": "uint256"
        },
        {
          "internalType": "uint256",
          "name": "exceedsBy",
          "type": "uint256"
        }
      ],
      "name": "IGOWritable_AllocationExceeded",
      "type": "error"
    },
    {
      "inputs": [
        {
          "internalType": "uint256",
          "name": "grandTotal",
          "type": "uint256"
        },
        {
          "internalType": "uint256",
          "name": "exceedsBy",
          "type": "uint256"
        }
      ],
      "name": "IGOWritable_GrandTotalExceeded",
      "type": "error"
    },
    {
      "inputs": [
        {
          "internalType": "string",
          "name": "tagId",
          "type": "string"
        },
        {
          "internalType": "uint256",
          "name": "maxParticipants",
          "type": "uint256"
        }
      ],
      "name": "IGOWritable_MaxParticipantsExceeded",
      "type": "error"
    },
    {
      "inputs": [
        {
          "internalType": "string",
          "name": "tagId",
          "type": "string"
        },
        {
          "internalType": "uint256",
          "name": "maxTagCap",
          "type": "uint256"
        },
        {
          "internalType": "uint256",
          "name": "exceedsBy",
          "type": "uint256"
        }
      ],
      "name": "IGOWritable_MaxTagCapExceeded",
      "type": "error"
    },
    {
      "inputs": [],
      "name": "IGOWritable_NoPaymentTokenUpdate",
      "type": "error"
    },
    {
      "inputs": [],
      "name": "IGOWritable_ProjectTokenPrice_ZERO",
      "type": "error"
    },
    {
      "inputs": [
        {
          "internalType": "uint256",
          "name": "greaterBy",
          "type": "uint256"
        }
      ],
      "name": "IGOWritable_SummedMaxTagCapGtGrandTotal",
      "type": "error"
    },
    {
      "anonymous": false,
      "inputs": [
        {
          "indexed": true,
          "internalType": "string",
          "name": "tagId",
          "type": "string"
        },
        {
          "indexed": true,
          "internalType": "address",
          "name": "buyer",
          "type": "address"
        },
        {
          "indexed": true,
          "internalType": "uint256",
          "name": "maxAllocation",
          "type": "uint256"
        },
        {
          "indexed": false,
          "internalType": "address",
          "name": "paymentToken",
          "type": "address"
        }
      ],
      "name": "AllocationReserved",
      "type": "event"
    },
    {
      "anonymous": false,
      "inputs": [
        {
          "indexed": false,
          "internalType": "uint8",
          "name": "version",
          "type": "uint8"
        }
      ],
      "name": "Initialized",
      "type": "event"
    },
    {
      "anonymous": false,
      "inputs": [
        {
          "indexed": true,
          "internalType": "bytes32",
          "name": "role",
          "type": "bytes32"
        },
        {
          "indexed": true,
          "internalType": "bytes32",
          "name": "previousAdminRole",
          "type": "bytes32"
        },
        {
          "indexed": true,
          "internalType": "bytes32",
          "name": "newAdminRole",
          "type": "bytes32"
        }
      ],
      "name": "RoleAdminChanged",
      "type": "event"
    },
    {
      "anonymous": false,
      "inputs": [
        {
          "indexed": true,
          "internalType": "bytes32",
          "name": "role",
          "type": "bytes32"
        },
        {
          "indexed": true,
          "internalType": "address",
          "name": "account",
          "type": "address"
        },
        {
          "indexed": true,
          "internalType": "address",
          "name": "sender",
          "type": "address"
        }
      ],
      "name": "RoleGranted",
      "type": "event"
    },
    {
      "anonymous": false,
      "inputs": [
        {
          "indexed": true,
          "internalType": "bytes32",
          "name": "role",
          "type": "bytes32"
        },
        {
          "indexed": true,
          "internalType": "address",
          "name": "account",
          "type": "address"
        },
        {
          "indexed": true,
          "internalType": "address",
          "name": "sender",
          "type": "address"
        }
      ],
      "name": "RoleRevoked",
      "type": "event"
    },
    {
      "inputs": [],
      "name": "DEFAULT_ADMIN_ROLE",
      "outputs": [
        {
          "internalType": "bytes32",
          "name": "",
          "type": "bytes32"
        }
      ],
      "stateMutability": "view",
      "type": "function"
    },
    {
      "inputs": [
        {
          "internalType": "address",
          "name": "account",
          "type": "address"
        },
        {
          "internalType": "string",
          "name": "tagId",
          "type": "string"
        }
      ],
      "name": "allocationReservedByIn",
      "outputs": [
        {
          "internalType": "uint256",
          "name": "",
          "type": "uint256"
        }
      ],
      "stateMutability": "view",
      "type": "function"
    },
    {
      "inputs": [
        {
          "internalType": "bytes32",
          "name": "role",
          "type": "bytes32"
        }
      ],
      "name": "getRoleAdmin",
      "outputs": [
        {
          "internalType": "bytes32",
          "name": "",
          "type": "bytes32"
        }
      ],
      "stateMutability": "view",
      "type": "function"
    },
    {
      "inputs": [
        {
          "internalType": "bytes32",
          "name": "role",
          "type": "bytes32"
        },
        {
          "internalType": "uint256",
          "name": "index",
          "type": "uint256"
        }
      ],
      "name": "getRoleMember",
      "outputs": [
        {
          "internalType": "address",
          "name": "",
          "type": "address"
        }
      ],
      "stateMutability": "view",
      "type": "function"
    },
    {
      "inputs": [
        {
          "internalType": "bytes32",
          "name": "role",
          "type": "bytes32"
        }
      ],
      "name": "getRoleMemberCount",
      "outputs": [
        {
          "internalType": "uint256",
          "name": "",
          "type": "uint256"
        }
      ],
      "stateMutability": "view",
      "type": "function"
    },
    {
      "inputs": [
        {
          "internalType": "bytes32",
          "name": "role",
          "type": "bytes32"
        },
        {
          "internalType": "address",
          "name": "account",
          "type": "address"
        }
      ],
      "name": "grantRole",
      "outputs": [],
      "stateMutability": "nonpayable",
      "type": "function"
    },
    {
      "inputs": [
        {
          "internalType": "bytes32",
          "name": "role",
          "type": "bytes32"
        },
        {
          "internalType": "address",
          "name": "account",
          "type": "address"
        }
      ],
      "name": "hasRole",
      "outputs": [
        {
          "internalType": "bool",
          "name": "",
          "type": "bool"
        }
      ],
      "stateMutability": "view",
      "type": "function"
    },
    {
      "inputs": [],
      "name": "igoStatus",
      "outputs": [
        {
          "internalType": "enum ISharedInternal.Status",
          "name": "",
          "type": "uint8"
        }
      ],
      "stateMutability": "view",
      "type": "function"
    },
    {
      "inputs": [
        {
          "internalType": "address",
          "name": "owner",
          "type": "address"
        },
        {
          "components": [
            {
              "internalType": "address",
              "name": "vestingContract",
              "type": "address"
            },
            {
              "internalType": "address",
              "name": "paymentToken",
              "type": "address"
            },
            {
              "internalType": "address",
              "name": "permit2",
              "type": "address"
            },
            {
              "internalType": "uint256",
              "name": "grandTotal",
              "type": "uint256"
            },
            {
              "internalType": "uint256",
              "name": "summedMaxTagCap",
              "type": "uint256"
            },
            {
              "internalType": "uint256",
              "name": "refundFeeDecimals",
              "type": "uint256"
            }
          ],
          "internalType": "struct IGOStorage.SetUp",
          "name": "setUp",
          "type": "tuple"
        },
        {
          "internalType": "string[]",
          "name": "tagIds_",
          "type": "string[]"
        },
        {
          "components": [
            {
              "internalType": "enum ISharedInternal.Status",
              "name": "status",
              "type": "uint8"
            },
            {
              "internalType": "bytes32",
              "name": "merkleRoot",
              "type": "bytes32"
            },
            {
              "internalType": "uint128",
              "name": "startAt",
              "type": "uint128"
            },
            {
              "internalType": "uint128",
              "name": "endAt",
              "type": "uint128"
            },
            {
              "internalType": "uint256",
              "name": "maxTagCap",
              "type": "uint256"
            },
            {
              "internalType": "uint256",
              "name": "minAllocation",
              "type": "uint256"
            },
            {
              "internalType": "uint256",
              "name": "maxAllocation",
              "type": "uint256"
            },
            {
              "internalType": "uint256",
              "name": "allocation",
              "type": "uint256"
            },
            {
              "internalType": "uint256",
              "name": "maxParticipants",
              "type": "uint256"
            }
          ],
          "internalType": "struct ISharedInternal.Tag[]",
          "name": "tags",
          "type": "tuple[]"
        }
      ],
      "name": "initialize",
      "outputs": [],
      "stateMutability": "nonpayable",
      "type": "function"
    },
    {
      "inputs": [
        {
          "internalType": "string",
          "name": "tagId",
          "type": "string"
        },
        {
          "internalType": "address",
          "name": "account",
          "type": "address"
        }
      ],
      "name": "investment",
      "outputs": [
        {
          "internalType": "uint256",
          "name": "amount",
          "type": "uint256"
        }
      ],
      "stateMutability": "view",
      "type": "function"
    },
    {
      "inputs": [],
      "name": "openIGO",
      "outputs": [],
      "stateMutability": "nonpayable",
      "type": "function"
    },
    {
      "inputs": [
        {
          "internalType": "string",
          "name": "tagId",
          "type": "string"
        }
      ],
      "name": "openTag",
      "outputs": [],
      "stateMutability": "nonpayable",
      "type": "function"
    },
    {
      "inputs": [
        {
          "internalType": "string",
          "name": "tagId",
          "type": "string"
        }
      ],
      "name": "participants",
      "outputs": [
        {
          "internalType": "uint256",
          "name": "count",
          "type": "uint256"
        }
      ],
      "stateMutability": "view",
      "type": "function"
    },
    {
      "inputs": [],
      "name": "pauseIGO",
      "outputs": [],
      "stateMutability": "nonpayable",
      "type": "function"
    },
    {
      "inputs": [
        {
          "internalType": "string",
          "name": "tagId",
          "type": "string"
        }
      ],
      "name": "pauseTag",
      "outputs": [],
      "stateMutability": "nonpayable",
      "type": "function"
    },
    {
      "inputs": [
        {
          "internalType": "string",
          "name": "tagId",
          "type": "string"
        }
      ],
      "name": "raisedInTag",
      "outputs": [
        {
          "internalType": "uint256",
          "name": "",
          "type": "uint256"
        }
      ],
      "stateMutability": "view",
      "type": "function"
    },
    {
      "inputs": [
        {
          "internalType": "address",
          "name": "token",
          "type": "address"
        },
        {
          "internalType": "address",
          "name": "to",
          "type": "address"
        }
      ],
      "name": "recoverLostERC20",
      "outputs": [],
      "stateMutability": "nonpayable",
      "type": "function"
    },
    {
      "inputs": [
        {
          "internalType": "bytes32",
          "name": "role",
          "type": "bytes32"
        },
        {
          "internalType": "address",
          "name": "account",
          "type": "address"
        }
      ],
      "name": "renounceRole",
      "outputs": [],
      "stateMutability": "nonpayable",
      "type": "function"
    },
    {
      "inputs": [
        {
          "internalType": "uint256",
          "name": "amount",
          "type": "uint256"
        },
        {
          "components": [
            {
              "internalType": "string",
              "name": "tagId",
              "type": "string"
            },
            {
              "internalType": "address",
              "name": "account",
              "type": "address"
            },
            {
              "internalType": "uint256",
              "name": "maxAllocation",
              "type": "uint256"
            },
            {
              "internalType": "uint256",
              "name": "refundFee",
              "type": "uint256"
            },
            {
              "internalType": "uint256",
              "name": "igoTokenPerPaymentToken",
              "type": "uint256"
            }
          ],
          "internalType": "struct IIGOWritableInternal.Allocation",
          "name": "allocation",
          "type": "tuple"
        },
        {
          "internalType": "bytes32[]",
          "name": "proof",
          "type": "bytes32[]"
        }
      ],
      "name": "reserveAllocation",
      "outputs": [],
      "stateMutability": "nonpayable",
      "type": "function"
    },
    {
      "inputs": [
        {
          "internalType": "bytes32",
          "name": "role",
          "type": "bytes32"
        },
        {
          "internalType": "address",
          "name": "account",
          "type": "address"
        }
      ],
      "name": "revokeRole",
      "outputs": [],
      "stateMutability": "nonpayable",
      "type": "function"
    },
    {
      "inputs": [],
      "name": "setUp",
      "outputs": [
        {
          "internalType": "address",
          "name": "vestingContract",
          "type": "address"
        },
        {
          "internalType": "address",
          "name": "paymentToken",
          "type": "address"
        },
        {
          "internalType": "uint256",
          "name": "grandTotal",
          "type": "uint256"
        },
        {
          "internalType": "uint256",
          "name": "summedMaxTagCap",
          "type": "uint256"
        },
        {
          "internalType": "uint256",
          "name": "refundFeeDecimals",
          "type": "uint256"
        }
      ],
      "stateMutability": "view",
      "type": "function"
    },
    {
      "inputs": [
        {
          "internalType": "bytes4",
          "name": "interfaceId",
          "type": "bytes4"
        }
      ],
      "name": "supportsInterface",
      "outputs": [
        {
          "internalType": "bool",
          "name": "",
          "type": "bool"
        }
      ],
      "stateMutability": "view",
      "type": "function"
    },
    {
      "inputs": [
        {
          "internalType": "string",
          "name": "tagId",
          "type": "string"
        }
      ],
      "name": "tag",
      "outputs": [
        {
          "components": [
            {
              "internalType": "enum ISharedInternal.Status",
              "name": "status",
              "type": "uint8"
            },
            {
              "internalType": "bytes32",
              "name": "merkleRoot",
              "type": "bytes32"
            },
            {
              "internalType": "uint128",
              "name": "startAt",
              "type": "uint128"
            },
            {
              "internalType": "uint128",
              "name": "endAt",
              "type": "uint128"
            },
            {
              "internalType": "uint256",
              "name": "maxTagCap",
              "type": "uint256"
            },
            {
              "internalType": "uint256",
              "name": "minAllocation",
              "type": "uint256"
            },
            {
              "internalType": "uint256",
              "name": "maxAllocation",
              "type": "uint256"
            },
            {
              "internalType": "uint256",
              "name": "allocation",
              "type": "uint256"
            },
            {
              "internalType": "uint256",
              "name": "maxParticipants",
              "type": "uint256"
            }
          ],
          "internalType": "struct ISharedInternal.Tag",
          "name": "tag_",
          "type": "tuple"
        }
      ],
      "stateMutability": "view",
      "type": "function"
    },
    {
      "inputs": [],
      "name": "tagIds",
      "outputs": [
        {
          "internalType": "string[]",
          "name": "tagIds_",
          "type": "string[]"
        }
      ],
      "stateMutability": "view",
      "type": "function"
    },
    {
      "inputs": [],
      "name": "totalRaised",
      "outputs": [
        {
          "internalType": "uint256",
          "name": "",
          "type": "uint256"
        }
      ],
      "stateMutability": "view",
      "type": "function"
    },
    {
      "inputs": [
        {
          "internalType": "uint256",
          "name": "grandTotal_",
          "type": "uint256"
        }
      ],
      "name": "updateGrandTotal",
      "outputs": [],
      "stateMutability": "nonpayable",
      "type": "function"
    },
    {
      "inputs": [
        {
          "internalType": "string",
          "name": "tagId_",
          "type": "string"
        },
        {
          "components": [
            {
              "internalType": "enum ISharedInternal.Status",
              "name": "status",
              "type": "uint8"
            },
            {
              "internalType": "bytes32",
              "name": "merkleRoot",
              "type": "bytes32"
            },
            {
              "internalType": "uint128",
              "name": "startAt",
              "type": "uint128"
            },
            {
              "internalType": "uint128",
              "name": "endAt",
              "type": "uint128"
            },
            {
              "internalType": "uint256",
              "name": "maxTagCap",
              "type": "uint256"
            },
            {
              "internalType": "uint256",
              "name": "minAllocation",
              "type": "uint256"
            },
            {
              "internalType": "uint256",
              "name": "maxAllocation",
              "type": "uint256"
            },
            {
              "internalType": "uint256",
              "name": "allocation",
              "type": "uint256"
            },
            {
              "internalType": "uint256",
              "name": "maxParticipants",
              "type": "uint256"
            }
          ],
          "internalType": "struct ISharedInternal.Tag",
          "name": "tag_",
          "type": "tuple"
        }
      ],
      "name": "updateSetTag",
      "outputs": [],
      "stateMutability": "nonpayable",
      "type": "function"
    },
    {
      "inputs": [
        {
          "internalType": "string[]",
          "name": "tagIdentifiers_",
          "type": "string[]"
        },
        {
          "components": [
            {
              "internalType": "enum ISharedInternal.Status",
              "name": "status",
              "type": "uint8"
            },
            {
              "internalType": "bytes32",
              "name": "merkleRoot",
              "type": "bytes32"
            },
            {
              "internalType": "uint128",
              "name": "startAt",
              "type": "uint128"
            },
            {
              "internalType": "uint128",
              "name": "endAt",
              "type": "uint128"
            },
            {
              "internalType": "uint256",
              "name": "maxTagCap",
              "type": "uint256"
            },
            {
              "internalType": "uint256",
              "name": "minAllocation",
              "type": "uint256"
            },
            {
              "internalType": "uint256",
              "name": "maxAllocation",
              "type": "uint256"
            },
            {
              "internalType": "uint256",
              "name": "allocation",
              "type": "uint256"
            },
            {
              "internalType": "uint256",
              "name": "maxParticipants",
              "type": "uint256"
            }
          ],
          "internalType": "struct ISharedInternal.Tag[]",
          "name": "tags_",
          "type": "tuple[]"
        }
      ],
      "name": "updateSetTags",
      "outputs": [],
      "stateMutability": "nonpayable",
      "type": "function"
    },
    {
      "inputs": [
        {
          "internalType": "string",
          "name": "tagId",
          "type": "string"
        },
        {
          "internalType": "uint128",
          "name": "endAt",
          "type": "uint128"
        }
      ],
      "name": "updateTagEndDate",
      "outputs": [],
      "stateMutability": "nonpayable",
      "type": "function"
    },
    {
      "inputs": [
        {
          "internalType": "string",
          "name": "tagId",
          "type": "string"
        },
        {
          "internalType": "uint256",
          "name": "maxTagCap",
          "type": "uint256"
        }
      ],
      "name": "updateTagMaxCap",
      "outputs": [],
      "stateMutability": "nonpayable",
      "type": "function"
    },
    {
      "inputs": [
        {
          "internalType": "string",
          "name": "tagId",
          "type": "string"
        },
        {
          "internalType": "bytes32",
          "name": "merkleRoot",
          "type": "bytes32"
        }
      ],
      "name": "updateTagMerkleRoot",
      "outputs": [],
      "stateMutability": "nonpayable",
      "type": "function"
    },
    {
      "inputs": [
        {
          "internalType": "string",
          "name": "tagId",
          "type": "string"
        },
        {
          "internalType": "uint128",
          "name": "startAt",
          "type": "uint128"
        }
      ],
      "name": "updateTagStartDate",
      "outputs": [],
      "stateMutability": "nonpayable",
      "type": "function"
    }
  ],
  "bytecode": "0x608034620000ec57601f62004d0738819003918201601f1916830192916001600160401b03841183851017620000f15780839260409586528339602092839181010312620000ec57516001600160a01b03811690819003620000ec578262000093926001600355600260009182805260018152838320858452815260ff848420541615620000a2575b828052522062000107565b5051614b729081620001958239f35b828052600181528383208584528152838320600160ff198254161790553385847f2f8788117e7eff1d82e926ec794901d17c78024a50270940304540a733656f0d8180a462000088565b600080fd5b634e487b7160e01b600052604160045260246000fd5b919060018301600090828252806020526040822054156000146200018e57845494680100000000000000008610156200017a57600186018082558610156200016657836040949596828552602085200155549382526020522055600190565b634e487b7160e01b83526032600452602483fd5b634e487b7160e01b83526041600452602483fd5b5092505056fe608080604052600436101561001357600080fd5b600090813560e01c90816301ffc9a714613132575080630917e7a014612c3b5780630a9254e414612bb55780631bcaddc214612b31578063248a9ca314612ae75780632f2ff15d146129dd57806333e21bec1461297857806336568abe146128935780634fd737f6146120c95780635625671e1461202d5780635a5fdab714611fa95780635b4b22ae14611f215780637518d35c14611db65780637eae687e14611bd35780638393080814611b68578063852c49a714611ae95780638f77ef3114611a645780638fea4e7a14610c055780639010d07c14610b95578063907d308514610ac457806391d1485414610a4c57806398e3fdc4146109bf578063a217fddf14610985578063adb680bf146108ba578063c5c4744c1461085f578063ca15c87314610817578063d547741f146107bb578063db365f84146106d7578063e6807afd1461060c578063f1efb9311461051a578063faf0c5811461021e5763ff77d0be1461018157600080fd5b3461021b5760207ffffffffffffffffffffffffffffffffffffffffffffffffffffffffffffffffc36011261021b576004359067ffffffffffffffff821161021b5760206101e9816101d63660048701613426565b8160405193828580945193849201613444565b81017ff8bb2a4b5b30792eb350607495ebe7f79c5a5066287187429654459fae715b2681520301902054604051908152f35b80fd5b503461021b5760407ffffffffffffffffffffffffffffffffffffffffffffffffffffffffffffffffc36011261021b57610256613279565b61025e613256565b610266613514565b73ffffffffffffffffffffffffffffffffffffffff8092169182156104bc57604051927f70a082310000000000000000000000000000000000000000000000000000000084523060048501526020938481602481855afa9081156104b1578691610480575b5060405192858401947fa9059cbb000000000000000000000000000000000000000000000000000000008652166024840152604483015260448252608082019167ffffffffffffffff818410818511176104515760c0820190811184821017610451576040528483527f5361666545524332303a206c6f772d6c6576656c2063616c6c206661696c656460a082015251610393938691829182855af13d15610449573d91610378836133b5565b926103866040519485613311565b83523d878785013e61443e565b805190828215928315610431575b505050156103ad575080f35b608490604051907f08c379a00000000000000000000000000000000000000000000000000000000082526004820152602a60248201527f5361666545524332303a204552433230206f7065726174696f6e20646964206e60448201527f6f742073756363656564000000000000000000000000000000000000000000006064820152fd5b61044193508201810191016141e4565b3882816103a1565b60609161443e565b7f4e487b7100000000000000000000000000000000000000000000000000000000600052604160045260246000fd5b90508481813d83116104aa575b6104978183613311565b810103126104a65751386102cb565b8580fd5b503d61048d565b6040513d88823e3d90fd5b60646040517f08c379a000000000000000000000000000000000000000000000000000000000815260206004820152601260248201527f546f6b656e5f5a45524f5f4144445245535300000000000000000000000000006044820152fd5b503461021b5760207ffffffffffffffffffffffffffffffffffffffffffffffffffffffffffffffffc36011261021b57600435610555613514565b6103e881106105ae57610589817ff8bb2a4b5b30792eb350607495ebe7f79c5a5066287187429654459fae715b2054614af7565b7ff8bb2a4b5b30792eb350607495ebe7f79c5a5066287187429654459fae715b1f5580f35b60646040517f08c379a000000000000000000000000000000000000000000000000000000000815260206004820152601b60248201527f6772616e64546f74616c5f4c6f7765725468616e5f5f315f30303000000000006044820152fd5b503461021b576fffffffffffffffffffffffffffffffff61062c366134aa565b61063893919293613514565b16914283106106795760029161064d91613e23565b01907fffffffffffffffffffffffffffffffff0000000000000000000000000000000082541617905580f35b60646040517f08c379a000000000000000000000000000000000000000000000000000000000815260206004820152600d60248201527f53544152545f494e5f50415354000000000000000000000000000000000000006044820152fd5b503461021b576106e6366134aa565b906106ef613514565b426fffffffffffffffffffffffffffffffff8316111561075d5761071860029161075a94613e23565b01906fffffffffffffffffffffffffffffffff7fffffffffffffffffffffffffffffffff0000000000000000000000000000000083549260801b169116179055565b80f35b60646040517f08c379a000000000000000000000000000000000000000000000000000000000815260206004820152600b60248201527f454e445f494e5f504153540000000000000000000000000000000000000000006044820152fd5b503461021b5760407ffffffffffffffffffffffffffffffffffffffffffffffffffffffffffffffffc36011261021b5761075a6004356107f9613256565b90808452600160205261081260016040862001546137c9565b613903565b503461021b5760207ffffffffffffffffffffffffffffffffffffffffffffffffffffffffffffffffc36011261021b5760406020916004358152600283522054604051908152f35b503461021b57807ffffffffffffffffffffffffffffffffffffffffffffffffffffffffffffffffc36011261021b5760207ff8bb2a4b5b30792eb350607495ebe7f79c5a5066287187429654459fae715b2554604051908152f35b503461021b5760407ffffffffffffffffffffffffffffffffffffffffffffffffffffffffffffffffc36011261021b5760043567ffffffffffffffff81116109815761090a903690600401613426565b73ffffffffffffffffffffffffffffffffffffffff610940602061092c613256565b938160405193828580945193849201613444565b81017ff8bb2a4b5b30792eb350607495ebe7f79c5a5066287187429654459fae715b2881520301902091166000526020526020604060002054604051908152f35b5080fd5b503461021b57807ffffffffffffffffffffffffffffffffffffffffffffffffffffffffffffffffc36011261021b57602090604051908152f35b503461021b5760207ffffffffffffffffffffffffffffffffffffffffffffffffffffffffffffffffc36011261021b5760043567ffffffffffffffff811161098157610a12610a20913690600401613223565b90610a1b613514565b613e23565b60037fffffffffffffffffffffffffffffffffffffffffffffffffffffffffffffff0082541617905580f35b503461021b5760407ffffffffffffffffffffffffffffffffffffffffffffffffffffffffffffffffc36011261021b5773ffffffffffffffffffffffffffffffffffffffff6040610a9b613256565b9260043581526001602052209116600052602052602060ff604060002054166040519015158152f35b503461021b5760407ffffffffffffffffffffffffffffffffffffffffffffffffffffffffffffffffc36011261021b5760043567ffffffffffffffff811161098157610b14903690600401613223565b60243591610b20613514565b8215610b3757600191610b3291613e23565b015580f35b60646040517f08c379a000000000000000000000000000000000000000000000000000000000815260206004820152601060248201527f4d65726b6c65526f6f745f454d505459000000000000000000000000000000006044820152fd5b503461021b5760407ffffffffffffffffffffffffffffffffffffffffffffffffffffffffffffffffc36011261021b5773ffffffffffffffffffffffffffffffffffffffff610bf560209260043581526002845260406024359120613c0f565b9190546040519260031b1c168152f35b503461021b577ffffffffffffffffffffffffffffffffffffffffffffffffffffffffffffffffc6060813601126109815767ffffffffffffffff602435116109815760a0906024353603011261021b5760443567ffffffffffffffff811161098157610c75903690600401613352565b9190600260035414611a06576002600355610c9e610c9860046024350180614133565b90613e23565b9060405191610cac836132d8565b60ff81541660048110156119d9579060079184526001810154602085015260028101546fffffffffffffffffffffffffffffffff8116604086015260801c606085015260038101546080850152600481015460a0850152600581015460c0850152600681015460e08501520154610100830152610d27613f61565b60043560a08401511161197b5760043560446024350135106118f75760043560c08401511061187357608083015192606082015190610dd8610dcf610d6f6024803501614184565b610dc9610d8160046024350180614133565b91909273ffffffffffffffffffffffffffffffffffffffff166000527ff8bb2a4b5b30792eb350607495ebe7f79c5a5066287187429654459fae715b29602052604060002090565b91613f03565b546004356139b8565b6044602435013581116118285750610df36024803501614184565b73ffffffffffffffffffffffffffffffffffffffff339116036117ca57610e3d7ff8bb2a4b5b30792eb350607495ebe7f79c5a5066287187429654459fae715b25546004356139b8565b82811161178a575060ff7ff8bb2a4b5b30792eb350607495ebe7f79c5a5066287187429654459fae715b245416600481101561175d57600181036117245750610e9d610e98610e9160046024350180614133565b36916133ef565b614233565b610100610eaf60046024350180614133565b9190920151610ebe8284613e5b565b548111156116dd5750610ed991505060046024350180614133565b610ee6610dcf8284613e93565b868111611686575060019150610f069050610c9860046024350180614133565b015495604051602080820152602435600401357fffffffffffffffffffffffffffffffffffffffffffffffffffffffffffffffdd60243536030181121561168257602435016024600482013591019067ffffffffffffffff811161167e57803603821361167e5790610f839160a0604085015260e08401916141a5565b60248035013573ffffffffffffffffffffffffffffffffffffffff811680910361167e57606083015260243560448101356080840152606481013560a08401526084013560c08301528190037fffffffffffffffffffffffffffffffffffffffffffffffffffffffffffffffe081018252610ffe9082613311565b602081519101209061100f816140c8565b9461101d6040519687613311565b8186526020860190368360051b82011161167e5780915b8360051b8201831061166e57505050509385945b84518610156110915760208660051b860101519081811060001461107f578752602052611079604087205b95614411565b94611048565b90875260205261107960408720611073565b908787939203611610576110aa60046024350180614133565b9190926110ba6024803501614184565b6110e76004357ff8bb2a4b5b30792eb350607495ebe7f79c5a5066287187429654459fae715b25546139b8565b7ff8bb2a4b5b30792eb350607495ebe7f79c5a5066287187429654459fae715b25556111138486613e93565b61112060043582546139b8565b905561112c8486613ecb565b73ffffffffffffffffffffffffffffffffffffffff821687526020526040862054156115c3575b6111d86111df916111648688613ecb565b73ffffffffffffffffffffffffffffffffffffffff821689526020526040882061119160043582546139b8565b905573ffffffffffffffffffffffffffffffffffffffff166000527ff8bb2a4b5b30792eb350607495ebe7f79c5a5066287187429654459fae715b29602052604060002090565b8486613f03565b6111ec60043582546139b8565b90557ff8bb2a4b5b30792eb350607495ebe7f79c5a5066287187429654459fae715b255414611555575b6112208284613e93565b5414611519575b60026112338284613e23565b015460801c4210156114d5575b5050815173ffffffffffffffffffffffffffffffffffffffff1661126960046024350180614133565b6112766024803501614184565b73ffffffffffffffffffffffffffffffffffffffff602087015116843b156104a65792856112f59373ffffffffffffffffffffffffffffffffffffffff96938296604051988997889687957f37a97db700000000000000000000000000000000000000000000000000000000875260c0600488015260c48701916141a5565b92166024840152600435604484015260648301526084602435013560848301526064602435013560a483015203925af180156114ca57611485575b509081602073ffffffffffffffffffffffffffffffffffffffff8184015116606473ffffffffffffffffffffffffffffffffffffffff85511660405194859384927f23b872dd000000000000000000000000000000000000000000000000000000008452336004850152602484015260043560448401525af1801561147a5761144b575b506113c460046024350180614133565b73ffffffffffffffffffffffffffffffffffffffff60206113e86024803501614184565b940151169181604051928392833781018581520390206040519182527f24b17f7cc1c323d081ca24ebe682df530605d2207ecdde5a86c1d0bb44a88a6d602073ffffffffffffffffffffffffffffffffffffffff600435951693a4600160035580f35b61146c9060203d602011611473575b6114648183613311565b8101906141e4565b50826113b4565b503d61145a565b6040513d85823e3d90fd5b67ffffffffffffffff811161149d5760405282611330565b6024827f4e487b710000000000000000000000000000000000000000000000000000000081526041600452fd5b6040513d84823e3d90fd5b6114e9916114e49136916133ef565b613f1c565b60027fffffffffffffffffffffffffffffffffffffffffffffffffffffffffffffff008254161790558280611240565b6115276114e43683856133ef565b60027fffffffffffffffffffffffffffffffffffffffffffffffffffffffffffffff00825416179055611227565b60027fffffffffffffffffffffffffffffffffffffffffffffffffffffffffffffff007ff8bb2a4b5b30792eb350607495ebe7f79c5a5066287187429654459fae715b245416177ff8bb2a4b5b30792eb350607495ebe7f79c5a5066287187429654459fae715b2455611216565b6115cd8486613e5b565b80546001810181116115e3576001019055611153565b6024887f4e487b710000000000000000000000000000000000000000000000000000000081526011600452fd5b60646040517f08c379a000000000000000000000000000000000000000000000000000000000815260206004820152601460248201527f414c4c4f434154494f4e5f4e4f545f464f554e440000000000000000000000006044820152fd5b8235815260209283019201611034565b8880fd5b8780fd5b611691878092613cea565b6116ce6040519485947f2877ff9e0000000000000000000000000000000000000000000000000000000086526060600487015260648601916141a5565b91602484015260448301520390fd5b61171a6040519384937f4fdac5370000000000000000000000000000000000000000000000000000000085526040600486015260448501916141a5565b9060248301520390fd5b60249061175b604051917fb293db19000000000000000000000000000000000000000000000000000000008352600483019061329c565bfd5b6024877f4e487b710000000000000000000000000000000000000000000000000000000081526021600452fd5b8261179781604493613cea565b604051917fcced311a00000000000000000000000000000000000000000000000000000000835260048301526024820152fd5b60646040517f08c379a000000000000000000000000000000000000000000000000000000000815260206004820152601a60248201527f6d73672e73656e6465723a204e4f545f415554484f52495a45440000000000006044820152fd5b61183a60449182602435013590613cea565b604051907fadaa553200000000000000000000000000000000000000000000000000000000825282602435013560048301526024820152fd5b60846040517f08c379a000000000000000000000000000000000000000000000000000000000815260206004820152602260248201527f457863656564207468616e20746167206d6178696d756d20616c6c6f6361746960448201527f6f6e0000000000000000000000000000000000000000000000000000000000006064820152fd5b60846040517f08c379a000000000000000000000000000000000000000000000000000000000815260206004820152602660248201527f457863656564207468616e206772616e746564206d6178696d756d20616c6c6f60448201527f636174696f6e00000000000000000000000000000000000000000000000000006064820152fd5b60646040517f08c379a000000000000000000000000000000000000000000000000000000000815260206004820152601c60248201527f4c657373207468616e206d696e696d756d20616c6c6f636174696f6e000000006044820152fd5b6024857f4e487b710000000000000000000000000000000000000000000000000000000081526021600452fd5b60646040517f08c379a000000000000000000000000000000000000000000000000000000000815260206004820152601f60248201527f5265656e7472616e637947756172643a207265656e7472616e742063616c6c006044820152fd5b503461021b5760407ffffffffffffffffffffffffffffffffffffffffffffffffffffffffffffffffc36011261021b5767ffffffffffffffff600435818111611ae557611ab5903690600401613352565b90602435928311611ae157611ad161075a933690600401613383565b929091611adc613514565b6145b8565b8380fd5b8280fd5b503461021b5760207ffffffffffffffffffffffffffffffffffffffffffffffffffffffffffffffffc36011261021b5760043567ffffffffffffffff811161098157610a12611b3c913690600401613223565b60017fffffffffffffffffffffffffffffffffffffffffffffffffffffffffffffff0082541617905580f35b503461021b5760407ffffffffffffffffffffffffffffffffffffffffffffffffffffffffffffffffc36011261021b57611ba0613279565b906024359067ffffffffffffffff821161021b576020611bca84610dc9610d813660048801613223565b54604051908152f35b503461021b57807ffffffffffffffffffffffffffffffffffffffffffffffffffffffffffffffffc36011261021b577ff8bb2a4b5b30792eb350607495ebe7f79c5a5066287187429654459fae715b2290815491611c30836140c8565b91611c3e6040519384613311565b83835260209384840190819383527f65081cd3ad5fc84209c8310f7404cee8bc03efec5e3d920e46e7ba762f27ce4c9183905b828210611cf45750505050604051928484019085855251809152604084019460408260051b8601019392955b828710611caa5785850386f35b909192938280611ce4837fffffffffffffffffffffffffffffffffffffffffffffffffffffffffffffffc08a600196030186528851613467565b9601920196019592919092611c9d565b60409796949751878992865492611d0a846140e0565b808252600194808616908115611d7c5750600114611d44575b50611d32816001960382613311565b81520194019101909296939596611c71565b888d52838d2095508c905b808210611d655750810183019450611d32611d23565b8654838301860152958501958c9490910190611d4f565b7fffffffffffffffffffffffffffffffffffffffffffffffffffffffffffffff00168584015250151560051b810183019450611d32611d23565b503461021b5760207ffffffffffffffffffffffffffffffffffffffffffffffffffffffffffffffffc36011261021b5760043567ffffffffffffffff811161098157611e09611e17913690600401613426565b611e11614083565b50613f1c565b604051611e23816132d8565b60ff825416916004831015611ef457610120935082825260018101549060208301918252600281015460408401906fffffffffffffffffffffffffffffffff8082168352606086019160801c82526003840154906080870191825260048501549260a088019384528160058701549560c08a01968752600760068901549860e08c01998a52015498610100809b01998a52611ec1604051809d61329c565b5160208c0152511660408a0152511660608801525160808701525160a08601525160c08501525160e08401525190820152f35b6024847f4e487b710000000000000000000000000000000000000000000000000000000081526021600452fd5b503461021b5760207ffffffffffffffffffffffffffffffffffffffffffffffffffffffffffffffffc36011261021b576004359067ffffffffffffffff821161021b576020611f77816101d63660048701613426565b81017ff8bb2a4b5b30792eb350607495ebe7f79c5a5066287187429654459fae715b2781520301902054604051908152f35b503461021b57807ffffffffffffffffffffffffffffffffffffffffffffffffffffffffffffffffc36011261021b57611fe0613514565b7ff8bb2a4b5b30792eb350607495ebe7f79c5a5066287187429654459fae715b2460017fffffffffffffffffffffffffffffffffffffffffffffffffffffffffffffff0082541617905580f35b503461021b5760407ffffffffffffffffffffffffffffffffffffffffffffffffffffffffffffffffc36011261021b5760043567ffffffffffffffff8111610981576003612082610b32923690600401613223565b602435939161208f613514565b610a1b61209a613f61565b60606120c0886120bb60808501518a6120b38a8a613e23565b015490613cea565b6139b8565b91015190614af7565b503461021b576101207ffffffffffffffffffffffffffffffffffffffffffffffffffffffffffffffffc36011261021b57612102613279565b60c07fffffffffffffffffffffffffffffffffffffffffffffffffffffffffffffffdc3601126109815760405167ffffffffffffffff60c082018181118382101761286657604052612152613256565b825260443573ffffffffffffffffffffffffffffffffffffffff8116810361286257602083015260643573ffffffffffffffffffffffffffffffffffffffff81168103612862576040830152608435606083015260a435608083015260c43560a083015260e435818111612862576121ce903690600401613352565b91610104359081116104a6576121e8903690600401613383565b92909186549560ff8760081c161596878098612855575b801561283e575b156127ba578760017fffffffffffffffffffffffffffffffffffffffffffffffffffffffffffffff008316178a5561278c575b50612242613514565b73ffffffffffffffffffffffffffffffffffffffff81161561272e5773ffffffffffffffffffffffffffffffffffffffff865116156126aa5773ffffffffffffffffffffffffffffffffffffffff602087015116156126265773ffffffffffffffffffffffffffffffffffffffff604087015116156125a2576060860151156125445761247a9561231873ffffffffffffffffffffffffffffffffffffffff60a0938b8052600160205260408c208282168d5260205260ff60408d205416156124d5575b8b805260026020521660408b20613c27565b5073ffffffffffffffffffffffffffffffffffffffff8151167fffffffffffffffffffffffff0000000000000000000000000000000000000000907ff8bb2a4b5b30792eb350607495ebe7f79c5a5066287187429654459fae715b1c908282541617905573ffffffffffffffffffffffffffffffffffffffff6020830151167ff8bb2a4b5b30792eb350607495ebe7f79c5a5066287187429654459fae715b1d908282541617905573ffffffffffffffffffffffffffffffffffffffff6040830151167ff8bb2a4b5b30792eb350607495ebe7f79c5a5066287187429654459fae715b1e9182541617905560608101517ff8bb2a4b5b30792eb350607495ebe7f79c5a5066287187429654459fae715b1f5560808101517ff8bb2a4b5b30792eb350607495ebe7f79c5a5066287187429654459fae715b205501517ff8bb2a4b5b30792eb350607495ebe7f79c5a5066287187429654459fae715b21556145b8565b6124815780f35b7fffffffffffffffffffffffffffffffffffffffffffffffffffffffffffff00ff81541681557f7f26b83ff96e1f2b6a682f133852f6798a09c465da95921460cefb3847402498602060405160018152a180f35b8b8052600160205260408c208282168d5260205260408c2060017fffffffffffffffffffffffffffffffffffffffffffffffffffffffffffffff00825416179055338282168d7f2f8788117e7eff1d82e926ec794901d17c78024a50270940304540a733656f0d8180a4612306565b60646040517f08c379a000000000000000000000000000000000000000000000000000000000815260206004820152601c60248201527f49474f5772697461626c655f5f6772616e64546f74616c5f5a45524f000000006044820152fd5b60846040517f08c379a000000000000000000000000000000000000000000000000000000000815260206004820152602160248201527f49474f5772697461626c655f5f7065726d6974325f5a45524f5f41444452455360448201527f53000000000000000000000000000000000000000000000000000000000000006064820152fd5b60846040517f08c379a000000000000000000000000000000000000000000000000000000000815260206004820152602660248201527f49474f5772697461626c655f5f7061796d656e74546f6b656e5f5a45524f5f4160448201527f44445245535300000000000000000000000000000000000000000000000000006064820152fd5b60846040517f08c379a000000000000000000000000000000000000000000000000000000000815260206004820152602960248201527f49474f5772697461626c655f5f76657374696e67436f6e74726163745f5a455260448201527f4f5f4144445245535300000000000000000000000000000000000000000000006064820152fd5b60646040517f08c379a000000000000000000000000000000000000000000000000000000000815260206004820152601f60248201527f49474f5772697461626c655f5f6f776e65725f5a45524f5f41444452455353006044820152fd5b7fffffffffffffffffffffffffffffffffffffffffffffffffffffffffffff00001661010117885538612239565b60846040517f08c379a000000000000000000000000000000000000000000000000000000000815260206004820152602e60248201527f496e697469616c697a61626c653a20636f6e747261637420697320616c72656160448201527f647920696e697469616c697a65640000000000000000000000000000000000006064820152fd5b50303b1580156122065750600160ff821614612206565b50600160ff8216106121ff565b8480fd5b6024857f4e487b710000000000000000000000000000000000000000000000000000000081526041600452fd5b503461021b5760407ffffffffffffffffffffffffffffffffffffffffffffffffffffffffffffffffc36011261021b576128cb613256565b3373ffffffffffffffffffffffffffffffffffffffff8216036128f45761075a90600435613903565b60846040517f08c379a000000000000000000000000000000000000000000000000000000000815260206004820152602f60248201527f416363657373436f6e74726f6c3a2063616e206f6e6c792072656e6f756e636560448201527f20726f6c657320666f722073656c6600000000000000000000000000000000006064820152fd5b503461021b57807ffffffffffffffffffffffffffffffffffffffffffffffffffffffffffffffffc36011261021b57602060ff7ff8bb2a4b5b30792eb350607495ebe7f79c5a5066287187429654459fae715b2454166129db604051809261329c565bf35b503461021b5760407ffffffffffffffffffffffffffffffffffffffffffffffffffffffffffffffffc36011261021b57612a7a6004356002612a1d613256565b9180855260209060018252612a3860016040882001546137c9565b8086526001825273ffffffffffffffffffffffffffffffffffffffff60408720941693848752825260ff60408720541615612a7e575b85525260408320613c27565b5080f35b808652600182526040862084875282526040862060017fffffffffffffffffffffffffffffffffffffffffffffffffffffffffffffff008254161790553384827f2f8788117e7eff1d82e926ec794901d17c78024a50270940304540a733656f0d8980a4612a6e565b503461021b5760207ffffffffffffffffffffffffffffffffffffffffffffffffffffffffffffffffc36011261021b57600160406020926004358152828452200154604051908152f35b503461021b57807ffffffffffffffffffffffffffffffffffffffffffffffffffffffffffffffffc36011261021b57612b68613514565b7ff8bb2a4b5b30792eb350607495ebe7f79c5a5066287187429654459fae715b2460037fffffffffffffffffffffffffffffffffffffffffffffffffffffffffffffff0082541617905580f35b503461021b57807ffffffffffffffffffffffffffffffffffffffffffffffffffffffffffffffffc36011261021b5760a0612bee613f61565b73ffffffffffffffffffffffffffffffffffffffff908181511691602082015116906060810151846080830151920151926040519485526020850152604084015260608301526080820152f35b503461021b576101407ffffffffffffffffffffffffffffffffffffffffffffffffffffffffffffffffc36011261021b5767ffffffffffffffff600435818111611ae557612c8d903690600401613223565b906101207fffffffffffffffffffffffffffffffffffffffffffffffffffffffffffffffdc360112611ae157612cc1613514565b612ccb8282613e23565b604051612cd7816132d8565b60ff825416600481101561175d5781526001928383015494602095868401526002840154926fffffffffffffffffffffffffffffffff93848116604083015260801c6060820152610100600760038701549660808401978852600481015460a0850152600581015460c0850152600681015460e08501520154910152604435918215158061311c575b80613103575b806130f8575b612d759061450a565b7ff8bb2a4b5b30792eb350607495ebe7f79c5a5066287187429654459fae715b1f54977ff8bb2a4b5b30792eb350607495ebe7f79c5a5066287187429654459fae715b2097612dc8895497518098613cea565b96612de0612dd960a435809a6139b8565b9b8c614af7565b15612ebf575b505090612df291613e23565b93602435600481101561167e57612e0990866141fc565b8401556002830190606435818116809103611682577fffffffffffffffffffffffffffffffff000000000000000000000000000000008354161782556084359081168103612ebb5781546fffffffffffffffffffffffffffffffff1660809190911b7fffffffffffffffffffffffffffffffff0000000000000000000000000000000016179055600382015560c435600482015560e43560058201556101043560068201556007610124359101555580f35b8680fd5b7ff8bb2a4b5b30792eb350607495ebe7f79c5a5066287187429654459fae715b22805490680100000000000000008210156130cb578982019055612f0290613bba565b92909261309f57841161307257612f1982546140e0565b601f811161302c575b508a90601f8511600114612f8457509083612df29493928c91612f79575b5083891b907fffffffffffffffffffffffffffffffffffffffffffffffffffffffffffffffff8560031b1c19161790555b909138612de6565b905082013538612f40565b849392918c917fffffffffffffffffffffffffffffffffffffffffffffffffffffffffffffffe08b97169084845280842093905b828210613013575050612df296508511612fdb575b50508783811b019055612f71565b7fffffffffffffffffffffffffffffffffffffffffffffffffffffffffffffffff60f88660031b161c19908401351690553880612fcd565b8684013585558c98909401939283019290810190612fb8565b828c52818c20601f860160051c810191838710613068575b601f0160051c019089905b82811061305d575050612f22565b8d815501899061304f565b9091508190613044565b60248b7f4e487b710000000000000000000000000000000000000000000000000000000081526041600452fd5b60248c7f4e487b7100000000000000000000000000000000000000000000000000000000815280600452fd5b60248d7f4e487b710000000000000000000000000000000000000000000000000000000081526041600452fd5b5060a4351515612d6c565b50608435848116809103613118574210612d66565b8980fd5b5060643584811680910361311857421115612d60565b9050346109815760207ffffffffffffffffffffffffffffffffffffffffffffffffffffffffffffffffc360112610981576004357fffffffff000000000000000000000000000000000000000000000000000000008116809103611ae557602092507f5a05180f0000000000000000000000000000000000000000000000000000000081149081156131c6575b5015158152f35b7f7965db0b000000000000000000000000000000000000000000000000000000008114915081156131f9575b50386131bf565b7f01ffc9a700000000000000000000000000000000000000000000000000000000915014386131f2565b9181601f840112156132515782359167ffffffffffffffff8311613251576020838186019501011161325157565b600080fd5b6024359073ffffffffffffffffffffffffffffffffffffffff8216820361325157565b6004359073ffffffffffffffffffffffffffffffffffffffff8216820361325157565b9060048210156132a95752565b7f4e487b7100000000000000000000000000000000000000000000000000000000600052602160045260246000fd5b610120810190811067ffffffffffffffff82111761045157604052565b6080810190811067ffffffffffffffff82111761045157604052565b90601f7fffffffffffffffffffffffffffffffffffffffffffffffffffffffffffffffe0910116810190811067ffffffffffffffff82111761045157604052565b9181601f840112156132515782359167ffffffffffffffff8311613251576020808501948460051b01011161325157565b9181601f840112156132515782359167ffffffffffffffff831161325157602080850194610120850201011161325157565b67ffffffffffffffff811161045157601f017fffffffffffffffffffffffffffffffffffffffffffffffffffffffffffffffe01660200190565b9291926133fb826133b5565b916134096040519384613311565b829481845281830111613251578281602093846000960137010152565b9080601f8301121561325157816020613441933591016133ef565b90565b60005b8381106134575750506000910152565b8181015183820152602001613447565b907fffffffffffffffffffffffffffffffffffffffffffffffffffffffffffffffe0601f6020936134a381518092818752878088019101613444565b0116010190565b60407ffffffffffffffffffffffffffffffffffffffffffffffffffffffffffffffffc820112613251576004359067ffffffffffffffff8211613251576134f391600401613223565b90916024356fffffffffffffffffffffffffffffffff811681036132515790565b3360009081527fa6eef7e35abe7026729641147f7915573c7e97b47efa546f5f6e3230263bcb496020908152604080832054909260019160ff16156135595750505050565b61356233613a34565b9181855191613570836132f5565b6042835285830193606036863783511561379c5760308553835182101561379c5790607860218501536041915b8183116136d15750505061367557604861367193869361363b9361362c98519889937f416363657373436f6e74726f6c3a206163636f756e74200000000000000000008a8601526135f7815180928c603789019101613444565b8401917f206973206d697373696e6720726f6c6520000000000000000000000000000000603784015251809386840190613444565b01036028810187520185613311565b519283927f08c379a000000000000000000000000000000000000000000000000000000000845260048401526024830190613467565b0390fd5b6064848651907f08c379a000000000000000000000000000000000000000000000000000000000825280600483015260248201527f537472696e67733a20686578206c656e67746820696e73756666696369656e746044820152fd5b909192600f8116601081101561376f577f3031323334353637383961626364656600000000000000000000000000000000901a61370e85876139f4565b5360041c928015613742577fffffffffffffffffffffffffffffffffffffffffffffffffffffffffffffffff01919061359d565b6024827f4e487b710000000000000000000000000000000000000000000000000000000081526011600452fd5b6024837f4e487b710000000000000000000000000000000000000000000000000000000081526032600452fd5b807f4e487b7100000000000000000000000000000000000000000000000000000000602492526032600452fd5b6000818152600191602091838352604093848220338352845260ff8583205416156137f5575050505050565b6137fe33613a34565b9285519161380b836132f5565b6042835285830193606036863783511561379c5760308553835182101561379c5790607860218501536041915b8183116138925750505061367557604861367193869361363b9361362c98519889937f416363657373436f6e74726f6c3a206163636f756e74200000000000000000008a8601526135f7815180928c603789019101613444565b909192600f8116601081101561376f577f3031323334353637383961626364656600000000000000000000000000000000901a6138cf85876139f4565b5360041c928015613742577fffffffffffffffffffffffffffffffffffffffffffffffffffffffffffffffff019190613838565b90604061394f92600090808252600160205273ffffffffffffffffffffffffffffffffffffffff83832094169384835260205260ff8383205416613952575b8152600260205220613cf7565b50565b80825260016020528282208483526020528282207fffffffffffffffffffffffffffffffffffffffffffffffffffffffffffffff0081541690553384827ff6391f5c32d9c69d2a47ea670b442974b53935d1edc7fd64eb21e047a839171b8580a4613942565b919082018092116139c557565b7f4e487b7100000000000000000000000000000000000000000000000000000000600052601160045260246000fd5b908151811015613a05570160200190565b7f4e487b7100000000000000000000000000000000000000000000000000000000600052603260045260246000fd5b604051906060820182811067ffffffffffffffff82111761045157604052602a8252602082016040368237825115613a0557603090538151600190811015613a0557607860218401536029905b808211613aef575050613a915790565b60646040517f08c379a000000000000000000000000000000000000000000000000000000000815260206004820152602060248201527f537472696e67733a20686578206c656e67746820696e73756666696369656e746044820152fd5b9091600f81166010811015613b8c577f3031323334353637383961626364656600000000000000000000000000000000901a613b2b84866139f4565b5360041c918015613b5e577fffffffffffffffffffffffffffffffffffffffffffffffffffffffffffffffff0190613a81565b602460007f4e487b710000000000000000000000000000000000000000000000000000000081526011600452fd5b602460007f4e487b710000000000000000000000000000000000000000000000000000000081526032600452fd5b7ff8bb2a4b5b30792eb350607495ebe7f79c5a5066287187429654459fae715b228054821015613a05576000527f65081cd3ad5fc84209c8310f7404cee8bc03efec5e3d920e46e7ba762f27ce4c0190600090565b8054821015613a055760005260206000200190600090565b91906001830160009082825280602052604082205415600014613ce45784549468010000000000000000861015613cb75783613ca7613c70886001604098999a01855584613c0f565b819391549060031b7fffffffffffffffffffffffffffffffffffffffffffffffffffffffffffffffff811b9283911b169119161790565b9055549382526020522055600190565b6024837f4e487b710000000000000000000000000000000000000000000000000000000081526041600452fd5b50925050565b919082039182116139c557565b90600182019060009281845282602052604084205490811515600014613e1c577fffffffffffffffffffffffffffffffffffffffffffffffffffffffffffffffff91828101818111613def578254908482019182116115e357808203613dba575b50505080548015613d8d57820191613d708383613c0f565b909182549160031b1b191690555582526020526040812055600190565b6024867f4e487b710000000000000000000000000000000000000000000000000000000081526031600452fd5b613dda613dca613c709386613c0f565b90549060031b1c92839286613c0f565b90558652846020526040862055388080613d58565b6024877f4e487b710000000000000000000000000000000000000000000000000000000081526011600452fd5b5050505090565b60209082604051938492833781017ff8bb2a4b5b30792eb350607495ebe7f79c5a5066287187429654459fae715b2381520301902090565b60209082604051938492833781017ff8bb2a4b5b30792eb350607495ebe7f79c5a5066287187429654459fae715b2781520301902090565b60209082604051938492833781017ff8bb2a4b5b30792eb350607495ebe7f79c5a5066287187429654459fae715b2681520301902090565b60209082604051938492833781017ff8bb2a4b5b30792eb350607495ebe7f79c5a5066287187429654459fae715b2881520301902090565b6020919283604051948593843782019081520301902090565b6020613f35918160405193828580945193849201613444565b81017ff8bb2a4b5b30792eb350607495ebe7f79c5a5066287187429654459fae715b2381520301902090565b6040519060c0820182811067ffffffffffffffff821117610451576040528173ffffffffffffffffffffffffffffffffffffffff807ff8bb2a4b5b30792eb350607495ebe7f79c5a5066287187429654459fae715b1c54168252807ff8bb2a4b5b30792eb350607495ebe7f79c5a5066287187429654459fae715b1d541660208301527ff8bb2a4b5b30792eb350607495ebe7f79c5a5066287187429654459fae715b1e541660408201527ff8bb2a4b5b30792eb350607495ebe7f79c5a5066287187429654459fae715b1f5460608201527ff8bb2a4b5b30792eb350607495ebe7f79c5a5066287187429654459fae715b2054608082015260a07ff8bb2a4b5b30792eb350607495ebe7f79c5a5066287187429654459fae715b2154910152565b60405190614090826132d8565b816101006000918281528260208201528260408201528260608201528260808201528260a08201528260c08201528260e08201520152565b67ffffffffffffffff81116104515760051b60200190565b90600182811c92168015614129575b60208310146140fa57565b7f4e487b7100000000000000000000000000000000000000000000000000000000600052602260045260246000fd5b91607f16916140ef565b9035907fffffffffffffffffffffffffffffffffffffffffffffffffffffffffffffffe181360301821215613251570180359067ffffffffffffffff82116132515760200191813603831361325157565b3573ffffffffffffffffffffffffffffffffffffffff811681036132515790565b601f82602094937fffffffffffffffffffffffffffffffffffffffffffffffffffffffffffffffe0938186528686013760008582860101520116010190565b90816020910312613251575180151581036132515790565b9060048110156132a95760ff7fffffffffffffffffffffffffffffffffffffffffffffffffffffffffffffff008354169116179055565b61423c81613f1c565b604051614248816132d8565b60ff825416600492838210156143e3578183526001810154602084015260028101549160076fffffffffffffffffffffffffffffffff84169384604087015260801c92836060870152600381015460808701528681015460a0870152600581015460c0870152600681015460e087015201546101008501521591826143d8575b50816143ce575b506143985780518281101561436a576001036142ea57505050565b518181101561433c5761367161433160409485519586957f5f08440f0000000000000000000000000000000000000000000000000000000087528601526044850190613467565b91602484019061329c565b6021827f4e487b71000000000000000000000000000000000000000000000000000000006000525260246000fd5b6021837f4e487b71000000000000000000000000000000000000000000000000000000006000525260246000fd5b50506143a390613f1c565b60017fffffffffffffffffffffffffffffffffffffffffffffffffffffffffffffff00825416179055565b90504210386142cf565b4210159150386142c8565b6021847f4e487b71000000000000000000000000000000000000000000000000000000006000525260246000fd5b7fffffffffffffffffffffffffffffffffffffffffffffffffffffffffffffffff81146139c55760010190565b919290156144b95750815115614452575090565b3b1561445b5790565b60646040517f08c379a000000000000000000000000000000000000000000000000000000000815260206004820152601d60248201527f416464726573733a2063616c6c20746f206e6f6e2d636f6e74726163740000006044820152fd5b8251909150156144cc5750805190602001fd5b613671906040519182917f08c379a0000000000000000000000000000000000000000000000000000000008352602060048401526024830190613467565b1561451157565b60646040517f08c379a000000000000000000000000000000000000000000000000000000000815260206004820152600960248201527f454d5054595f54414700000000000000000000000000000000000000000000006044820152fd5b356fffffffffffffffffffffffffffffffff811681036132515790565b90821015613a05576145a39160051b810190614133565b9091565b9190811015613a0557610120020190565b90929192828103614a99579192907ff8bb2a4b5b30792eb350607495ebe7f79c5a5066287187429654459fae715b1f54927ff8bb2a4b5b30792eb350607495ebe7f79c5a5066287187429654459fae715b2093845495614616614083565b506000945b83861061462b5750505050505055565b90919293949661463f610c9889878961458c565b60405161464b816132d8565b60ff82541660048110156132a95760809260079183526001810154602084015260028101546fffffffffffffffffffffffffffffffff81166040850152841c6060840152600381015484840152600481015460a0840152600581015460c0840152600681015460e084015201546101008201526146ec6146cc8b87876145a7565b602081013515159081614a6f575b81614a46575b81614a39575b5061450a565b0151806146fa8a86866145a7565b9261471f61471461470c8d8b8d61458c565b949093613cea565b6080860135906139b8565b9261472a8885614af7565b15614837575b9061473a91613e23565b6004833510156132515760076101008461475861482d9635856141fc565b602081013560018501556147fa600285016fffffffffffffffffffffffffffffffff6147866040850161456f565b167fffffffffffffffffffffffffffffffff000000000000000000000000000000008254161781556147ba6060840161456f565b6fffffffffffffffffffffffffffffffff7fffffffffffffffffffffffffffffffff0000000000000000000000000000000083549260801b169116179055565b6080810135600385015560a0810135600485015560c0810135600585015560e08101356006850155013591015597614411565b949392919061461b565b7ff8bb2a4b5b30792eb350607495ebe7f79c5a5066287187429654459fae715b228054680100000000000000008110156104515761487a91600182019055613bba565b614a0a5767ffffffffffffffff83116104515761489781546140e0565b601f81116149c6575b506000601f841160011461490357908361473a9493926000916148f8575b508360011b907fffffffffffffffffffffffffffffffffffffffffffffffffffffffffffffffff8560031b1c19161790555b909150614730565b9050820135386148be565b92919080845260208420845b7fffffffffffffffffffffffffffffffffffffffffffffffffffffffffffffffe0851686106149ae5761473a9550847fffffffffffffffffffffffffffffffffffffffffffffffffffffffffffffffe0811610614976575b5050600183811b0190556148f0565b7fffffffffffffffffffffffffffffffffffffffffffffffffffffffffffffffff60f88660031b161c19908401351690553880614967565b8381013582556020958601956001909201910161490f565b816000526020600020601f850160051c810160208610614a03575b601f830160051c820181106149f75750506148a0565b600081556001016149e1565b50806149e1565b7f4e487b7100000000000000000000000000000000000000000000000000000000600052600060045260246000fd5b84915001351515386146e6565b9050614a546060820161456f565b6fffffffffffffffffffffffffffffffff42911611906146e0565b9050614a7d6040820161456f565b6fffffffffffffffffffffffffffffffff4291161015906146da565b60646040517f08c379a000000000000000000000000000000000000000000000000000000000815260206004820152601f60248201527f49474f5772697461626c653a207461677320617272617973206c656e677468006044820152fd5b818111614b02575050565b602491614b0e91613cea565b604051907f2e2a58540000000000000000000000000000000000000000000000000000000082526004820152fdfea264697066735822122029e190e2db2b7c07c1b4423a3b2767f58dbc905abfd622d44a65e1b8427197dc64736f6c63430008110033",
  "linkReferences": {},
  "deployedLinkReferences": {}
}