{
  "_format": "hh-sol-artifact-1",
  "contractName": "IGODeployer",
  "sourceName": "contracts/IGODeployer.sol",
  "abi": [
    {
      "anonymous": false,
      "inputs": [
        {
          "indexed": true,
          "internalType": "address",
          "name": "previousOwner",
          "type": "address"
        },
        {
          "indexed": true,
          "internalType": "address",
          "name": "newOwner",
          "type": "address"
        }
      ],
      "name": "OwnershipTransferred",
      "type": "event"
    },
    {
      "inputs": [],
      "name": "createIGO",
      "outputs": [
        {
          "internalType": "address",
          "name": "",
          "type": "address"
        }
      ],
      "stateMutability": "nonpayable",
      "type": "function"
    },
    {
      "inputs": [],
      "name": "owner",
      "outputs": [
        {
          "internalType": "address",
          "name": "",
          "type": "address"
        }
      ],
      "stateMutability": "view",
      "type": "function"
    },
    {
      "inputs": [],
      "name": "renounceOwnership",
      "outputs": [],
      "stateMutability": "nonpayable",
      "type": "function"
    },
    {
      "inputs": [
        {
          "internalType": "address",
          "name": "newOwner",
          "type": "address"
        }
      ],
      "name": "transferOwnership",
      "outputs": [],
      "stateMutability": "nonpayable",
      "type": "function"
    }
  ],
  "bytecode": "0x608060405234610024575b610012610031565b604051615b0a620001128239615b0a90f35b61002c600080fd5b61000a565b61003961003b565b565b610039336100b8565b610055905b6001600160a01b031690565b90565b6100559054610044565b61005590610049906001600160a01b031682565b61005590610062565b61005590610076565b906100986100556100b49261007f565b82546001600160a01b0319166001600160a01b03919091161790565b9055565b6100c26000610058565b906100ce816000610088565b6101016100fb7f8be0079c531659141344cd1fd0a4f28419497f9722a3daafe3b4186f6b6457e09361007f565b9161007f565b9161010b60405190565b600090a356fe608060405260043610156200001a575b62000018600080fd5b005b60003560e01c80634161a8c61462000075578063715018a6146200006a5780638da5cb5b146200005f5763f2fde38b036200000f5762000059620001df565b6200000f565b506200005962000148565b506200005962000115565b5062000059620000b8565b600080fd5b60009103126200009157565b6200009a600080fd5b565b73ffffffffffffffffffffffffffffffffffffffff1690565b90565b503462000106575b620000cd36600462000085565b62000102620000db620005e0565b6040519182918273ffffffffffffffffffffffffffffffffffffffff909116815260200190565b0390f35b6200010f600080fd5b620000c0565b503462000139575b6200012a36600462000085565b6200013462000252565b604051005b62000142600080fd5b6200011d565b503462000181575b6200015d36600462000085565b62000102620000db60005473ffffffffffffffffffffffffffffffffffffffff1690565b6200018a600080fd5b62000150565b73ffffffffffffffffffffffffffffffffffffffff8116036200008057565b905035906200009a8262000190565b90620000b59160208183031215620001af57620001d9600080fd5b620001af565b5034620001fe575b62000134620001f8366004620001be565b620003fa565b62000207600080fd5b620001e7565b62000217620002cc565b6200009a6200023c565b6200009c620000b5620000b59290565b620000b59062000221565b6200009a6200024c600062000231565b6200049a565b6200009a6200020d565b156200026457565b6040517f08c379a000000000000000000000000000000000000000000000000000000000815280620002c8600482016020808252818101527f4f776e61626c653a2063616c6c6572206973206e6f7420746865206f776e6572604082015260600190565b0390fd5b6200009a620002f060005473ffffffffffffffffffffffffffffffffffffffff1690565b62000319620002ff336200009c565b9173ffffffffffffffffffffffffffffffffffffffff1690565b146200025c565b6200009a906200032f620002cc565b620003c2565b156200033d57565b6040517f08c379a000000000000000000000000000000000000000000000000000000000815260206004820152602660248201527f4f776e61626c653a206e6577206f776e657220697320746865207a65726f206160448201527f64647265737300000000000000000000000000000000000000000000000000006064820152608490fd5b6200009a906200024c620003db6200009c600062000231565b73ffffffffffffffffffffffffffffffffffffffff8316141562000335565b6200009a9062000320565b6200009c620000b5620000b59273ffffffffffffffffffffffffffffffffffffffff1690565b620000b59062000405565b620000b5906200042b565b9062000455620000b5620004969262000436565b82547fffffffffffffffffffffffff00000000000000000000000000000000000000001673ffffffffffffffffffffffffffffffffffffffff919091161790565b9055565b60005473ffffffffffffffffffffffffffffffffffffffff1690620004c181600062000441565b620004f8620004f17f8be0079c531659141344cd1fd0a4f28419497f9722a3daafe3b4186f6b6457e09362000436565b9162000436565b916200050360405190565b600090a3565b620000b59062000518620002cc565b6200055b565b507f4e487b7100000000000000000000000000000000000000000000000000000000600052604160045260246000fd5b506040513d6000823e3d90fd5b50620000b5620005b5336200056f60405190565b9182916154e8830183811067ffffffffffffffff821117620005d0575b6154e8620005ed853973ffffffffffffffffffffffffffffffffffffffff909116815260200190565b03906000f0806200043657620005ca6200054e565b62000436565b620005da6200051e565b6200058c565b620000b560006200050956fe60806040523462000031575b6200001f62000019620000f7565b62000136565b604051615025620004c3823961502590f35b6200003a600080fd5b6200000b565b600080fd5b50634e487b7160e01b600052604160045260246000fd5b90601f01601f191681019081106001600160401b038211176200007e57604052565b6200008862000045565b604052565b90620000a46200009c60405190565b92836200005c565b565b6001600160a01b031690565b90565b6001600160a01b038116036200004057565b90505190620000a482620000b5565b90620000b29160208183031215620000c757620000f1600080fd5b620000c7565b620000b2620054e8803803806200010e816200008d565b928339810190620000d6565b620000b2620000b2620000b29290565b620000b260006200011a565b620000a4906200014562000155565b6200014f6200012a565b620001c1565b620000a46200019b565b620000b260016200011a565b90600019905b9181191691161790565b906200018f620000b262000197926200011a565b82546200016b565b9055565b620000a4620001a96200015f565b60036200017b565b905b600052602052604060002090565b90620001e3620000b2620001e993620001db848262000249565b6002620001b1565b6200031a565b50565b620000b290620000a6906001600160a01b031682565b620000b290620001ec565b620000b29062000202565b90620001b3906200020d565b9060ff9062000171565b9062000241620000b26200019792151590565b825462000224565b906200025e6200025a8284620002df565b1590565b62000267575050565b6200028d600162000287836000620002808785620001b1565b0162000218565b6200022e565b3390620002c7620002c0620002c07f2f8788117e7eff1d82e926ec794901d17c78024a50270940304540a733656f0d9590565b926200020d565b92620002d260405190565b600090a4565b5460ff1690565b620000b2916000620002806200030193620002f8600090565b506001620001b1565b620002d8565b620000b29081906001600160a01b031681565b9062000354620003506200034a620003446000620000b2966200033b600090565b50019462000202565b62000307565b6200011a565b9190565b62000425565b50634e487b7160e01b600052603260045260246000fd5b6200039460019162000381815490565b8410156200039d57600052602060002090565b91020190600090565b620003a76200035a565b600052602060002090565b9160001960089290920291821b911b62000171565b9190620003d9620000b2620001979390565b908354620003b2565b906200040e620000a4928054906801000000000000000082101562000415575b60018201815562000371565b90620003c7565b6200041f62000045565b62000402565b620004356200025a83836200048a565b156200046f576200046a91620004649060016200045c84620004588482620003e2565b5490565b9301620001b1565b6200017b565b600190565b5050600090565b620000b29081565b620000b2905462000476565b620004ad916001620004a7926200049f600090565b5001620001b1565b6200047e565b620004bd6200035060006200011a565b14159056fe60806040526004361015610018575b610016600080fd5b005b60003560e01c806301ffc9a7146102705780630a9254e41461026757806317dcd8e51461025e5780631bcaddc214610255578063248a9ca31461024c5780632f2ff15d1461024357806333e21bec1461023a57806336568abe146102315780635625671e146102285780635a5fdab71461021f5780637518d35c1461021657806376ec9b941461020d57806378e2cd431461020457806379198cb2146101fb5780637eae687e146101f257806383930808146101e9578063852c49a7146101e05780639010d07c146101d7578063907d3085146101ce57806391d14854146101c557806398e3fdc4146101bc578063a217fddf146101b3578063c5c4744c146101aa578063ca15c873146101a1578063d547741f14610198578063db365f841461018f578063e6807afd14610186578063f1efb9311461017d578063faf0c581146101745763ff77d0be0361000e5761016f6111c5565b61000e565b5061016f61119d565b5061016f61114e565b5061016f611126565b5061016f6110fe565b5061016f61106e565b5061016f611044565b5061016f61101a565b5061016f610ff0565b5061016f610fa9565b5061016f610f7e565b5061016f610f56565b5061016f610f03565b5061016f610eaa565b5061016f610e4a565b5061016f610dc2565b5061016f610cc3565b5061016f610c3f565b5061016f610ab2565b5061016f610a39565b5061016f6107e8565b5061016f6107c0565b5061016f6106fe565b5061016f6106c8565b5061016f610632565b5061016f61059e565b5061016f61055a565b5061016f61052a565b5061016f6103b7565b5061016f6102e0565b600080fd5b7fffffffff0000000000000000000000000000000000000000000000000000000081165b0361027957565b905035906102b68261027e565b565b906102cc916020818303126102cf576102a9565b90565b6102d7600080fd5b6102a9565b9052565b5034610313575b61030f6102fd6102f83660046102b8565b611504565b60405191829182901515815260200190565b0390f35b61031b600080fd5b6102e7565b600091031261032b57565b6102b6600080fd5b73ffffffffffffffffffffffffffffffffffffffff1690565b909594926102b6946103ac6103b3926103a560809661038860a088019c600089019073ffffffffffffffffffffffffffffffffffffffff169052565b73ffffffffffffffffffffffffffffffffffffffff166020870152565b6040850152565b6060830152565b0152565b50346103ea575b6103c9366004610320565b61030f6103d46120bc565b916103e195939560405190565b9586958661034c565b6103f2600080fd5b6103be565b806102a2565b905035906102b6826103f7565b908160a09103126104185790565b6102cc600080fd5b909182601f8301121561045f575b602082359267ffffffffffffffff8411610452575b01926020830284011161032b57565b61045a600080fd5b610443565b610467600080fd5b61042e565b908160609103126104185790565b91909160808184031261051d575b61049283826103fd565b926104b381602084013567ffffffffffffffff8111610510575b840161040a565b926102cc6104d783604086013567ffffffffffffffff8111610503575b8601610420565b93909460608101359067ffffffffffffffff82116104f6575b0161046c565b6104fe600080fd5b6104f0565b61050b600080fd5b6104d0565b610518600080fd5b6104ac565b610525600080fd5b610488565b503461054d575b61054861053f36600461047a565b9392909261294f565b604051005b610555600080fd5b610531565b5034610574575b61056c366004610320565b610548613e2d565b61057c600080fd5b610561565b906102cc91602081830312156103fd57610599600080fd5b6103fd565b50346105cb575b61030f6105bb6105b6366004610581565b61128c565b6040519182918290815260200190565b6105d3600080fd5b6105a5565b73ffffffffffffffffffffffffffffffffffffffff81166102a2565b905035906102b6826105d8565b91906102cc90604084820312610625575b61061c81856103fd565b936020016105f4565b61062d600080fd5b610612565b503461064d575b610548610647366004610601565b906112c2565b610655600080fd5b610639565b507f4e487b7100000000000000000000000000000000000000000000000000000000600052602160045260246000fd5b6004111561069457565b6102b661065a565b906102b68261068a565b6102cc9061069c565b6102dc906106a6565b6020810192916102b691906106af565b50346106f1575b6106da366004610320565b61030f6106e5611f38565b604051918291826106b8565b6106f9600080fd5b6106cf565b5034610719575b610548610713366004610601565b906114d1565b610721600080fd5b610705565b909182601f83011215610762575b602082359267ffffffffffffffff8411610755575b01928284011161032b57565b61075d600080fd5b610749565b61076a600080fd5b610734565b916040838303126107b3575b6102cc61079b83853567ffffffffffffffff81116107a6575b8601610726565b9390946020016103fd565b6107ae600080fd5b610794565b6107bb600080fd5b61077b565b50346107db575b6105486107d536600461076f565b91614a13565b6107e3600080fd5b6107c7565b5034610802575b6107fa366004610320565b610548613dea565b61080a600080fd5b6107ef565b601f017fffffffffffffffffffffffffffffffffffffffffffffffffffffffffffffffe01690565b507f4e487b7100000000000000000000000000000000000000000000000000000000600052604160045260246000fd5b90601f017fffffffffffffffffffffffffffffffffffffffffffffffffffffffffffffffe016810190811067ffffffffffffffff8211176108a757604052565b6108af610837565b604052565b906102b66108c160405190565b9283610867565b61090560209167ffffffffffffffff811161090957601f017fffffffffffffffffffffffffffffffffffffffffffffffffffffffffffffffe01690565b0190565b61080f610837565b90826000939282370152565b9291906102b691610935610930836108c8565b6108b4565b94828652602086019183820111156109115761094f600080fd5b610911565b906102cc9181601f82011215610970575b60208135910161091d565b610978600080fd5b610965565b906102cc916020818303126109b3575b80359067ffffffffffffffff82116109a6575b01610954565b6109ae600080fd5b6109a0565b6109bb600080fd5b61098d565b906080806102b6936109da600082015160008601906106af565b6109e960208201516020860152565b6040818101516fffffffffffffffffffffffffffffffff16908501526060818101516fffffffffffffffffffffffffffffffff16908501525b0151910152565b60a0810192916102b691906109c0565b5034610a62575b61030f610a56610a5136600461097d565b61225e565b60405191829182610a29565b610a6a600080fd5b610a40565b9160c083830312610aa5575b6102cc610a9a83853567ffffffffffffffff81116107a6578601610726565b93909460200161040a565b610aad600080fd5b610a7b565b5034610acd575b610548610ac7366004610a6f565b916145b1565b610ad5600080fd5b610ab9565b91909160c081840312610b5e575b610b58610af560c06108b4565b936000610b0282856105f4565b908601526020610b14828286016105f4565b908601526040610b26828286016105f4565b908601526060610b38828286016103fd565b908601526080610b4a828286016103fd565b9086015260a08093016103fd565b90830152565b610b66600080fd5b610ae8565b909182601f83011215610baa575b602082359267ffffffffffffffff8411610b9d575b019260a0830284011161032b57565b610ba5600080fd5b610b8e565b610bb2600080fd5b610b79565b91909161012081840312610c32575b610bd083826105f4565b92610bde8160208401610ada565b92610c21610c018360e086013567ffffffffffffffff8111610503578601610420565b9390946101008101359067ffffffffffffffff8211610c25575b01610b6b565b9091565b610c2d600080fd5b610c1b565b610c3a600080fd5b610bc6565b5034610c60575b610548610c54366004610bb7565b9493909392919261316f565b610c68600080fd5b610c46565b91604083830312610cb6575b610c21610c9883853567ffffffffffffffff8111610503578601610420565b93909460208101359067ffffffffffffffff8211610c255701610b6b565b610cbe600080fd5b610c79565b5034610ce1575b610548610cd8366004610c6d565b929190916145da565b610ce9600080fd5b610cca565b60005b838110610d015750506000910152565b8181015183820152602001610cf1565b610d3261080f60209361090593610d26815190565b80835293849260200190565b95869101610cee565b906102cc91610d11565b90610d5b610d51835190565b8083529160200190565b9081610d6d6020830284019460200190565b926000915b838310610d8157505050505090565b90919293946020610da4610d9d83856001950387528951610d3b565b9760200190565b9301930191939290610d72565b60208082526102cc92910190610d45565b5034610deb575b610dd4366004610320565b61030f610ddf612441565b60405191829182610db1565b610df3600080fd5b610dc9565b9190610c2190604084820312610e3d575b610e1381856105f4565b9360208101359067ffffffffffffffff8211610e30575b01610726565b610e38600080fd5b610e2a565b610e45600080fd5b610e09565b5034610e68575b61030f6105bb610e62366004610df8565b91611ef1565b610e70600080fd5b610e51565b90610c2191602081830312610e9d575b80359067ffffffffffffffff8211610e305701610726565b610ea5600080fd5b610e85565b5034610ec5575b610548610ebf366004610e75565b9061462c565b610ecd600080fd5b610eb1565b91906102cc90604084820312610ef6575b610eed81856103fd565b936020016103fd565b610efe600080fd5b610ee3565b5034610f49575b61030f610f21610f1b366004610ed2565b906115f5565b6040515b9182918273ffffffffffffffffffffffffffffffffffffffff909116815260200190565b610f51600080fd5b610f0a565b5034610f71575b610548610f6b36600461076f565b91614763565b610f79600080fd5b610f5d565b5034610f9c575b61030f6102fd610f96366004610601565b90611253565b610fa4600080fd5b610f85565b5034610fc4575b610548610fbe366004610e75565b9061467d565b610fcc600080fd5b610fb0565b6102cc6102cc6102cc9290565b6102cc6000610fd1565b6102cc610fde565b503461100d575b611002366004610320565b61030f6105bb610fe8565b611015600080fd5b610ff7565b5034611037575b61102c366004610320565b61030f6105bb61246a565b61103f600080fd5b611021565b5034611061575b61030f6105bb61105c366004610581565b611615565b611069600080fd5b61104b565b5034611089575b610548611083366004610601565b9061143b565b611091600080fd5b611075565b6fffffffffffffffffffffffffffffffff81166102a2565b905035906102b682611096565b916040838303126110f1575b6102cc6110e683853567ffffffffffffffff81116107a6578601610726565b9390946020016110ae565b6110f9600080fd5b6110c7565b5034611119575b6105486111133660046110bb565b91614980565b611121600080fd5b611105565b5034611141575b61054861113b3660046110bb565b9161488d565b611149600080fd5b61112d565b5034611168575b610548611163366004610581565b613f24565b611170600080fd5b611155565b91906102cc90604084820312611190575b61061c81856105f4565b611198600080fd5b611186565b50346111b8575b6105486111b2366004611175565b906140be565b6111c0600080fd5b6111a4565b50346111e2575b61030f6105bb6111dd36600461097d565b611f96565b6111ea600080fd5b6111cc565b905b600052602052604060002090565b6103336102cc6102cc9273ffffffffffffffffffffffffffffffffffffffff1690565b6102cc906111ff565b6102cc90611222565b906111f19061122b565b6102cc905b60ff1690565b6102cc905461123e565b6102cc91600061127061127693611268600090565b5060016111ef565b01611234565b611249565b6102cc9081565b6102cc905461127b565b6102cc9061129c600191826111ef565b01611282565b906102b6916112b86112b38261128c565b6112cc565b906102b69161162c565b906102b6916112a2565b6102b6903390611379565b6102cc90610fd1565b6109056112f8926020926112f2815190565b94859290565b93849101610cee565b61133f6102cc9392611339611339937f416363657373436f6e74726f6c3a206163636f756e7420000000000000000000815260170190565b906112e0565b7f206973206d697373696e6720726f6c6520000000000000000000000000000000815260110190565b60208082526102cc92910190610d11565b9061138b6113878284611253565b1590565b611393575050565b61141c916102cc6113af6113a96113e994611abf565b926112d7565b6113c46020916113be83610fd1565b90611925565b926113dd6113d160405190565b94859384019283611301565b90810382520382610867565b6040515b9182917f08c379a000000000000000000000000000000000000000000000000000000000835260048301611368565b0390fd5b906102b6916114316112b38261128c565b906102b6916116f2565b906102b691611420565b1561144c57565b6040517f08c379a000000000000000000000000000000000000000000000000000000000815260206004820152602f60248201527f416363657373436f6e74726f6c3a2063616e206f6e6c792072656e6f756e636560448201527f20726f6c657320666f722073656c6600000000000000000000000000000000006064820152608490fd5b6102b691906114ff6114e233610333565b73ffffffffffffffffffffffffffffffffffffffff841614611445565b6116f2565b7f5a05180f000000000000000000000000000000000000000000000000000000007fffffffff00000000000000000000000000000000000000000000000000000000821614908115611554575090565b6102cc91507f7965db0b000000000000000000000000000000000000000000000000000000007fffffffff000000000000000000000000000000000000000000000000000000008216149081156115a9575090565b6102cc91507fffffffff00000000000000000000000000000000000000000000000000000000167f01ffc9a7000000000000000000000000000000000000000000000000000000001490565b906116106102cc6102cc93611608600090565b5060026111ef565b611e60565b6116276102cc6102cc92611608600090565b611e29565b906116486102cc61164d93611641848261167a565b60026111ef565b611af0565b50565b9060ff905b9181191691161790565b9061166f6102cc61167692151590565b8254611650565b9055565b906116886113878284611253565b611690575050565b6116aa60016116a583600061127087856111ef565b61165f565b33906116e06116da6116da7f2f8788117e7eff1d82e926ec794901d17c78024a50270940304540a733656f0d9590565b9261122b565b926116ea60405190565b80805b0390a4565b906117076102cc61164d93611641848261170c565b611c98565b906117178183611253565b61171f575050565b61173460006116a583826112708760016111ef565b33906116e06116da6116da7ff6391f5c32d9c69d2a47ea670b442974b53935d1edc7fd64eb21e047a839171b9590565b507f4e487b7100000000000000000000000000000000000000000000000000000000600052601160045260246000fd5b919061179f565b9290565b918083029281840414901517156117b257565b6102b6611764565b919082018092116117b257565b906117d4610930836108c8565b918252565b369037565b906102b66117f46117ee846117c7565b936108c8565b7fffffffffffffffffffffffffffffffffffffffffffffffffffffffffffffffe001602084016117d9565b507f4e487b7100000000000000000000000000000000000000000000000000000000600052603260045260246000fd5b90600160209161185d845190565b81101561186b575b02010190565b61187361181f565b611865565b6001908015611885570390565b61188d611764565b0390565b6112436102cc6102cc9290565b6102cc906118b66118b26102cc9460ff1690565b9190565b901c90565b156118c257565b6040517f08c379a00000000000000000000000000000000000000000000000000000000081528061141c600482016020808252818101527f537472696e67733a20686578206c656e67746820696e73756666696369656e74604082015260600190565b91906002906119566119516119428361193d86610fd1565b611794565b61194b85610fd1565b906117ba565b6117de565b91600091603061196e61196885610fd1565b8661184f565b536119c26119b97f78000000000000000000000000000000000000000000000000000000000000009261193d6001958695881a6119b36119ad88610fd1565b8b61184f565b53610fd1565b61194b83610fd1565b915b6119e5575b50506102cc92936119df6118b26102cc93610fd1565b146118bb565b90946119f082610fd1565b861115611a7c57611a69611a638392611a46611a297f303132333435363738396162636465660000000000000000000000000000000090565b611a33600f610fd1565b83166010811015611a6f575b1a60f81b90565b861a611a528a8961184f565b53611a5d6004611891565b9061189e565b96611878565b916119c4565b611a7761181f565b611a3f565b946119c9565b6102cc6102cc6102cc9273ffffffffffffffffffffffffffffffffffffffff1690565b6102cc6014611891565b6102cc6102cc6102cc9260ff1690565b611adc611ad76102cc92611ad1606090565b50611222565b611a82565b6113be611ae7611aa5565b611aaf565b1490565b90611b186118b2611b13611ad760006102cc96611b0b600090565b500194611222565b610fd1565b611c22565b611b3d600191611b2b815490565b841015611b4657600052602060002090565b91020190600090565b611b4e61181f565b600052602060002090565b91906008611655910291611b8c7fffffffffffffffffffffffffffffffffffffffffffffffffffffffffffffffff841b90565b921b90565b9190611ba06102cc6116769390565b908354611b59565b90611bd06102b69280549068010000000000000000821015611bd6575b600182018155611b1d565b90611b91565b611bde610837565b611bc5565b907fffffffffffffffffffffffffffffffffffffffffffffffffffffffffffffffff90611655565b90611c1b6102cc61167692610fd1565b8254611be3565b611c2f6113878383611c68565b15611c6157611c5c91611c57906001611c5084611c4c8482611ba8565b5490565b93016111ef565b611c0b565b600190565b5050600090565b611c86916001611c8192611c7a600090565b50016111ef565b611282565b611c936118b26000610fd1565b141590565b90611cb36118b2611b13611ad760006102cc96611b0b600090565b611d6a565b919082039182116117b257565b6102cc916008021c81565b906102cc9154611cc5565b507f4e487b7100000000000000000000000000000000000000000000000000000000600052603160045260246000fd5b6102b691600091611b91565b6001611d21825490565b8015611d40575b0390611d3d611d378383611b1d565b90611d0b565b55565b611d48611cdb565b611d28565b9190611ba06102cc61167693610fd1565b6102b691600091611d4d565b90611d7b611c8182600185016111ef565b600092611d8784610fd1565b8214611dda576102cc92611de09492611deb92611de56001978893611db4611dae86610fd1565b82611cb8565b88850191611dd2611dc3845490565b611dcc89610fd1565b90611cb8565b828103611df0575b50505090565b611d17565b016111ef565b611d5e565b611bd0611e19611e2194611e10611e0a611c579589611b1d565b90611cd0565b92839188611b1d565b8888016111ef565b388080611dda565b611e3f60006102cc92611e3a600090565b500190565b60006102cc91611e4d600090565b50015490565b6103336102cc6102cc9290565b611e85611e806102cc93611e7b6000611e8a95611e3a600090565b611e8f565b6112d7565b611e53565b611222565b6102cc916000611e0a92611ea1600090565b5001611b1d565b90916109059083908093610911565b6117d4906020949361090593611ea8565b9091611ee090611ed760405190565b93849384611eb7565b03902090565b90916102cc92611ec8565b91611c8191611f336102cc94611f05600090565b50600360087ff8bb2a4b5b30792eb350607495ebe7f79c5a5066287187429654459fae715b1c5b0101611234565b611ee6565b6102cc600060087ff8bb2a4b5b30792eb350607495ebe7f79c5a5066287187429654459fae715b1c5b0101611249565b6117d461090591602094936112e0565b611ee0611f8460405190565b92839283611f68565b6102cc91611f78565b611c816102cc91611fa5600090565b50600260087ff8bb2a4b5b30792eb350607495ebe7f79c5a5066287187429654459fae715b1c5b0101611f8d565b6102cc90610333565b6102cc9054611fd3565b6102cc60c06108b4565b906102b66120ac6005612001611fe6565b9461202861200e82611fdc565b73ffffffffffffffffffffffffffffffffffffffff168752565b61205461203760018301611fdc565b73ffffffffffffffffffffffffffffffffffffffff166020880152565b61208061206360028301611fdc565b73ffffffffffffffffffffffffffffffffffffffff166040880152565b61209661208f60038301611282565b6060880152565b61129c6120a560048301611282565b6080880152565b60a0840152565b6102cc90611ff0565b6120e57ff8bb2a4b5b30792eb350607495ebe7f79c5a5066287187429654459fae715b1c6120b3565b805173ffffffffffffffffffffffffffffffffffffffff169161211f602083015173ffffffffffffffffffffffffffffffffffffffff1690565b9161212b606082015190565b916102cc60a061213c608085015190565b93015190565b6102cc60a06108b4565b612154612142565b906000825260208080808086016000815201600081520160005b8152016000905250565b6102cc61214c565b906102dc9061069c565b6102cc905b6fffffffffffffffffffffffffffffffff1690565b6102cc905461218a565b6102cc9060801c61218f565b6102cc90546121ae565b906102b661224e60036121d5612142565b946121e86121e282611249565b87612180565b6121fe6121f760018301611282565b6020880152565b61222661220d600283016121a4565b6fffffffffffffffffffffffffffffffff166040880152565b61129c612235600283016121ba565b6fffffffffffffffffffffffffffffffff166060880152565b6080840152565b6102cc906121c4565b6122986102cc9161226d612178565b50600160067ff8bb2a4b5b30792eb350607495ebe7f79c5a5066287187429654459fae715b1c611fcc565b612255565b6020809167ffffffffffffffff81116122b557020190565b6122bd610837565b020190565b906117d46109308361229d565b507f4e487b7100000000000000000000000000000000000000000000000000000000600052602260045260246000fd5b9060016002830492168015612322575b602083101461231a57565b6102b66122cf565b91607f169161230f565b8054600093929161234961233f836122ff565b8085529360200190565b916001811690811561239b575060011461236257505050565b6123759192939450600052602060002090565b916000925b8184106123875750500190565b80548484015260209093019260010161237a565b92949550505060ff1916825215156020020190565b906102cc9161232c565b906102b66123d4926123cb60405190565b938480926123b0565b0383610867565b6102cc906123ba565b906123ed825490565b6123f6816122c2565b9261240a6020850191600052602060002090565b6000915b83831061241b5750505050565b60016020819261242a856123db565b81520192019201919061240e565b6102cc906123e4565b6102cc7ff8bb2a4b5b30792eb350607495ebe7f79c5a5066287187429654459fae715b22612438565b6102cc600160087ff8bb2a4b5b30792eb350607495ebe7f79c5a5066287187429654459fae715b1c5b0101611282565b906124af949392916124aa6129cc565b61264f565b6102b66129fe565b9035907fffffffffffffffffffffffffffffffffffffffffffffffffffffffffffffffe13682900301821215612519575b01602081359167ffffffffffffffff831161250c575b019136829003831361032b57565b612514600080fd5b6124fe565b612521600080fd5b6124e8565b356102cc816105d8565b356102cc816103f7565b6102cc91369161091d565b507f4e487b7100000000000000000000000000000000000000000000000000000000600052601260045260246000fd5b811561257f570490565b612587612545565b0490565b919061080f816125a2816109059560209181520190565b8095610911565b9297969461261b906125fe60a0966125f76125d86102b69b966103b39860c08b01918b830360008d015261258b565b73ffffffffffffffffffffffffffffffffffffffff909d166020890152565b6040870152565b73ffffffffffffffffffffffffffffffffffffffff166060850152565b6080830152565b506040513d6000823e3d90fd5b90916102cc92611ea8565b611ee061264660405190565b9283928361262f565b7ff8bb2a4b5b30792eb350607495ebe7f79c5a5066287187429654459fae715b1c94909390927ff8bb2a4b5b30792eb350607495ebe7f79c5a5066287187429654459fae715b236126a084806124b7565b906126aa92611ee6565b6126b390612255565b956126bd906120b3565b608090960151906126cf606088015190565b926126dc60208601612526565b6126e860408701612530565b6126f287806124b7565b916126fd938b613605565b61270960208601612526565b612712906136f8565b61271c848861370b565b61272461378d565b61272e85806124b7565b6127379161253a565b61274090613840565b828761274c87806124b7565b61275693916139b9565b6127609185613c47565b61276a83806124b7565b90929061277960208601612526565b906127849488613432565b612795670de0b6b3a7640000610fd1565b61279f9084611794565b916127ac60808301612530565b90846127cc875173ffffffffffffffffffffffffffffffffffffffff1690565b6127d59061122b565b6127de9061122b565b96816127ea86806124b7565b90996127f860208901612526565b90602085019961281c8b5173ffffffffffffffffffffffffffffffffffffffff1690565b9861282691612575565b9261283360608b01612530565b98823b159d61288360209f9b60009788946128999e612942575b6040519a8b998a9889977f37a97db7000000000000000000000000000000000000000000000000000000008952600489016125a9565b03925af18015612935575b612917575b50613291565b6116ed61290d6129076129016128d96128be6128b587806124b7565b9a909701612526565b965173ffffffffffffffffffffffffffffffffffffffff1690565b977f24b17f7cc1c323d081ca24ebe682df530605d2207ecdde5a86c1d0bb44a88a6d9561263a565b9461122b565b94610fd1565b94610f2560405190565b61292f9060006129278183610867565b810190610320565b38612893565b61293d612622565b61288e565b61294a600080fd5b61284d565b906102b69493929161249a565b6102cc6002610fd1565b1561296d57565b6040517f08c379a000000000000000000000000000000000000000000000000000000000815260206004820152601f60248201527f5265656e7472616e637947756172643a207265656e7472616e742063616c6c006044820152606490fd5b6102b66129d96003611282565b6129ed6129e461295c565b91821415612966565b6003611c0b565b6102cc6001610fd1565b6102b66129ed6129f4565b6102cc9060081c611243565b6102cc9054612a09565b15612a2657565b6040517f08c379a000000000000000000000000000000000000000000000000000000000815260206004820152602e60248201527f496e697469616c697a61626c653a20636f6e747261637420697320616c72656160448201527f647920696e697469616c697a65640000000000000000000000000000000000006064820152608490fd5b6112436102cc6102cc9260ff1690565b9061166f6102cc61167692612aab565b9061ff009060081b611655565b90612ae86102cc61167692151590565b8254612acb565b6102dc90611891565b6020810192916102b69190612aef565b949192612b5793949194612b1f6113876000612a15565b958680612bfa575b8015612bb5575b612b3790612a1f565b60019787612b4e612b478b611891565b6000612abb565b612ba557612c18565b612b5e5750565b612b69600080612ad8565b612ba07f7f26b83ff96e1f2b6a682f133852f6798a09c465da95921460cefb384740249891612b9760405190565b91829182612af8565b0390a1565b612bb0896000612ad8565b612c18565b50612bca611387612bc53061122b565b61317d565b8015612b2e5750612b37612bde6000611249565b612bf2612beb6001611891565b9160ff1690565b149050612b2e565b50612c056000611249565b612c12612beb6001611891565b10612b27565b906102b69594939291612c2c6112b3610fde565b612fcf565b6102cc90611e53565b15612c4157565b6040517f08c379a000000000000000000000000000000000000000000000000000000000815260206004820152601f60248201527f49474f5772697461626c655f5f6f776e65725f5a45524f5f41444452455353006044820152606490fd5b15612ca757565b6040517f08c379a000000000000000000000000000000000000000000000000000000000815260206004820152602960248201527f49474f5772697461626c655f5f76657374696e67436f6e74726163745f5a455260448201527f4f5f4144445245535300000000000000000000000000000000000000000000006064820152608490fd5b15612d3357565b6040517f08c379a000000000000000000000000000000000000000000000000000000000815260206004820152602660248201527f49474f5772697461626c655f5f7061796d656e74546f6b656e5f5a45524f5f4160448201527f44445245535300000000000000000000000000000000000000000000000000006064820152608490fd5b15612dbf57565b6040517f08c379a000000000000000000000000000000000000000000000000000000000815260206004820152602160248201527f49474f5772697461626c655f5f7065726d6974325f5a45524f5f41444452455360448201527f53000000000000000000000000000000000000000000000000000000000000006064820152608490fd5b15612e4b57565b6040517f08c379a000000000000000000000000000000000000000000000000000000000815260206004820152601c60248201527f49474f5772697461626c655f5f6772616e64546f74616c5f5a45524f000000006044820152606490fd5b507f4e487b7100000000000000000000000000000000000000000000000000000000600052600060045260246000fd5b9073ffffffffffffffffffffffffffffffffffffffff90611655565b90612f066102cc6116769261122b565b8254612eda565b6102b69190612fa69060a090600590612f4481612f3e875173ffffffffffffffffffffffffffffffffffffffff1690565b90612ef6565b612f6c60018201612f3e602088015173ffffffffffffffffffffffffffffffffffffffff1690565b612f9460028201612f3e604088015173ffffffffffffffffffffffffffffffffffffffff1690565b612fac60038201612fa6606088015190565b90611c0b565b612fbe60048201612fa6608088015190565b0192015190565b906102b691612f0d565b6102b6959493929161316a91613143600091613116612fed84612c31565b61302573ffffffffffffffffffffffffffffffffffffffff821673ffffffffffffffffffffffffffffffffffffffff85161415612c3a565b6130846130488688015173ffffffffffffffffffffffffffffffffffffffff1690565b61307d73ffffffffffffffffffffffffffffffffffffffff84165b9173ffffffffffffffffffffffffffffffffffffffff1690565b1415612ca0565b6130ce6130a8602088015173ffffffffffffffffffffffffffffffffffffffff1690565b6130c773ffffffffffffffffffffffffffffffffffffffff8416613063565b1415612d2c565b61310f6130636130f5604089015173ffffffffffffffffffffffffffffffffffffffff1690565b9273ffffffffffffffffffffffffffffffffffffffff1690565b1415612db8565b613136613124606086015190565b6131306118b286610fd1565b11612e44565b61313e610fde565b61162c565b7ff8bb2a4b5b30792eb350607495ebe7f79c5a5066287187429654459fae715b1c01612fc5565b614de3565b906102b69594939291612b08565b3b61318b6118b26000610fd1565b1190565b6102cc60406108b4565b6131a161318f565b906000825260006020830152565b6102cc613199565b6102cc60606108b4565b6131c96131b7565b906131d26131af565b8252602080808401600061216e565b6102cc6131c1565b805173ffffffffffffffffffffffffffffffffffffffff1682526102b691906020908190610a22565b90606060406102b69361322d600082015160008601906131e9565b610a22602082015183860152565b9093916102cc95936132676132849261325d6101008601986000870190613212565b60808501906131e9565b73ffffffffffffffffffffffffffffffffffffffff1660c0830152565b60e081850391015261258b565b604081015191929173ffffffffffffffffffffffffffffffffffffffff166132b89061122b565b6132c06131af565b506132c96131e1565b506132d26131af565b50602082015173ffffffffffffffffffffffffffffffffffffffff16916132f761318f565b73ffffffffffffffffffffffffffffffffffffffff909316835261331c856020850152565b61332860408501612530565b61333460208601612530565b9061333d6131b7565b948552602085015260408401525173ffffffffffffffffffffffffffffffffffffffff169361336a61318f565b73ffffffffffffffffffffffffffffffffffffffff909516855260208501526133929061122b565b33926330f28b7a906133a490806124b7565b949091833b156000966133cc9488946133d793613406575b6040519a8b998a98899760e01b90565b87526004870161323b565b03925af180156133f9575b6133e95750565b6102b69060006129278183610867565b613401612622565b6133e2565b61340e600080fd5b6133bc565b6102cc6102cc6102cc926fffffffffffffffffffffffffffffffff1690565b908295929181956134607ff8bb2a4b5b30792eb350607495ebe7f79c5a5066287187429654459fae715b1c90565b956008870192848660018601938361347786611282565b90613481916117ba565b61348b9086611c0b565b600287019661349b83858a611ee6565b856134a582611282565b906134af916117ba565b6134b891611c0b565b600301906134c591611234565b916134cf92611ee6565b906134d982611282565b906134e3916117ba565b6134ec91611c0b565b6134f590611282565b1461350f936118b29361179b93611c819361356b57611ee6565b14613559575b61353d6118b2613538600261353287876001600642990101611ee6565b016121ba565b613413565b1015613547575050565b6102b6916135549161253a565b6135b5565b613566613554848461253a565b613515565b611f33613583565b9061166f6102cc611676926106a6565b6102b66002600060087ff8bb2a4b5b30792eb350607495ebe7f79c5a5066287187429654459fae715b1c5b0101613573565b6102b69060006135ec60029260016006611fcc7ff8bb2a4b5b30792eb350607495ebe7f79c5a5066287187429654459fae715b1c90565b01613573565b9081526040810192916102b69160200152565b9193611c819061364194611f3361194b9460036008611f2c7ff8bb2a4b5b30792eb350607495ebe7f79c5a5066287187429654459fae715b1c90565b81811161364c575050565b8161365691611cb8565b9061141c61366360405190565b9283927fadaa5532000000000000000000000000000000000000000000000000000000008452600484016135f2565b1561369957565b6040517f08c379a000000000000000000000000000000000000000000000000000000000815260206004820152601a60248201527f6d73672e73656e6465723a204e4f545f415554484f52495a45440000000000006044820152606490fd5b6102b69061370533613063565b14613692565b61373c9061194b600160087ff8bb2a4b5b30792eb350607495ebe7f79c5a5066287187429654459fae715b1c612493565b818111613747575050565b8161375191611cb8565b9061141c61375e60405190565b9283927fcced311a000000000000000000000000000000000000000000000000000000008452600484016135f2565b6137ba600060087ff8bb2a4b5b30792eb350607495ebe7f79c5a5066287187429654459fae715b1c611f61565b6137c4600161069c565b6137cd8261069c565b036137d55750565b61141c906137e260405190565b9182917fb293db19000000000000000000000000000000000000000000000000000000008352600483016106b8565b6102cc905161069c565b929160206138386102b69360408701908782036000890152610d11565b9401906106af565b7ff8bb2a4b5b30792eb350607495ebe7f79c5a5066287187429654459fae715b2261388e612298837ff8bb2a4b5b30792eb350607495ebe7f79c5a5066287187429654459fae715b23611f8d565b61389781613811565b916000926138ad6138a78561069c565b9161069c565b1480613963575b80613938575b6139245750016138c981613811565b6138d66138a7600161069c565b036138df575050565b6138e890613811565b9061141c6138f560405190565b9283927f5f08440f0000000000000000000000000000000000000000000000000000000084526004840161381b565b9190506135ec6102b6936001809401611f8d565b504261395d6118b261353860608601516fffffffffffffffffffffffffffffffff1690565b106138ba565b50426139886118b261353860408601516fffffffffffffffffffffffffffffffff1690565b10156138b4565b6103b36139b16040936102b6969897956060850191858303600087015261258b565b966020830152565b9190926139fa9061194b611c818686600260086139f37ff8bb2a4b5b30792eb350607495ebe7f79c5a5066287187429654459fae715b1c90565b0101611ee6565b818111613a075750505050565b90613a158161141c93611cb8565b90613a1f60405190565b9485947f2877ff9e0000000000000000000000000000000000000000000000000000000086526004860161398f565b90357fffffffffffffffffffffffffffffffffffffffffffffffffffffffffffffffe13683900301811215613aaf575b016020813591019167ffffffffffffffff8211613aa2575b36829003831361032b57565b613aaa600080fd5b613a96565b613ab7600080fd5b613a7e565b506102cc9060208101906105f4565b506102cc9060208101906103fd565b906102cc906080613b65613b0060a08401613af58780613a4e565b86830387529061258b565b94613b2e613b116020830183613abc565b73ffffffffffffffffffffffffffffffffffffffff166020860152565b613b45613b3e6040830183613acb565b6040860152565b613b5c613b556060830183613acb565b6060860152565b82810190613acb565b910152565b60208082526102cc92910190613ada565b90929192613b8b6109308261229d565b9381855260208086019202830192818411613bc9575b915b838310613bb05750505050565b60208091613bbe84866103fd565b815201920191613ba3565b613bd1600080fd5b613ba1565b6102cc913691613b7b565b15613be857565b6040517f08c379a000000000000000000000000000000000000000000000000000000000815260206004820152601460248201527f414c4c4f434154494f4e5f4e4f545f464f554e440000000000000000000000006044820152606490fd5b90613cd291613ccd6102b694613c97600161129c816006613c857ff8bb2a4b5b30792eb350607495ebe7f79c5a5066287187429654459fae715b1c90565b0101613c9187806124b7565b91611ee6565b92613cb4613ca460405190565b80926113dd602083019182613b6a565b613cc6613cbf825190565b9160200190565b2093613bd6565b613cd7565b613be1565b61179b611aec92936118b292613ceb600090565b50613d34565b6001907fffffffffffffffffffffffffffffffffffffffffffffffffffffffffffffffff8114613d1f570190565b610905611764565b906020809161185d845190565b613d3e6000610fd1565b915b613d4b6102cc835190565b831015613d7c57613d70613d7691613d6a613d668686613d27565b5190565b90613d82565b92613cf1565b91613d40565b91505090565b81811015613d9d57906102cc91600052602052604060002090565b6102cc91600052602052604060002090565b613dba6112b3610fde565b6102b6806001600060087ff8bb2a4b5b30792eb350607495ebe7f79c5a5066287187429654459fae715b1c6135ae565b6102b6613daf565b613dfd6112b3610fde565b6102b6806003600060087ff8bb2a4b5b30792eb350607495ebe7f79c5a5066287187429654459fae715b1c6135ae565b6102b6613df2565b6102b690613e446112b3610fde565b613eaf565b15613e5057565b6040517f08c379a000000000000000000000000000000000000000000000000000000000815260206004820152601b60248201527f6772616e64546f74616c5f4c6f7765725468616e5f5f315f30303000000000006044820152606490fd5b6102b690613ec9613ec16103e8610fd1565b821015613e49565b60037ff8bb2a4b5b30792eb350607495ebe7f79c5a5066287187429654459fae715b1c613f1e83613f197ff8bb2a4b5b30792eb350607495ebe7f79c5a5066287187429654459fae715b20611282565b614fa1565b01611c0b565b6102b690613e35565b906102b691613f3d6112b3610fde565b613fd2565b15613f4957565b6040517f08c379a000000000000000000000000000000000000000000000000000000000815260206004820152601260248201527f546f6b656e5f5a45524f5f4144445245535300000000000000000000000000006044820152606490fd5b905051906102b6826103f7565b906102cc9160208183031215613fa857613fcd600080fd5b613fa8565b6102b69161400e600092614009613feb61033386612c31565b73ffffffffffffffffffffffffffffffffffffffff83161415613f42565b61122b565b614069602061401c8361122b565b6370a082319061404561402e3061122b565b9261403860405190565b9586948593849360e01b90565b835273ffffffffffffffffffffffffffffffffffffffff1660048301526024820190565b03915afa9384156140b1575b93614081575b50614130565b6140a391935060203d81116140aa575b61409b8183610867565b810190613fb5565b913861407b565b503d614091565b6140b9612622565b614075565b906102b691613f2d565b6140e16140db6102cc9263ffffffff1690565b60e01b90565b7fffffffff000000000000000000000000000000000000000000000000000000001690565b73ffffffffffffffffffffffffffffffffffffffff90911681526040810192916102b69160200152565b6141736004926141646102b69561414a63a9059cbb6140c8565b9261415460405190565b9687946020860190815201614106565b60208201810382520383610867565b614271565b61418260206117c7565b7f5361666545524332303a206c6f772d6c6576656c2063616c6c206661696c6564602082015290565b6102cc614178565b8015156102a2565b905051906102b6826141b3565b906102cc91602081830312156141bb576141e0600080fd5b6141bb565b156141ec57565b6040517f08c379a000000000000000000000000000000000000000000000000000000000815260206004820152602a60248201527f5361666545524332303a204552433230206f7065726174696f6e20646964206e60448201527f6f742073756363656564000000000000000000000000000000000000000000006064820152608490fd5b6102b6916142816142909261122b565b9061428a6141ab565b916142ce565b805161429f6118b26000610fd1565b149081156142ae575b506141e5565b6142c8915060206142bd825190565b8183010191016141c8565b386142a8565b6102cc92916142dd6000610fd1565b9161438e565b156142ea57565b6040517f08c379a000000000000000000000000000000000000000000000000000000000815260206004820152602660248201527f416464726573733a20696e73756666696369656e742062616c616e636520666f60448201527f722063616c6c00000000000000000000000000000000000000000000000000006064820152608490fd5b3d156143895761437e3d6117c7565b903d6000602084013e565b606090565b9060006102cc949381926143a0606090565b506143b76143ad3061122b565b83903110156142e3565b60208101905191855af16143c961436f565b91614435565b156143d657565b6040517f08c379a000000000000000000000000000000000000000000000000000000000815260206004820152601d60248201527f416464726573733a2063616c6c20746f206e6f6e2d636f6e74726163740000006044820152606490fd5b91926060911561446a57505081516144506118b26000610fd1565b14614459575090565b6144656102cc9161317d565b6143cf565b835191949392509061447f6118b26000610fd1565b111561448e5750805190602001fd5b61141c906113ed60405190565b906102b692916144ac6112b3610fde565b614517565b156144b857565b6040517f08c379a000000000000000000000000000000000000000000000000000000000815260206004820152600960248201527f454d5054595f54414700000000000000000000000000000000000000000000006044820152606490fd5b6102b6927ff8bb2a4b5b30792eb350607495ebe7f79c5a5066287187429654459fae715b1c92612fa6929091600061457361229885857ff8bb2a4b5b30792eb350607495ebe7f79c5a5066287187429654459fae715b23611ee6565b9561458561458084614f10565b6144b1565b01600461459460038301611282565b9101956145ab60806145a589611282565b92015190565b91614c7d565b906102b6929161449b565b906102b69392916145ce6112b3610fde565b906102b6939291614de3565b906102b69392916145bc565b906102b6916145f66112b3610fde565b60006135ec6102b6936001938460066139f37ff8bb2a4b5b30792eb350607495ebe7f79c5a5066287187429654459fae715b1c90565b906102b6916145e6565b906102b6916146466112b3610fde565b60006135ec6102b693600393600160066139f37ff8bb2a4b5b30792eb350607495ebe7f79c5a5066287187429654459fae715b1c90565b906102b691614636565b906102b692916146986112b3610fde565b614711565b156146a457565b6040517f08c379a000000000000000000000000000000000000000000000000000000000815260206004820152601060248201527f4d65726b6c65526f6f745f454d505459000000000000000000000000000000006044820152606490fd5b90611c1b6102cc6116769290565b61475d6102b6939260019261473461472c6102cc6000610fd1565b86141561469d565b8360067ff8bb2a4b5b30792eb350607495ebe7f79c5a5066287187429654459fae715b1c6139f3565b01614703565b906102b69291614687565b906102b6929161477f6112b3610fde565b614838565b1561478b57565b6040517f08c379a000000000000000000000000000000000000000000000000000000000815260206004820152600d60248201527f53544152545f494e5f50415354000000000000000000000000000000000000006044820152606490fd5b906fffffffffffffffffffffffffffffffff90611655565b61218f6102cc6102cc926fffffffffffffffffffffffffffffffff1690565b906148316102cc61167692614802565b82546147ea565b6148876102b6939260029261485d61484d4290565b61485687613413565b1015614784565b600160067ff8bb2a4b5b30792eb350607495ebe7f79c5a5066287187429654459fae715b1c6139f3565b01614821565b906102b6929161476e565b906102b692916148a96112b3610fde565b614956565b156148b557565b6040517f08c379a000000000000000000000000000000000000000000000000000000000815260206004820152600b60248201527f454e445f494e5f504153540000000000000000000000000000000000000000006044820152606490fd5b907fffffffffffffffffffffffffffffffff000000000000000000000000000000009060801b611655565b9061494f6102cc61167692614802565b8254614914565b61497a6102b6939260029261485d61496b4290565b61497487613413565b116148ae565b0161493f565b906102b69291614898565b906102b6929161499c6112b3610fde565b613f1e6102b693926003926149ce7ff8bb2a4b5b30792eb350607495ebe7f79c5a5066287187429654459fae715b1c90565b611f336149da826120b3565b614a0d60606145a58a614a08600160066149f5608089015190565b99010197611dcc8d61129c8d8d8d611ee6565b6117ba565b90614fa1565b906102b6929161498b565b818110614a29575050565b80614a376000600193611d5e565b01614a1e565b9190601f8111614a4c57505050565b614a5e6102b693600052602060002090565b906020601f840181900483019310614a80575b6020601f909101040190614a1e565b9091508190614a71565b919067ffffffffffffffff8211614b91575b614ab082614aaa85546122ff565b85614a3d565b600090601f8311600114614b0957611676929160009183614afe575b50507fffffffffffffffffffffffffffffffffffffffffffffffffffffffffffffffff600883021c1916906002021790565b013590503880614acc565b601f19831691614b1e85600052602060002090565b92815b818110614b7957509160029391856001969410614b42575b50505002019055565b01357fffffffffffffffffffffffffffffffffffffffffffffffffffffffffffffffff601f84166008021c19169055388080614b39565b91936020600181928787013581550195019201614b21565b614b99610837565b614a9c565b6102b693929115614a8a57614bb1612eaa565b614a8a565b90614bde6102b6939280549068010000000000000000821015611bd657600182018155611b1d565b90614b9e565b6004111561027957565b356102cc81614be4565b356102cc81611096565b6102b69190612fa690608090600390614c2481614c1e87614bee565b90613573565b614c3d60018201614c3760208801612530565b90614703565b614c6b60028201614c59614c5360408901614bf8565b82614821565b614c6560608801614bf8565b9061493f565b019201612530565b906102b691614c02565b94909382614cb3614cac614ca0614cf8966102cc99614c9a600090565b50611cb8565b61194b60808901612530565b9788614fa1565b8282600092614cc46118b285610fd1565b14614cfd575b505050600160066139f37ff8bb2a4b5b30792eb350607495ebe7f79c5a5066287187429654459fae715b1c90565b614c73565b614d32614d37936006614d2d7ff8bb2a4b5b30792eb350607495ebe7f79c5a5066287187429654459fae715b1c90565b010190565b614bb6565b388282614cca565b15614d4657565b6040517f08c379a000000000000000000000000000000000000000000000000000000000815260206004820152601f60248201527f49474f5772697461626c653a207461677320617272617973206c656e677468006044820152606490fd5b90610c2192602091811015614dbe575b028101906124b7565b614dc661181f565b614db5565b9160a091811015614ddb57020190565b6122bd61181f565b90939192908493614df5838614614d3f565b7ff8bb2a4b5b30792eb350607495ebe7f79c5a5066287187429654459fae715b22957ff8bb2a4b5b30792eb350607495ebe7f79c5a5066287187429654459fae715b1c936004614e647ff8bb2a4b5b30792eb350607495ebe7f79c5a5066287187429654459fae715b1f611282565b950195614e7087611282565b96614e79612178565b506000975b895b891015614efc57614ef4614eee614e80928a8a8f614ee68f8c614ee08f948e614eda608088614ed5614580614ed08a878f612298614eca91613c918f869e90600188920193614da5565b95614dcb565b614f10565b015190565b96614dcb565b94614da5565b949093614c7d565b99613cf1565b989050614e7e565b975095509750505050506102b69250611c0b565b614f1c60208201612530565b600090614f2e6118b26102cc84610fd1565b14159182614f82575b82614f62575b82614f4757505090565b61318b919250614f5c60806118b29201612530565b92610fd1565b9150614f7060608301614bf8565b614f7b425b91613413565b1191614f3d565b9150614f9060408301614bf8565b614f9942614f75565b101591614f37565b818111614fac575050565b61141c91614fb991611cb8565b6040519182917f2e2a5854000000000000000000000000000000000000000000000000000000008352600483019081526020019056fea26469706673582212202dae1df3f9e5c79cd290e336c24b1fb68187c3f9f4b8637901865bc235ae295864736f6c63430008110033a2646970667358221220d0230a9ba6fc35d566f3b1258667c963b8b03c8dc77ed8834b6288136f8e9b1864736f6c63430008110033",
  "linkReferences": {},
  "deployedLinkReferences": {}
}