{
  "_format": "hh-sol-artifact-1",
  "contractName": "IGOFactory",
  "sourceName": "contracts/IGOFactory.sol",
  "abi": [
    {
      "inputs": [
        {
          "internalType": "address",
          "name": "_igoDeployer",
          "type": "address"
        }
      ],
      "stateMutability": "nonpayable",
      "type": "constructor"
    },
    {
      "anonymous": false,
      "inputs": [
        {
          "indexed": true,
          "internalType": "address",
          "name": "oldDefaultVesting",
          "type": "address"
        },
        {
          "indexed": false,
          "internalType": "bytes",
          "name": "oldVestingCreationCode",
          "type": "bytes"
        },
        {
          "indexed": true,
          "internalType": "address",
          "name": "newDefaultVesting",
          "type": "address"
        },
        {
          "indexed": true,
          "internalType": "bytes",
          "name": "newVestingCreationCode",
          "type": "bytes"
        }
      ],
      "name": "DefaultVestingUpdated",
      "type": "event"
    },
    {
      "anonymous": false,
      "inputs": [
        {
          "indexed": true,
          "internalType": "string",
          "name": "igoName",
          "type": "string"
        },
        {
          "indexed": true,
          "internalType": "address",
          "name": "igo",
          "type": "address"
        },
        {
          "indexed": true,
          "internalType": "address",
          "name": "vesting",
          "type": "address"
        }
      ],
      "name": "IGOCreated",
      "type": "event"
    },
    {
      "anonymous": false,
      "inputs": [
        {
          "indexed": true,
          "internalType": "bytes32",
          "name": "role",
          "type": "bytes32"
        },
        {
          "indexed": true,
          "internalType": "bytes32",
          "name": "previousAdminRole",
          "type": "bytes32"
        },
        {
          "indexed": true,
          "internalType": "bytes32",
          "name": "newAdminRole",
          "type": "bytes32"
        }
      ],
      "name": "RoleAdminChanged",
      "type": "event"
    },
    {
      "anonymous": false,
      "inputs": [
        {
          "indexed": true,
          "internalType": "bytes32",
          "name": "role",
          "type": "bytes32"
        },
        {
          "indexed": true,
          "internalType": "address",
          "name": "account",
          "type": "address"
        },
        {
          "indexed": true,
          "internalType": "address",
          "name": "sender",
          "type": "address"
        }
      ],
      "name": "RoleGranted",
      "type": "event"
    },
    {
      "anonymous": false,
      "inputs": [
        {
          "indexed": true,
          "internalType": "bytes32",
          "name": "role",
          "type": "bytes32"
        },
        {
          "indexed": true,
          "internalType": "address",
          "name": "account",
          "type": "address"
        },
        {
          "indexed": true,
          "internalType": "address",
          "name": "sender",
          "type": "address"
        }
      ],
      "name": "RoleRevoked",
      "type": "event"
    },
    {
      "inputs": [],
      "name": "DEFAULT_ADMIN_ROLE",
      "outputs": [
        {
          "internalType": "bytes32",
          "name": "",
          "type": "bytes32"
        }
      ],
      "stateMutability": "view",
      "type": "function"
    },
    {
      "inputs": [
        {
          "internalType": "string",
          "name": "igoName",
          "type": "string"
        },
        {
          "components": [
            {
              "internalType": "address",
              "name": "vestingContract",
              "type": "address"
            },
            {
              "internalType": "address",
              "name": "paymentToken",
              "type": "address"
            },
            {
              "internalType": "uint256",
              "name": "grandTotal",
              "type": "uint256"
            },
            {
              "internalType": "uint256",
              "name": "summedMaxTagCap",
              "type": "uint256"
            },
            {
              "internalType": "uint256",
              "name": "refundFeeDecimals",
              "type": "uint256"
            }
          ],
          "internalType": "struct IGOStorage.SetUp",
          "name": "setUp",
          "type": "tuple"
        },
        {
          "internalType": "string[]",
          "name": "tagIds",
          "type": "string[]"
        },
        {
          "components": [
            {
              "internalType": "enum ISharedInternal.Status",
              "name": "status",
              "type": "uint8"
            },
            {
              "internalType": "bytes32",
              "name": "merkleRoot",
              "type": "bytes32"
            },
            {
              "internalType": "uint128",
              "name": "startAt",
              "type": "uint128"
            },
            {
              "internalType": "uint128",
              "name": "endAt",
              "type": "uint128"
            },
            {
              "internalType": "uint256",
              "name": "maxTagCap",
              "type": "uint256"
            },
            {
              "internalType": "uint256",
              "name": "minAllocation",
              "type": "uint256"
            },
            {
              "internalType": "uint256",
              "name": "maxAllocation",
              "type": "uint256"
            },
            {
              "internalType": "uint256",
              "name": "allocation",
              "type": "uint256"
            },
            {
              "internalType": "uint256",
              "name": "maxParticipants",
              "type": "uint256"
            }
          ],
          "internalType": "struct ISharedInternal.Tag[]",
          "name": "tags",
          "type": "tuple[]"
        },
        {
          "components": [
            {
              "internalType": "address",
              "name": "paymentReceiver",
              "type": "address"
            },
            {
              "internalType": "address",
              "name": "admin",
              "type": "address"
            },
            {
              "internalType": "address",
              "name": "vestedToken",
              "type": "address"
            },
            {
              "internalType": "uint256",
              "name": "platformFee",
              "type": "uint256"
            },
            {
              "internalType": "uint256",
              "name": "totalTokenOnSale",
              "type": "uint256"
            },
            {
              "internalType": "uint256",
              "name": "gracePeriod",
              "type": "uint256"
            },
            {
              "internalType": "uint256",
              "name": "decimals",
              "type": "uint256"
            }
          ],
          "internalType": "struct IIGOVesting.ContractSetup",
          "name": "contractSetup",
          "type": "tuple"
        },
        {
          "components": [
            {
              "internalType": "uint256",
              "name": "startTime",
              "type": "uint256"
            },
            {
              "internalType": "uint256",
              "name": "cliff",
              "type": "uint256"
            },
            {
              "internalType": "uint256",
              "name": "duration",
              "type": "uint256"
            },
            {
              "internalType": "uint256",
              "name": "initialUnlockPercent",
              "type": "uint256"
            }
          ],
          "internalType": "struct IIGOVesting.VestingSetup",
          "name": "vestingSetup",
          "type": "tuple"
        }
      ],
      "name": "createIGO",
      "outputs": [
        {
          "internalType": "address",
          "name": "igo",
          "type": "address"
        },
        {
          "internalType": "address",
          "name": "vesting",
          "type": "address"
        }
      ],
      "stateMutability": "nonpayable",
      "type": "function"
    },
    {
      "inputs": [],
      "name": "getIgoCount",
      "outputs": [
        {
          "internalType": "uint256",
          "name": "",
          "type": "uint256"
        }
      ],
      "stateMutability": "view",
      "type": "function"
    },
    {
      "inputs": [
        {
          "internalType": "uint256",
          "name": "from",
          "type": "uint256"
        },
        {
          "internalType": "uint256",
          "name": "to",
          "type": "uint256"
        }
      ],
      "name": "getIgosDetails",
      "outputs": [
        {
          "components": [
            {
              "internalType": "string",
              "name": "name",
              "type": "string"
            },
            {
              "internalType": "address",
              "name": "igo",
              "type": "address"
            },
            {
              "internalType": "address",
              "name": "vesting",
              "type": "address"
            },
            {
              "components": [
                {
                  "internalType": "address",
                  "name": "vestingContract",
                  "type": "address"
                },
                {
                  "internalType": "address",
                  "name": "paymentToken",
                  "type": "address"
                },
                {
                  "internalType": "uint256",
                  "name": "grandTotal",
                  "type": "uint256"
                },
                {
                  "internalType": "uint256",
                  "name": "summedMaxTagCap",
                  "type": "uint256"
                },
                {
                  "internalType": "uint256",
                  "name": "refundFeeDecimals",
                  "type": "uint256"
                }
              ],
              "internalType": "struct IGOStorage.SetUp",
              "name": "setUp",
              "type": "tuple"
            }
          ],
          "internalType": "struct IGOFactory.IGODetail[]",
          "name": "igos",
          "type": "tuple[]"
        },
        {
          "internalType": "uint256",
          "name": "lastEvaludatedIndex",
          "type": "uint256"
        },
        {
          "internalType": "uint256",
          "name": "totalItems",
          "type": "uint256"
        }
      ],
      "stateMutability": "view",
      "type": "function"
    },
    {
      "inputs": [
        {
          "internalType": "bytes32",
          "name": "role",
          "type": "bytes32"
        }
      ],
      "name": "getRoleAdmin",
      "outputs": [
        {
          "internalType": "bytes32",
          "name": "",
          "type": "bytes32"
        }
      ],
      "stateMutability": "view",
      "type": "function"
    },
    {
      "inputs": [
        {
          "internalType": "bytes32",
          "name": "role",
          "type": "bytes32"
        },
        {
          "internalType": "uint256",
          "name": "index",
          "type": "uint256"
        }
      ],
      "name": "getRoleMember",
      "outputs": [
        {
          "internalType": "address",
          "name": "",
          "type": "address"
        }
      ],
      "stateMutability": "view",
      "type": "function"
    },
    {
      "inputs": [
        {
          "internalType": "bytes32",
          "name": "role",
          "type": "bytes32"
        }
      ],
      "name": "getRoleMemberCount",
      "outputs": [
        {
          "internalType": "uint256",
          "name": "",
          "type": "uint256"
        }
      ],
      "stateMutability": "view",
      "type": "function"
    },
    {
      "inputs": [
        {
          "internalType": "bytes32",
          "name": "role",
          "type": "bytes32"
        },
        {
          "internalType": "address",
          "name": "account",
          "type": "address"
        }
      ],
      "name": "grantRole",
      "outputs": [],
      "stateMutability": "nonpayable",
      "type": "function"
    },
    {
      "inputs": [
        {
          "internalType": "bytes32",
          "name": "role",
          "type": "bytes32"
        },
        {
          "internalType": "address",
          "name": "account",
          "type": "address"
        }
      ],
      "name": "hasRole",
      "outputs": [
        {
          "internalType": "bool",
          "name": "",
          "type": "bool"
        }
      ],
      "stateMutability": "view",
      "type": "function"
    },
    {
      "inputs": [],
      "name": "igoDeployer",
      "outputs": [
        {
          "internalType": "address",
          "name": "",
          "type": "address"
        }
      ],
      "stateMutability": "view",
      "type": "function"
    },
    {
      "inputs": [
        {
          "internalType": "string",
          "name": "",
          "type": "string"
        }
      ],
      "name": "igoNames",
      "outputs": [
        {
          "internalType": "address",
          "name": "",
          "type": "address"
        }
      ],
      "stateMutability": "view",
      "type": "function"
    },
    {
      "inputs": [],
      "name": "maxLoop",
      "outputs": [
        {
          "internalType": "uint256",
          "name": "",
          "type": "uint256"
        }
      ],
      "stateMutability": "view",
      "type": "function"
    },
    {
      "inputs": [
        {
          "internalType": "bytes32",
          "name": "role",
          "type": "bytes32"
        },
        {
          "internalType": "address",
          "name": "account",
          "type": "address"
        }
      ],
      "name": "renounceRole",
      "outputs": [],
      "stateMutability": "nonpayable",
      "type": "function"
    },
    {
      "inputs": [
        {
          "internalType": "bytes32",
          "name": "role",
          "type": "bytes32"
        },
        {
          "internalType": "address",
          "name": "account",
          "type": "address"
        }
      ],
      "name": "revokeRole",
      "outputs": [],
      "stateMutability": "nonpayable",
      "type": "function"
    },
    {
      "inputs": [
        {
          "internalType": "address",
          "name": "_igoDeployer",
          "type": "address"
        }
      ],
      "name": "setIGODeployer",
      "outputs": [],
      "stateMutability": "nonpayable",
      "type": "function"
    },
    {
      "inputs": [
        {
          "internalType": "uint256",
          "name": "newMaxLoop",
          "type": "uint256"
        }
      ],
      "name": "setMaxLoop",
      "outputs": [],
      "stateMutability": "nonpayable",
      "type": "function"
    },
    {
      "inputs": [
        {
          "internalType": "bytes4",
          "name": "interfaceId",
          "type": "bytes4"
        }
      ],
      "name": "supportsInterface",
      "outputs": [
        {
          "internalType": "bool",
          "name": "",
          "type": "bool"
        }
      ],
      "stateMutability": "view",
      "type": "function"
    }
  ],
  "bytecode": "0x6080346200010157601f620044f038819003918201601f1916830192916001600160401b038411838510176200010657808392604095865283396020928391810103126200010157516001600160a01b03811691908290036200010157620000aa916001600255606460035560018060a01b031960065416176006556001600091828052828152848320338452815260ff858420541615620000b9575b82805252823391206200011c565b50516143469081620001aa8239f35b82805282815284832033845281528483208260ff198254161790553333847f2f8788117e7eff1d82e926ec794901d17c78024a50270940304540a733656f0d8180a46200009c565b600080fd5b634e487b7160e01b600052604160045260246000fd5b91906001830160009082825280602052604082205415600014620001a357845494680100000000000000008610156200018f57600186018082558610156200017b57836040949596828552602085200155549382526020522055600190565b634e487b7160e01b83526032600452602483fd5b634e487b7160e01b83526041600452602483fd5b5092505056fe60808060405260043610156200001457600080fd5b600090813560e01c90816301ffc9a71462001a4b5750806305f6711f1462001a06578063248a9ca314620019ba5780632f2ff15d14620018ab57806336568abe14620017bf5780633c38dd6e14620017815780639010d07c146200170d57806391d148541462001697578063a217fddf146200165b578063a905a3b91462001232578063bb7ccca014620011de578063bfb8d1671462000317578063c52e56d31462000288578063ca15c873146200023e578063d547741f14620001d8578063e1885330146200012e5763ed4fe58914620000ee57600080fd5b346200012b57807ffffffffffffffffffffffffffffffffffffffffffffffffffffffffffffffffc3601126200012b576020600354604051908152f35b80fd5b50346200012b5760207ffffffffffffffffffffffffffffffffffffffffffffffffffffffffffffffffc3601126200012b576004359067ffffffffffffffff82116200012b57366023830112156200012b57602073ffffffffffffffffffffffffffffffffffffffff620001c482620001b03660048801356024890162001c91565b816040519382858094519384920162001b67565b810160058152030190205416604051908152f35b50346200012b5760407ffffffffffffffffffffffffffffffffffffffffffffffffffffffffffffffffc3601126200012b576200023b6004356200021b62001b43565b908084528360205262000235600160408620015462001fc6565b62002114565b80f35b50346200012b5760207ffffffffffffffffffffffffffffffffffffffffffffffffffffffffffffffffc3601126200012b5760406020916004358152600183522054604051908152f35b50346200012b5760207ffffffffffffffffffffffffffffffffffffffffffffffffffffffffffffffffc3601126200012b5760043573ffffffffffffffffffffffffffffffffffffffff81168091036200031257620002e662001cfa565b7fffffffffffffffffffffffff0000000000000000000000000000000000000000600654161760065580f35b600080fd5b50346200012b576102607ffffffffffffffffffffffffffffffffffffffffffffffffffffffffffffffffc3601126200012b5767ffffffffffffffff600435116200012b573660236004350112156200012b5767ffffffffffffffff60043560040135116200012b57366024600435600401356004350101116200012b5760a07fffffffffffffffffffffffffffffffffffffffffffffffffffffffffffffffdc3601126200012b5760405160a0810181811067ffffffffffffffff821117620011b157604052620003e862001b43565b815260443573ffffffffffffffffffffffffffffffffffffffff8116810362000cf85760208201526064356040820152608435606082015260a435608082015267ffffffffffffffff60c4351162000ce95736602360c43501121562000ce95767ffffffffffffffff60c435600401351162000ce95736602460c4356004013560051b60c43501011162000ce95767ffffffffffffffff60e4351162000ce95736602360e43501121562000ce95767ffffffffffffffff60e435600401351162000ce95736602461012060e435600401350260e43501011162000ce95760e07ffffffffffffffffffffffffffffffffffffffffffffffffffffffffffffffefc36011262000ce95760807ffffffffffffffffffffffffffffffffffffffffffffffffffffffffffffffe1c36011262000ce95760028054146200115357600280556200053362001cfa565b73ffffffffffffffffffffffffffffffffffffffff60405160043560040135602460043501823760208160043560040135810160058152030190205416620010f55781602073ffffffffffffffffffffffffffffffffffffffff600654166024604051809681937f528468960000000000000000000000000000000000000000000000000000000083523060048401525af1928315620010635781936200109d575b5060405180611c3e81011067ffffffffffffffff611c3e830111176200107057611c3e620026d382396020611c3e82015280620006266020611c3e83010160043560040135602460043501620025b6565b039082f08015620010635773ffffffffffffffffffffffffffffffffffffffff16918281526101c4356080820152604051600435600401356024600435018237602081600435600401358101600581520301902073ffffffffffffffffffffffffffffffffffffffff85167fffffffffffffffffffffffff0000000000000000000000000000000000000000825416179055604051620006c68162001bd1565b620006de366004356004013560246004350162001c91565b815273ffffffffffffffffffffffffffffffffffffffff851660208201528360408201528160608201526004546801000000000000000081101562001036578060016200072f9201600455620025f5565b9190916200100a57805180519067ffffffffffffffff821162000fdd5762000758845462002630565b601f811162000f97575b50602090601f831160011462000ecc57918060079492608094899262000ec0575b50507fffffffffffffffffffffffffffffffffffffffffffffffffffffffffffffffff8260011b9260031b1c19161784555b6001840173ffffffffffffffffffffffffffffffffffffffff6020830151167fffffffffffffffffffffffff00000000000000000000000000000000000000008254161790556002840173ffffffffffffffffffffffffffffffffffffffff6040830151167fffffffffffffffffffffffff00000000000000000000000000000000000000008254161790556060600385019101519073ffffffffffffffffffffffffffffffffffffffff8251167fffffffffffffffffffffffff00000000000000000000000000000000000000008254161790556004840173ffffffffffffffffffffffffffffffffffffffff6020830151167fffffffffffffffffffffffff00000000000000000000000000000000000000008254161790556040810151600585015560608101516006850155015191015573ffffffffffffffffffffffffffffffffffffffff84163b1562000ce957604080517f75b2e5a6000000000000000000000000000000000000000000000000000000008152336004820152825173ffffffffffffffffffffffffffffffffffffffff908116602483015260208401511660448201529082015160648201526060820151608482015260809091015160a4820152610104810161010060c483015260c4356004013590528181610124810161012460c4356004013560051b83010190602460c435019084905b60c43560040135821062000dfa57505050807ffffffffffffffffffffffffffffffffffffffffffffffffffffffffffffffffc83602093030160e484015260e43560040135815201602460e43501835b60e43560040135811062000d54575050819003818373ffffffffffffffffffffffffffffffffffffffff89165af1801562000d495762000d37575b5090803b1562000ce9576040517f5fc9400b0000000000000000000000000000000000000000000000000000000081526101043573ffffffffffffffffffffffffffffffffffffffff811680910362000312576004820152610124359073ffffffffffffffffffffffffffffffffffffffff82168203620003125773ffffffffffffffffffffffffffffffffffffffff82166024820152610144803573ffffffffffffffffffffffffffffffffffffffff8116809103620003125785918391604483015261016490813560648401526101843560848401526101a43560a48401526101c43560c48401526101e43560e4840152610204356101048401526102243561012484015261024435908301528183875af1801562000d145790849162000d1f575b5050813b1562000cf8576040517ff2fde38b00000000000000000000000000000000000000000000000000000000815273ffffffffffffffffffffffffffffffffffffffff85166004820152838160248183875af1801562000d145790849162000cfc575b505073ffffffffffffffffffffffffffffffffffffffff84163b1562000cf85773ffffffffffffffffffffffffffffffffffffffff604051917f2f2ff15d00000000000000000000000000000000000000000000000000000000835284600484015216602482015282816044818373ffffffffffffffffffffffffffffffffffffffff89165af1801562000ced5762000cd1575b5073ffffffffffffffffffffffffffffffffffffffff60409382855160043560040135602460043501823780600435600401358101878152039020948651957f8c941e5813d81a78a88724badffabc2b2cf670a135b2abaccd8e9ae0c57f3dcf8585169280a460016002551682526020820152f35b62000cdd839162001c3a565b62000ce9573862000c5c565b5080fd5b6040513d85823e3d90fd5b8280fd5b62000d079062001c3a565b62000cf857823862000bc8565b6040513d86823e3d90fd5b62000d2a9062001c3a565b62000cf857823862000b63565b62000d429062001c3a565b3862000a3f565b6040513d84823e3d90fd5b9250925060048335101562000df6576101208060019285358152602086013560208201526fffffffffffffffffffffffffffffffff8062000d986040890162002686565b16604083015262000dac6060880162002686565b1660608201526080860135608082015260a086013560a082015260c0808701359082015260e086013560e08201526101008601356101008201520193019101918391859362000a04565b8480fd5b92919450927ffffffffffffffffffffffffffffffffffffffffffffffffffffffffffffffedc9082030182527fffffffffffffffffffffffffffffffffffffffffffffffffffffffffffffffbd60c4353603018435121562000ebc5767ffffffffffffffff602460c43586350101351162000ebc57833560c435016024810135360360449091011362000ebc5760208062000eaa600193602460c4358935010135604460c4358a350101620025b6565b950192019201908593918593620009b4565b8580fd5b01519050388062000783565b908487526020872091875b7fffffffffffffffffffffffffffffffffffffffffffffffffffffffffffffffe08516811062000f7e57509260079492600192608095837fffffffffffffffffffffffffffffffffffffffffffffffffffffffffffffffe081161062000f46575b505050811b018455620007b5565b01517fffffffffffffffffffffffffffffffffffffffffffffffffffffffffffffffff60f88460031b161c1916905538808062000f38565b9192602060018192868501518155019401920162000ed7565b84875260208720601f840160051c81016020851062000fd5575b601f830160051c8201811062000fc957505062000762565b88815560010162000fb1565b508062000fb1565b6024867f4e487b710000000000000000000000000000000000000000000000000000000081526041600452fd5b6024847f4e487b7100000000000000000000000000000000000000000000000000000000815280600452fd5b6024847f4e487b710000000000000000000000000000000000000000000000000000000081526041600452fd5b50604051903d90823e3d90fd5b6024827f4e487b710000000000000000000000000000000000000000000000000000000081526041600452fd5b9092506020813d602011620010ec575b81620010bc6020938362001c4f565b8101031262000cf8575173ffffffffffffffffffffffffffffffffffffffff8116810362000cf8579138620005d5565b3d9150620010ad565b60646040517f08c379a000000000000000000000000000000000000000000000000000000000815260206004820152601e60248201527f49474f466163746f72793a2049474f20616c72656164792065786973747300006044820152fd5b60646040517f08c379a000000000000000000000000000000000000000000000000000000000815260206004820152601f60248201527f5265656e7472616e637947756172643a207265656e7472616e742063616c6c006044820152fd5b6024837f4e487b710000000000000000000000000000000000000000000000000000000081526041600452fd5b50346200012b57807ffffffffffffffffffffffffffffffffffffffffffffffffffffffffffffffffc3601126200012b57602073ffffffffffffffffffffffffffffffffffffffff60065416604051908152f35b50346200012b5760407ffffffffffffffffffffffffffffffffffffffffffffffffffffffffffffffffc3601126200012b5760043560243591828211620015fd5760039182548082860311620015f2575b50808403927fffffffffffffffffffffffffffffffffffffffffffffffffffffffffffffffe0620012d1620012b886620026a4565b95620012c8604051978862001c4f565b808752620026a4565b01835b81811062001598575050815b8581106200142957505050600454604051926060928385018486528251809152608086019460808260051b88010195602080950193915b838310620013555750505050507fffffffffffffffffffffffffffffffffffffffffffffffffffffffffffffffff8495019084015260408301520390f35b90919293968580827fffffffffffffffffffffffffffffffffffffffffffffffffffffffffffffff808c60019503018652620014198b51918680620013a4855161010080865285019062001b8c565b9473ffffffffffffffffffffffffffffffffffffffff80888301511688860152604082015116604085015201519101906080809173ffffffffffffffffffffffffffffffffffffffff808251168552602082015116602085015260408101516040850152606081015160608501520151910152565b9901930193019193929062001317565b6200143481620025f5565b5060405184830391620014478262001bd1565b60405181549190886200145a8462002630565b80835260019480861690811562001557575060011462001520575b50918162001490600198979593620015189795038262001c4f565b835273ffffffffffffffffffffffffffffffffffffffff8092820154166020908185015282600283015416604085015260405192620014cf8462001c1d565b808a84015416845260048301541690830152600581015460408301526007600682015491606092838501520154608083015282015262001510828a620026bd565b5287620026bd565b5001620012e0565b9050828a52602090818b20908b915b818310620015435750508201018162001475565b80548584018501529183019186016200152f565b7fffffffffffffffffffffffffffffffffffffffffffffffffffffffffffffff001660208086019190915291151560051b8401909101915082905062001475565b602090604051620015a98162001bd1565b60608082528390888284015288604084015260405190620015ca8262001c1d565b89825289838301528960408301528981830152896080830152830152828901015201620012d4565b810193503862001283565b60646040517f08c379a000000000000000000000000000000000000000000000000000000000815260206004820152601b60248201527f49474f466163746f72795f494e44455845535f524556455253454400000000006044820152fd5b50346200012b57807ffffffffffffffffffffffffffffffffffffffffffffffffffffffffffffffffc3601126200012b57602090604051908152f35b50346200012b5760407ffffffffffffffffffffffffffffffffffffffffffffffffffffffffffffffffc3601126200012b5760ff6040602092620016da62001b43565b600435825281855273ffffffffffffffffffffffffffffffffffffffff8383209116825284522054166040519015158152f35b50346200012b5760407ffffffffffffffffffffffffffffffffffffffffffffffffffffffffffffffffc3601126200012b5773ffffffffffffffffffffffffffffffffffffffff62001771602092600435815260018452604060243591206200239c565b9190546040519260031b1c168152f35b50346200012b57807ffffffffffffffffffffffffffffffffffffffffffffffffffffffffffffffffc3601126200012b576020600454604051908152f35b50346200012b5760407ffffffffffffffffffffffffffffffffffffffffffffffffffffffffffffffffc3601126200012b57620017fb62001b43565b3373ffffffffffffffffffffffffffffffffffffffff82160362001827576200023b9060043562002114565b60846040517f08c379a000000000000000000000000000000000000000000000000000000000815260206004820152602f60248201527f416363657373436f6e74726f6c3a2063616e206f6e6c792072656e6f756e636560448201527f20726f6c657320666f722073656c6600000000000000000000000000000000006064820152fd5b50346200012b5760407ffffffffffffffffffffffffffffffffffffffffffffffffffffffffffffffffc3601126200012b576200194e6004356001620018f062001b43565b918085526020908582526200190b8360408820015462001fc6565b80865285825273ffffffffffffffffffffffffffffffffffffffff60408720941693848752825260ff6040872054161562001952575b85525260408320620023b5565b5080f35b80865285825260408620848752825260408620837fffffffffffffffffffffffffffffffffffffffffffffffffffffffffffffff008254161790553384827f2f8788117e7eff1d82e926ec794901d17c78024a50270940304540a733656f0d8980a462001941565b50346200012b5760207ffffffffffffffffffffffffffffffffffffffffffffffffffffffffffffffffc3601126200012b57600160406020926004358152808452200154604051908152f35b50346200012b5760207ffffffffffffffffffffffffffffffffffffffffffffffffffffffffffffffffc3601126200012b5762001a4262001cfa565b60043560035580f35b90503462000ce95760207ffffffffffffffffffffffffffffffffffffffffffffffffffffffffffffffffc36011262000ce9576004357fffffffff00000000000000000000000000000000000000000000000000000000811680910362000cf857602092507f5a05180f00000000000000000000000000000000000000000000000000000000811490811562001ae3575b5015158152f35b7f7965db0b0000000000000000000000000000000000000000000000000000000081149150811562001b18575b503862001adc565b7f01ffc9a7000000000000000000000000000000000000000000000000000000009150143862001b10565b6024359073ffffffffffffffffffffffffffffffffffffffff821682036200031257565b60005b83811062001b7b5750506000910152565b818101518382015260200162001b6a565b907fffffffffffffffffffffffffffffffffffffffffffffffffffffffffffffffe0601f60209362001bca8151809281875287808801910162001b67565b0116010190565b6080810190811067ffffffffffffffff82111762001bee57604052565b7f4e487b7100000000000000000000000000000000000000000000000000000000600052604160045260246000fd5b60a0810190811067ffffffffffffffff82111762001bee57604052565b67ffffffffffffffff811162001bee57604052565b90601f7fffffffffffffffffffffffffffffffffffffffffffffffffffffffffffffffe0910116810190811067ffffffffffffffff82111762001bee57604052565b92919267ffffffffffffffff821162001bee576040519162001cdc60207fffffffffffffffffffffffffffffffffffffffffffffffffffffffffffffffe0601f840116018462001c4f565b82948184528183011162000312578281602093846000960137010152565b3360009081527fad3228b676f7d3cd4284a5443f17f1962b36e491b30a40b2405849e597ba5fb5602090815260408083205490929060ff161562001d3d57505050565b62001d48336200220c565b908084519062001d588262001bd1565b6042825284820192606036853782511562001f99576030845382519060019182101562001f995790607860218501536041915b81831162001ec95750505062001e6d57604862001e6993869362001e329362001e2298519889937f416363657373436f6e74726f6c3a206163636f756e74200000000000000000008a86015262001dec815180928c60378901910162001b67565b8401917f206973206d697373696e6720726f6c652000000000000000000000000000000060378401525180938684019062001b67565b0103602881018752018562001c4f565b519283927f08c379a00000000000000000000000000000000000000000000000000000000084526004840152602483019062001b8c565b0390fd5b6064848651907f08c379a000000000000000000000000000000000000000000000000000000000825280600483015260248201527f537472696e67733a20686578206c656e67746820696e73756666696369656e746044820152fd5b909192600f8116601081101562001f6c577f3031323334353637383961626364656600000000000000000000000000000000901a62001f098587620021cb565b5360041c92801562001f3f577fffffffffffffffffffffffffffffffffffffffffffffffffffffffffffffffff01919062001d8b565b6024827f4e487b710000000000000000000000000000000000000000000000000000000081526011600452fd5b6024837f4e487b710000000000000000000000000000000000000000000000000000000081526032600452fd5b807f4e487b7100000000000000000000000000000000000000000000000000000000602492526032600452fd5b600090808252602090828252604092838120338252835260ff84822054161562001ff05750505050565b62001ffb336200220c565b918451906200200a8262001bd1565b6042825284820192606036853782511562001f99576030845382519060019182101562001f995790607860218501536041915b8183116200209e5750505062001e6d57604862001e6993869362001e329362001e2298519889937f416363657373436f6e74726f6c3a206163636f756e74200000000000000000008a86015262001dec815180928c60378901910162001b67565b909192600f8116601081101562001f6c577f3031323334353637383961626364656600000000000000000000000000000000901a620020de8587620021cb565b5360041c92801562001f3f577fffffffffffffffffffffffffffffffffffffffffffffffffffffffffffffffff0191906200203d565b90604062002162926000908082528160205273ffffffffffffffffffffffffffffffffffffffff83832094169384835260205260ff838320541662002165575b815260016020522062002450565b50565b808252816020528282208483526020528282207fffffffffffffffffffffffffffffffffffffffffffffffffffffffffffffff0081541690553384827ff6391f5c32d9c69d2a47ea670b442974b53935d1edc7fd64eb21e047a839171b8580a462002154565b908151811015620021dd570160200190565b7f4e487b7100000000000000000000000000000000000000000000000000000000600052603260045260246000fd5b604051906060820182811067ffffffffffffffff82111762001bee57604052602a8252602082016040368237825115620021dd57603090538151600190811015620021dd57607860218401536029905b808211620022cc5750506200226e5790565b60646040517f08c379a000000000000000000000000000000000000000000000000000000000815260206004820152602060248201527f537472696e67733a20686578206c656e67746820696e73756666696369656e746044820152fd5b9091600f811660108110156200236e577f3031323334353637383961626364656600000000000000000000000000000000901a6200230b8486620021cb565b5360041c91801562002340577fffffffffffffffffffffffffffffffffffffffffffffffffffffffffffffffff01906200225c565b602460007f4e487b710000000000000000000000000000000000000000000000000000000081526011600452fd5b602460007f4e487b710000000000000000000000000000000000000000000000000000000081526032600452fd5b8054821015620021dd5760005260206000200190600090565b919060018301600090828252806020526040822054156000146200244a5784549468010000000000000000861015620011b157836200243a62002403886001604098999a018555846200239c565b819391549060031b7fffffffffffffffffffffffffffffffffffffffffffffffffffffffffffffffff811b9283911b169119161790565b9055549382526020522055600190565b50925050565b90600182019060009281845282602052604084205490811515600014620025af577fffffffffffffffffffffffffffffffffffffffffffffffffffffffffffffffff91828101818111620025825782549084820191821162002555578082036200251a575b50505080548015620024ed57820191620024d083836200239c565b909182549160031b1b191690555582526020526040812055600190565b6024867f4e487b710000000000000000000000000000000000000000000000000000000081526031600452fd5b6200253f6200252e6200240393866200239c565b90549060031b1c928392866200239c565b90558652846020526040862055388080620024b5565b6024887f4e487b710000000000000000000000000000000000000000000000000000000081526011600452fd5b6024877f4e487b710000000000000000000000000000000000000000000000000000000081526011600452fd5b5050505090565b601f82602094937fffffffffffffffffffffffffffffffffffffffffffffffffffffffffffffffe0938186528686013760008582860101520116010190565b600454811015620021dd57600460005260031b7f8a35acfbc15ff81a39ae7d344fd709f28e8600b4aa8c65c6b64bfe7fe36bd19b0190600090565b90600182811c921680156200267b575b60208310146200264c57565b7f4e487b7100000000000000000000000000000000000000000000000000000000600052602260045260246000fd5b91607f169162002640565b35906fffffffffffffffffffffffffffffffff821682036200031257565b67ffffffffffffffff811162001bee5760051b60200190565b8051821015620021dd5760209160051b01019056fe608060405234620002935762001c3e803803806200001d8162000298565b92833981016020918281830312620002935780516001600160401b039182821162000293570191601f81818501121562000293578351938385116200024657601f1994620000718382018716880162000298565b938185528782840101116200029357869160005b8281106200027f575050600090840190910181905280546001600160a01b03198116339081178355916001600160a01b03909116907f8be0079c531659141344cd1fd0a4f28419497f9722a3daafe3b4186f6b6457e09080a3600191828055600895620000f38754620002be565b8381116200025c575b507f49474f2056657374696e67000000000000000000000000000000000000000016808855600d80546001600160401b031916620186a0179055825195861162000246576200014b90620002be565b83811162000209575b5080928511600114620001a057508394509083929160009462000194575b50501b916000199060031b1c19161790555b6040516119299081620003158239f35b01519250388062000172565b9294849081168760005284600020946000905b88838310620001ee5750505010620001d4575b505050811b01905562000184565b015160001960f88460031b161c19169055388080620001c6565b858701518855909601959485019487935090810190620001b3565b620002359088600052826000208580890160051c820192858a106200023c575b0160051c0190620002fb565b3862000154565b9250819262000229565b634e487b7160e01b600052604160045260246000fd5b6200027890886000528483600020910160051c810190620002fb565b38620000fc565b818101840151868201850152830162000085565b600080fd5b6040519190601f01601f191682016001600160401b038111838210176200024657604052565b90600182811c92168015620002f0575b6020831014620002da57565b634e487b7160e01b600052602260045260246000fd5b91607f1691620002ce565b81811062000307575050565b60008155600101620002fb56fe608060408181526004908136101561001f575b505050361561001d57005b005b600092833560e01c90816306fdde03146110aa575080630f152056146110435780630fb5a6b41461100657806313d033c014610fc95780631f2dc5ef14610f8257806321df0da714610f2f57806334fccc1d14610ef257806337a97db714610deb5780635fc9400b14610b2c578063715018a614610a90578063828ee8151461093d5780638da5cb5b146108ec5780639852595c1461088a578063a73c71401461084d578063aa808095146107e0578063be9a6555146107a4578063e33b7de314610767578063edd924161461050e578063f2fde38b146103d7578063f3fe12c9146101fa5763f3fef3a30361001257346101f657807ffffffffffffffffffffffffffffffffffffffffffffffffffffffffffffffffc3601126101f65760206101ad73ffffffffffffffffffffffffffffffffffffffff9361016061132d565b906101696113a6565b84517fa9059cbb0000000000000000000000000000000000000000000000000000000081523391810191825260243560208301529586938492899291849160400190565b0393165af19081156101ed57506101c2575080f35b6101e29060203d81116101e6575b6101da81836112c9565b810190611448565b5080f35b503d6101d0565b513d84823e3d90fd5b8280fd5b508290346103d357602090817ffffffffffffffffffffffffffffffffffffffffffffffffffffffffffffffffc3601126101f657833567ffffffffffffffff81116103cf5761024f61025e9136908701611378565b61025761149c565b3391611531565b338452600a83526102728285205482611460565b90811561034d578186859261028d61030d969560075461150b565b600755338852600a84528488205573ffffffffffffffffffffffffffffffffffffffff60095416908785518097819582947fa9059cbb000000000000000000000000000000000000000000000000000000008452339084016020909392919373ffffffffffffffffffffffffffffffffffffffff60408201951681520152565b03925af19081156103445750610326575b826001805580f35b8161033c92903d106101e6576101da81836112c9565b50818061031e565b513d85823e3d90fd5b608486858551917f08c379a0000000000000000000000000000000000000000000000000000000008352820152603d60248201527f546f6b656e56657374696e673a2063616e6e6f742072656c6561736520746f6b60448201527f656e732c206e6f7420656e6f7567682076657374656420746f6b656e730000006064820152fd5b8380fd5b5080fd5b5090346101f65760207ffffffffffffffffffffffffffffffffffffffffffffffffffffffffffffffffc3601126101f65761041061132d565b906104196113a6565b73ffffffffffffffffffffffffffffffffffffffff80921692831561048b5750508254827fffffffffffffffffffffffff00000000000000000000000000000000000000008216178455167f8be0079c531659141344cd1fd0a4f28419497f9722a3daafe3b4186f6b6457e08380a380f35b90602060849251917f08c379a0000000000000000000000000000000000000000000000000000000008352820152602660248201527f4f776e61626c653a206e6577206f776e657220697320746865207a65726f206160448201527f64647265737300000000000000000000000000000000000000000000000000006064820152fd5b5090346101f657817ffffffffffffffffffffffffffffffffffffffffffffffffffffffffffffffffc3601126101f65767ffffffffffffffff9080358281116107635761055e9036908301611378565b602435929161056b61149c565b825442116106e05760209082875193849283378101600c81520301902033865260205283852092600d54166105a4600385015482611460565b908184029184830414841517156106b4578015610688579160209161063a938873ffffffffffffffffffffffffffffffffffffffff600189015416928951968795869485937fa9059cbb0000000000000000000000000000000000000000000000000000000085520490339084016020909392919373ffffffffffffffffffffffffffffffffffffffff60408201951681520152565b03925af1801561067e57610657939450610660575b508254611460565b90556001805580f35b6106779060203d81116101e6576101da81836112c9565b503861064f565b84513d87823e3d90fd5b6024876012857f4e487b7100000000000000000000000000000000000000000000000000000000835252fd5b6024876011857f4e487b7100000000000000000000000000000000000000000000000000000000835252fd5b60848360208851917f08c379a0000000000000000000000000000000000000000000000000000000008352820152602260248201527f546f6b656e56657374696e673a2050726573616c652069732066696e6973686560448201527f642e0000000000000000000000000000000000000000000000000000000000006064820152fd5b8480fd5b8382346103d357817ffffffffffffffffffffffffffffffffffffffffffffffffffffffffffffffffc3601126103d3576020906007549051908152f35b5090346101f657827ffffffffffffffffffffffffffffffffffffffffffffffffffffffffffffffffc3601126101f65760209250549051908152f35b50823461084a57817ffffffffffffffffffffffffffffffffffffffffffffffffffffffffffffffffc36011261084a5782359067ffffffffffffffff821161084a575061083560209361084392369101611378565b61083d611355565b91611531565b9051908152f35b80fd5b8382346103d357817ffffffffffffffffffffffffffffffffffffffffffffffffffffffffffffffffc3601126103d3576020906006549051908152f35b8382346103d35760207ffffffffffffffffffffffffffffffffffffffffffffffffffffffffffffffffc3601126103d3578060209273ffffffffffffffffffffffffffffffffffffffff6108dc61132d565b168152600a845220549051908152f35b8382346103d357817ffffffffffffffffffffffffffffffffffffffffffffffffffffffffffffffffc3601126103d35773ffffffffffffffffffffffffffffffffffffffff60209254169051908152f35b5090346101f657817ffffffffffffffffffffffffffffffffffffffffffffffffffffffffffffffffc3601126101f65780359167ffffffffffffffff9182841161076357366023850112156107635783810135928311610a6457508051926020926109cf847fffffffffffffffffffffffffffffffffffffffffffffffffffffffffffffffe0601f84011601866112c9565b808552838501913660248383010111610a605784849388828560809b966024610a12970185378a010152610a01611355565b97855193849283925192839161130a565b8101600c81520301902073ffffffffffffffffffffffffffffffffffffffff809616825284522090815493600183015416600360028401549301549382519586528501528301526060820152f35b8680fd5b8460416024927f4e487b7100000000000000000000000000000000000000000000000000000000835252fd5b833461084a57807ffffffffffffffffffffffffffffffffffffffffffffffffffffffffffffffffc36011261084a57610ac76113a6565b8073ffffffffffffffffffffffffffffffffffffffff81547fffffffffffffffffffffffff000000000000000000000000000000000000000081168355167f8be0079c531659141344cd1fd0a4f28419497f9722a3daafe3b4186f6b6457e08280a380f35b5090346101f6577ffffffffffffffffffffffffffffffffffffffffffffffffffffffffffffffffc360161016081126103cf5760e0136101f65760807fffffffffffffffffffffffffffffffffffffffffffffffffffffffffffffff1c3601126101f657610b986113a6565b73ffffffffffffffffffffffffffffffffffffffff80610bb6611425565b1615610d8e57610bc4611425565b167fffffffffffffffffffffffff0000000000000000000000000000000000000000600954161760095561012435908115610d0b57608435928315610cae576101043590818410610c2c57506002556101443560035560e43590556005556006558060075580f35b517f08c379a0000000000000000000000000000000000000000000000000000000008152602081840152602760248201527f546f6b656e56657374696e673a206475726174696f6e206d757374206265203e60448201527f3d20636c696666000000000000000000000000000000000000000000000000006064820152608490fd5b90602060649251917f08c379a0000000000000000000000000000000000000000000000000000000008352820152602060248201527f546f6b656e56657374696e673a20616d6f756e74206d757374206265203e20306044820152fd5b60849060208451917f08c379a0000000000000000000000000000000000000000000000000000000008352820152602260248201527f546f6b656e56657374696e673a206475726174696f6e206d757374206265203e60448201527f20300000000000000000000000000000000000000000000000000000000000006064820152fd5b50602060649251917f08c379a0000000000000000000000000000000000000000000000000000000008352820152601c60248201527f76657374696e67436f6e74726163745f5a45524f5f41444452455353000000006044820152fd5b5090346101f65760c07ffffffffffffffffffffffffffffffffffffffffffffffffffffffffffffffffc3601126101f65780359067ffffffffffffffff82116103cf57610e3a91369101611378565b9190610e44611355565b9260643573ffffffffffffffffffffffffffffffffffffffff808216809203610a6057846003955196610e768861127e565b60443588526020880193845282828901956084358752602060608b019860a4358a5282865193849283378101600c81520301902091168952602052872095518655600186019151167fffffffffffffffffffffffff00000000000000000000000000000000000000008254161790555160028401555191015580f35b8382346103d357817ffffffffffffffffffffffffffffffffffffffffffffffffffffffffffffffffc3601126103d3576020906003549051908152f35b8382346103d357817ffffffffffffffffffffffffffffffffffffffffffffffffffffffffffffffffc3601126103d35760209073ffffffffffffffffffffffffffffffffffffffff600954169051908152f35b8382346103d357817ffffffffffffffffffffffffffffffffffffffffffffffffffffffffffffffffc3601126103d35760209067ffffffffffffffff600d54169051908152f35b8382346103d357817ffffffffffffffffffffffffffffffffffffffffffffffffffffffffffffffffc3601126103d3576020906002549051908152f35b8382346103d357817ffffffffffffffffffffffffffffffffffffffffffffffffffffffffffffffffc3601126103d3576020906005549051908152f35b8382346103d35760207ffffffffffffffffffffffffffffffffffffffffffffffffffffffffffffffffc3601126103d35760ff8160209373ffffffffffffffffffffffffffffffffffffffff61109761132d565b168152600b855220541690519015158152f35b9050833461084a57807ffffffffffffffffffffffffffffffffffffffffffffffffffffffffffffffffc36011261084a578060085491600183811c91818516948515611274575b60209889851087146112485750918391899388969587528487019790816000146111ed5750600114611177575b5050505091611152601f927fffffffffffffffffffffffffffffffffffffffffffffffffffffffffffffffe09403856112c9565b61116e855196879581875251928380928801528787019061130a565b01168101030190f35b929350600883527ff3f7a9fe364faab93b216da50a3214154f22a0a2b415b23a84c8169e8b636ee35b8284106111d75750505082010185827fffffffffffffffffffffffffffffffffffffffffffffffffffffffffffffffe0601f61111e565b80548885018601528795509284019281016111a0565b7fffffffffffffffffffffffffffffffffffffffffffffffffffffffffffffff00168852505050151560051b830101905085827fffffffffffffffffffffffffffffffffffffffffffffffffffffffffffffffe0601f61111e565b8260226024927f4e487b7100000000000000000000000000000000000000000000000000000000835252fd5b92607f16926110f1565b6080810190811067ffffffffffffffff82111761129a57604052565b7f4e487b7100000000000000000000000000000000000000000000000000000000600052604160045260246000fd5b90601f7fffffffffffffffffffffffffffffffffffffffffffffffffffffffffffffffe0910116810190811067ffffffffffffffff82111761129a57604052565b60005b83811061131d5750506000910152565b818101518382015260200161130d565b6004359073ffffffffffffffffffffffffffffffffffffffff8216820361135057565b600080fd5b6024359073ffffffffffffffffffffffffffffffffffffffff8216820361135057565b9181601f840112156113505782359167ffffffffffffffff8311611350576020838186019501011161135057565b73ffffffffffffffffffffffffffffffffffffffff6000541633036113c757565b60646040517f08c379a000000000000000000000000000000000000000000000000000000000815260206004820152602060248201527f4f776e61626c653a2063616c6c6572206973206e6f7420746865206f776e65726044820152fd5b60443573ffffffffffffffffffffffffffffffffffffffff811681036113505790565b90816020910312611350575180151581036113505790565b9190820391821161146d57565b7f4e487b7100000000000000000000000000000000000000000000000000000000600052601160045260246000fd5b6002600154146114ad576002600155565b60646040517f08c379a000000000000000000000000000000000000000000000000000000000815260206004820152601f60248201527f5265656e7472616e637947756172643a207265656e7472616e742063616c6c006044820152fd5b9190820180921161146d57565b90816020910312611350575160ff811681036113505790565b9060409181835192839283378101600c81526020928391030190209173ffffffffffffffffffffffffffffffffffffffff928360009516855282528084209080519061157c8261127e565b8254938483528560018501541692818101938452606060036002870154968584019788520154910152856009541690825196879482867f313ce567000000000000000000000000000000000000000000000000000000009586825260049b8c915afa9586156118e9578a966118c6575b509082915116928885518095819382525afa9283156118bd57509160ff929183928992611890575b50501691160360ff81116118645760ff16604d811161186457600a0a9182810292818404149015171561183857519081810291818304149015171561180c5781549260025493611664858261150b565b42116116f5575090919250600354918281029281840414901517156116c95767ffffffffffffffff600d541692831561169d5750500490565b9060126024927f4e487b7100000000000000000000000000000000000000000000000000000000835252fd5b806011847f4e487b71000000000000000000000000000000000000000000000000000000006024945252fd5b919360055492611705848261150b565b421061171357505050505090565b9061173061172a826117369499989596979961150b565b42611460565b94611460565b80156117e0578104928381029381850414901517156117b457600354908181029181830414901517156117b45767ffffffffffffffff600d54169182156117885750611785939450049061150b565b90565b806012877f4e487b71000000000000000000000000000000000000000000000000000000006024945252fd5b6024826011877f4e487b7100000000000000000000000000000000000000000000000000000000835252fd5b6024836012887f4e487b7100000000000000000000000000000000000000000000000000000000835252fd5b6024836011847f4e487b7100000000000000000000000000000000000000000000000000000000835252fd5b6024846011857f4e487b7100000000000000000000000000000000000000000000000000000000835252fd5b6024856011867f4e487b7100000000000000000000000000000000000000000000000000000000835252fd5b6118af9250803d106118b6575b6118a781836112c9565b810190611518565b3880611614565b503d61189d565b513d89823e3d90fd5b83929196506118e190833d85116118b6576118a781836112c9565b9590916115ec565b85513d8c823e3d90fdfea26469706673582212204aeca532d8861517457fa42200f307328a224ffbe0b784a9fc58fe966d3f4d9364736f6c63430008110033a26469706673582212207479d18b3dec970a1667fd31709f791e5c7e0aa92d304c86a89d2912b079aec664736f6c63430008110033",
  "linkReferences": {},
  "deployedLinkReferences": {}
}