{
  "_format": "hh-sol-artifact-1",
  "contractName": "IGOFactory",
  "sourceName": "contracts/IGOFactory.sol",
  "abi": [
    {
      "inputs": [
        {
          "internalType": "address",
          "name": "_igoDeployer",
          "type": "address"
        }
      ],
      "stateMutability": "nonpayable",
      "type": "constructor"
    },
    {
      "anonymous": false,
      "inputs": [
        {
          "indexed": true,
          "internalType": "address",
          "name": "oldDefaultVesting",
          "type": "address"
        },
        {
          "indexed": false,
          "internalType": "bytes",
          "name": "oldVestingCreationCode",
          "type": "bytes"
        },
        {
          "indexed": true,
          "internalType": "address",
          "name": "newDefaultVesting",
          "type": "address"
        },
        {
          "indexed": true,
          "internalType": "bytes",
          "name": "newVestingCreationCode",
          "type": "bytes"
        }
      ],
      "name": "DefaultVestingUpdated",
      "type": "event"
    },
    {
      "anonymous": false,
      "inputs": [
        {
          "indexed": true,
          "internalType": "string",
          "name": "igoName",
          "type": "string"
        },
        {
          "indexed": true,
          "internalType": "address",
          "name": "igo",
          "type": "address"
        },
        {
          "indexed": true,
          "internalType": "address",
          "name": "vesting",
          "type": "address"
        }
      ],
      "name": "IGOCreated",
      "type": "event"
    },
    {
      "anonymous": false,
      "inputs": [
        {
          "indexed": true,
          "internalType": "bytes32",
          "name": "role",
          "type": "bytes32"
        },
        {
          "indexed": true,
          "internalType": "bytes32",
          "name": "previousAdminRole",
          "type": "bytes32"
        },
        {
          "indexed": true,
          "internalType": "bytes32",
          "name": "newAdminRole",
          "type": "bytes32"
        }
      ],
      "name": "RoleAdminChanged",
      "type": "event"
    },
    {
      "anonymous": false,
      "inputs": [
        {
          "indexed": true,
          "internalType": "bytes32",
          "name": "role",
          "type": "bytes32"
        },
        {
          "indexed": true,
          "internalType": "address",
          "name": "account",
          "type": "address"
        },
        {
          "indexed": true,
          "internalType": "address",
          "name": "sender",
          "type": "address"
        }
      ],
      "name": "RoleGranted",
      "type": "event"
    },
    {
      "anonymous": false,
      "inputs": [
        {
          "indexed": true,
          "internalType": "bytes32",
          "name": "role",
          "type": "bytes32"
        },
        {
          "indexed": true,
          "internalType": "address",
          "name": "account",
          "type": "address"
        },
        {
          "indexed": true,
          "internalType": "address",
          "name": "sender",
          "type": "address"
        }
      ],
      "name": "RoleRevoked",
      "type": "event"
    },
    {
      "inputs": [],
      "name": "DEFAULT_ADMIN_ROLE",
      "outputs": [
        {
          "internalType": "bytes32",
          "name": "",
          "type": "bytes32"
        }
      ],
      "stateMutability": "view",
      "type": "function"
    },
    {
      "inputs": [
        {
          "internalType": "string",
          "name": "igoName",
          "type": "string"
        },
        {
          "components": [
            {
              "internalType": "address",
              "name": "vestingContract",
              "type": "address"
            },
            {
              "internalType": "address",
              "name": "paymentToken",
              "type": "address"
            },
            {
              "internalType": "address",
              "name": "permit2",
              "type": "address"
            },
            {
              "internalType": "uint256",
              "name": "grandTotal",
              "type": "uint256"
            },
            {
              "internalType": "uint256",
              "name": "summedMaxTagCap",
              "type": "uint256"
            },
            {
              "internalType": "uint256",
              "name": "refundFeeDecimals",
              "type": "uint256"
            }
          ],
          "internalType": "struct IGOStorage.SetUp",
          "name": "setUp",
          "type": "tuple"
        },
        {
          "internalType": "string[]",
          "name": "tagIds",
          "type": "string[]"
        },
        {
          "components": [
            {
              "internalType": "enum ISharedInternal.Status",
              "name": "status",
              "type": "uint8"
            },
            {
              "internalType": "bytes32",
              "name": "merkleRoot",
              "type": "bytes32"
            },
            {
              "internalType": "uint128",
              "name": "startAt",
              "type": "uint128"
            },
            {
              "internalType": "uint128",
              "name": "endAt",
              "type": "uint128"
            },
            {
              "internalType": "uint256",
              "name": "maxTagCap",
              "type": "uint256"
            },
            {
              "internalType": "uint256",
              "name": "minAllocation",
              "type": "uint256"
            },
            {
              "internalType": "uint256",
              "name": "maxAllocation",
              "type": "uint256"
            },
            {
              "internalType": "uint256",
              "name": "allocation",
              "type": "uint256"
            },
            {
              "internalType": "uint256",
              "name": "maxParticipants",
              "type": "uint256"
            }
          ],
          "internalType": "struct ISharedInternal.Tag[]",
          "name": "tags",
          "type": "tuple[]"
        },
        {
          "components": [
            {
              "internalType": "address",
              "name": "paymentReceiver",
              "type": "address"
            },
            {
              "internalType": "address",
              "name": "admin",
              "type": "address"
            },
            {
              "internalType": "address",
              "name": "vestedToken",
              "type": "address"
            },
            {
              "internalType": "uint256",
              "name": "platformFee",
              "type": "uint256"
            },
            {
              "internalType": "uint256",
              "name": "totalTokenOnSale",
              "type": "uint256"
            },
            {
              "internalType": "uint256",
              "name": "gracePeriod",
              "type": "uint256"
            },
            {
              "internalType": "uint256",
              "name": "decimals",
              "type": "uint256"
            }
          ],
          "internalType": "struct IIGOVesting.ContractSetup",
          "name": "contractSetup",
          "type": "tuple"
        },
        {
          "components": [
            {
              "internalType": "uint256",
              "name": "startTime",
              "type": "uint256"
            },
            {
              "internalType": "uint256",
              "name": "cliff",
              "type": "uint256"
            },
            {
              "internalType": "uint256",
              "name": "duration",
              "type": "uint256"
            },
            {
              "internalType": "uint256",
              "name": "initialUnlockPercent",
              "type": "uint256"
            }
          ],
          "internalType": "struct IIGOVesting.VestingSetup",
          "name": "vestingSetup",
          "type": "tuple"
        }
      ],
      "name": "createIGO",
      "outputs": [
        {
          "internalType": "address",
          "name": "igo",
          "type": "address"
        },
        {
          "internalType": "address",
          "name": "vesting",
          "type": "address"
        }
      ],
      "stateMutability": "nonpayable",
      "type": "function"
    },
    {
      "inputs": [],
      "name": "getIgoCount",
      "outputs": [
        {
          "internalType": "uint256",
          "name": "",
          "type": "uint256"
        }
      ],
      "stateMutability": "view",
      "type": "function"
    },
    {
      "inputs": [
        {
          "internalType": "uint256",
          "name": "from",
          "type": "uint256"
        },
        {
          "internalType": "uint256",
          "name": "to",
          "type": "uint256"
        }
      ],
      "name": "getIgosDetails",
      "outputs": [
        {
          "components": [
            {
              "internalType": "string",
              "name": "name",
              "type": "string"
            },
            {
              "internalType": "address",
              "name": "igo",
              "type": "address"
            },
            {
              "internalType": "address",
              "name": "vesting",
              "type": "address"
            },
            {
              "components": [
                {
                  "internalType": "address",
                  "name": "vestingContract",
                  "type": "address"
                },
                {
                  "internalType": "address",
                  "name": "paymentToken",
                  "type": "address"
                },
                {
                  "internalType": "address",
                  "name": "permit2",
                  "type": "address"
                },
                {
                  "internalType": "uint256",
                  "name": "grandTotal",
                  "type": "uint256"
                },
                {
                  "internalType": "uint256",
                  "name": "summedMaxTagCap",
                  "type": "uint256"
                },
                {
                  "internalType": "uint256",
                  "name": "refundFeeDecimals",
                  "type": "uint256"
                }
              ],
              "internalType": "struct IGOStorage.SetUp",
              "name": "setUp",
              "type": "tuple"
            }
          ],
          "internalType": "struct IGOFactory.IGODetail[]",
          "name": "igos",
          "type": "tuple[]"
        },
        {
          "internalType": "uint256",
          "name": "lastEvaludatedIndex",
          "type": "uint256"
        },
        {
          "internalType": "uint256",
          "name": "totalItems",
          "type": "uint256"
        }
      ],
      "stateMutability": "view",
      "type": "function"
    },
    {
      "inputs": [
        {
          "internalType": "bytes32",
          "name": "role",
          "type": "bytes32"
        }
      ],
      "name": "getRoleAdmin",
      "outputs": [
        {
          "internalType": "bytes32",
          "name": "",
          "type": "bytes32"
        }
      ],
      "stateMutability": "view",
      "type": "function"
    },
    {
      "inputs": [
        {
          "internalType": "bytes32",
          "name": "role",
          "type": "bytes32"
        },
        {
          "internalType": "uint256",
          "name": "index",
          "type": "uint256"
        }
      ],
      "name": "getRoleMember",
      "outputs": [
        {
          "internalType": "address",
          "name": "",
          "type": "address"
        }
      ],
      "stateMutability": "view",
      "type": "function"
    },
    {
      "inputs": [
        {
          "internalType": "bytes32",
          "name": "role",
          "type": "bytes32"
        }
      ],
      "name": "getRoleMemberCount",
      "outputs": [
        {
          "internalType": "uint256",
          "name": "",
          "type": "uint256"
        }
      ],
      "stateMutability": "view",
      "type": "function"
    },
    {
      "inputs": [
        {
          "internalType": "bytes32",
          "name": "role",
          "type": "bytes32"
        },
        {
          "internalType": "address",
          "name": "account",
          "type": "address"
        }
      ],
      "name": "grantRole",
      "outputs": [],
      "stateMutability": "nonpayable",
      "type": "function"
    },
    {
      "inputs": [
        {
          "internalType": "bytes32",
          "name": "role",
          "type": "bytes32"
        },
        {
          "internalType": "address",
          "name": "account",
          "type": "address"
        }
      ],
      "name": "hasRole",
      "outputs": [
        {
          "internalType": "bool",
          "name": "",
          "type": "bool"
        }
      ],
      "stateMutability": "view",
      "type": "function"
    },
    {
      "inputs": [],
      "name": "igoDeployer",
      "outputs": [
        {
          "internalType": "address",
          "name": "",
          "type": "address"
        }
      ],
      "stateMutability": "view",
      "type": "function"
    },
    {
      "inputs": [
        {
          "internalType": "string",
          "name": "",
          "type": "string"
        }
      ],
      "name": "igoNames",
      "outputs": [
        {
          "internalType": "address",
          "name": "",
          "type": "address"
        }
      ],
      "stateMutability": "view",
      "type": "function"
    },
    {
      "inputs": [],
      "name": "maxLoop",
      "outputs": [
        {
          "internalType": "uint256",
          "name": "",
          "type": "uint256"
        }
      ],
      "stateMutability": "view",
      "type": "function"
    },
    {
      "inputs": [
        {
          "internalType": "bytes32",
          "name": "role",
          "type": "bytes32"
        },
        {
          "internalType": "address",
          "name": "account",
          "type": "address"
        }
      ],
      "name": "renounceRole",
      "outputs": [],
      "stateMutability": "nonpayable",
      "type": "function"
    },
    {
      "inputs": [
        {
          "internalType": "bytes32",
          "name": "role",
          "type": "bytes32"
        },
        {
          "internalType": "address",
          "name": "account",
          "type": "address"
        }
      ],
      "name": "revokeRole",
      "outputs": [],
      "stateMutability": "nonpayable",
      "type": "function"
    },
    {
      "inputs": [
        {
          "internalType": "address",
          "name": "_igoDeployer",
          "type": "address"
        }
      ],
      "name": "setIGODeployer",
      "outputs": [],
      "stateMutability": "nonpayable",
      "type": "function"
    },
    {
      "inputs": [
        {
          "internalType": "uint256",
          "name": "newMaxLoop",
          "type": "uint256"
        }
      ],
      "name": "setMaxLoop",
      "outputs": [],
      "stateMutability": "nonpayable",
      "type": "function"
    },
    {
      "inputs": [
        {
          "internalType": "bytes4",
          "name": "interfaceId",
          "type": "bytes4"
        }
      ],
      "name": "supportsInterface",
      "outputs": [
        {
          "internalType": "bool",
          "name": "",
          "type": "bool"
        }
      ],
      "stateMutability": "view",
      "type": "function"
    }
  ],
  "bytecode": "0x6080346200010157601f6200432238819003918201601f1916830192916001600160401b038411838510176200010657808392604095865283396020928391810103126200010157516001600160a01b03811691908290036200010157620000aa916001600255606460035560018060a01b031960065416176006556001600091828052828152848320338452815260ff858420541615620000b9575b82805252823391206200011c565b50516141789081620001aa8239f35b82805282815284832033845281528483208260ff198254161790553333847f2f8788117e7eff1d82e926ec794901d17c78024a50270940304540a733656f0d8180a46200009c565b600080fd5b634e487b7160e01b600052604160045260246000fd5b91906001830160009082825280602052604082205415600014620001a357845494680100000000000000008610156200018f57600186018082558610156200017b57836040949596828552602085200155549382526020522055600190565b634e487b7160e01b83526032600452602483fd5b634e487b7160e01b83526041600452602483fd5b5092505056fe60808060405260043610156200001457600080fd5b600090813560e01c90816301ffc9a71462001ad95750806305f6711f1462001a94578063248a9ca31462001a48578063264072dd1462000b1b5780632f2ff15d1462000a0857806336568abe146200091c5780633c38dd6e14620008de5780639010d07c146200086a57806391d1485414620007ef578063a217fddf14620007b3578063a905a3b9146200036b578063bb7ccca01462000317578063c52e56d31462000288578063ca15c873146200023e578063d547741f14620001d8578063e1885330146200012e5763ed4fe58914620000ee57600080fd5b346200012b57807ffffffffffffffffffffffffffffffffffffffffffffffffffffffffffffffffc3601126200012b576020600354604051908152f35b80fd5b50346200012b5760207ffffffffffffffffffffffffffffffffffffffffffffffffffffffffffffffffc3601126200012b576004359067ffffffffffffffff82116200012b57366023830112156200012b57602073ffffffffffffffffffffffffffffffffffffffff620001c482620001b03660048801356024890162001d1f565b816040519382858094519384920162001cb5565b810160058152030190205416604051908152f35b50346200012b5760407ffffffffffffffffffffffffffffffffffffffffffffffffffffffffffffffffc3601126200012b576200023b6004356200021b62001c91565b908084528360205262000235600160408620015462002054565b620021a2565b80f35b50346200012b5760207ffffffffffffffffffffffffffffffffffffffffffffffffffffffffffffffffc3601126200012b5760406020916004358152600183522054604051908152f35b50346200012b5760207ffffffffffffffffffffffffffffffffffffffffffffffffffffffffffffffffc3601126200012b5760043573ffffffffffffffffffffffffffffffffffffffff81168091036200031257620002e662001d88565b7fffffffffffffffffffffffff0000000000000000000000000000000000000000600654161760065580f35b600080fd5b50346200012b57807ffffffffffffffffffffffffffffffffffffffffffffffffffffffffffffffffc3601126200012b57602073ffffffffffffffffffffffffffffffffffffffff60065416604051908152f35b50346200012b5760407ffffffffffffffffffffffffffffffffffffffffffffffffffffffffffffffffc3601126200012b57600435602435918282116200075557600391825480828603116200074a575b50808403927fffffffffffffffffffffffffffffffffffffffffffffffffffffffffffffffe06200040a620003f18662002733565b9562000401604051978862001c4f565b80875262002733565b01835b818110620006ea575050815b8581106200056e57505050600454604051926060928385018486528251809152608086019460808260051b88010195602080950193915b8383106200048e5750505050507fffffffffffffffffffffffffffffffffffffffffffffffffffffffffffffffff8495019084015260408301520390f35b90919293968580827fffffffffffffffffffffffffffffffffffffffffffffffffffffffffffffff808c600195030186526200055e8b51918680620004dd855161012080865285019062001cda565b9473ffffffffffffffffffffffffffffffffffffffff808883015116888601526040820151166040850152015191019060a0809173ffffffffffffffffffffffffffffffffffffffff808251168552806020830151166020860152604082015116604085015260608101516060850152608081015160808501520151910152565b9901930193019193929062000450565b620005798162002683565b50604051848303916200058c8262001bd1565b60405181549190886200059f84620026bf565b808352600194808616908115620006a9575060011462000672575b509181620005d56001989795936200066a9795038262001c4f565b835273ffffffffffffffffffffffffffffffffffffffff809282015416916020928385015280600283015416604085015260405192620006158462001c32565b818a8401541684528160048401541690840152600582015416604083015260086006820154916060928385015260078101546080850152015460a083015282015262000662828a6200274c565b52876200274c565b500162000419565b9050828a52602090818b20908b915b8183106200069557505082010181620005ba565b805485840185015291830191860162000681565b7fffffffffffffffffffffffffffffffffffffffffffffffffffffffffffffff001660208086019190915291151560051b84019091019150829050620005ba565b602090604051620006fb8162001bd1565b606080825283908882840152886040840152604051906200071c8262001c32565b898252898383015289604083015289818301528960808301528960a08301528301528289010152016200040d565b8101935038620003bc565b60646040517f08c379a000000000000000000000000000000000000000000000000000000000815260206004820152601b60248201527f49474f466163746f72795f494e44455845535f524556455253454400000000006044820152fd5b50346200012b57807ffffffffffffffffffffffffffffffffffffffffffffffffffffffffffffffffc3601126200012b57602090604051908152f35b50346200012b5760407ffffffffffffffffffffffffffffffffffffffffffffffffffffffffffffffffc3601126200012b5773ffffffffffffffffffffffffffffffffffffffff60406200084262001c91565b92600435815280602052209116600052602052602060ff604060002054166040519015158152f35b50346200012b5760407ffffffffffffffffffffffffffffffffffffffffffffffffffffffffffffffffc3601126200012b5773ffffffffffffffffffffffffffffffffffffffff620008ce602092600435815260018452604060243591206200242a565b9190546040519260031b1c168152f35b50346200012b57807ffffffffffffffffffffffffffffffffffffffffffffffffffffffffffffffffc3601126200012b576020600454604051908152f35b50346200012b5760407ffffffffffffffffffffffffffffffffffffffffffffffffffffffffffffffffc3601126200012b576200095862001c91565b3373ffffffffffffffffffffffffffffffffffffffff82160362000984576200023b90600435620021a2565b60846040517f08c379a000000000000000000000000000000000000000000000000000000000815260206004820152602f60248201527f416363657373436f6e74726f6c3a2063616e206f6e6c792072656e6f756e636560448201527f20726f6c657320666f722073656c6600000000000000000000000000000000006064820152fd5b50346200012b5760407ffffffffffffffffffffffffffffffffffffffffffffffffffffffffffffffffc3601126200012b5762000aad600435600162000a4d62001c91565b9180855260209085825262000a688360408820015462002054565b80865285825273ffffffffffffffffffffffffffffffffffffffff6040872094169384600052825260ff604060002054161562000ab1575b8552526040832062002443565b5080f35b808652858252604086208460005282526040600020837fffffffffffffffffffffffffffffffffffffffffffffffffffffffffffffff008254161790553384827f2f8788117e7eff1d82e926ec794901d17c78024a50270940304540a733656f0d8980a462000aa0565b50346200012b576102807ffffffffffffffffffffffffffffffffffffffffffffffffffffffffffffffffc3601126200012b5767ffffffffffffffff600435116200012b573660236004350112156200012b5767ffffffffffffffff60043560040135116200012b57366024600435600401356004350101116200012b5760c07fffffffffffffffffffffffffffffffffffffffffffffffffffffffffffffffdc3601126200012b5760405160c0810181811067ffffffffffffffff82111762001a1b5760405262000bec62001c91565b815260443573ffffffffffffffffffffffffffffffffffffffff811681036200156357602082015260643573ffffffffffffffffffffffffffffffffffffffff8116810362001563576040820152608435606082015260a435608082015260c43560a082015267ffffffffffffffff60e43511620015545736602360e435011215620015545767ffffffffffffffff60e4356004013511620015545736602460e4356004013560051b60e435010111620015545767ffffffffffffffff6101043511620015545736602361010435011215620015545767ffffffffffffffff610104356004013511620015545736602461012061010435600401350261010435010111620015545760e07ffffffffffffffffffffffffffffffffffffffffffffffffffffffffffffffedc360112620015545760807ffffffffffffffffffffffffffffffffffffffffffffffffffffffffffffffdfc36011262001554576002805414620019bd576002805562000d6262001d88565b73ffffffffffffffffffffffffffffffffffffffff604051600435600401356024600435018237602081600435600401358101600581520301902054166200195f5781602073ffffffffffffffffffffffffffffffffffffffff600654166024604051809681937f528468960000000000000000000000000000000000000000000000000000000083523060048401525af1928315620018cd57819362001907575b50604051806119e181011067ffffffffffffffff6119e183011117620018da576119e1620027628239306119e1820152604060206119e1830101528062000e5f60406119e18301016004356004013560246004350162002644565b039082f08015620018cd5773ffffffffffffffffffffffffffffffffffffffff16918281526101e43560a0820152604051600435600401356024600435018237602081600435600401358101600581520301902073ffffffffffffffffffffffffffffffffffffffff85167fffffffffffffffffffffffff000000000000000000000000000000000000000082541617905560405162000eff8162001bd1565b62000f17366004356004013560246004350162001d1f565b815273ffffffffffffffffffffffffffffffffffffffff8516602082015283604082015281606082015260045468010000000000000000811015620018a05780600162000f68920160045562002683565b9190916200187457805180519067ffffffffffffffff8211620018475762000f918454620026bf565b601f811162001801575b50602090601f8311600114620017365791806008949260a09489926200172a575b50507fffffffffffffffffffffffffffffffffffffffffffffffffffffffffffffffff8260011b9260031b1c19161784555b6001840173ffffffffffffffffffffffffffffffffffffffff6020830151167fffffffffffffffffffffffff00000000000000000000000000000000000000008254161790556002840173ffffffffffffffffffffffffffffffffffffffff6040830151167fffffffffffffffffffffffff00000000000000000000000000000000000000008254161790556060600385019101519073ffffffffffffffffffffffffffffffffffffffff8251167fffffffffffffffffffffffff00000000000000000000000000000000000000008254161790556004840173ffffffffffffffffffffffffffffffffffffffff6020830151167fffffffffffffffffffffffff00000000000000000000000000000000000000008254161790556005840173ffffffffffffffffffffffffffffffffffffffff6040830151167fffffffffffffffffffffffff00000000000000000000000000000000000000008254161790556060810151600685015560808101516007850155015191015573ffffffffffffffffffffffffffffffffffffffff84163b156200155457604051907f4fd737f600000000000000000000000000000000000000000000000000000000825262001213610124830191336004850152602484019060a0809173ffffffffffffffffffffffffffffffffffffffff808251168552806020830151166020860152604082015116604085015260608101516060850152608081015160808501520151910152565b61012060e483015260e4356004013590528181610144810161014460e4356004013560051b83010190602460e435019084905b60e4356004013582106200166457505050807ffffffffffffffffffffffffffffffffffffffffffffffffffffffffffffffffc836020930301610104840152610104356004013581520160246101043501835b61010435600401358110620015bf575050819003818373ffffffffffffffffffffffffffffffffffffffff89165af18015620015b457620015a2575b5090803b1562001554576040517f5fc9400b0000000000000000000000000000000000000000000000000000000081526101243573ffffffffffffffffffffffffffffffffffffffff811680910362000312576004820152610144359073ffffffffffffffffffffffffffffffffffffffff82168092036200031257816024820152610164803573ffffffffffffffffffffffffffffffffffffffff811680910362000312578591839160448301526101843560648301526101a43560848301526101c43560a48301526101e43560c48301526102043560e48301526102243561010483015261024435610124830152610264356101448301528183875af180156200157f579084916200158a575b5050813b1562001563576040517ff2fde38b00000000000000000000000000000000000000000000000000000000815273ffffffffffffffffffffffffffffffffffffffff85166004820152838160248183875af180156200157f5790849162001567575b505073ffffffffffffffffffffffffffffffffffffffff84163b156200156357604051907f2f2ff15d000000000000000000000000000000000000000000000000000000008252836004830152602482015282816044818373ffffffffffffffffffffffffffffffffffffffff89165af1801562001558576200153c575b5073ffffffffffffffffffffffffffffffffffffffff60409382855160043560040135602460043501823780600435600401358101878152039020948651957f8c941e5813d81a78a88724badffabc2b2cf670a135b2abaccd8e9ae0c57f3dcf8585169280a460016002551682526020820152f35b62001548839162001c1d565b620015545738620014c7565b5080fd5b6040513d85823e3d90fd5b8280fd5b620015729062001c1d565b6200156357823862001449565b6040513d86823e3d90fd5b620015959062001c1d565b62001563578238620013e4565b620015ad9062001c1d565b38620012d5565b6040513d84823e3d90fd5b9250925060048335101562001660576101208060019285358152602086013560208201526fffffffffffffffffffffffffffffffff80620016036040890162002715565b166040830152620016176060880162002715565b1660608201526080860135608082015260a086013560a082015260c086013560c082015260e086013560e082015261010080870135908201520193019101918391859362001299565b8480fd5b92919450927ffffffffffffffffffffffffffffffffffffffffffffffffffffffffffffffebc9082030182527fffffffffffffffffffffffffffffffffffffffffffffffffffffffffffffffbd60e43536030184351215620017265767ffffffffffffffff602460e4358635010135116200172657833560e4350160248101353603604490910113620017265760208062001714600193602460e4358935010135604460e4358a35010162002644565b95019201920190859391859362001246565b8580fd5b01519050388062000fbc565b908487526020872091875b7fffffffffffffffffffffffffffffffffffffffffffffffffffffffffffffffe085168110620017e85750926008949260019260a095837fffffffffffffffffffffffffffffffffffffffffffffffffffffffffffffffe0811610620017b0575b505050811b01845562000fee565b01517fffffffffffffffffffffffffffffffffffffffffffffffffffffffffffffffff60f88460031b161c19169055388080620017a2565b9192602060018192868501518155019401920162001741565b84875260208720601f840160051c8101602085106200183f575b601f830160051c820181106200183357505062000f9b565b8881556001016200181b565b50806200181b565b6024867f4e487b710000000000000000000000000000000000000000000000000000000081526041600452fd5b6024847f4e487b7100000000000000000000000000000000000000000000000000000000815280600452fd5b6024847f4e487b710000000000000000000000000000000000000000000000000000000081526041600452fd5b50604051903d90823e3d90fd5b6024827f4e487b710000000000000000000000000000000000000000000000000000000081526041600452fd5b9092506020813d60201162001956575b81620019266020938362001c4f565b8101031262001563575173ffffffffffffffffffffffffffffffffffffffff811681036200156357913862000e04565b3d915062001917565b60646040517f08c379a000000000000000000000000000000000000000000000000000000000815260206004820152601e60248201527f49474f466163746f72793a2049474f20616c72656164792065786973747300006044820152fd5b60646040517f08c379a000000000000000000000000000000000000000000000000000000000815260206004820152601f60248201527f5265656e7472616e637947756172643a207265656e7472616e742063616c6c006044820152fd5b6024837f4e487b710000000000000000000000000000000000000000000000000000000081526041600452fd5b50346200012b5760207ffffffffffffffffffffffffffffffffffffffffffffffffffffffffffffffffc3601126200012b57600160406020926004358152808452200154604051908152f35b50346200012b5760207ffffffffffffffffffffffffffffffffffffffffffffffffffffffffffffffffc3601126200012b5762001ad062001d88565b60043560035580f35b905034620015545760207ffffffffffffffffffffffffffffffffffffffffffffffffffffffffffffffffc36011262001554576004357fffffffff0000000000000000000000000000000000000000000000000000000081168091036200156357602092507f5a05180f00000000000000000000000000000000000000000000000000000000811490811562001b71575b5015158152f35b7f7965db0b0000000000000000000000000000000000000000000000000000000081149150811562001ba6575b503862001b6a565b7f01ffc9a7000000000000000000000000000000000000000000000000000000009150143862001b9e565b6080810190811067ffffffffffffffff82111762001bee57604052565b7f4e487b7100000000000000000000000000000000000000000000000000000000600052604160045260246000fd5b67ffffffffffffffff811162001bee57604052565b60c0810190811067ffffffffffffffff82111762001bee57604052565b90601f7fffffffffffffffffffffffffffffffffffffffffffffffffffffffffffffffe0910116810190811067ffffffffffffffff82111762001bee57604052565b6024359073ffffffffffffffffffffffffffffffffffffffff821682036200031257565b60005b83811062001cc95750506000910152565b818101518382015260200162001cb8565b907fffffffffffffffffffffffffffffffffffffffffffffffffffffffffffffffe0601f60209362001d188151809281875287808801910162001cb5565b0116010190565b92919267ffffffffffffffff821162001bee576040519162001d6a60207fffffffffffffffffffffffffffffffffffffffffffffffffffffffffffffffe0601f840116018462001c4f565b82948184528183011162000312578281602093846000960137010152565b3360009081527fad3228b676f7d3cd4284a5443f17f1962b36e491b30a40b2405849e597ba5fb5602090815260408083205490929060ff161562001dcb57505050565b62001dd6336200229a565b908084519062001de68262001bd1565b60428252848201926060368537825115620020275760308453825190600191821015620020275790607860218501536041915b81831162001f575750505062001efb57604862001ef793869362001ec09362001eb098519889937f416363657373436f6e74726f6c3a206163636f756e74200000000000000000008a86015262001e7a815180928c60378901910162001cb5565b8401917f206973206d697373696e6720726f6c652000000000000000000000000000000060378401525180938684019062001cb5565b0103602881018752018562001c4f565b519283927f08c379a00000000000000000000000000000000000000000000000000000000084526004840152602483019062001cda565b0390fd5b6064848651907f08c379a000000000000000000000000000000000000000000000000000000000825280600483015260248201527f537472696e67733a20686578206c656e67746820696e73756666696369656e746044820152fd5b909192600f8116601081101562001ffa577f3031323334353637383961626364656600000000000000000000000000000000901a62001f97858762002259565b5360041c92801562001fcd577fffffffffffffffffffffffffffffffffffffffffffffffffffffffffffffffff01919062001e19565b6024827f4e487b710000000000000000000000000000000000000000000000000000000081526011600452fd5b6024837f4e487b710000000000000000000000000000000000000000000000000000000081526032600452fd5b807f4e487b7100000000000000000000000000000000000000000000000000000000602492526032600452fd5b600090808252602090828252604092838120338252835260ff8482205416156200207e5750505050565b62002089336200229a565b91845190620020988262001bd1565b60428252848201926060368537825115620020275760308453825190600191821015620020275790607860218501536041915b8183116200212c5750505062001efb57604862001ef793869362001ec09362001eb098519889937f416363657373436f6e74726f6c3a206163636f756e74200000000000000000008a86015262001e7a815180928c60378901910162001cb5565b909192600f8116601081101562001ffa577f3031323334353637383961626364656600000000000000000000000000000000901a6200216c858762002259565b5360041c92801562001fcd577fffffffffffffffffffffffffffffffffffffffffffffffffffffffffffffffff019190620020cb565b906040620021f0926000908082528160205273ffffffffffffffffffffffffffffffffffffffff83832094169384835260205260ff8383205416620021f3575b8152600160205220620024de565b50565b808252816020528282208483526020528282207fffffffffffffffffffffffffffffffffffffffffffffffffffffffffffffff0081541690553384827ff6391f5c32d9c69d2a47ea670b442974b53935d1edc7fd64eb21e047a839171b8580a4620021e2565b9081518110156200226b570160200190565b7f4e487b7100000000000000000000000000000000000000000000000000000000600052603260045260246000fd5b604051906060820182811067ffffffffffffffff82111762001bee57604052602a82526020820160403682378251156200226b576030905381516001908110156200226b57607860218401536029905b8082116200235a575050620022fc5790565b60646040517f08c379a000000000000000000000000000000000000000000000000000000000815260206004820152602060248201527f537472696e67733a20686578206c656e67746820696e73756666696369656e746044820152fd5b9091600f81166010811015620023fc577f3031323334353637383961626364656600000000000000000000000000000000901a62002399848662002259565b5360041c918015620023ce577fffffffffffffffffffffffffffffffffffffffffffffffffffffffffffffffff0190620022ea565b602460007f4e487b710000000000000000000000000000000000000000000000000000000081526011600452fd5b602460007f4e487b710000000000000000000000000000000000000000000000000000000081526032600452fd5b80548210156200226b5760005260206000200190600090565b91906001830160009082825280602052604082205415600014620024d8578454946801000000000000000086101562001a1b5783620024c862002491886001604098999a018555846200242a565b819391549060031b7fffffffffffffffffffffffffffffffffffffffffffffffffffffffffffffffff811b9283911b169119161790565b9055549382526020522055600190565b50925050565b906001820190600092818452826020526040842054908115156000146200263d577fffffffffffffffffffffffffffffffffffffffffffffffffffffffffffffffff918281018181116200261057825490848201918211620025e357808203620025a8575b505050805480156200257b578201916200255e83836200242a565b909182549160031b1b191690555582526020526040812055600190565b6024867f4e487b710000000000000000000000000000000000000000000000000000000081526031600452fd5b620025cd620025bc6200249193866200242a565b90549060031b1c928392866200242a565b9055865284602052604086205538808062002543565b6024887f4e487b710000000000000000000000000000000000000000000000000000000081526011600452fd5b6024877f4e487b710000000000000000000000000000000000000000000000000000000081526011600452fd5b5050505090565b601f82602094937fffffffffffffffffffffffffffffffffffffffffffffffffffffffffffffffe0938186528686013760008582860101520116010190565b6004548110156200226b576009906004600052027f8a35acfbc15ff81a39ae7d344fd709f28e8600b4aa8c65c6b64bfe7fe36bd19b0190600090565b90600182811c921680156200270a575b6020831014620026db57565b7f4e487b7100000000000000000000000000000000000000000000000000000000600052602260045260246000fd5b91607f1691620026cf565b35906fffffffffffffffffffffffffffffffff821682036200031257565b67ffffffffffffffff811162001bee5760051b60200190565b80518210156200226b5760209160051b01019056fe6080604052346200029f57620019e1803803806200001d81620002a4565b92833981016040828203126200029f5781516001600160a01b0380821693918490036200029f576020828101516001600160401b03938482116200029f570193601f918183870112156200029f5785518581116200025157601f19966200008a82860189168401620002a4565b938285528383830101116200029f57829060005b8381106200028a5750506000918401015260019384600055600297620000c58954620002ca565b85811162000267575b507f49474f2056657374696e67000000000000000000000000000000000000000016808a55600e80546001600160401b031916620186a017905586546001600160a01b03198116831788559092167f8be0079c531659141344cd1fd0a4f28419497f9722a3daafe3b4186f6b6457e0600080a3825195861162000251576200015690620002ca565b83811162000214575b5080928511600114620001ab5750839450908392916000946200019f575b50501b916000199060031b1c19161790555b6040516116c09081620003218239f35b0151925038806200017d565b9294849081168760005284600020946000905b88838310620001f95750505010620001df575b505050811b0190556200018f565b015160001960f88460031b161c19169055388080620001d1565b858701518855909601959485019487935090810190620001be565b620002409088600052826000208580890160051c820192858a1062000247575b0160051c019062000307565b386200015f565b9250819262000234565b634e487b7160e01b600052604160045260246000fd5b62000283908a6000528685600020910160051c81019062000307565b38620000ce565b8181018301518682018401528492016200009e565b600080fd5b6040519190601f01601f191682016001600160401b038111838210176200025157604052565b90600182811c92168015620002fc575b6020831014620002e657565b634e487b7160e01b600052602260045260246000fd5b91607f1691620002da565b81811062000313575050565b600081556001016200030756fe608060409080825260048036101561001f575b505050361561001d57005b005b600091823560e01c90816306fdde0314610f0e575080630f15205614610ea75780631d80009a14610e6a57806321df0da714610e1757806337a97db714610d0f578063438114d014610cd05780635fc9400b1461093a578063715018a61461089c578063828ee815146107445780638da5cb5b146106f157806390be10cc146106b65780639852595c14610654578063aa808095146105e6578063e3f42a9b1461059f578063f2fde38b14610465578063f3fe12c9146102895763f3fef3a303610012573461028557827ffffffffffffffffffffffffffffffffffffffffffffffffffffffffffffffffc36011261028557610119611192565b60243591610125611282565b61012d61160b565b826101366112fe565b10610202576101b19285926020928673ffffffffffffffffffffffffffffffffffffffff86518098819682957fa9059cbb000000000000000000000000000000000000000000000000000000008452339084016020909392919373ffffffffffffffffffffffffffffffffffffffff60408201951681520152565b0393165af19081156101f957506101cb575b506001815580f35b6101eb9060203d81116101f2575b6101e3818361112e565b81019061126a565b50816101c3565b503d6101d9565b513d84823e3d90fd5b60849060208651917f08c379a0000000000000000000000000000000000000000000000000000000008352820152602b60248201527f546f6b656e56657374696e673a206e6f7420656e6f756768207769746864726160448201527f7761626c652066756e64730000000000000000000000000000000000000000006064820152fd5b5080fd5b50913461028557602090817ffffffffffffffffffffffffffffffffffffffffffffffffffffffffffffffffc36011261046157833567ffffffffffffffff811161045d576102dd6102ec91369087016111dd565b6102e5611282565b33916113ab565b338452600b8352610300828520548261122e565b9081156103db578186859261031b61039b9695600a546112f1565b600a55338852600b84528488205573ffffffffffffffffffffffffffffffffffffffff60035416908785518097819582947fa9059cbb000000000000000000000000000000000000000000000000000000008452339084016020909392919373ffffffffffffffffffffffffffffffffffffffff60408201951681520152565b03925af19081156103d257506103b4575b826001815580f35b816103ca92903d106101f2576101e3818361112e565b5081806103ac565b513d85823e3d90fd5b608486858551917f08c379a0000000000000000000000000000000000000000000000000000000008352820152603d60248201527f546f6b656e56657374696e673a2063616e6e6f742072656c6561736520746f6b60448201527f656e732c206e6f7420656e6f7567682076657374656420746f6b656e730000006064820152fd5b8380fd5b8280fd5b508290346104615760207ffffffffffffffffffffffffffffffffffffffffffffffffffffffffffffffffc3601126104615761049f611192565b906104a861160b565b73ffffffffffffffffffffffffffffffffffffffff80921692831561051c575050600154827fffffffffffffffffffffffff0000000000000000000000000000000000000000821617600155167f8be0079c531659141344cd1fd0a4f28419497f9722a3daafe3b4186f6b6457e08380a380f35b90602060849251917f08c379a0000000000000000000000000000000000000000000000000000000008352820152602660248201527f4f776e61626c653a206e6577206f776e657220697320746865207a65726f206160448201527f64647265737300000000000000000000000000000000000000000000000000006064820152fd5b82843461028557817ffffffffffffffffffffffffffffffffffffffffffffffffffffffffffffffffc3601126102855760209067ffffffffffffffff600e54169051908152f35b5091903461065157817ffffffffffffffffffffffffffffffffffffffffffffffffffffffffffffffffc3601126106515782359067ffffffffffffffff8211610651575061063c60209361064a923691016111dd565b6106446111ba565b916113ab565b9051908152f35b80fd5b8284346102855760207ffffffffffffffffffffffffffffffffffffffffffffffffffffffffffffffffc360112610285578060209273ffffffffffffffffffffffffffffffffffffffff6106a6611192565b168152600b845220549051908152f35b82843461028557817ffffffffffffffffffffffffffffffffffffffffffffffffffffffffffffffffc3601126102855760209061064a6112fe565b82843461028557817ffffffffffffffffffffffffffffffffffffffffffffffffffffffffffffffffc3601126102855760209073ffffffffffffffffffffffffffffffffffffffff600154169051908152f35b5082903461046157817ffffffffffffffffffffffffffffffffffffffffffffffffffffffffffffffffc3601126104615780359167ffffffffffffffff918284116108985736602385011215610898578381013592831161086c57508051926020926107d7847fffffffffffffffffffffffffffffffffffffffffffffffffffffffffffffffe0601f840116018661112e565b8085528385019136602483830101116108685784849388828560809b96602461081a970185378a0101526108096111ba565b97855193849283925192839161116f565b8101600d81520301902073ffffffffffffffffffffffffffffffffffffffff809616825284522090815493600183015416600360028401549301549382519586528501528301526060820152f35b8680fd5b8460416024927f4e487b7100000000000000000000000000000000000000000000000000000000835252fd5b8480fd5b823461065157807ffffffffffffffffffffffffffffffffffffffffffffffffffffffffffffffffc360112610651576108d361160b565b8073ffffffffffffffffffffffffffffffffffffffff6001547fffffffffffffffffffffffff00000000000000000000000000000000000000008116600155167f8be0079c531659141344cd1fd0a4f28419497f9722a3daafe3b4186f6b6457e08280a380f35b50829034610461577ffffffffffffffffffffffffffffffffffffffffffffffffffffffffffffffffc3601610160811261045d5760e0136104615760807fffffffffffffffffffffffffffffffffffffffffffffffffffffffffffffff1c360112610461576109a761160b565b73ffffffffffffffffffffffffffffffffffffffff806109c561120b565b1615610c73576109d361120b565b167fffffffffffffffffffffffff00000000000000000000000000000000000000006003541617600355610124358015610bf057608435908115610b935761010435808210610b10576101443590818402948486048303610ae45767ffffffffffffffff9586600e5416908115610ab85790610a5091048661122e565b95610a5b838661122e565b978815610ab8575160e08101918211911017610a8c575560055560e4356006556007556008550460095580600a5580f35b8760416024927f4e487b7100000000000000000000000000000000000000000000000000000000835252fd5b60248a6012857f4e487b7100000000000000000000000000000000000000000000000000000000835252fd5b8760116024927f4e487b7100000000000000000000000000000000000000000000000000000000835252fd5b60848460208751917f08c379a0000000000000000000000000000000000000000000000000000000008352820152602760248201527f546f6b656e56657374696e673a206475726174696f6e206d757374206265203e60448201527f3d20636c696666000000000000000000000000000000000000000000000000006064820152fd5b60648360208651917f08c379a0000000000000000000000000000000000000000000000000000000008352820152602060248201527f546f6b656e56657374696e673a20616d6f756e74206d757374206265203e20306044820152fd5b50602060849251917f08c379a0000000000000000000000000000000000000000000000000000000008352820152602260248201527f546f6b656e56657374696e673a206475726174696f6e206d757374206265203e60448201527f20300000000000000000000000000000000000000000000000000000000000006064820152fd5b50602060649251917f08c379a0000000000000000000000000000000000000000000000000000000008352820152601c60248201527f76657374696e67436f6e74726163745f5a45524f5f41444452455353000000006044820152fd5b50346102855760207ffffffffffffffffffffffffffffffffffffffffffffffffffffffffffffffffc36011261028557610d0861160b565b35600f5580f35b508290346104615760c07ffffffffffffffffffffffffffffffffffffffffffffffffffffffffffffffffc3601126104615780359067ffffffffffffffff821161045d57610d5f913691016111dd565b9190610d696111ba565b9260643573ffffffffffffffffffffffffffffffffffffffff80821680920361086857846003955196610d9b886110e3565b60443588526020880193845282828901956084358752602060608b019860a4358a5282865193849283378101600d81520301902091168952602052872095518655600186019151167fffffffffffffffffffffffff00000000000000000000000000000000000000008254161790555160028401555191015580f35b82843461028557817ffffffffffffffffffffffffffffffffffffffffffffffffffffffffffffffffc3601126102855760209073ffffffffffffffffffffffffffffffffffffffff600354169051908152f35b82843461028557817ffffffffffffffffffffffffffffffffffffffffffffffffffffffffffffffffc36011261028557602090600f549051908152f35b8284346102855760207ffffffffffffffffffffffffffffffffffffffffffffffffffffffffffffffffc3601126102855760ff8160209373ffffffffffffffffffffffffffffffffffffffff610efb611192565b168152600c855220541690519015158152f35b849150833461065157807ffffffffffffffffffffffffffffffffffffffffffffffffffffffffffffffffc360112610651578060025491600183811c918185169485156110d9575b60209889851087146110ad5750918391899388969587528487019790816000146110525750600114610fdc575b5050505091610fb7601f927fffffffffffffffffffffffffffffffffffffffffffffffffffffffffffffffe094038561112e565b610fd3855196879581875251928380928801528787019061116f565b01168101030190f35b929350600283527f405787fa12a823e0f2b7631cc41b3ba8828b3321ca811111fa75cd3aa3bb5ace5b82841061103c5750505082010185827fffffffffffffffffffffffffffffffffffffffffffffffffffffffffffffffe0601f610f83565b8054888501860152879550928401928101611005565b7fffffffffffffffffffffffffffffffffffffffffffffffffffffffffffffff00168852505050151560051b830101905085827fffffffffffffffffffffffffffffffffffffffffffffffffffffffffffffffe0601f610f83565b8260226024927f4e487b7100000000000000000000000000000000000000000000000000000000835252fd5b92607f1692610f56565b6080810190811067ffffffffffffffff8211176110ff57604052565b7f4e487b7100000000000000000000000000000000000000000000000000000000600052604160045260246000fd5b90601f7fffffffffffffffffffffffffffffffffffffffffffffffffffffffffffffffe0910116810190811067ffffffffffffffff8211176110ff57604052565b60005b8381106111825750506000910152565b8181015183820152602001611172565b6004359073ffffffffffffffffffffffffffffffffffffffff821682036111b557565b600080fd5b6024359073ffffffffffffffffffffffffffffffffffffffff821682036111b557565b9181601f840112156111b55782359167ffffffffffffffff83116111b557602083818601950101116111b557565b60443573ffffffffffffffffffffffffffffffffffffffff811681036111b55790565b9190820391821161123b57565b7f4e487b7100000000000000000000000000000000000000000000000000000000600052601160045260246000fd5b908160209103126111b5575180151581036111b55790565b600260005414611293576002600055565b60646040517f08c379a000000000000000000000000000000000000000000000000000000000815260206004820152601f60248201527f5265656e7472616e637947756172643a207265656e7472616e742063616c6c006044820152fd5b9190820180921161123b57565b6024602073ffffffffffffffffffffffffffffffffffffffff60035416604051928380927f70a082310000000000000000000000000000000000000000000000000000000082523060048301525afa801561139f5760009061136c575b61136991506008549061122e565b90565b6020823d8211611397575b816113846020938361112e565b810103126106515750611369905161135b565b3d9150611377565b6040513d6000823e3d90fd5b919060409281845192839283378101600d81526020928391030190209273ffffffffffffffffffffffffffffffffffffffff93846000941684528252808320908051906113f7826110e3565b825495868352600184015416918285820152606060036002860154958484019687520154910152838151948580947f313ce56700000000000000000000000000000000000000000000000000000000825260049788915afa918215611602575085916115c9575b5060ff91501660120360ff811161159d5760ff16604d811161159d57600a0a9384810294818604149015171561151a5751928381029381850414901517156114ee5760065481546114af81836112f1565b42116115465750506005549267ffffffffffffffff600e54169384810294818604149015171561151a578381029381850414901517156114ee57505090565b9060116024927f4e487b7100000000000000000000000000000000000000000000000000000000835252fd5b6024836011847f4e487b7100000000000000000000000000000000000000000000000000000000835252fd5b611552600754836112f1565b421061156357505050505060085490565b611570611575924261122e565b61122e565b60095484810294818604149015171561151a578381029381850414901517156114ee57505090565b6024846011857f4e487b7100000000000000000000000000000000000000000000000000000000835252fd5b905081813d83116115fb575b6115df818361112e565b8101031261045d575160ff8116810361045d5760ff903861145e565b503d6115d5565b513d87823e3d90fd5b73ffffffffffffffffffffffffffffffffffffffff60015416330361162c57565b60646040517f08c379a000000000000000000000000000000000000000000000000000000000815260206004820152602060248201527f4f776e61626c653a2063616c6c6572206973206e6f7420746865206f776e65726044820152fdfea26469706673582212202a5d93f962515f1e9221eeb22ae52241aedada8c3cab5b4aad128fb50f4e708464736f6c63430008110033a26469706673582212209492e9d0c6a3c3d403a77d3fd17439e1caa0b63fb1616f4a86951c6d7b2b489364736f6c63430008110033",
  "linkReferences": {},
  "deployedLinkReferences": {}
}