{
  "_format": "hh-sol-artifact-1",
  "contractName": "IGOFactory",
  "sourceName": "contracts/IGOFactory.sol",
  "abi": [
    {
      "inputs": [
        {
          "internalType": "address",
          "name": "_igoDeployer",
          "type": "address"
        }
      ],
      "stateMutability": "nonpayable",
      "type": "constructor"
    },
    {
      "anonymous": false,
      "inputs": [
        {
          "indexed": true,
          "internalType": "address",
          "name": "oldDefaultVesting",
          "type": "address"
        },
        {
          "indexed": false,
          "internalType": "bytes",
          "name": "oldVestingCreationCode",
          "type": "bytes"
        },
        {
          "indexed": true,
          "internalType": "address",
          "name": "newDefaultVesting",
          "type": "address"
        },
        {
          "indexed": true,
          "internalType": "bytes",
          "name": "newVestingCreationCode",
          "type": "bytes"
        }
      ],
      "name": "DefaultVestingUpdated",
      "type": "event"
    },
    {
      "anonymous": false,
      "inputs": [
        {
          "indexed": true,
          "internalType": "string",
          "name": "igoName",
          "type": "string"
        },
        {
          "indexed": true,
          "internalType": "address",
          "name": "igo",
          "type": "address"
        },
        {
          "indexed": true,
          "internalType": "address",
          "name": "vesting",
          "type": "address"
        }
      ],
      "name": "IGOCreated",
      "type": "event"
    },
    {
      "anonymous": false,
      "inputs": [
        {
          "indexed": true,
          "internalType": "bytes32",
          "name": "role",
          "type": "bytes32"
        },
        {
          "indexed": true,
          "internalType": "bytes32",
          "name": "previousAdminRole",
          "type": "bytes32"
        },
        {
          "indexed": true,
          "internalType": "bytes32",
          "name": "newAdminRole",
          "type": "bytes32"
        }
      ],
      "name": "RoleAdminChanged",
      "type": "event"
    },
    {
      "anonymous": false,
      "inputs": [
        {
          "indexed": true,
          "internalType": "bytes32",
          "name": "role",
          "type": "bytes32"
        },
        {
          "indexed": true,
          "internalType": "address",
          "name": "account",
          "type": "address"
        },
        {
          "indexed": true,
          "internalType": "address",
          "name": "sender",
          "type": "address"
        }
      ],
      "name": "RoleGranted",
      "type": "event"
    },
    {
      "anonymous": false,
      "inputs": [
        {
          "indexed": true,
          "internalType": "bytes32",
          "name": "role",
          "type": "bytes32"
        },
        {
          "indexed": true,
          "internalType": "address",
          "name": "account",
          "type": "address"
        },
        {
          "indexed": true,
          "internalType": "address",
          "name": "sender",
          "type": "address"
        }
      ],
      "name": "RoleRevoked",
      "type": "event"
    },
    {
      "inputs": [],
      "name": "DEFAULT_ADMIN_ROLE",
      "outputs": [
        {
          "internalType": "bytes32",
          "name": "",
          "type": "bytes32"
        }
      ],
      "stateMutability": "view",
      "type": "function"
    },
    {
      "inputs": [
        {
          "internalType": "string",
          "name": "igoName",
          "type": "string"
        },
        {
          "components": [
            {
              "internalType": "address",
              "name": "vestingContract",
              "type": "address"
            },
            {
              "internalType": "address",
              "name": "paymentToken",
              "type": "address"
            },
            {
              "internalType": "address",
              "name": "permit2",
              "type": "address"
            },
            {
              "internalType": "uint256",
              "name": "grandTotal",
              "type": "uint256"
            },
            {
              "internalType": "uint256",
              "name": "summedMaxTagCap",
              "type": "uint256"
            },
            {
              "internalType": "uint256",
              "name": "refundFeeDecimals",
              "type": "uint256"
            }
          ],
          "internalType": "struct IGOStorage.SetUp",
          "name": "setUp",
          "type": "tuple"
        },
        {
          "internalType": "string[]",
          "name": "tagIds",
          "type": "string[]"
        },
        {
          "components": [
            {
              "internalType": "enum ISharedInternal.Status",
              "name": "status",
              "type": "uint8"
            },
            {
              "internalType": "bytes32",
              "name": "merkleRoot",
              "type": "bytes32"
            },
            {
              "internalType": "uint128",
              "name": "startAt",
              "type": "uint128"
            },
            {
              "internalType": "uint128",
              "name": "endAt",
              "type": "uint128"
            },
            {
              "internalType": "uint256",
              "name": "maxTagCap",
              "type": "uint256"
            }
          ],
          "internalType": "struct ISharedInternal.Tag[]",
          "name": "tags",
          "type": "tuple[]"
        },
        {
          "components": [
            {
              "internalType": "address",
              "name": "paymentReceiver",
              "type": "address"
            },
            {
              "internalType": "address",
              "name": "admin",
              "type": "address"
            },
            {
              "internalType": "address",
              "name": "vestedToken",
              "type": "address"
            },
            {
              "internalType": "uint256",
              "name": "platformFee",
              "type": "uint256"
            },
            {
              "internalType": "uint256",
              "name": "totalTokenOnSale",
              "type": "uint256"
            },
            {
              "internalType": "uint256",
              "name": "gracePeriod",
              "type": "uint256"
            },
            {
              "internalType": "uint256",
              "name": "decimals",
              "type": "uint256"
            }
          ],
          "internalType": "struct IIGOVesting.ContractSetup",
          "name": "contractSetup",
          "type": "tuple"
        },
        {
          "components": [
            {
              "internalType": "uint256",
              "name": "startTime",
              "type": "uint256"
            },
            {
              "internalType": "uint256",
              "name": "cliff",
              "type": "uint256"
            },
            {
              "internalType": "uint256",
              "name": "duration",
              "type": "uint256"
            },
            {
              "internalType": "uint256",
              "name": "initialUnlockPercent",
              "type": "uint256"
            }
          ],
          "internalType": "struct IIGOVesting.VestingSetup",
          "name": "vestingSetup",
          "type": "tuple"
        }
      ],
      "name": "createIGO",
      "outputs": [
        {
          "internalType": "address",
          "name": "igo",
          "type": "address"
        },
        {
          "internalType": "address",
          "name": "vesting",
          "type": "address"
        }
      ],
      "stateMutability": "nonpayable",
      "type": "function"
    },
    {
      "inputs": [],
      "name": "defaultVesting",
      "outputs": [
        {
          "internalType": "address",
          "name": "",
          "type": "address"
        }
      ],
      "stateMutability": "view",
      "type": "function"
    },
    {
      "inputs": [],
      "name": "getIgoCount",
      "outputs": [
        {
          "internalType": "uint256",
          "name": "",
          "type": "uint256"
        }
      ],
      "stateMutability": "view",
      "type": "function"
    },
    {
      "inputs": [
        {
          "internalType": "uint256",
          "name": "from",
          "type": "uint256"
        },
        {
          "internalType": "uint256",
          "name": "to",
          "type": "uint256"
        }
      ],
      "name": "getIgosDetails",
      "outputs": [
        {
          "components": [
            {
              "internalType": "string",
              "name": "name",
              "type": "string"
            },
            {
              "internalType": "address",
              "name": "igo",
              "type": "address"
            },
            {
              "internalType": "address",
              "name": "vesting",
              "type": "address"
            },
            {
              "components": [
                {
                  "internalType": "address",
                  "name": "vestingContract",
                  "type": "address"
                },
                {
                  "internalType": "address",
                  "name": "paymentToken",
                  "type": "address"
                },
                {
                  "internalType": "address",
                  "name": "permit2",
                  "type": "address"
                },
                {
                  "internalType": "uint256",
                  "name": "grandTotal",
                  "type": "uint256"
                },
                {
                  "internalType": "uint256",
                  "name": "summedMaxTagCap",
                  "type": "uint256"
                },
                {
                  "internalType": "uint256",
                  "name": "refundFeeDecimals",
                  "type": "uint256"
                }
              ],
              "internalType": "struct IGOStorage.SetUp",
              "name": "setUp",
              "type": "tuple"
            }
          ],
          "internalType": "struct IGOFactory.IGODetail[]",
          "name": "igos",
          "type": "tuple[]"
        },
        {
          "internalType": "uint256",
          "name": "lastEvaludatedIndex",
          "type": "uint256"
        },
        {
          "internalType": "uint256",
          "name": "totalItems",
          "type": "uint256"
        }
      ],
      "stateMutability": "view",
      "type": "function"
    },
    {
      "inputs": [
        {
          "internalType": "bytes32",
          "name": "role",
          "type": "bytes32"
        }
      ],
      "name": "getRoleAdmin",
      "outputs": [
        {
          "internalType": "bytes32",
          "name": "",
          "type": "bytes32"
        }
      ],
      "stateMutability": "view",
      "type": "function"
    },
    {
      "inputs": [
        {
          "internalType": "bytes32",
          "name": "role",
          "type": "bytes32"
        },
        {
          "internalType": "uint256",
          "name": "index",
          "type": "uint256"
        }
      ],
      "name": "getRoleMember",
      "outputs": [
        {
          "internalType": "address",
          "name": "",
          "type": "address"
        }
      ],
      "stateMutability": "view",
      "type": "function"
    },
    {
      "inputs": [
        {
          "internalType": "bytes32",
          "name": "role",
          "type": "bytes32"
        }
      ],
      "name": "getRoleMemberCount",
      "outputs": [
        {
          "internalType": "uint256",
          "name": "",
          "type": "uint256"
        }
      ],
      "stateMutability": "view",
      "type": "function"
    },
    {
      "inputs": [
        {
          "internalType": "bytes32",
          "name": "role",
          "type": "bytes32"
        },
        {
          "internalType": "address",
          "name": "account",
          "type": "address"
        }
      ],
      "name": "grantRole",
      "outputs": [],
      "stateMutability": "nonpayable",
      "type": "function"
    },
    {
      "inputs": [
        {
          "internalType": "bytes32",
          "name": "role",
          "type": "bytes32"
        },
        {
          "internalType": "address",
          "name": "account",
          "type": "address"
        }
      ],
      "name": "hasRole",
      "outputs": [
        {
          "internalType": "bool",
          "name": "",
          "type": "bool"
        }
      ],
      "stateMutability": "view",
      "type": "function"
    },
    {
      "inputs": [],
      "name": "igoDeployer",
      "outputs": [
        {
          "internalType": "address",
          "name": "",
          "type": "address"
        }
      ],
      "stateMutability": "view",
      "type": "function"
    },
    {
      "inputs": [
        {
          "internalType": "string",
          "name": "",
          "type": "string"
        }
      ],
      "name": "igoNames",
      "outputs": [
        {
          "internalType": "address",
          "name": "",
          "type": "address"
        }
      ],
      "stateMutability": "view",
      "type": "function"
    },
    {
      "inputs": [],
      "name": "maxLoop",
      "outputs": [
        {
          "internalType": "uint256",
          "name": "",
          "type": "uint256"
        }
      ],
      "stateMutability": "view",
      "type": "function"
    },
    {
      "inputs": [
        {
          "internalType": "bytes32",
          "name": "role",
          "type": "bytes32"
        },
        {
          "internalType": "address",
          "name": "account",
          "type": "address"
        }
      ],
      "name": "renounceRole",
      "outputs": [],
      "stateMutability": "nonpayable",
      "type": "function"
    },
    {
      "inputs": [
        {
          "internalType": "bytes32",
          "name": "role",
          "type": "bytes32"
        },
        {
          "internalType": "address",
          "name": "account",
          "type": "address"
        }
      ],
      "name": "revokeRole",
      "outputs": [],
      "stateMutability": "nonpayable",
      "type": "function"
    },
    {
      "inputs": [
        {
          "internalType": "uint256",
          "name": "newMaxLoop",
          "type": "uint256"
        }
      ],
      "name": "setMaxLoop",
      "outputs": [],
      "stateMutability": "nonpayable",
      "type": "function"
    },
    {
      "inputs": [
        {
          "internalType": "bytes4",
          "name": "interfaceId",
          "type": "bytes4"
        }
      ],
      "name": "supportsInterface",
      "outputs": [
        {
          "internalType": "bool",
          "name": "",
          "type": "bool"
        }
      ],
      "stateMutability": "view",
      "type": "function"
    },
    {
      "inputs": [
        {
          "internalType": "address",
          "name": "newDefaultVesting",
          "type": "address"
        },
        {
          "internalType": "bytes",
          "name": "newVestingCreationCode",
          "type": "bytes"
        }
      ],
      "name": "updateDefaultVesting",
      "outputs": [],
      "stateMutability": "nonpayable",
      "type": "function"
    },
    {
      "inputs": [],
      "name": "vestingCreationCode",
      "outputs": [
        {
          "internalType": "bytes",
          "name": "",
          "type": "bytes"
        }
      ],
      "stateMutability": "view",
      "type": "function"
    }
  ],
  "bytecode": "0x60806040523462000031575b6200001f62000019620000f7565b620001be565b60405161591a620004f7823961591a90f35b6200003a600080fd5b6200000b565b600080fd5b50634e487b7160e01b600052604160045260246000fd5b90601f01601f191681019081106001600160401b038211176200007e57604052565b6200008862000045565b604052565b90620000a46200009c60405190565b92836200005c565b565b6001600160a01b031690565b90565b6001600160a01b038116036200004057565b90505190620000a482620000b5565b90620000b29160208183031215620000c757620000f1600080fd5b620000c7565b620000b262005e11803803806200010e816200008d565b928339810190620000d6565b90600019905b9181191691161790565b620000b2620000b2620000b29290565b906200014e620000b262000156926200012a565b82546200011a565b9055565b906001600160a01b039062000120565b620000b290620000a6906001600160a01b031682565b620000b2906200016a565b620000b29062000180565b90620001aa620000b262000156926200018b565b82546200015a565b620000b260006200012a565b620001e390620001cd62000205565b620001db606460036200013a565b600762000196565b620000a4620001f1620001b2565b33906200022b565b620000b260016200012a565b620000a462000213620001f9565b60026200013a565b905b600052602052604060002090565b906200024d620000b2620002539362000245848262000287565b60016200021b565b6200034e565b50565b906200021d906200018b565b9060ff9062000120565b906200027f620000b26200015692151590565b825462000262565b906200029c6200029882846200031d565b1590565b620002a5575050565b620002cb6001620002c5836000620002be87826200021b565b0162000256565b6200026c565b339062000305620002fe620002fe7f2f8788117e7eff1d82e926ec794901d17c78024a50270940304540a733656f0d9590565b926200018b565b926200031060405190565b600090a4565b5460ff1690565b620000b2916200033591620002be600091826200021b565b62000316565b620000b29081906001600160a01b031681565b9062000388620003846200037e620003786000620000b2966200036f600090565b50019462000180565b6200033b565b6200012a565b9190565b62000459565b50634e487b7160e01b600052603260045260246000fd5b620003c8600191620003b5815490565b841015620003d157600052602060002090565b91020190600090565b620003db6200038e565b600052602060002090565b9160001960089290920291821b911b62000120565b91906200040d620000b2620001569390565b908354620003e6565b9062000442620000a4928054906801000000000000000082101562000449575b600182018155620003a5565b90620003fb565b6200045362000045565b62000436565b62000469620002988383620004be565b15620004a3576200049e916200049890600162000490846200048c848262000416565b5490565b93016200021b565b6200013a565b600190565b5050600090565b620000b29081565b620000b29054620004aa565b620004e1916001620004db92620004d3600090565b50016200021b565b620004b2565b620004f16200038460006200012a565b14159056fe608060405260043610156200001a575b62000018600080fd5b005b60003560e01c806301ffc9a714620001ce57806305f6711f14620001c3578063248a9ca314620001b85780632f2ff15d14620001ad57806336568abe14620001a25780633c38dd6e146200019757806385f2f68a146200018c5780638b6c528e14620001815780639010d07c146200017657806391d14854146200016b578063a217fddf1462000160578063a905a3b91462000155578063b9edb3a5146200014a578063bb7ccca0146200013f578063ca15c8731462000134578063cd8a77d31462000129578063d547741f146200011e578063e188533014620001135763ed4fe589036200000f576200010d620010e2565b6200000f565b506200010d62001089565b506200010d62000f9e565b506200010d62000f6f565b506200010d62000e1f565b506200010d62000ded565b506200010d62000dad565b506200010d62000d2d565b506200010d62000b4c565b506200010d62000af3565b506200010d62000a99565b506200010d62000a10565b506200010d620006ea565b506200010d6200042c565b506200010d620003e8565b506200010d620003b9565b506200010d620002fa565b506200010d620002c7565b506200010d62000248565b600080fd5b7fffffffff0000000000000000000000000000000000000000000000000000000081165b03620001d957565b905035906200021982620001de565b565b90620002329160208183031262000235576200020a565b90565b6200023e600080fd5b6200020a565b9052565b503462000281575b6200027d6200026b620002653660046200021b565b62001445565b60405191829182901515815260200190565b0390f35b6200028a600080fd5b62000250565b8062000202565b90503590620002198262000290565b906200023291602081830312156200029757620002c1600080fd5b62000297565b5034620002eb575b620002e6620002e0366004620002a6565b62003595565b604051005b620002f4600080fd5b620002cf565b50346200032d575b6200027d6200031d62000317366004620002a6565b620011bd565b6040519182918290815260200190565b62000336600080fd5b62000302565b73ffffffffffffffffffffffffffffffffffffffff1690565b73ffffffffffffffffffffffffffffffffffffffff811662000202565b90503590620002198262000355565b91906200023290604084820312620003aa575b620003a0818562000297565b9360200162000372565b620003b3600080fd5b62000394565b5034620003d9575b620002e6620003d236600462000381565b9062001208565b620003e2600080fd5b620003c1565b503462000408575b620002e66200040136600462000381565b906200140c565b62000411600080fd5b620003f0565b60009103126200042357565b62000219600080fd5b50346200044f575b6200044136600462000417565b6200027d6200031d60045490565b62000458600080fd5b62000434565b507f4e487b7100000000000000000000000000000000000000000000000000000000600052600060045260246000fd5b507f4e487b7100000000000000000000000000000000000000000000000000000000600052602260045260246000fd5b9060016002830492168015620004e5575b6020831014620004db57565b620002196200048e565b91607f1691620004cf565b80546000939291620005106200050683620004be565b8085529360200190565b91600181169081156200056757506001146200052b57505050565b6200053f9192939450600052602060002090565b916000925b818410620005525750500190565b80548484015260209093019260010162000544565b92949550505060ff1916825215156020020190565b906200023291620004f0565b601f017fffffffffffffffffffffffffffffffffffffffffffffffffffffffffffffffe01690565b507f4e487b7100000000000000000000000000000000000000000000000000000000600052604160045260246000fd5b90601f017fffffffffffffffffffffffffffffffffffffffffffffffffffffffffffffffe016810190811067ffffffffffffffff8211176200062157604052565b6200062b620005b0565b604052565b90620002196200064e926200064460405190565b938480926200057c565b0383620005e0565b62000232911562000630576200066b6200045e565b62000630565b620002326000600862000656565b60005b838110620006935750506000910152565b818101518382015260200162000682565b620006c962000588602093620006d393620006bd815190565b80835293849260200190565b958691016200067f565b0190565b60208082526200023292910190620006a4565b50346200071a575b620006ff36600462000417565b6200027d6200070d62000671565b60405191829182620006d7565b62000723600080fd5b620006f2565b909182601f830112156200076a575b602082359267ffffffffffffffff84116200075b575b0192828401116200042357565b62000764600080fd5b6200074e565b62000773600080fd5b62000738565b90620002196200078860405190565b9283620005e0565b91909160c08184031262000823575b6200081d620007af60c062000779565b936000620007be828562000372565b908601526020620007d28282860162000372565b908601526040620007e68282860162000372565b908601526060620007fa8282860162000297565b9086015260806200080e8282860162000297565b9086015260a080930162000297565b90830152565b6200082c600080fd5b6200079f565b909182601f8301121562000876575b602082359267ffffffffffffffff841162000867575b0192602083028401116200042357565b62000870600080fd5b62000857565b6200087f600080fd5b62000841565b909182601f83011215620008c9575b602082359267ffffffffffffffff8411620008ba575b019260a083028401116200042357565b620008c3600080fd5b620008aa565b620008d2600080fd5b62000894565b908160e0910312620008e75790565b62000232600080fd5b90816080910312620008e75790565b919061028083820312620009da575b6200092e81843567ffffffffffffffff8111620009cb575b850162000729565b92909362000940836020830162000790565b9262000232620009688260e085013567ffffffffffffffff8111620009bc575b850162000832565b9390946200098f8461010084013567ffffffffffffffff8111620009ad575b840162000885565b939094620009a2816101208601620008d8565b9361020001620008f0565b620009b6600080fd5b62000987565b620009c5600080fd5b62000960565b620009d4600080fd5b62000926565b620009e3600080fd5b6200090e565b73ffffffffffffffffffffffffffffffffffffffff91821681529116602082015260400190565b503462000a52575b62000a3962000a29366004620008ff565b9796909695919594929462002da7565b906200027d62000a4860405190565b92839283620009e9565b62000a5b600080fd5b62000a18565b9190620002329060408482031262000a8a575b62000a80818562000297565b9360200162000297565b62000a93600080fd5b62000a74565b503462000ae4575b6200027d62000abd62000ab636600462000a61565b906200153a565b6040519182918273ffffffffffffffffffffffffffffffffffffffff909116815260200190565b62000aed600080fd5b62000aa1565b503462000b17575b6200027d6200026b62000b1036600462000381565b9062001184565b62000b20600080fd5b62000afb565b6200023262000232620002329290565b62000232600062000b26565b6200023262000b36565b503462000b6f575b62000b6136600462000417565b6200027d6200031d62000b42565b62000b78600080fd5b62000b54565b805173ffffffffffffffffffffffffffffffffffffffff16825262000219919060a090819060208181015173ffffffffffffffffffffffffffffffffffffffff169085015260408181015173ffffffffffffffffffffffffffffffffffffffff169085015262000bf360608201516060860152565b62000c0360808201516080860152565b0151910152565b90620002329060608062000c2f610120840160008701518582036000870152620006a4565b60208087015173ffffffffffffffffffffffffffffffffffffffff16908501529460408181015173ffffffffffffffffffffffffffffffffffffffff1690850152015191019062000b7e565b90620002329162000c0a565b9062000c9f62000c95835190565b8083529160200190565b908162000cb26020830284019460200190565b926000915b83831062000cc757505050505090565b9091929394602062000ced62000ce68385600195038752895162000c7b565b9760200190565b930193019193929062000cb7565b60409062000d2962000d2162000219959796946060840190848203600086015262000c87565b966020830152565b0152565b503462000d61575b6200027d62000d5162000d4a36600462000a61565b9062003154565b6040519193919384938462000cfb565b62000d6a600080fd5b62000d35565b62000232916008021c73ffffffffffffffffffffffffffffffffffffffff1690565b9062000232915462000d70565b620002326000600662000d92565b503462000dd0575b62000dc236600462000417565b6200027d62000abd62000d9f565b62000dd9600080fd5b62000db5565b620002326000600762000d92565b503462000e10575b62000e0236600462000417565b6200027d62000abd62000ddf565b62000e19600080fd5b62000df5565b503462000e42575b6200027d6200031d62000e3c366004620002a6565b62001560565b62000e4b600080fd5b62000e27565b620006d360209167ffffffffffffffff811162000e9057601f017fffffffffffffffffffffffffffffffffffffffffffffffffffffffffffffffe01690565b62000588620005b0565b90826000939282370152565b929190620002199162000ec362000ebd8362000e51565b62000779565b948286526020860191838201111562000e9a5762000edf600080fd5b62000e9a565b90620002329181601f8201121562000f04575b60208135910162000ea6565b62000f0d600080fd5b62000ef8565b9190620002329060408482031262000f60575b62000f32818562000372565b9360208101359067ffffffffffffffff821162000f51575b0162000ee5565b62000f5a600080fd5b62000f4a565b62000f69600080fd5b62000f26565b503462000f8f575b620002e662000f8836600462000f13565b9062003569565b62000f98600080fd5b62000f77565b503462000fbe575b620002e662000fb736600462000381565b9062001373565b62000fc7600080fd5b62000fa6565b90620002329160208183031262000ff9575b80359067ffffffffffffffff821162000f51570162000ee5565b62001002600080fd5b62000fdf565b620006d362001023926020926200101d815190565b94859290565b938491016200067f565b62001040620006d3916020949362001008565b918252565b6200105d6200105360405190565b928392836200102d565b03902090565b620002329162001045565b62000232906200108360059160009262001063565b62000d92565b5034620010ac575b6200027d62000abd620010a636600462000fcd565b6200106e565b620010b5600080fd5b62001091565b62000232916008021c81565b90620002329154620010bb565b6200023260006003620010c7565b503462001105575b620010f736600462000417565b6200027d6200031d620010d4565b6200110e600080fd5b620010ea565b905b600052602052604060002090565b6200033c62000232620002329273ffffffffffffffffffffffffffffffffffffffff1690565b620002329062001124565b62000232906200114a565b90620011169062001155565b62000232905b60ff1690565b6200023290546200116c565b6200023291620011a3916200119c6000918262001114565b0162001160565b62001178565b620002329081565b620002329054620011a9565b6001620011da6200023292620011d1600090565b50600062001114565b01620011b1565b906200021991620011fc620011f682620011bd565b62001214565b9062000219916200157c565b906200021991620011e1565b6200021990339062001298565b620002329062000b26565b6200126f6200023293926200126862001268937f416363657373436f6e74726f6c3a206163636f756e7420000000000000000000815260170190565b9062001008565b7f206973206d697373696e6720726f6c6520000000000000000000000000000000815260110190565b90620012ad620012a9828462001184565b1590565b620012b6575050565b6200134e9162000232620012d9620012d26200131b9462001a7f565b9262001221565b620012f2602091620012eb8362000b26565b90620018a9565b926200130e6200130160405190565b948593840192836200122c565b90810382520382620005e0565b6040519182917f08c379a000000000000000000000000000000000000000000000000000000000835260048301620006d7565b0390fd5b90620002199162001367620011f682620011bd565b90620002199162001659565b90620002199162001352565b156200138757565b6040517f08c379a000000000000000000000000000000000000000000000000000000000815260206004820152602f60248201527f416363657373436f6e74726f6c3a2063616e206f6e6c792072656e6f756e636560448201527f20726f6c657320666f722073656c6600000000000000000000000000000000006064820152608490fd5b6200021991906200143f62001421336200033c565b73ffffffffffffffffffffffffffffffffffffffff8416146200137f565b62001659565b7f5a05180f000000000000000000000000000000000000000000000000000000007fffffffff0000000000000000000000000000000000000000000000000000000082161490811562001496575090565b6200023291507f7965db0b000000000000000000000000000000000000000000000000000000007fffffffff00000000000000000000000000000000000000000000000000000000821614908115620014ed575090565b6200023291507fffffffff00000000000000000000000000000000000000000000000000000000167f01ffc9a7000000000000000000000000000000000000000000000000000000001490565b906200155a62000232620002329362001551600090565b50600162001114565b62001e88565b6200157662000232620002329262001551600090565b62001e49565b906200159e62000232620015a493620015968482620015d5565b600162001114565b62001ab6565b50565b9060ff905b9181191691161790565b90620015c962000232620015d192151590565b8254620015a7565b9055565b90620015e6620012a9828462001184565b620015ef575050565b6200160e6001620016088360006200119c878262001114565b620015b6565b33906200164862001641620016417f2f8788117e7eff1d82e926ec794901d17c78024a50270940304540a733656f0d9590565b9262001155565b926200165360405190565b600090a4565b906200167362000232620015a49362001596848262001679565b62001c93565b9062001686818362001184565b6200168f575050565b620016a760006200160883826200119c878262001114565b33906200164862001641620016417ff6391f5c32d9c69d2a47ea670b442974b53935d1edc7fd64eb21e047a839171b9590565b507f4e487b7100000000000000000000000000000000000000000000000000000000600052601160045260246000fd5b818102929181159184041417156200171e57565b62000219620016da565b919082018092116200171e57565b906200104062000ebd8362000e51565b369037565b9062000219620017666200175f8462001736565b9362000e51565b7fffffffffffffffffffffffffffffffffffffffffffffffffffffffffffffffe0016020840162001746565b507f4e487b7100000000000000000000000000000000000000000000000000000000600052603260045260246000fd5b906001602091620017d1845190565b811015620017e0575b02010190565b620017ea62001792565b620017da565b6001908015620017fe570390565b62001808620016da565b0390565b6200117262000232620002329290565b62000232906200183862001834620002329460ff1690565b9190565b901c90565b156200184557565b6040517f08c379a0000000000000000000000000000000000000000000000000000000008152806200134e600482016020808252818101527f537472696e67733a20686578206c656e67746820696e73756666696369656e74604082015260600190565b9190600290620018e4620018de620018cc83620018c68662000b26565b6200170a565b620018d78562000b26565b9062001728565b6200174b565b91600091603062001900620018f98562000b26565b86620017c2565b536200195e620019537f780000000000000000000000000000000000000000000000000000000000000092620018c66001958695881a6200194c620019458862000b26565b8b620017c2565b5362000b26565b620018d78362000b26565b915b62001988575b50506200023292936200198162001834620002329362000b26565b146200183d565b9094620019958262000b26565b86111562001a335762001a1c62001a158392620019f3620019d37f303132333435363738396162636465660000000000000000000000000000000090565b620019df600f62000b26565b8316601081101562001a23575b1a60f81b90565b861a62001a018a89620017c2565b5362001a0e60046200180c565b906200181c565b96620017f0565b9162001960565b62001a2d62001792565b620019ec565b9462001966565b6200023262000232620002329273ffffffffffffffffffffffffffffffffffffffff1690565b6200023260146200180c565b6200023262000232620002329260ff1690565b62001aa262001a9c620002329262001a95606090565b506200114a565b62001a3a565b620012eb62001ab062001a60565b62001a6c565b9062001ae66200183462001ae062001a9c6000620002329662001ad7600090565b5001946200114a565b62000b26565b62001c0a565b62001b0f60019162001afc815490565b84101562001b1857600052602060002090565b91020190600090565b62001b2262001792565b600052602060002090565b91906008620015ac91029162001b627fffffffffffffffffffffffffffffffffffffffffffffffffffffffffffffffff841b90565b921b90565b919062001b7962000232620015d19390565b90835462001b2d565b9062001bae62000219928054906801000000000000000082101562001bb5575b60018201815562001aec565b9062001b67565b62001bbf620005b0565b62001ba2565b907fffffffffffffffffffffffffffffffffffffffffffffffffffffffffffffffff90620015ac565b9062001c0262000232620015d19262000b26565b825462001bc5565b62001c1a620012a9838362001c5b565b1562001c545762001c4f9162001c4990600162001c418462001c3d848262001b82565b5490565b930162001114565b62001bee565b600190565b5050600090565b62001c7e91600162001c789262001c70600090565b500162001114565b620011b1565b62001c8e62001834600062000b26565b141590565b9062001cb46200183462001ae062001a9c6000620002329662001ad7600090565b62001d68565b919082039182116200171e57565b507f4e487b7100000000000000000000000000000000000000000000000000000000600052603160045260246000fd5b620002199160009162001b67565b600162001d11825490565b801562001d35575b039062001d3262001d2b838362001aec565b9062001cf8565b55565b62001d3f62001cc8565b62001d19565b919062001b7962000232620015d19362000b26565b620002199160009162001d45565b9062001d7c62001c78826001850162001114565b60009262001d8a8462000b26565b821462001dec57620002329262001df2949262001dff9262001df8600197889362001dc062001db98662000b26565b8262001cba565b8885019162001de362001dd1845490565b62001ddc8962000b26565b9062001cba565b82810362001e05575b50505090565b62001d06565b0162001114565b62001d5a565b62001bae62001e3762001e409462001e2d62001e2662001c49958962001aec565b90620010c7565b9283918862001aec565b88880162001114565b38808062001dec565b62001e626000620002329262001e5d600090565b500190565b6000620002329162001e72600090565b50015490565b6200033c62000232620002329290565b62001eb562001eaf620002329362001ea9600062001ebb9562001e5d600090565b62001ec1565b62001221565b62001e78565b6200114a565b6200023291600062001e269262001ed6600090565b500162001aec565b9062001efd9a99989796959493929162001ef762002e30565b62001f09565b90916200021962002e6c565b9062001f2c9a99989796959493929162001f26620011f662000b36565b62002932565b9091565b9091620006d3908390809362000e9a565b620010409060209493620006d39362001f30565b90916200105d9062001f6660405190565b9384938462001f41565b9091620002329262001f55565b62000232906200033c565b62000232905462001f7d565b620002329062001e78565b1562001fa757565b6040517f08c379a000000000000000000000000000000000000000000000000000000000815260206004820152601e60248201527f49474f466163746f72793a2049474f20616c72656164792065786973747300006044820152606490fd5b90505190620002198262000355565b90620002329160208183031215620020065762002030600080fd5b62002006565b506040513d6000823e3d90fd5b919062000588816200205d81620006d39560209181520190565b809562000e9a565b73ffffffffffffffffffffffffffffffffffffffff919091168152604060208201819052620002329391019162002043565b35620002328162000290565b9073ffffffffffffffffffffffffffffffffffffffff90620015ac565b90620020d462000232620015d19262001155565b8254620020a3565b62000232608062000779565b6200023291369162000ea6565b62001b0f60099162001afc815490565b81811062002111575050565b8062002121600060019362001d5a565b0162002105565b9190601f81116200213857505050565b6200214c6200021993600052602060002090565b906020601f84018190048301931062002170575b6020601f90910104019062002105565b909150819062002160565b9062002185815190565b9067ffffffffffffffff82116200229a575b620021af82620021a88554620004be565b8562002128565b602090601f83116001146200220c57620015d192916000918362002200575b50507fffffffffffffffffffffffffffffffffffffffffffffffffffffffffffffffff600883021c1916906002021790565b015190503880620021ce565b601f198316916200222285600052602060002090565b9260005b818110620022815750916002939185600196941062002249575b50505002019055565b01517fffffffffffffffffffffffffffffffffffffffffffffffffffffffffffffffff6008601f8516021c1916905538808062002240565b9193602060018192878701518155019501920162002226565b620022a4620005b0565b62002197565b9062000219916200217b565b6200021991906200235a9060a090600590620022f281620022eb875173ffffffffffffffffffffffffffffffffffffffff1690565b90620020c0565b6200231c60018201620022eb602088015173ffffffffffffffffffffffffffffffffffffffff1690565b6200234660028201620022eb604088015173ffffffffffffffffffffffffffffffffffffffff1690565b62002361600382016200235a606088015190565b9062001bee565b62002375600482016200235a608088015190565b0192015190565b906200021991620022b6565b9062002405606060036200021994620023b160008201620023aa600088015190565b90620022aa565b620023db60018201620022eb602088015173ffffffffffffffffffffffffffffffffffffffff1690565b6200237560028201620022eb604088015173ffffffffffffffffffffffffffffffffffffffff1690565b906200237c565b620002199291156200238857620024226200045e565b62002388565b90620024546200021992805490680100000000000000008210156200245b575b600182018155620020f5565b906200240c565b62002465620005b0565b62002448565b9062000232929162002043565b90357fffffffffffffffffffffffffffffffffffffffffffffffffffffffffffffffe13683900301811215620024de575b016020813591019167ffffffffffffffff8211620024cf575b3682900383136200042357565b620024d8600080fd5b620024c2565b620024e7600080fd5b620024a9565b818352916020019081620025046020830284019490565b92836000925b8484106200251b5750505050505090565b90919293949560206200254d6200254683856001950388526200253f8b8862002478565b906200246b565b9860200190565b9401940192949391906200250a565b60041115620001d957565b9050359062000219826200255c565b506200023290602081019062002567565b507f4e487b7100000000000000000000000000000000000000000000000000000000600052602160045260246000fd5b60041115620025c257565b6200021962002587565b906200021982620025b7565b6200023290620025cc565b6200024490620025d8565b506200023290602081019062000297565b6fffffffffffffffffffffffffffffffff811662000202565b905035906200021982620025ff565b506200023290602081019062002618565b906080620026db62000219936200265f62002657600083018362002576565b8590620025e3565b62002679620026726020830183620025ee565b6020860152565b620026a56200268c604083018362002627565b6fffffffffffffffffffffffffffffffff166040860152565b620026d1620026b8606083018362002627565b6fffffffffffffffffffffffffffffffff166060860152565b82810190620025ee565b910152565b90620006d38160a09362002638565b818352602090920191906000825b8282106200270c575050505090565b909192936200273062002729600192620027238890565b620026e0565b9560a00190565b93920190620026fd565b949293620002329694620027806200278e94620027756101208a019560008b019073ffffffffffffffffffffffffffffffffffffffff169052565b602089019062000b7e565b86830360e0880152620024ed565b92610100818503910152620026ef565b506200023290602081019062000372565b9060c0620026db6200021993620027e8620027ce60008301836200279e565b73ffffffffffffffffffffffffffffffffffffffff168552565b62002818620027fb60208301836200279e565b73ffffffffffffffffffffffffffffffffffffffff166020860152565b620028486200282b60408301836200279e565b73ffffffffffffffffffffffffffffffffffffffff166040860152565b620028626200285b6060830183620025ee565b6060860152565b6200287c620028756080830183620025ee565b6080860152565b620026d16200288f60a0830183620025ee565b60a0860152565b906060620026db6200021993620028b9620028b56000830183620025ee565b8552565b620028cc620026726020830183620025ee565b620026d1620028df6040830183620025ee565b6040860152565b9160e062000219929493620029056101608201966000830190620027af565b019062002896565b9091620002329262001f30565b6200105d6200292860405190565b928392836200290d565b90620029ca9394919b99989296959a9b505062002995620029606200295a8689600562001f70565b62001f88565b6200298e620029746200033c600062001f94565b9173ffffffffffffffffffffffffffffffffffffffff1690565b1462001f9f565b6020620029b1620029ab620029ab600762001f88565b62001155565b634161a8c690620029c160405190565b95869260e01b90565b825260049082906000905af192831562002d97575b60009362002d60575b50829a620029f33390565b9762002a47888a62002a358962002a0960405190565b938493612344850185811067ffffffffffffffff82111762002d50575b612344620035a1873962002065565b03906000f0801562002d465762001155565b73ffffffffffffffffffffffffffffffffffffffff811684529b8c9062002a6f600062000b26565b608086015262002a8260c08d0162002097565b60a08601528662002a96898c600562001f70565b9062002aa291620020c0565b6004988995868a8d62002ab4620020dc565b9162002ac091620020e8565b815273ffffffffffffffffffffffffffffffffffffffff8b16602082015273ffffffffffffffffffffffffffffffffffffffff861660408201526060810183905262002b0c9162002428565b62002b178962001155565b9c62002b238e62001155565b90813b1562002c709d62002b7760009c62002b909a8e98899562002d37575b6040519a8b998a9889977f78e2cd4300000000000000000000000000000000000000000000000000000000895288016200273a565b03925af1801562002d27575b62002d06575b5062001155565b988362002bc362002ba18c62001155565b9362002bce635fc9400b91863b1562002cf7575b604051958694859460e01b90565b8452888401620028e6565b038183865af1801562002ce7575b62002cc6575b5062002c118363f2fde38b833b1562002cb7575b62002c3562002c0460405190565b9788968795869460e01b90565b8452830173ffffffffffffffffffffffffffffffffffffffff909116815260200190565b03925af1801562002ca7575b62002c7b575b507f8c941e5813d81a78a88724badffabc2b2cf670a135b2abaccd8e9ae0c57f3dcf926200291a565b906200165360405190565b62002c989060005b62002c8f8183620005e0565b81019062000417565b3862002c47565b503d62002c83565b62002cb162002036565b62002c41565b62002cc0600080fd5b62002bf6565b62002ce090843d811162002c9f5762002c8f8183620005e0565b3862002be2565b62002cf162002036565b62002bdc565b62002d00600080fd5b62002bb5565b62002d2090863d811162002c9f5762002c8f8183620005e0565b3862002b89565b62002d3162002036565b62002b83565b62002d40600080fd5b62002b42565b620029ab62002036565b62002d5a620005b0565b62002a26565b62002d8791935060203d811162002d8f575b62002d7e8183620005e0565b81019062002015565b9138620029e8565b503d62002d72565b62002da162002036565b620029df565b62001f2c98979695949392919060008062001ede565b62000232600262000b26565b1562002dd157565b6040517f08c379a000000000000000000000000000000000000000000000000000000000815260206004820152601f60248201527f5265656e7472616e637947756172643a207265656e7472616e742063616c6c006044820152606490fd5b6200021962002e406002620011b1565b62002e5862002e4e62002dbd565b9182141562002dc9565b600262001bee565b62000232600162000b26565b6200021962002e5862002e60565b1562002e8257565b6040517f08c379a000000000000000000000000000000000000000000000000000000000815260206004820152601b60248201527f49474f466163746f72795f494e44455845535f524556455253454400000000006044820152606490fd5b6020809167ffffffffffffffff811162002efa57020190565b62002f04620005b0565b020190565b906200104062000ebd8362002ee1565b6200023260c062000779565b62002f2f62002f19565b906000825260208080808080870160008152016000815201600081520160008152016000905250565b905250565b6200023262002f25565b62002f71620020dc565b9060608252602080808085016000815201600081520162002f5862002f5d565b6200023262002f67565b60005b82811062002fab57505050565b60209062002fb862002f91565b818401520162002f9e565b906200021962002fde62002fd78462002f09565b9362002ee1565b7fffffffffffffffffffffffffffffffffffffffffffffffffffffffffffffffe0016020840162002f9b565b9060208091620017d1845190565b9062000219620030e760056200302d62002f19565b94620030576200303d8262001f88565b73ffffffffffffffffffffffffffffffffffffffff168752565b62003086620030696001830162001f88565b73ffffffffffffffffffffffffffffffffffffffff166020880152565b620030b5620030986002830162001f88565b73ffffffffffffffffffffffffffffffffffffffff166040880152565b620030ce620030c760038301620011b1565b6060880152565b620011da620030e060048301620011b1565b6080880152565b60a0840152565b906200021962003142600362003103620020dc565b9462003117620031138262000630565b8752565b62003129620030696001830162001f88565b6200313b620030986002830162001f88565b0162003018565b6060840152565b6200023290620030ee565b91620031638284111562002e7a565b8282036200317a62001834620002326003620011b1565b1162003216575b6200318e83830362002fc3565b908190845b84811015620031e25780620031d5620031b2620031dc936004620020f5565b50620031c18984039162003149565b620031cd82896200300a565b52866200300a565b5060010190565b62003193565b50909350917fffffffffffffffffffffffffffffffffffffffffffffffffffffffffffffffff019050906200023260045490565b90506200322d620032286003620011b1565b830190565b9062003181565b90620002199162003248620011f662000b36565b6200348c565b156200325657565b6040517f08c379a000000000000000000000000000000000000000000000000000000000815260206004820152602760248201527f49474f466163746f72795f5f64656661756c7456657374696e675f5a45524f5f60448201527f41444452455353000000000000000000000000000000000000000000000000006064820152608490fd5b15620032e357565b6040517f08c379a0000000000000000000000000000000000000000000000000000000008152602060048201526024808201527f49474f466163746f72795f5f64656661756c7456657374696e675f5a45524f5f60448201527f434f4445000000000000000000000000000000000000000000000000000000006064820152608490fd5b620002329162001008565b6200105d906200338160405190565b9182918262003367565b60208082526200023292910190620004f0565b90620033a8815190565b9067ffffffffffffffff821162003470575b620033cb82620021a88554620004be565b602090601f83116001146200341b57620015d1929160009183620022005750507fffffffffffffffffffffffffffffffffffffffffffffffffffffffffffffffff600883021c1916906002021790565b601f198316916200343185600052602060002090565b9260005b8181106200345757509160029391856001969410620022495750505002019055565b9193602060018192878701518155019501920162003435565b6200347a620005b0565b620033ba565b9062000219916200339e565b906200021991620034e96000620034ca620034ab6200033c8362001f94565b73ffffffffffffffffffffffffffffffffffffffff851614156200324e565b620034e262001834620034db865190565b9262000b26565b11620032db565b62003563620034f9600662001f88565b91600892620035297fca14a4be31156fca70d9e52976142d5c698a3b780ceb17828587ca627a9004e29162001155565b620035348362001155565b90620035408762003372565b926200354b60405190565b806200355889826200338b565b0390a46006620020c0565b62003480565b90620002199162003234565b620002199062003588620011f662000b36565b6200021990600362001bee565b62000219906200357556fe60806040523462000032575b6200002062000019620001fd565b9062000484565b604051611d8e620005b68239611d8e90f35b6200003b600080fd5b6200000b565b600080fd5b50634e487b7160e01b600052604160045260246000fd5b90601f01601f191681019081106001600160401b038211176200007f57604052565b6200008962000046565b604052565b90620000a56200009d60405190565b92836200005d565b565b6001600160a01b031690565b90565b6001600160a01b038116036200004157565b90505190620000a582620000b6565b602090620000f8906001600160401b038111620000fc57601f01601f191690565b0190565b6200010662000046565b601f01601f191690565b60005b838110620001245750506000910152565b818101518382015260200162000113565b929190620000a591620001526200014c83620000d7565b6200008e565b948286526020860191838201111562000110576200016e600080fd5b62000110565b90620000b39181601f8201121562000193575b60208151910162000135565b6200019c600080fd5b62000187565b9190620000b390604084820312620001ee575b620001c18185620000c8565b602085015190946001600160401b038211620001df575b0162000174565b620001e8600080fd5b620001d8565b620001f7600080fd5b620001b5565b62000220620023448038038062000214816200008e565b928339810190620001a2565b9091565b50634e487b7160e01b600052602260045260246000fd5b906001600283049216801562000262575b60208310146200025857565b620000a562000224565b91607f16916200024c565b9160001960089290920291821b911b5b9181191691161790565b620000b3620000b3620000b39290565b9190620002ac620000b3620002b59362000287565b9083546200026d565b9055565b620000a59160009162000297565b818110620002d3575050565b80620002e36000600193620002b9565b01620002c7565b9190601f8111620002fa57505050565b6200030e620000a593600052602060002090565b906020601f84018190048301931062000332575b6020601f909101040190620002c7565b909150819062000322565b62000356600b6200034f83546200023b565b83620002ea565b7f49474f2056657374696e670000000000000000000000000000000000000000169055565b620000a5906200033d565b9062000390815190565b906001600160401b03821162000468575b620003b982620003b285546200023b565b85620002ea565b602090601f8311600114620003f857620002b5929160009183620003ec575b5050600019600883021c1916906002021790565b015190503880620003d8565b601f198316916200040e85600052602060002090565b9260005b8181106200044f5750916002939185600196941062000435575b50505002019055565b01516000196008601f8516021c191690553880806200042c565b9193602060018192878701518155019501920162000412565b6200047262000046565b620003a1565b90620000a59162000386565b90620004aa620000a59262000498620004e5565b620004a460026200037b565b62000553565b600262000478565b620000b3600162000287565b90600019906200027d565b90620004dd620000b3620002b59262000287565b8254620004be565b620000a5620004f3620004b2565b6000620004c9565b906001600160a01b03906200027d565b620000b390620000a7906001600160a01b031682565b620000b3906200050b565b620000b39062000521565b906200054b620000b3620002b5926200052c565b8254620004fb565b6001546001600160a01b0316906200056d81600162000537565b620005a46200059d7f8be0079c531659141344cd1fd0a4f28419497f9722a3daafe3b4186f6b6457e0936200052c565b916200052c565b91620005af60405190565b600090a356fe60806040526004361015610018575b361561001657005b005b60003560e01c806306fdde03146101585780630f1520561461014f57806317e80dbb146101465780631e0efa9d1461013d57806321df0da7146101345780632e1a7d4d1461012b57806337a97db7146101225780635fc9400b14610119578063715018a6146101105780638da5cb5b1461010757806390be10cc146100fe5780639852595c146100f5578063e0497f10146100ec578063f2fde38b146100e3578063f34e3723146100da5763ff7f54ee0361000e576100d5610c24565b61000e565b506100d5610bfc565b506100d5610b45565b506100d5610b1d565b506100d5610aa2565b506100d5610a3b565b506100d5610a11565b506100d56109ea565b506100d56109c2565b506100d561093e565b506100d561088a565b506100d5610830565b506100d56107f0565b506100d56106c9565b506100d56104fc565b506100d56103e3565b600080fd5b600091031261017157565b610179600080fd5b565b507f4e487b7100000000000000000000000000000000000000000000000000000000600052600060045260246000fd5b507f4e487b7100000000000000000000000000000000000000000000000000000000600052602260045260246000fd5b90600160028304921680156101fe575b60208310146101f657565b6101796101ab565b91607f16916101eb565b8054600093929161022561021b836101db565b8085529360200190565b9160018116908115610277575060011461023e57505050565b6102519192939450600052602060002090565b916000925b8184106102635750500190565b805484840152602090930192600101610256565b92949550505060ff1916825215156020020190565b9061029691610208565b90565b601f017fffffffffffffffffffffffffffffffffffffffffffffffffffffffffffffffe01690565b507f4e487b7100000000000000000000000000000000000000000000000000000000600052604160045260246000fd5b90601f017fffffffffffffffffffffffffffffffffffffffffffffffffffffffffffffffe016810190811067ffffffffffffffff82111761033157604052565b6103396102c1565b604052565b906101796103589261034f60405190565b9384809261028c565b03836102f1565b610296911561033e5761037061017b565b61033e565b6102966000600261035f565b60005b8381106103945750506000910152565b8181015183820152602001610384565b6103c56102996020936103ce936103b9815190565b80835293849260200190565b95869101610381565b0190565b6020808252610296929101906103a4565b5034610410575b6103f5366004610166565b61040c610400610375565b604051918291826103d2565b0390f35b610418600080fd5b6103ea565b73ffffffffffffffffffffffffffffffffffffffff1690565b73ffffffffffffffffffffffffffffffffffffffff81165b0361016157565b9050359061017982610436565b9061029691602081830312156104555761047a600080fd5b610455565b61041d6102966102969273ffffffffffffffffffffffffffffffffffffffff1690565b6102969061047f565b610296906104a2565b906104be906104ab565b600052602052604060002090565b610296916008021c60ff1690565b9061029691546104cc565b610296906104f7600c916000926104b4565b6104da565b503461052b575b61040c610519610514366004610462565b6104e5565b60405191829182901515815260200190565b610533600080fd5b610503565b9061017961054560405190565b92836102f1565b6103ce60209167ffffffffffffffff811161058957601f017fffffffffffffffffffffffffffffffffffffffffffffffffffffffffffffffe01690565b6102996102c1565b90826000939282370152565b929190610179916105b56105b08361054c565b610538565b9482865260208601918382011115610591576105cf600080fd5b610591565b906102969181601f820112156105f0575b60208135910161059d565b6105f8600080fd5b6105e5565b9061029691602081830312610633575b80359067ffffffffffffffff8211610626575b016105d4565b61062e600080fd5b610620565b61063b600080fd5b61060d565b6103ce61065892602092610652815190565b94859290565b93849101610381565b6106716103ce9160209493610640565b918252565b61068b61068260405190565b92839283610661565b03902090565b61029691610676565b610296916008021c61041d565b90610296915461069a565b610296906106c4600e91600092610691565b6106a7565b503461070d575b61040c6106e66106e13660046105fd565b6106b2565b6040519182918273ffffffffffffffffffffffffffffffffffffffff909116815260200190565b610715600080fd5b6106d0565b6102969061041d565b610296905461071a565b6102969081565b610296905461072d565b61074990600d610691565b61075281610723565b9161075f60018301610734565b9161076c60028201610723565b91610296600461077e60038501610734565b9301610734565b90959492610179946107e56107ec926107c86080966107c160a088019c600089019073ffffffffffffffffffffffffffffffffffffffff169052565b6020870152565b73ffffffffffffffffffffffffffffffffffffffff166040850152565b6060830152565b0152565b5034610823575b61040c61080d6108083660046105fd565b61073e565b9161081a95939560405190565b95869586610785565b61082b600080fd5b6107f7565b503461084d575b610842366004610166565b61040c6106e661195d565b610855600080fd5b610837565b8061044e565b905035906101798261085a565b90610296916020818303121561086057610885600080fd5b610860565b50346108a9575b6108a461089f36600461086d565b6114a4565b604051005b6108b1600080fd5b610891565b909160c082840312610931575b6108e083833567ffffffffffffffff8111610924575b84016105d4565b926108ee8160208501610455565b926108fc8260408301610860565b9261029661090d8460608501610455565b9361091b8160808601610860565b9360a001610860565b61092c600080fd5b6108d9565b610939600080fd5b6108c3565b503461095f575b6108a46109533660046108b6565b94939093929192610d7c565b610967600080fd5b610945565b908160e091031261097a5790565b610296600080fd5b9081608091031261097a5790565b919061029690610160848203126109b5575b6109ac818561096c565b9360e001610982565b6109bd600080fd5b6109a2565b50346109dd575b6108a46109d7366004610990565b906112da565b6109e5600080fd5b6109c9565b5034610a04575b6109fc366004610166565b6108a4611c1f565b610a0c600080fd5b6109f1565b5034610a2e575b610a23366004610166565b61040c6106e6611b74565b610a36600080fd5b610a18565b5034610a68575b610a4d366004610166565b61040c610a58611975565b6040519182918290815260200190565b610a70600080fd5b610a42565b610296916008021c81565b906102969154610a75565b61029690610a9d600b916000926104b4565b610a80565b5034610abf575b61040c610a58610aba366004610462565b610a8b565b610ac7600080fd5b610aa9565b919061029690604084820312610b10575b610afa81853567ffffffffffffffff8111610b03575b86016105d4565b93602001610455565b610b0b600080fd5b610af3565b610b18600080fd5b610add565b5034610b38575b6108a4610b32366004610acc565b90610df9565b610b40600080fd5b610b24565b5034610b5f575b6108a4610b5a366004610462565b611cf6565b610b67600080fd5b610b4c565b909182601f83011215610ba8575b602082359267ffffffffffffffff8411610b9b575b01928284011161017157565b610ba3600080fd5b610b8f565b610bb0600080fd5b610b7a565b90610bde91602081830312610bef575b80359067ffffffffffffffff8211610be2575b01610b6c565b9091565b610bea600080fd5b610bd8565b610bf7600080fd5b610bc5565b5034610c17575b6108a4610c11366004610bb5565b90611953565b610c1f600080fd5b610c03565b5034610c42575b61040c610a58610c3c366004610bb5565b9061196a565b610c4a600080fd5b610c2b565b61029660a0610538565b9073ffffffffffffffffffffffffffffffffffffffff905b9181191691161790565b90610c8b610296610c92926104ab565b8254610c59565b9055565b907fffffffffffffffffffffffffffffffffffffffffffffffffffffffffffffffff90610c71565b6102966102966102969290565b90610cdb610296610c9292610cbe565b8254610c96565b6101799190610d2b90608090600490610d1981610d13875173ffffffffffffffffffffffffffffffffffffffff1690565b90610c7b565b610d3160018201610d2b602088015190565b90610ccb565b610d5960028201610d13604088015173ffffffffffffffffffffffffffffffffffffffff1690565b610d6b60038201610d2b606088015190565b0192015190565b9061017991610ce2565b9194610de6610ded9295610ddf610df496610dc26101799a610dbb610d9f610c4f565b73ffffffffffffffffffffffffffffffffffffffff909c168c52565b60208b0152565b73ffffffffffffffffffffffffffffffffffffffff166040890152565b6060870152565b6080850152565b600d610691565b610d72565b90610e0861017992600e610691565b610c7b565b9061017991610e1a611be8565b611152565b3561029681610436565b61041d6102966102969290565b61029690610e29565b15610e4657565b6040517f08c379a000000000000000000000000000000000000000000000000000000000815260206004820152601c60248201527f76657374696e67436f6e74726163745f5a45524f5f41444452455353000000006044820152606490fd5b0390fd5b356102968161085a565b15610eba57565b6040517f08c379a000000000000000000000000000000000000000000000000000000000815260206004820152602260248201527f546f6b656e56657374696e673a206475726174696f6e206d757374206265203e60448201527f20300000000000000000000000000000000000000000000000000000000000006064820152608490fd5b15610f4657565b6040517f08c379a000000000000000000000000000000000000000000000000000000000815280610ea5600482016020808252818101527f546f6b656e56657374696e673a20616d6f756e74206d757374206265203e2030604082015260600190565b15610fb057565b6040517f08c379a000000000000000000000000000000000000000000000000000000000815260206004820152602760248201527f546f6b656e56657374696e673a206475726174696f6e206d757374206265203e60448201527f3d20636c696666000000000000000000000000000000000000000000000000006064820152608490fd5b507f4e487b7100000000000000000000000000000000000000000000000000000000600052601160045260246000fd5b9190820391821161107257565b610179611035565b507f4e487b7100000000000000000000000000000000000000000000000000000000600052601260045260246000fd5b906110b4565b9190565b9081156110bf570490565b6110c761107a565b0490565b61029660e0610538565b6101799190610d2b9060c0906006906110ee8185875190565b61110060018201610d2b602088015190565b61111260028201610d2b604088015190565b61112460038201610d2b606088015190565b61113660048201610d2b608088015190565b610d6b60058201610d2b60a088015190565b90610179916110d5565b90604082019061116182610e1f565b9160009261116e84610e36565b73ffffffffffffffffffffffffffffffffffffffff169073ffffffffffffffffffffffffffffffffffffffff1614156111a690610e3f565b6111af90610e1f565b6111b8906104ab565b6111c3906003610c7b565b60408101926111d184610ea9565b6111da84610cbe565b106111e490610eb3565b6080016111f081610ea9565b6111f984610cbe565b1061120390610f3f565b61120c84610ea9565b90602083019161121b83610ea9565b111561122690610fa9565b61122f82610ea9565b9484614e20940161123f90610ea9565b9061124981610ea9565b9261125390610ea9565b93640202fbf0009161126490610ea9565b9061126e90610ea9565b61127791611065565b9061128190610cbe565b9061128b916110aa565b936112946110cb565b9661129f9087890152565b6112a890610cbe565b602087015260408601526060850152608084015260a08301526112ca90610cbe565b60c0820152610179906004611148565b9061017991610e0d565b6112f5906112f061151d565b6112fd565b61017961154f565b61017990611309611be8565b611403565b1561131557565b6040517f08c379a000000000000000000000000000000000000000000000000000000000815260206004820152602b60248201527f546f6b656e56657374696e673a206e6f7420656e6f756768207769746864726160448201527f7761626c652066756e64730000000000000000000000000000000000000000006064820152608490fd5b80151561044e565b905051906101798261139a565b9061029691602081830312156113a2576113c7600080fd5b6113a2565b73ffffffffffffffffffffffffffffffffffffffff90911681526040810192916101799160200152565b506040513d6000823e3d90fd5b61141661140e611975565b82111561130e565b602061142a6114256003610723565b6104ab565b63a9059cbb906114506000339361145b61144360405190565b9788968795869460e01b90565b8452600484016113cc565b03925af18015611497575b61146d5750565b61148d9060203d8111611490575b61148581836102f1565b8101906113af565b50565b503d61147b565b61149f6113f6565b611466565b610179906112e4565b6102966002610cbe565b156114be57565b6040517f08c379a000000000000000000000000000000000000000000000000000000000815260206004820152601f60248201527f5265656e7472616e637947756172643a207265656e7472616e742063616c6c006044820152606490fd5b61017961152a6000610734565b61153e6115356114ad565b918214156114b7565b6000610ccb565b6102966001610cbe565b61017961153e611545565b906112f59161156761151d565b61178a565b90916103ce9083908093610591565b61067190602094936103ce9361156c565b909161068b9061159b60405190565b9384938461157b565b90916102969261158c565b156115b657565b6040517f08c379a000000000000000000000000000000000000000000000000000000000815260206004820152601560248201527f46756e64696e672069736e2774207365742079657400000000000000000000006044820152606490fd5b905051906101798261085a565b9061029691602081830312156116155761163a600080fd5b611615565b1561164657565b6040517f08c379a000000000000000000000000000000000000000000000000000000000815260206004820152604260248201527f546f6b656e56657374696e673a206f6e6c792062656e6566696369617279206160448201527f6e64206f776e65722063616e2072656c656173652076657374656420746f6b6560648201527f6e73000000000000000000000000000000000000000000000000000000000000608482015260a490fd5b156116f857565b6040517f08c379a000000000000000000000000000000000000000000000000000000000815260206004820152603d60248201527f546f6b656e56657374696e673a2063616e6e6f742072656c6561736520746f6b60448201527f656e732c206e6f7420656e6f7567682076657374656420746f6b656e730000006064820152608490fd5b9190820180921161107257565b90602061185f61041d926117ef6114256114256117b58489600e6117ea6117ba6117b58585856115a4565b610723565b6117e36117c960009e8f610e36565b9173ffffffffffffffffffffffffffffffffffffffff1690565b14156115af565b6115a4565b9063146b58df9561185a6118138633998a9661180a60405190565b93849260e01b90565b825273ffffffffffffffffffffffffffffffffffffffff8816600483015260249082905afa908115611946575b8891611919575b506118546110b089610cbe565b1161163f565b611a3a565b600b906118be61188061187a61187588866104b4565b610734565b83611065565b9161189461188d87610cbe565b84116116f1565b6118b9876004956118b460068801610d2b886118af83610734565b61177d565b6104b4565b610ccb565b6118ef846118cf6114256003610723565b926118f863a9059cbb916118e260405190565b998a978896879560e01b90565b855284016113cc565b03925af190811561190c575b5061146d5750565b6119146113f6565b611904565b6119399150873d811161193f575b61193181836102f1565b810190611622565b38611847565b503d611927565b61194e6113f6565b611840565b906101799161155a565b6102966114256003610723565b610296913391611a3a565b6102966119d7602061198a6114256003610723565b6370a08231906119b361199c306104ab565b926119a660405190565b9586948593849360e01b90565b835273ffffffffffffffffffffffffffffffffffffffff1660048301526024820190565b03915afa908115611a1a575b6000916119fc575b506119f66008610734565b90611065565b611a14915060203d811161193f5761193181836102f1565b386119eb565b611a226113f6565b6119e3565b8181029291811591840414171561107257565b611aab91611a799160204295611a5b6114256114256117b58787600e6115a4565b6119b363146b58df611a6c60405190565b9788948593849360e01b90565b03915afa928315611b67575b600093611b3a575b50611a9f611aa592600392600d6115a4565b01610734565b90611a27565b6004906006611ad1610296611abf83610734565b611acb60038701610734565b9061177d565b8410611ae557505061029691508001610734565b611b2e92611aa56005611b22611b10611b07610296996119f6611b2998610734565b6119f686610734565b611b1c62015180610cbe565b906110aa565b9201610734565b611a27565b611b1c620186a0610cbe565b6003919350611aa592611b5d611a9f9260203d811161193f5761193181836102f1565b9492509250611a8d565b611b6f6113f6565b611a85565b6102966001610723565b15611b8557565b6040517f08c379a000000000000000000000000000000000000000000000000000000000815280610ea5600482016020808252818101527f4f776e61626c653a2063616c6c6572206973206e6f7420746865206f776e6572604082015260600190565b610179611bf3611b74565b611bfc336117c9565b14611b7e565b611c0a611be8565b610179610179611c1a6000610e36565b611cff565b610179611c02565b61017990611c33611be8565b611cc4565b15611c3f57565b6040517f08c379a000000000000000000000000000000000000000000000000000000000815260206004820152602660248201527f4f776e61626c653a206e6577206f776e657220697320746865207a65726f206160448201527f64647265737300000000000000000000000000000000000000000000000000006064820152608490fd5b61017990611c1a611cd861041d6000610e36565b73ffffffffffffffffffffffffffffffffffffffff83161415611c38565b61017990611c27565b611d096001610723565b90611d15816001610c7b565b611d48611d427f8be0079c531659141344cd1fd0a4f28419497f9722a3daafe3b4186f6b6457e0936104ab565b916104ab565b91611d5260405190565b600090a356fea264697066735822122052deee97816d4df3b174d8bb40799ed20699fb76d7bd04c70fbf00dd8478aa0d64736f6c63430008110033a264697066735822122075334e2cd4d5f3de778439b3c949cc382b27660b66935c38c41c1aa809286e6b64736f6c63430008110033",
  "linkReferences": {},
  "deployedLinkReferences": {}
}