{
  "_format": "hh-sol-artifact-1",
  "contractName": "IGOVesting",
  "sourceName": "contracts/IGOVesting.sol",
  "abi": [
    {
      "inputs": [
        {
          "internalType": "address",
          "name": "owner_",
          "type": "address"
        },
        {
          "internalType": "string",
          "name": "name_",
          "type": "string"
        }
      ],
      "stateMutability": "nonpayable",
      "type": "constructor"
    },
    {
      "anonymous": false,
      "inputs": [
        {
          "indexed": true,
          "internalType": "address",
          "name": "previousOwner",
          "type": "address"
        },
        {
          "indexed": true,
          "internalType": "address",
          "name": "newOwner",
          "type": "address"
        }
      ],
      "name": "OwnershipTransferred",
      "type": "event"
    },
    {
      "stateMutability": "payable",
      "type": "fallback"
    },
    {
      "inputs": [
        {
          "internalType": "string",
          "name": "tagId",
          "type": "string"
        }
      ],
      "name": "computeReleasableAmount",
      "outputs": [
        {
          "internalType": "uint256",
          "name": "",
          "type": "uint256"
        }
      ],
      "stateMutability": "view",
      "type": "function"
    },
    {
      "inputs": [
        {
          "internalType": "string",
          "name": "",
          "type": "string"
        }
      ],
      "name": "fundingByTag",
      "outputs": [
        {
          "internalType": "address",
          "name": "",
          "type": "address"
        }
      ],
      "stateMutability": "view",
      "type": "function"
    },
    {
      "inputs": [],
      "name": "getToken",
      "outputs": [
        {
          "internalType": "address",
          "name": "",
          "type": "address"
        }
      ],
      "stateMutability": "view",
      "type": "function"
    },
    {
      "inputs": [],
      "name": "getWithdrawableAmount",
      "outputs": [
        {
          "internalType": "uint256",
          "name": "",
          "type": "uint256"
        }
      ],
      "stateMutability": "view",
      "type": "function"
    },
    {
      "inputs": [
        {
          "internalType": "address",
          "name": "",
          "type": "address"
        }
      ],
      "name": "initialCliamed",
      "outputs": [
        {
          "internalType": "bool",
          "name": "",
          "type": "bool"
        }
      ],
      "stateMutability": "view",
      "type": "function"
    },
    {
      "inputs": [
        {
          "components": [
            {
              "internalType": "address",
              "name": "paymentReceiver",
              "type": "address"
            },
            {
              "internalType": "address",
              "name": "admin",
              "type": "address"
            },
            {
              "internalType": "address",
              "name": "vestedToken",
              "type": "address"
            },
            {
              "internalType": "uint256",
              "name": "platformFee",
              "type": "uint256"
            },
            {
              "internalType": "uint256",
              "name": "totalTokenOnSale",
              "type": "uint256"
            },
            {
              "internalType": "uint256",
              "name": "gracePeriod",
              "type": "uint256"
            },
            {
              "internalType": "uint256",
              "name": "decimals",
              "type": "uint256"
            }
          ],
          "internalType": "struct IIGOVesting.ContractSetup",
          "name": "contractSetup",
          "type": "tuple"
        },
        {
          "components": [
            {
              "internalType": "uint256",
              "name": "startTime",
              "type": "uint256"
            },
            {
              "internalType": "uint256",
              "name": "cliff",
              "type": "uint256"
            },
            {
              "internalType": "uint256",
              "name": "duration",
              "type": "uint256"
            },
            {
              "internalType": "uint256",
              "name": "initialUnlockPercent",
              "type": "uint256"
            }
          ],
          "internalType": "struct IIGOVesting.VestingSetup",
          "name": "vestingSetup",
          "type": "tuple"
        }
      ],
      "name": "initializeCrowdfunding",
      "outputs": [],
      "stateMutability": "nonpayable",
      "type": "function"
    },
    {
      "inputs": [],
      "name": "name",
      "outputs": [
        {
          "internalType": "string",
          "name": "",
          "type": "string"
        }
      ],
      "stateMutability": "view",
      "type": "function"
    },
    {
      "inputs": [],
      "name": "owner",
      "outputs": [
        {
          "internalType": "address",
          "name": "",
          "type": "address"
        }
      ],
      "stateMutability": "view",
      "type": "function"
    },
    {
      "inputs": [
        {
          "internalType": "string",
          "name": "tagId",
          "type": "string"
        }
      ],
      "name": "release",
      "outputs": [],
      "stateMutability": "nonpayable",
      "type": "function"
    },
    {
      "inputs": [
        {
          "internalType": "string",
          "name": "",
          "type": "string"
        }
      ],
      "name": "releaseScheduleByTag",
      "outputs": [
        {
          "internalType": "address",
          "name": "account",
          "type": "address"
        },
        {
          "internalType": "uint256",
          "name": "amount",
          "type": "uint256"
        },
        {
          "internalType": "address",
          "name": "paymentToken",
          "type": "address"
        },
        {
          "internalType": "uint256",
          "name": "amountPerPaymentToken",
          "type": "uint256"
        },
        {
          "internalType": "uint256",
          "name": "refundFee",
          "type": "uint256"
        }
      ],
      "stateMutability": "view",
      "type": "function"
    },
    {
      "inputs": [
        {
          "internalType": "address",
          "name": "",
          "type": "address"
        }
      ],
      "name": "released",
      "outputs": [
        {
          "internalType": "uint256",
          "name": "",
          "type": "uint256"
        }
      ],
      "stateMutability": "view",
      "type": "function"
    },
    {
      "inputs": [],
      "name": "renounceOwnership",
      "outputs": [],
      "stateMutability": "nonpayable",
      "type": "function"
    },
    {
      "inputs": [
        {
          "internalType": "string",
          "name": "tagId",
          "type": "string"
        },
        {
          "internalType": "address",
          "name": "account",
          "type": "address"
        },
        {
          "internalType": "uint256",
          "name": "amount",
          "type": "uint256"
        },
        {
          "internalType": "address",
          "name": "paymentToken",
          "type": "address"
        },
        {
          "internalType": "uint256",
          "name": "amountPerPaymentToken",
          "type": "uint256"
        },
        {
          "internalType": "uint256",
          "name": "refundFee",
          "type": "uint256"
        }
      ],
      "name": "setCrowdfundingWhitelist",
      "outputs": [],
      "stateMutability": "nonpayable",
      "type": "function"
    },
    {
      "inputs": [
        {
          "internalType": "string",
          "name": "tagId",
          "type": "string"
        },
        {
          "internalType": "address",
          "name": "funding",
          "type": "address"
        }
      ],
      "name": "setFunding",
      "outputs": [],
      "stateMutability": "nonpayable",
      "type": "function"
    },
    {
      "inputs": [
        {
          "internalType": "address",
          "name": "newOwner",
          "type": "address"
        }
      ],
      "name": "transferOwnership",
      "outputs": [],
      "stateMutability": "nonpayable",
      "type": "function"
    },
    {
      "inputs": [
        {
          "internalType": "uint256",
          "name": "amount",
          "type": "uint256"
        }
      ],
      "name": "withdraw",
      "outputs": [],
      "stateMutability": "nonpayable",
      "type": "function"
    },
    {
      "stateMutability": "payable",
      "type": "receive"
    }
  ],
  "bytecode": "0x60806040523462000032575b6200002062000019620001fd565b9062000484565b604051611aaf620005b68239611aaf90f35b6200003b600080fd5b6200000b565b600080fd5b50634e487b7160e01b600052604160045260246000fd5b90601f01601f191681019081106001600160401b038211176200007f57604052565b6200008962000046565b604052565b90620000a56200009d60405190565b92836200005d565b565b6001600160a01b031690565b90565b6001600160a01b038116036200004157565b90505190620000a582620000b6565b602090620000f8906001600160401b038111620000fc57601f01601f191690565b0190565b6200010662000046565b601f01601f191690565b60005b838110620001245750506000910152565b818101518382015260200162000113565b929190620000a591620001526200014c83620000d7565b6200008e565b948286526020860191838201111562000110576200016e600080fd5b62000110565b90620000b39181601f8201121562000193575b60208151910162000135565b6200019c600080fd5b62000187565b9190620000b390604084820312620001ee575b620001c18185620000c8565b602085015190946001600160401b038211620001df575b0162000174565b620001e8600080fd5b620001d8565b620001f7600080fd5b620001b5565b62000220620020658038038062000214816200008e565b928339810190620001a2565b9091565b50634e487b7160e01b600052602260045260246000fd5b906001600283049216801562000262575b60208310146200025857565b620000a562000224565b91607f16916200024c565b9160001960089290920291821b911b5b9181191691161790565b620000b3620000b3620000b39290565b9190620002ac620000b3620002b59362000287565b9083546200026d565b9055565b620000a59160009162000297565b818110620002d3575050565b80620002e36000600193620002b9565b01620002c7565b9190601f8111620002fa57505050565b6200030e620000a593600052602060002090565b906020601f84018190048301931062000332575b6020601f909101040190620002c7565b909150819062000322565b62000356600b6200034f83546200023b565b83620002ea565b7f49474f2056657374696e670000000000000000000000000000000000000000169055565b620000a5906200033d565b9062000390815190565b906001600160401b03821162000468575b620003b982620003b285546200023b565b85620002ea565b602090601f8311600114620003f857620002b5929160009183620003ec575b5050600019600883021c1916906002021790565b015190503880620003d8565b601f198316916200040e85600052602060002090565b9260005b8181106200044f5750916002939185600196941062000435575b50505002019055565b01516000196008601f8516021c191690553880806200042c565b9193602060018192878701518155019501920162000412565b6200047262000046565b620003a1565b90620000a59162000386565b90620004aa620000a59262000498620004e5565b620004a460026200037b565b62000553565b600262000478565b620000b3600162000287565b90600019906200027d565b90620004dd620000b3620002b59262000287565b8254620004be565b620000a5620004f3620004b2565b6000620004c9565b906001600160a01b03906200027d565b620000b390620000a7906001600160a01b031682565b620000b3906200050b565b620000b39062000521565b906200054b620000b3620002b5926200052c565b8254620004fb565b6001546001600160a01b0316906200056d81600162000537565b620005a46200059d7f8be0079c531659141344cd1fd0a4f28419497f9722a3daafe3b4186f6b6457e0936200052c565b916200052c565b91620005af60405190565b600090a356fe60806040526004361015610018575b361561001657005b005b60003560e01c806306fdde03146101585780630f1520561461014f57806317e80dbb146101465780631e0efa9d1461013d57806321df0da7146101345780632e1a7d4d1461012b57806337a97db7146101225780635fc9400b14610119578063715018a6146101105780638da5cb5b1461010757806390be10cc146100fe5780639852595c146100f5578063e0497f10146100ec578063f2fde38b146100e3578063f34e3723146100da5763ff7f54ee0361000e576100d5610b31565b61000e565b506100d5610b09565b506100d5610a52565b506100d5610a2a565b506100d56109af565b506100d5610948565b506100d561091e565b506100d56108f7565b506100d56108cf565b506100d561084b565b506100d5610797565b506100d561073d565b506100d56106fd565b506100d56105fd565b506100d561044e565b506100d561035c565b600080fd5b600091031261017157565b610179600080fd5b565b50634e487b7160e01b600052600060045260246000fd5b50634e487b7160e01b600052602260045260246000fd5b90600160028304921680156101cc575b60208310146101c457565b610179610192565b91607f16916101b9565b805460009392916101f36101e9836101a9565b8085529360200190565b9160018116908115610245575060011461020c57505050565b61021f9192939450600052602060002090565b916000925b8184106102315750500190565b805484840152602090930192600101610224565b92949550505060ff1916825215156020020190565b90610264916101d6565b90565b601f01601f191690565b50634e487b7160e01b600052604160045260246000fd5b90601f01601f1916810190811067ffffffffffffffff8211176102aa57604052565b6102b2610271565b604052565b906101796102d1926102c860405190565b9384809261025a565b0383610288565b61026491156102b7576102e961017b565b6102b7565b610264600060026102d8565b60005b83811061030d5750506000910152565b81810151838201526020016102fd565b61033e61026760209361034793610332815190565b80835293849260200190565b958691016102fa565b0190565b60208082526102649291019061031d565b5034610389575b61036e366004610166565b6103856103796102ee565b6040519182918261034b565b0390f35b610391600080fd5b610363565b6001600160a01b031690565b6001600160a01b0381165b0361016157565b90503590610179826103a2565b9061026491602081830312156103b4576103d9600080fd5b6103b4565b610396610264610264926001600160a01b031690565b610264906103de565b610264906103f4565b90610410906103fd565b600052602052604060002090565b610264916008021c60ff1690565b90610264915461041e565b61026490610449600c91600092610406565b61042c565b503461047d575b61038561046b6104663660046103c1565b610437565b60405191829182901515815260200190565b610485600080fd5b610455565b9061017961049760405190565b9283610288565b61034760209167ffffffffffffffff81116104bd57601f01601f191690565b610267610271565b90826000939282370152565b929190610179916104e96104e48361049e565b61048a565b94828652602086019183820111156104c557610503600080fd5b6104c5565b906102649181601f82011215610524575b6020813591016104d1565b61052c600080fd5b610519565b9061026491602081830312610567575b80359067ffffffffffffffff821161055a575b01610508565b610562600080fd5b610554565b61056f600080fd5b610541565b61034761058c92602092610586815190565b94859290565b938491016102fa565b6105a56103479160209493610574565b918252565b6105bf6105b660405190565b92839283610595565b03902090565b610264916105aa565b610264916008021c610396565b9061026491546105ce565b610264906105f8600e916000926105c5565b6105db565b5034610634575b61038561061a610615366004610531565b6105e6565b604051918291826001600160a01b03909116815260200190565b61063c600080fd5b610604565b61026490610396565b6102649054610641565b6102649081565b6102649054610654565b61067090600d6105c5565b6106798161064a565b916106866001830161065b565b916106936002820161064a565b9161026460046106a56003850161065b565b930161065b565b90959492610179946106f26106f9926106e26080966106db60a088019c60008901906001600160a01b03169052565b6020870152565b6001600160a01b03166040850152565b6060830152565b0152565b5034610730575b61038561071a610715366004610531565b610665565b9161072795939560405190565b958695866106ac565b610738600080fd5b610704565b503461075a575b61074f366004610166565b61038561061a6116cc565b610762600080fd5b610744565b806103ad565b9050359061017982610767565b90610264916020818303121561076d57610792600080fd5b61076d565b50346107b6575b6107b16107ac36600461077a565b611295565b604051005b6107be600080fd5b61079e565b909160c08284031261083e575b6107ed83833567ffffffffffffffff8111610831575b8401610508565b926107fb81602085016103b4565b92610809826040830161076d565b9261026461081a84606085016103b4565b93610828816080860161076d565b9360a00161076d565b610839600080fd5b6107e6565b610846600080fd5b6107d0565b503461086c575b6107b16108603660046107c3565b94939093929192610c62565b610874600080fd5b610852565b908160e09103126108875790565b610264600080fd5b908160809103126108875790565b919061026490610160848203126108c2575b6108b98185610879565b9360e00161088f565b6108ca600080fd5b6108af565b50346108ea575b6107b16108e436600461089d565b906110f2565b6108f2600080fd5b6108d6565b5034610911575b610909366004610166565b6107b1611967565b610919600080fd5b6108fe565b503461093b575b610930366004610166565b61038561061a6118d6565b610943600080fd5b610925565b5034610975575b61095a366004610166565b6103856109656116e4565b6040519182918290815260200190565b61097d600080fd5b61094f565b610264916008021c81565b906102649154610982565b610264906109aa600b91600092610406565b61098d565b50346109cc575b6103856109656109c73660046103c1565b610998565b6109d4600080fd5b6109b6565b919061026490604084820312610a1d575b610a0781853567ffffffffffffffff8111610a10575b8601610508565b936020016103b4565b610a18600080fd5b610a00565b610a25600080fd5b6109ea565b5034610a45575b6107b1610a3f3660046109d9565b90610cc5565b610a4d600080fd5b610a31565b5034610a6c575b6107b1610a673660046103c1565b611a17565b610a74600080fd5b610a59565b909182601f83011215610ab5575b602082359267ffffffffffffffff8411610aa8575b01928284011161017157565b610ab0600080fd5b610a9c565b610abd600080fd5b610a87565b90610aeb91602081830312610afc575b80359067ffffffffffffffff8211610aef575b01610a79565b9091565b610af7600080fd5b610ae5565b610b04600080fd5b610ad2565b5034610b24575b6107b1610b1e366004610ac2565b906116c2565b610b2c600080fd5b610b10565b5034610b4f575b610385610965610b49366004610ac2565b906116d9565b610b57600080fd5b610b38565b61026460a061048a565b906001600160a01b03905b9181191691161790565b90610b8b610264610b92926103fd565b8254610b66565b9055565b907fffffffffffffffffffffffffffffffffffffffffffffffffffffffffffffffff90610b71565b6102646102646102649290565b90610bdb610264610b9292610bbe565b8254610b96565b6101799190610c1e90608090600490610c0c81610c0687516001600160a01b031690565b90610b7b565b610c2460018201610c1e602088015190565b90610bcb565b610c3f60028201610c0660408801516001600160a01b031690565b610c5160038201610c1e606088015190565b0192015190565b9061017991610be2565b9194610cb2610cb99295610cab610cc096610c9b6101799a610c94610c85610b5c565b6001600160a01b03909c168c52565b60208b0152565b6001600160a01b03166040890152565b6060870152565b6080850152565b600d6105c5565b610c58565b90610cd461017992600e6105c5565b610b7b565b9061017991610ce6611930565b610f84565b35610264816103a2565b6103966102646102649290565b61026490610cf5565b15610d1257565b60405162461bcd60e51b815260206004820152601c60248201527f76657374696e67436f6e74726163745f5a45524f5f41444452455353000000006044820152606490fd5b0390fd5b3561026481610767565b15610d6c57565b60405162461bcd60e51b815260206004820152602260248201527f546f6b656e56657374696e673a206475726174696f6e206d757374206265203e60448201527f20300000000000000000000000000000000000000000000000000000000000006064820152608490fd5b15610dde57565b60405162461bcd60e51b815280610d57600482016020808252818101527f546f6b656e56657374696e673a20616d6f756e74206d757374206265203e2030604082015260600190565b15610e2e57565b60405162461bcd60e51b815260206004820152602760248201527f546f6b656e56657374696e673a206475726174696f6e206d757374206265203e60448201527f3d20636c696666000000000000000000000000000000000000000000000000006064820152608490fd5b50634e487b7160e01b600052601160045260246000fd5b91908203918211610ebd57565b610179610e99565b50634e487b7160e01b600052601260045260246000fd5b90610ee6565b9190565b908115610ef1570490565b610ef9610ec5565b0490565b61026460e061048a565b6101799190610c1e9060c090600690610f208185875190565b610f3260018201610c1e602088015190565b610f4460028201610c1e604088015190565b610f5660038201610c1e606088015190565b610f6860048201610c1e608088015190565b610c5160058201610c1e60a088015190565b9061017991610f07565b906040820190610f9382610ceb565b91600092610fa084610d02565b6001600160a01b0316906001600160a01b03161415610fbe90610d0b565b610fc790610ceb565b610fd0906103fd565b610fdb906003610b7b565b6040810192610fe984610d5b565b610ff284610bbe565b10610ffc90610d65565b60800161100881610d5b565b61101184610bbe565b1061101b90610dd7565b61102484610d5b565b90602083019161103383610d5b565b111561103e90610e27565b61104782610d5b565b9484614e20940161105790610d5b565b9061106181610d5b565b9261106b90610d5b565b93640202fbf0009161107c90610d5b565b9061108690610d5b565b61108f91610eb0565b9061109990610bbe565b906110a391610edc565b936110ac610efd565b966110b79087890152565b6110c090610bbe565b602087015260408601526060850152608084015260a08301526110e290610bbe565b60c0820152610179906004610f7a565b9061017991610cd9565b61110d906111086112f4565b611115565b610179611326565b61017990611121611930565b6111f4565b1561112d57565b60405162461bcd60e51b815260206004820152602b60248201527f546f6b656e56657374696e673a206e6f7420656e6f756768207769746864726160448201527f7761626c652066756e64730000000000000000000000000000000000000000006064820152608490fd5b8015156103ad565b9050519061017982611198565b9061026491602081830312156111a0576111c5600080fd5b6111a0565b6001600160a01b0390911681526040810192916101799160200152565b506040513d6000823e3d90fd5b6112076111ff6116e4565b821115611126565b602061121b611216600361064a565b6103fd565b63a9059cbb906112416000339361124c61123460405190565b9788968795869460e01b90565b8452600484016111ca565b03925af18015611288575b61125e5750565b61127e9060203d8111611281575b6112768183610288565b8101906111ad565b50565b503d61126c565b6112906111e7565b611257565b610179906110fc565b6102646002610bbe565b156112af57565b60405162461bcd60e51b815260206004820152601f60248201527f5265656e7472616e637947756172643a207265656e7472616e742063616c6c006044820152606490fd5b610179611301600061065b565b61131561130c61129e565b918214156112a8565b6000610bcb565b6102646001610bbe565b61017961131561131c565b9061110d9161133e6112f4565b611513565b909161034790839080936104c5565b6105a5906020949361034793611343565b90916105bf9061137260405190565b93849384611352565b909161026492611363565b1561138d57565b60405162461bcd60e51b815260206004820152601560248201527f46756e64696e672069736e2774207365742079657400000000000000000000006044820152606490fd5b9050519061017982610767565b9061026491602081830312156113d2576113f7600080fd5b6113d2565b1561140357565b60405162461bcd60e51b815260206004820152604260248201527f546f6b656e56657374696e673a206f6e6c792062656e6566696369617279206160448201527f6e64206f776e65722063616e2072656c656173652076657374656420746f6b6560648201527f6e73000000000000000000000000000000000000000000000000000000000000608482015260a490fd5b1561149b57565b60405162461bcd60e51b815260206004820152603d60248201527f546f6b656e56657374696e673a2063616e6e6f742072656c6561736520746f6b60448201527f656e732c206e6f7420656e6f7567682076657374656420746f6b656e730000006064820152608490fd5b91908201809211610ebd57565b9060206115ce6103969261156b61121661121661153e8489600e61156661154361153e85858561137b565b61064a565b61155f61155260009e8f610d02565b916001600160a01b031690565b1415611386565b61137b565b9063146b58df956115c961158f8633998a9661158660405190565b93849260e01b90565b82526001600160a01b038816600483015260249082905afa9081156116b5575b8891611688575b506115c3610ee289610bbe565b116113fc565b61179c565b600b9061162d6115ef6115e96115e48886610406565b61065b565b83610eb0565b916116036115fc87610bbe565b8411611494565b6116288760049561162360068801610c1e8861161e8361065b565b611506565b610406565b610bcb565b61165e8461163e611216600361064a565b9261166763a9059cbb9161165160405190565b998a978896879560e01b90565b855284016111ca565b03925af190811561167b575b5061125e5750565b6116836111e7565b611673565b6116a89150873d81116116ae575b6116a08183610288565b8101906113df565b386115b6565b503d611696565b6116bd6111e7565b6115af565b9061017991611331565b610264611216600361064a565b61026491339161179c565b61026461173960206116f9611216600361064a565b6370a082319061172261170b306103fd565b9261171560405190565b9586948593849360e01b90565b83526001600160a01b031660048301526024820190565b03915afa90811561177c575b60009161175e575b50611758600861065b565b90610eb0565b611776915060203d81116116ae576116a08183610288565b3861174d565b6117846111e7565b611745565b81810292918115918404141715610ebd57565b61180d916117db91602042956117bd61121661121661153e8787600e61137b565b61172263146b58df6117ce60405190565b9788948593849360e01b90565b03915afa9283156118c9575b60009361189c575b5061180161180792600392600d61137b565b0161065b565b90611789565b60049060066118336102646118218361065b565b61182d6003870161065b565b90611506565b84106118475750506102649150800161065b565b6118909261180760056118846118726118696102649961175861188b9861065b565b6117588661065b565b61187e62015180610bbe565b90610edc565b920161065b565b611789565b61187e620186a0610bbe565b6003919350611807926118bf6118019260203d81116116ae576116a08183610288565b94925092506117ef565b6118d16111e7565b6117e7565b610264600161064a565b156118e757565b60405162461bcd60e51b815280610d57600482016020808252818101527f4f776e61626c653a2063616c6c6572206973206e6f7420746865206f776e6572604082015260600190565b61017961193b6118d6565b61194433611552565b146118e0565b611952611930565b6101796101796119626000610d02565b611a20565b61017961194a565b6101799061197b611930565b6119f2565b1561198757565b60405162461bcd60e51b815260206004820152602660248201527f4f776e61626c653a206e6577206f776e657220697320746865207a65726f206160448201527f64647265737300000000000000000000000000000000000000000000000000006064820152608490fd5b61017990611962611a066103966000610d02565b6001600160a01b0383161415611980565b6101799061196f565b611a2a600161064a565b90611a36816001610b7b565b611a69611a637f8be0079c531659141344cd1fd0a4f28419497f9722a3daafe3b4186f6b6457e0936103fd565b916103fd565b91611a7360405190565b600090a356fea264697066735822122086d9a32741691a46561f9da19a65a316deba8572a581db737a3abe18eddd034464736f6c63430008110033",
  "linkReferences": {},
  "deployedLinkReferences": {}
}