{
  "_format": "hh-sol-artifact-1",
  "contractName": "IGOVesting",
  "sourceName": "contracts/IGOVesting.sol",
  "abi": [
    {
      "inputs": [
        {
          "internalType": "string",
          "name": "name_",
          "type": "string"
        }
      ],
      "stateMutability": "nonpayable",
      "type": "constructor"
    },
    {
      "anonymous": false,
      "inputs": [
        {
          "indexed": true,
          "internalType": "address",
          "name": "previousOwner",
          "type": "address"
        },
        {
          "indexed": true,
          "internalType": "address",
          "name": "newOwner",
          "type": "address"
        }
      ],
      "name": "OwnershipTransferred",
      "type": "event"
    },
    {
      "stateMutability": "payable",
      "type": "fallback"
    },
    {
      "inputs": [],
      "name": "amountTotal",
      "outputs": [
        {
          "internalType": "uint256",
          "name": "",
          "type": "uint256"
        }
      ],
      "stateMutability": "view",
      "type": "function"
    },
    {
      "inputs": [
        {
          "internalType": "string",
          "name": "tagId",
          "type": "string"
        }
      ],
      "name": "claim",
      "outputs": [],
      "stateMutability": "nonpayable",
      "type": "function"
    },
    {
      "inputs": [],
      "name": "cliff",
      "outputs": [
        {
          "internalType": "uint256",
          "name": "",
          "type": "uint256"
        }
      ],
      "stateMutability": "view",
      "type": "function"
    },
    {
      "inputs": [
        {
          "internalType": "string",
          "name": "tagId",
          "type": "string"
        },
        {
          "internalType": "address",
          "name": "account",
          "type": "address"
        }
      ],
      "name": "computeReleasableAmount",
      "outputs": [
        {
          "internalType": "uint256",
          "name": "",
          "type": "uint256"
        }
      ],
      "stateMutability": "view",
      "type": "function"
    },
    {
      "inputs": [],
      "name": "divisor",
      "outputs": [
        {
          "internalType": "uint64",
          "name": "",
          "type": "uint64"
        }
      ],
      "stateMutability": "view",
      "type": "function"
    },
    {
      "inputs": [],
      "name": "duration",
      "outputs": [
        {
          "internalType": "uint256",
          "name": "",
          "type": "uint256"
        }
      ],
      "stateMutability": "view",
      "type": "function"
    },
    {
      "inputs": [],
      "name": "getToken",
      "outputs": [
        {
          "internalType": "address",
          "name": "",
          "type": "address"
        }
      ],
      "stateMutability": "view",
      "type": "function"
    },
    {
      "inputs": [
        {
          "internalType": "address",
          "name": "",
          "type": "address"
        }
      ],
      "name": "initialCliamed",
      "outputs": [
        {
          "internalType": "bool",
          "name": "",
          "type": "bool"
        }
      ],
      "stateMutability": "view",
      "type": "function"
    },
    {
      "inputs": [],
      "name": "initialUnlockPercent",
      "outputs": [
        {
          "internalType": "uint256",
          "name": "",
          "type": "uint256"
        }
      ],
      "stateMutability": "view",
      "type": "function"
    },
    {
      "inputs": [
        {
          "components": [
            {
              "internalType": "address",
              "name": "paymentReceiver",
              "type": "address"
            },
            {
              "internalType": "address",
              "name": "admin",
              "type": "address"
            },
            {
              "internalType": "address",
              "name": "vestedToken",
              "type": "address"
            },
            {
              "internalType": "uint256",
              "name": "platformFee",
              "type": "uint256"
            },
            {
              "internalType": "uint256",
              "name": "totalTokenOnSale",
              "type": "uint256"
            },
            {
              "internalType": "uint256",
              "name": "gracePeriod",
              "type": "uint256"
            },
            {
              "internalType": "uint256",
              "name": "decimals",
              "type": "uint256"
            }
          ],
          "internalType": "struct IIGOVesting.ContractSetup",
          "name": "contractSetup",
          "type": "tuple"
        },
        {
          "components": [
            {
              "internalType": "uint256",
              "name": "startTime",
              "type": "uint256"
            },
            {
              "internalType": "uint256",
              "name": "cliff",
              "type": "uint256"
            },
            {
              "internalType": "uint256",
              "name": "duration",
              "type": "uint256"
            },
            {
              "internalType": "uint256",
              "name": "initialUnlockPercent",
              "type": "uint256"
            }
          ],
          "internalType": "struct IIGOVesting.VestingSetup",
          "name": "vestingSetup",
          "type": "tuple"
        }
      ],
      "name": "initializeCrowdfunding",
      "outputs": [],
      "stateMutability": "nonpayable",
      "type": "function"
    },
    {
      "inputs": [],
      "name": "name",
      "outputs": [
        {
          "internalType": "string",
          "name": "",
          "type": "string"
        }
      ],
      "stateMutability": "view",
      "type": "function"
    },
    {
      "inputs": [],
      "name": "owner",
      "outputs": [
        {
          "internalType": "address",
          "name": "",
          "type": "address"
        }
      ],
      "stateMutability": "view",
      "type": "function"
    },
    {
      "inputs": [
        {
          "internalType": "string",
          "name": "tagId",
          "type": "string"
        },
        {
          "internalType": "uint256",
          "name": "amount",
          "type": "uint256"
        }
      ],
      "name": "refund",
      "outputs": [],
      "stateMutability": "nonpayable",
      "type": "function"
    },
    {
      "inputs": [
        {
          "internalType": "string",
          "name": "",
          "type": "string"
        },
        {
          "internalType": "address",
          "name": "",
          "type": "address"
        }
      ],
      "name": "releaseScheduleByTag",
      "outputs": [
        {
          "internalType": "uint256",
          "name": "amount",
          "type": "uint256"
        },
        {
          "internalType": "address",
          "name": "paymentToken",
          "type": "address"
        },
        {
          "internalType": "uint256",
          "name": "price",
          "type": "uint256"
        },
        {
          "internalType": "uint256",
          "name": "refundFee",
          "type": "uint256"
        }
      ],
      "stateMutability": "view",
      "type": "function"
    },
    {
      "inputs": [
        {
          "internalType": "address",
          "name": "",
          "type": "address"
        }
      ],
      "name": "released",
      "outputs": [
        {
          "internalType": "uint256",
          "name": "",
          "type": "uint256"
        }
      ],
      "stateMutability": "view",
      "type": "function"
    },
    {
      "inputs": [],
      "name": "renounceOwnership",
      "outputs": [],
      "stateMutability": "nonpayable",
      "type": "function"
    },
    {
      "inputs": [
        {
          "internalType": "string",
          "name": "tagId",
          "type": "string"
        },
        {
          "internalType": "address",
          "name": "account",
          "type": "address"
        },
        {
          "internalType": "uint256",
          "name": "amount",
          "type": "uint256"
        },
        {
          "internalType": "address",
          "name": "paymentToken",
          "type": "address"
        },
        {
          "internalType": "uint256",
          "name": "price",
          "type": "uint256"
        },
        {
          "internalType": "uint256",
          "name": "refundFee",
          "type": "uint256"
        }
      ],
      "name": "setCrowdfundingWhitelist",
      "outputs": [],
      "stateMutability": "nonpayable",
      "type": "function"
    },
    {
      "inputs": [],
      "name": "start",
      "outputs": [
        {
          "internalType": "uint256",
          "name": "",
          "type": "uint256"
        }
      ],
      "stateMutability": "view",
      "type": "function"
    },
    {
      "inputs": [],
      "name": "totalReleased",
      "outputs": [
        {
          "internalType": "uint256",
          "name": "",
          "type": "uint256"
        }
      ],
      "stateMutability": "view",
      "type": "function"
    },
    {
      "inputs": [
        {
          "internalType": "address",
          "name": "newOwner",
          "type": "address"
        }
      ],
      "name": "transferOwnership",
      "outputs": [],
      "stateMutability": "nonpayable",
      "type": "function"
    },
    {
      "inputs": [
        {
          "internalType": "address",
          "name": "token",
          "type": "address"
        },
        {
          "internalType": "uint256",
          "name": "amount",
          "type": "uint256"
        }
      ],
      "name": "withdraw",
      "outputs": [],
      "stateMutability": "nonpayable",
      "type": "function"
    },
    {
      "stateMutability": "payable",
      "type": "receive"
    }
  ],
  "bytecode": "0x608060405234620002935762001c3e803803806200001d8162000298565b92833981016020918281830312620002935780516001600160401b039182821162000293570191601f81818501121562000293578351938385116200024657601f1994620000718382018716880162000298565b938185528782840101116200029357869160005b8281106200027f575050600090840190910181905280546001600160a01b03198116339081178355916001600160a01b03909116907f8be0079c531659141344cd1fd0a4f28419497f9722a3daafe3b4186f6b6457e09080a3600191828055600895620000f38754620002be565b8381116200025c575b507f49474f2056657374696e67000000000000000000000000000000000000000016808855600d80546001600160401b031916620186a0179055825195861162000246576200014b90620002be565b83811162000209575b5080928511600114620001a057508394509083929160009462000194575b50501b916000199060031b1c19161790555b6040516119299081620003158239f35b01519250388062000172565b9294849081168760005284600020946000905b88838310620001ee5750505010620001d4575b505050811b01905562000184565b015160001960f88460031b161c19169055388080620001c6565b858701518855909601959485019487935090810190620001b3565b620002359088600052826000208580890160051c820192858a106200023c575b0160051c0190620002fb565b3862000154565b9250819262000229565b634e487b7160e01b600052604160045260246000fd5b6200027890886000528483600020910160051c810190620002fb565b38620000fc565b818101840151868201850152830162000085565b600080fd5b6040519190601f01601f191682016001600160401b038111838210176200024657604052565b90600182811c92168015620002f0575b6020831014620002da57565b634e487b7160e01b600052602260045260246000fd5b91607f1691620002ce565b81811062000307575050565b60008155600101620002fb56fe608060408181526004908136101561001f575b505050361561001d57005b005b600092833560e01c90816306fdde03146110aa575080630f152056146110435780630fb5a6b41461100657806313d033c014610fc95780631f2dc5ef14610f8257806321df0da714610f2f57806334fccc1d14610ef257806337a97db714610deb5780635fc9400b14610b2c578063715018a614610a90578063828ee8151461093d5780638da5cb5b146108ec5780639852595c1461088a578063a73c71401461084d578063aa808095146107e0578063be9a6555146107a4578063e33b7de314610767578063edd924161461050e578063f2fde38b146103d7578063f3fe12c9146101fa5763f3fef3a30361001257346101f657807ffffffffffffffffffffffffffffffffffffffffffffffffffffffffffffffffc3601126101f65760206101ad73ffffffffffffffffffffffffffffffffffffffff9361016061132d565b906101696113a6565b84517fa9059cbb0000000000000000000000000000000000000000000000000000000081523391810191825260243560208301529586938492899291849160400190565b0393165af19081156101ed57506101c2575080f35b6101e29060203d81116101e6575b6101da81836112c9565b810190611448565b5080f35b503d6101d0565b513d84823e3d90fd5b8280fd5b508290346103d357602090817ffffffffffffffffffffffffffffffffffffffffffffffffffffffffffffffffc3601126101f657833567ffffffffffffffff81116103cf5761024f61025e9136908701611378565b61025761149c565b3391611531565b338452600a83526102728285205482611460565b90811561034d578186859261028d61030d969560075461150b565b600755338852600a84528488205573ffffffffffffffffffffffffffffffffffffffff60095416908785518097819582947fa9059cbb000000000000000000000000000000000000000000000000000000008452339084016020909392919373ffffffffffffffffffffffffffffffffffffffff60408201951681520152565b03925af19081156103445750610326575b826001805580f35b8161033c92903d106101e6576101da81836112c9565b50818061031e565b513d85823e3d90fd5b608486858551917f08c379a0000000000000000000000000000000000000000000000000000000008352820152603d60248201527f546f6b656e56657374696e673a2063616e6e6f742072656c6561736520746f6b60448201527f656e732c206e6f7420656e6f7567682076657374656420746f6b656e730000006064820152fd5b8380fd5b5080fd5b5090346101f65760207ffffffffffffffffffffffffffffffffffffffffffffffffffffffffffffffffc3601126101f65761041061132d565b906104196113a6565b73ffffffffffffffffffffffffffffffffffffffff80921692831561048b5750508254827fffffffffffffffffffffffff00000000000000000000000000000000000000008216178455167f8be0079c531659141344cd1fd0a4f28419497f9722a3daafe3b4186f6b6457e08380a380f35b90602060849251917f08c379a0000000000000000000000000000000000000000000000000000000008352820152602660248201527f4f776e61626c653a206e6577206f776e657220697320746865207a65726f206160448201527f64647265737300000000000000000000000000000000000000000000000000006064820152fd5b5090346101f657817ffffffffffffffffffffffffffffffffffffffffffffffffffffffffffffffffc3601126101f65767ffffffffffffffff9080358281116107635761055e9036908301611378565b602435929161056b61149c565b825442116106e05760209082875193849283378101600c81520301902033865260205283852092600d54166105a4600385015482611460565b908184029184830414841517156106b4578015610688579160209161063a938873ffffffffffffffffffffffffffffffffffffffff600189015416928951968795869485937fa9059cbb0000000000000000000000000000000000000000000000000000000085520490339084016020909392919373ffffffffffffffffffffffffffffffffffffffff60408201951681520152565b03925af1801561067e57610657939450610660575b508254611460565b90556001805580f35b6106779060203d81116101e6576101da81836112c9565b503861064f565b84513d87823e3d90fd5b6024876012857f4e487b7100000000000000000000000000000000000000000000000000000000835252fd5b6024876011857f4e487b7100000000000000000000000000000000000000000000000000000000835252fd5b60848360208851917f08c379a0000000000000000000000000000000000000000000000000000000008352820152602260248201527f546f6b656e56657374696e673a2050726573616c652069732066696e6973686560448201527f642e0000000000000000000000000000000000000000000000000000000000006064820152fd5b8480fd5b8382346103d357817ffffffffffffffffffffffffffffffffffffffffffffffffffffffffffffffffc3601126103d3576020906007549051908152f35b5090346101f657827ffffffffffffffffffffffffffffffffffffffffffffffffffffffffffffffffc3601126101f65760209250549051908152f35b50823461084a57817ffffffffffffffffffffffffffffffffffffffffffffffffffffffffffffffffc36011261084a5782359067ffffffffffffffff821161084a575061083560209361084392369101611378565b61083d611355565b91611531565b9051908152f35b80fd5b8382346103d357817ffffffffffffffffffffffffffffffffffffffffffffffffffffffffffffffffc3601126103d3576020906006549051908152f35b8382346103d35760207ffffffffffffffffffffffffffffffffffffffffffffffffffffffffffffffffc3601126103d3578060209273ffffffffffffffffffffffffffffffffffffffff6108dc61132d565b168152600a845220549051908152f35b8382346103d357817ffffffffffffffffffffffffffffffffffffffffffffffffffffffffffffffffc3601126103d35773ffffffffffffffffffffffffffffffffffffffff60209254169051908152f35b5090346101f657817ffffffffffffffffffffffffffffffffffffffffffffffffffffffffffffffffc3601126101f65780359167ffffffffffffffff9182841161076357366023850112156107635783810135928311610a6457508051926020926109cf847fffffffffffffffffffffffffffffffffffffffffffffffffffffffffffffffe0601f84011601866112c9565b808552838501913660248383010111610a605784849388828560809b966024610a12970185378a010152610a01611355565b97855193849283925192839161130a565b8101600c81520301902073ffffffffffffffffffffffffffffffffffffffff809616825284522090815493600183015416600360028401549301549382519586528501528301526060820152f35b8680fd5b8460416024927f4e487b7100000000000000000000000000000000000000000000000000000000835252fd5b833461084a57807ffffffffffffffffffffffffffffffffffffffffffffffffffffffffffffffffc36011261084a57610ac76113a6565b8073ffffffffffffffffffffffffffffffffffffffff81547fffffffffffffffffffffffff000000000000000000000000000000000000000081168355167f8be0079c531659141344cd1fd0a4f28419497f9722a3daafe3b4186f6b6457e08280a380f35b5090346101f6577ffffffffffffffffffffffffffffffffffffffffffffffffffffffffffffffffc360161016081126103cf5760e0136101f65760807fffffffffffffffffffffffffffffffffffffffffffffffffffffffffffffff1c3601126101f657610b986113a6565b73ffffffffffffffffffffffffffffffffffffffff80610bb6611425565b1615610d8e57610bc4611425565b167fffffffffffffffffffffffff0000000000000000000000000000000000000000600954161760095561012435908115610d0b57608435928315610cae576101043590818410610c2c57506002556101443560035560e43590556005556006558060075580f35b517f08c379a0000000000000000000000000000000000000000000000000000000008152602081840152602760248201527f546f6b656e56657374696e673a206475726174696f6e206d757374206265203e60448201527f3d20636c696666000000000000000000000000000000000000000000000000006064820152608490fd5b90602060649251917f08c379a0000000000000000000000000000000000000000000000000000000008352820152602060248201527f546f6b656e56657374696e673a20616d6f756e74206d757374206265203e20306044820152fd5b60849060208451917f08c379a0000000000000000000000000000000000000000000000000000000008352820152602260248201527f546f6b656e56657374696e673a206475726174696f6e206d757374206265203e60448201527f20300000000000000000000000000000000000000000000000000000000000006064820152fd5b50602060649251917f08c379a0000000000000000000000000000000000000000000000000000000008352820152601c60248201527f76657374696e67436f6e74726163745f5a45524f5f41444452455353000000006044820152fd5b5090346101f65760c07ffffffffffffffffffffffffffffffffffffffffffffffffffffffffffffffffc3601126101f65780359067ffffffffffffffff82116103cf57610e3a91369101611378565b9190610e44611355565b9260643573ffffffffffffffffffffffffffffffffffffffff808216809203610a6057846003955196610e768861127e565b60443588526020880193845282828901956084358752602060608b019860a4358a5282865193849283378101600c81520301902091168952602052872095518655600186019151167fffffffffffffffffffffffff00000000000000000000000000000000000000008254161790555160028401555191015580f35b8382346103d357817ffffffffffffffffffffffffffffffffffffffffffffffffffffffffffffffffc3601126103d3576020906003549051908152f35b8382346103d357817ffffffffffffffffffffffffffffffffffffffffffffffffffffffffffffffffc3601126103d35760209073ffffffffffffffffffffffffffffffffffffffff600954169051908152f35b8382346103d357817ffffffffffffffffffffffffffffffffffffffffffffffffffffffffffffffffc3601126103d35760209067ffffffffffffffff600d54169051908152f35b8382346103d357817ffffffffffffffffffffffffffffffffffffffffffffffffffffffffffffffffc3601126103d3576020906002549051908152f35b8382346103d357817ffffffffffffffffffffffffffffffffffffffffffffffffffffffffffffffffc3601126103d3576020906005549051908152f35b8382346103d35760207ffffffffffffffffffffffffffffffffffffffffffffffffffffffffffffffffc3601126103d35760ff8160209373ffffffffffffffffffffffffffffffffffffffff61109761132d565b168152600b855220541690519015158152f35b9050833461084a57807ffffffffffffffffffffffffffffffffffffffffffffffffffffffffffffffffc36011261084a578060085491600183811c91818516948515611274575b60209889851087146112485750918391899388969587528487019790816000146111ed5750600114611177575b5050505091611152601f927fffffffffffffffffffffffffffffffffffffffffffffffffffffffffffffffe09403856112c9565b61116e855196879581875251928380928801528787019061130a565b01168101030190f35b929350600883527ff3f7a9fe364faab93b216da50a3214154f22a0a2b415b23a84c8169e8b636ee35b8284106111d75750505082010185827fffffffffffffffffffffffffffffffffffffffffffffffffffffffffffffffe0601f61111e565b80548885018601528795509284019281016111a0565b7fffffffffffffffffffffffffffffffffffffffffffffffffffffffffffffff00168852505050151560051b830101905085827fffffffffffffffffffffffffffffffffffffffffffffffffffffffffffffffe0601f61111e565b8260226024927f4e487b7100000000000000000000000000000000000000000000000000000000835252fd5b92607f16926110f1565b6080810190811067ffffffffffffffff82111761129a57604052565b7f4e487b7100000000000000000000000000000000000000000000000000000000600052604160045260246000fd5b90601f7fffffffffffffffffffffffffffffffffffffffffffffffffffffffffffffffe0910116810190811067ffffffffffffffff82111761129a57604052565b60005b83811061131d5750506000910152565b818101518382015260200161130d565b6004359073ffffffffffffffffffffffffffffffffffffffff8216820361135057565b600080fd5b6024359073ffffffffffffffffffffffffffffffffffffffff8216820361135057565b9181601f840112156113505782359167ffffffffffffffff8311611350576020838186019501011161135057565b73ffffffffffffffffffffffffffffffffffffffff6000541633036113c757565b60646040517f08c379a000000000000000000000000000000000000000000000000000000000815260206004820152602060248201527f4f776e61626c653a2063616c6c6572206973206e6f7420746865206f776e65726044820152fd5b60443573ffffffffffffffffffffffffffffffffffffffff811681036113505790565b90816020910312611350575180151581036113505790565b9190820391821161146d57565b7f4e487b7100000000000000000000000000000000000000000000000000000000600052601160045260246000fd5b6002600154146114ad576002600155565b60646040517f08c379a000000000000000000000000000000000000000000000000000000000815260206004820152601f60248201527f5265656e7472616e637947756172643a207265656e7472616e742063616c6c006044820152fd5b9190820180921161146d57565b90816020910312611350575160ff811681036113505790565b9060409181835192839283378101600c81526020928391030190209173ffffffffffffffffffffffffffffffffffffffff928360009516855282528084209080519061157c8261127e565b8254938483528560018501541692818101938452606060036002870154968584019788520154910152856009541690825196879482867f313ce567000000000000000000000000000000000000000000000000000000009586825260049b8c915afa9586156118e9578a966118c6575b509082915116928885518095819382525afa9283156118bd57509160ff929183928992611890575b50501691160360ff81116118645760ff16604d811161186457600a0a9182810292818404149015171561183857519081810291818304149015171561180c5781549260025493611664858261150b565b42116116f5575090919250600354918281029281840414901517156116c95767ffffffffffffffff600d541692831561169d5750500490565b9060126024927f4e487b7100000000000000000000000000000000000000000000000000000000835252fd5b806011847f4e487b71000000000000000000000000000000000000000000000000000000006024945252fd5b919360055492611705848261150b565b421061171357505050505090565b9061173061172a826117369499989596979961150b565b42611460565b94611460565b80156117e0578104928381029381850414901517156117b457600354908181029181830414901517156117b45767ffffffffffffffff600d54169182156117885750611785939450049061150b565b90565b806012877f4e487b71000000000000000000000000000000000000000000000000000000006024945252fd5b6024826011877f4e487b7100000000000000000000000000000000000000000000000000000000835252fd5b6024836012887f4e487b7100000000000000000000000000000000000000000000000000000000835252fd5b6024836011847f4e487b7100000000000000000000000000000000000000000000000000000000835252fd5b6024846011857f4e487b7100000000000000000000000000000000000000000000000000000000835252fd5b6024856011867f4e487b7100000000000000000000000000000000000000000000000000000000835252fd5b6118af9250803d106118b6575b6118a781836112c9565b810190611518565b3880611614565b503d61189d565b513d89823e3d90fd5b83929196506118e190833d85116118b6576118a781836112c9565b9590916115ec565b85513d8c823e3d90fdfea26469706673582212200a376d9adf227baab22f63a960c9fbd5ada775354dadfa19ea36d4d5c741ee4e64736f6c63430008110033",
  "linkReferences": {},
  "deployedLinkReferences": {}
}