{
  "_format": "hh-sol-artifact-1",
  "contractName": "Staking",
  "sourceName": "contracts/Staking.sol",
  "abi": [
    {
      "inputs": [
        {
          "internalType": "string",
          "name": "name_",
          "type": "string"
        },
        {
          "internalType": "address",
          "name": "tokenAddress_",
          "type": "address"
        }
      ],
      "stateMutability": "nonpayable",
      "type": "constructor"
    },
    {
      "anonymous": false,
      "inputs": [
        {
          "indexed": true,
          "internalType": "address",
          "name": "previousOwner",
          "type": "address"
        },
        {
          "indexed": true,
          "internalType": "address",
          "name": "newOwner",
          "type": "address"
        }
      ],
      "name": "OwnershipTransferred",
      "type": "event"
    },
    {
      "anonymous": false,
      "inputs": [
        {
          "indexed": true,
          "internalType": "address",
          "name": "token",
          "type": "address"
        },
        {
          "indexed": true,
          "internalType": "address",
          "name": "staker_",
          "type": "address"
        },
        {
          "indexed": false,
          "internalType": "uint256",
          "name": "amount_",
          "type": "uint256"
        },
        {
          "indexed": false,
          "internalType": "uint256",
          "name": "reward_",
          "type": "uint256"
        }
      ],
      "name": "PaidOut",
      "type": "event"
    },
    {
      "anonymous": false,
      "inputs": [
        {
          "indexed": false,
          "internalType": "uint64",
          "name": "index",
          "type": "uint64"
        },
        {
          "indexed": false,
          "internalType": "uint64",
          "name": "newRate",
          "type": "uint64"
        },
        {
          "indexed": false,
          "internalType": "uint256",
          "name": "lockDuration",
          "type": "uint256"
        },
        {
          "indexed": false,
          "internalType": "uint256",
          "name": "time",
          "type": "uint256"
        }
      ],
      "name": "RateAndLockduration",
      "type": "event"
    },
    {
      "anonymous": false,
      "inputs": [
        {
          "indexed": false,
          "internalType": "uint256",
          "name": "rewards",
          "type": "uint256"
        },
        {
          "indexed": false,
          "internalType": "uint256",
          "name": "time",
          "type": "uint256"
        }
      ],
      "name": "RewardsAdded",
      "type": "event"
    },
    {
      "anonymous": false,
      "inputs": [
        {
          "indexed": true,
          "internalType": "address",
          "name": "token",
          "type": "address"
        },
        {
          "indexed": true,
          "internalType": "address",
          "name": "staker_",
          "type": "address"
        },
        {
          "indexed": false,
          "internalType": "uint256",
          "name": "stakedAmount_",
          "type": "uint256"
        }
      ],
      "name": "Staked",
      "type": "event"
    },
    {
      "anonymous": false,
      "inputs": [
        {
          "indexed": false,
          "internalType": "bool",
          "name": "status",
          "type": "bool"
        },
        {
          "indexed": false,
          "internalType": "uint256",
          "name": "time",
          "type": "uint256"
        }
      ],
      "name": "StakingStopped",
      "type": "event"
    },
    {
      "inputs": [],
      "name": "ERC20Interface",
      "outputs": [
        {
          "internalType": "contract IERC20",
          "name": "",
          "type": "address"
        }
      ],
      "stateMutability": "view",
      "type": "function"
    },
    {
      "inputs": [
        {
          "internalType": "uint64",
          "name": "rate_",
          "type": "uint64"
        },
        {
          "internalType": "uint256",
          "name": "duration_",
          "type": "uint256"
        }
      ],
      "name": "addRateAndDuration",
      "outputs": [],
      "stateMutability": "nonpayable",
      "type": "function"
    },
    {
      "inputs": [
        {
          "internalType": "uint256",
          "name": "rewardAmount",
          "type": "uint256"
        }
      ],
      "name": "addReward",
      "outputs": [
        {
          "internalType": "bool",
          "name": "",
          "type": "bool"
        }
      ],
      "stateMutability": "nonpayable",
      "type": "function"
    },
    {
      "inputs": [
        {
          "internalType": "uint256",
          "name": "minAmount",
          "type": "uint256"
        },
        {
          "internalType": "uint256",
          "name": "maxAmount",
          "type": "uint256"
        },
        {
          "internalType": "uint64",
          "name": "percentLimit",
          "type": "uint64"
        },
        {
          "internalType": "uint256",
          "name": "duration",
          "type": "uint256"
        }
      ],
      "name": "addTier",
      "outputs": [],
      "stateMutability": "nonpayable",
      "type": "function"
    },
    {
      "inputs": [
        {
          "internalType": "uint64",
          "name": "durationIndex",
          "type": "uint64"
        },
        {
          "internalType": "address",
          "name": "from",
          "type": "address"
        }
      ],
      "name": "calculate",
      "outputs": [
        {
          "internalType": "uint256",
          "name": "",
          "type": "uint256"
        }
      ],
      "stateMutability": "view",
      "type": "function"
    },
    {
      "inputs": [
        {
          "internalType": "bool",
          "name": "_status",
          "type": "bool"
        }
      ],
      "name": "changeStakingStatus",
      "outputs": [],
      "stateMutability": "nonpayable",
      "type": "function"
    },
    {
      "inputs": [
        {
          "internalType": "uint64",
          "name": "",
          "type": "uint64"
        },
        {
          "internalType": "address",
          "name": "",
          "type": "address"
        }
      ],
      "name": "deposits",
      "outputs": [
        {
          "internalType": "uint256",
          "name": "depositAmount",
          "type": "uint256"
        },
        {
          "internalType": "uint256",
          "name": "depositTime",
          "type": "uint256"
        },
        {
          "internalType": "uint256",
          "name": "endTime",
          "type": "uint256"
        },
        {
          "internalType": "uint64",
          "name": "userIndex",
          "type": "uint64"
        },
        {
          "internalType": "uint256",
          "name": "rewards",
          "type": "uint256"
        },
        {
          "internalType": "bool",
          "name": "paid",
          "type": "bool"
        }
      ],
      "stateMutability": "view",
      "type": "function"
    },
    {
      "inputs": [
        {
          "internalType": "uint256",
          "name": "",
          "type": "uint256"
        }
      ],
      "name": "durations",
      "outputs": [
        {
          "internalType": "uint256",
          "name": "",
          "type": "uint256"
        }
      ],
      "stateMutability": "view",
      "type": "function"
    },
    {
      "inputs": [
        {
          "internalType": "uint64",
          "name": "durationIndex",
          "type": "uint64"
        }
      ],
      "name": "emergencyWithdraw",
      "outputs": [
        {
          "internalType": "bool",
          "name": "",
          "type": "bool"
        }
      ],
      "stateMutability": "nonpayable",
      "type": "function"
    },
    {
      "inputs": [
        {
          "internalType": "address",
          "name": "user",
          "type": "address"
        }
      ],
      "name": "getLimit",
      "outputs": [
        {
          "internalType": "uint64",
          "name": "",
          "type": "uint64"
        }
      ],
      "stateMutability": "view",
      "type": "function"
    },
    {
      "inputs": [
        {
          "internalType": "uint64",
          "name": "",
          "type": "uint64"
        }
      ],
      "name": "index",
      "outputs": [
        {
          "internalType": "uint64",
          "name": "",
          "type": "uint64"
        }
      ],
      "stateMutability": "view",
      "type": "function"
    },
    {
      "inputs": [],
      "name": "isStopped",
      "outputs": [
        {
          "internalType": "bool",
          "name": "",
          "type": "bool"
        }
      ],
      "stateMutability": "view",
      "type": "function"
    },
    {
      "inputs": [],
      "name": "name",
      "outputs": [
        {
          "internalType": "string",
          "name": "",
          "type": "string"
        }
      ],
      "stateMutability": "view",
      "type": "function"
    },
    {
      "inputs": [],
      "name": "owner",
      "outputs": [
        {
          "internalType": "address",
          "name": "",
          "type": "address"
        }
      ],
      "stateMutability": "view",
      "type": "function"
    },
    {
      "inputs": [
        {
          "internalType": "uint64",
          "name": "",
          "type": "uint64"
        },
        {
          "internalType": "uint64",
          "name": "",
          "type": "uint64"
        }
      ],
      "name": "rateAndDurations",
      "outputs": [
        {
          "internalType": "uint64",
          "name": "newInterestRate",
          "type": "uint64"
        },
        {
          "internalType": "uint256",
          "name": "timeStamp",
          "type": "uint256"
        },
        {
          "internalType": "uint256",
          "name": "duration",
          "type": "uint256"
        }
      ],
      "stateMutability": "view",
      "type": "function"
    },
    {
      "inputs": [],
      "name": "renounceOwnership",
      "outputs": [],
      "stateMutability": "nonpayable",
      "type": "function"
    },
    {
      "inputs": [],
      "name": "resetTier",
      "outputs": [],
      "stateMutability": "nonpayable",
      "type": "function"
    },
    {
      "inputs": [],
      "name": "rewardBalance",
      "outputs": [
        {
          "internalType": "uint256",
          "name": "",
          "type": "uint256"
        }
      ],
      "stateMutability": "view",
      "type": "function"
    },
    {
      "inputs": [
        {
          "internalType": "uint64",
          "name": "index_",
          "type": "uint64"
        },
        {
          "internalType": "uint64",
          "name": "rate_",
          "type": "uint64"
        }
      ],
      "name": "setRate",
      "outputs": [],
      "stateMutability": "nonpayable",
      "type": "function"
    },
    {
      "inputs": [
        {
          "internalType": "uint64",
          "name": "tierId",
          "type": "uint64"
        },
        {
          "internalType": "uint256",
          "name": "minAmount",
          "type": "uint256"
        },
        {
          "internalType": "uint256",
          "name": "maxAmount",
          "type": "uint256"
        },
        {
          "internalType": "uint64",
          "name": "percentLimit",
          "type": "uint64"
        },
        {
          "internalType": "uint256",
          "name": "duration",
          "type": "uint256"
        }
      ],
      "name": "setTier",
      "outputs": [],
      "stateMutability": "nonpayable",
      "type": "function"
    },
    {
      "inputs": [
        {
          "internalType": "uint64",
          "name": "durationIndex",
          "type": "uint64"
        },
        {
          "internalType": "uint256",
          "name": "amount",
          "type": "uint256"
        }
      ],
      "name": "stake",
      "outputs": [
        {
          "internalType": "bool",
          "name": "",
          "type": "bool"
        }
      ],
      "stateMutability": "nonpayable",
      "type": "function"
    },
    {
      "inputs": [],
      "name": "stakedBalance",
      "outputs": [
        {
          "internalType": "uint256",
          "name": "",
          "type": "uint256"
        }
      ],
      "stateMutability": "view",
      "type": "function"
    },
    {
      "inputs": [],
      "name": "stakedTotal",
      "outputs": [
        {
          "internalType": "uint256",
          "name": "",
          "type": "uint256"
        }
      ],
      "stateMutability": "view",
      "type": "function"
    },
    {
      "inputs": [],
      "name": "tierIds",
      "outputs": [
        {
          "internalType": "uint64",
          "name": "",
          "type": "uint64"
        }
      ],
      "stateMutability": "view",
      "type": "function"
    },
    {
      "inputs": [
        {
          "internalType": "uint64",
          "name": "",
          "type": "uint64"
        }
      ],
      "name": "tiers",
      "outputs": [
        {
          "internalType": "uint256",
          "name": "minAmount",
          "type": "uint256"
        },
        {
          "internalType": "uint256",
          "name": "maxAmount",
          "type": "uint256"
        },
        {
          "internalType": "uint64",
          "name": "percentLimit",
          "type": "uint64"
        },
        {
          "internalType": "uint256",
          "name": "duration",
          "type": "uint256"
        }
      ],
      "stateMutability": "view",
      "type": "function"
    },
    {
      "inputs": [],
      "name": "tokenAddress",
      "outputs": [
        {
          "internalType": "address",
          "name": "",
          "type": "address"
        }
      ],
      "stateMutability": "view",
      "type": "function"
    },
    {
      "inputs": [],
      "name": "totalParticipants",
      "outputs": [
        {
          "internalType": "uint256",
          "name": "",
          "type": "uint256"
        }
      ],
      "stateMutability": "view",
      "type": "function"
    },
    {
      "inputs": [],
      "name": "totalReward",
      "outputs": [
        {
          "internalType": "uint256",
          "name": "",
          "type": "uint256"
        }
      ],
      "stateMutability": "view",
      "type": "function"
    },
    {
      "inputs": [
        {
          "internalType": "address",
          "name": "newOwner",
          "type": "address"
        }
      ],
      "name": "transferOwnership",
      "outputs": [],
      "stateMutability": "nonpayable",
      "type": "function"
    },
    {
      "inputs": [],
      "name": "withdraw",
      "outputs": [],
      "stateMutability": "nonpayable",
      "type": "function"
    }
  ],
  "bytecode": "0x60806040523462000032575b6200002062000019620001fe565b90620005cb565b604051612f0762000b2b8239612f0790f35b6200003b600080fd5b6200000b565b600080fd5b50634e487b7160e01b600052604160045260246000fd5b90601f01601f191681019081106001600160401b038211176200007f57604052565b6200008962000046565b604052565b90620000a56200009d60405190565b92836200005d565b565b602090620000c8906001600160401b038111620000cc57601f01601f191690565b0190565b620000d662000046565b601f01601f191690565b60005b838110620000f45750506000910152565b8181015183820152602001620000e3565b929190620000a591620001226200011c83620000a7565b6200008e565b9482865260208601918382011115620000e0576200013e600080fd5b620000e0565b90620001639181601f8201121562000166575b60208151910162000105565b90565b6200016f600080fd5b62000157565b6001600160a01b031690565b6001600160a01b038116036200004157565b90505190620000a58262000181565b91906200016390604084820312620001ef575b8351620001d69082906001600160401b038111620001e0575b860162000144565b9360200162000193565b620001e9600080fd5b620001ce565b620001f8600080fd5b620001b5565b6200022162003a328038038062000215816200008e565b928339810190620001a2565b9091565b6200017562000163620001639290565b620001639062000225565b156200024857565b60405162461bcd60e51b81526020600482015260126024820152715a65726f20746f6b656e206164647265737360701b6044820152606490fd5b0390fd5b906001600160a01b03905b9181191691161790565b620001639062000175906001600160a01b031682565b62000163906200029b565b6200016390620002b1565b90620002db62000163620002e392620002bc565b825462000286565b9055565b6020906001600160401b038111620002fd570290565b6200030762000046565b0290565b6200011c6200016391620002e7565b6200016362000163620001639290565b6200033a62000163620001639290565b6001600160401b031690565b50634e487b7160e01b600052601160045260246000fd5b6001906001600160401b0390811690811462000377570190565b620000c862000346565b620001639081906001600160401b031681565b50634e487b7160e01b600052603260045260246000fd5b906020906004811015620003be57020190565b620003c862000394565b020190565b50634e487b7160e01b600052602260045260246000fd5b90600160028304921680156200040b575b60208310146200040157565b620000a5620003cd565b91607f1691620003f5565b9160001960089290920291821b911b62000291565b91906200044062000163620002e3936200031a565b90835462000416565b620000a5916000916200042b565b81811062000463575050565b8062000473600060019362000449565b0162000457565b9190601f81116200048a57505050565b6200049e620000a593600052602060002090565b906020601f840181900483019310620004c2575b6020601f90910104019062000457565b9091508190620004b2565b90620004d7815190565b906001600160401b038211620005af575b6200050082620004f98554620003e4565b856200047a565b602090601f83116001146200053f57620002e392916000918362000533575b5050600019600883021c1916906002021790565b0151905038806200051f565b601f198316916200055585600052602060002090565b9260005b81811062000596575091600293918560019694106200057c575b50505002019055565b01516000196008601f8516021c1916905538808062000573565b9193602060018192878701518155019501920162000559565b620005b962000046565b620004e8565b90620000a591620004cd565b90620005d66200079a565b6200060a60009162000602620005f0620001758562000235565b6001600160a01b038316141562000240565b6009620002c7565b6200061660046200030b565b926200062f6200062962278d006200031a565b83860152565b6200064862000641624f1a006200031a565b6020860152565b620006616200065a62ed4e006200031a565b6040860152565b6200067b62000674630163f5006200031a565b6060860152565b620007146200068b60046200030b565b92620006ab6200069c60646200032a565b6001600160401b031685830152565b620006cc620006bc61012c6200032a565b6001600160401b03166020860152565b620006ed620006dd6102bc6200032a565b6001600160401b03166040860152565b6200070e620006fe61044c6200032a565b6001600160401b03166060860152565b6200032a565b6004620007218262000381565b10156200078957806200077d620007586200074b62000744620007839562000381565b87620003ab565b516001600160401b031690565b62000776620007726200076b8562000381565b8a620003ab565b5190565b9062000a8f565b6200035d565b62000714565b50925050620000a5906001620005bf565b620000a533620007bc565b620001639062000175565b620001639054620007a5565b620007c86000620007b0565b90620007d6816000620002c7565b6200080d620008067f8be0079c531659141344cd1fd0a4f28419497f9722a3daafe3b4186f6b6457e093620002bc565b91620002bc565b916200081860405190565b600090a3565b90620000a5916200082e62000aed565b620009f2565b156200083c57565b60405162461bcd60e51b81526020600482015260126024820152715a65726f20696e746572657374207261746560701b6044820152606490fd5b6200016360606200008e565b62000163906200033a906001600160401b031682565b90620008a49062000882565b600052602052604060002090565b90620008a4906200032a565b906001600160401b039062000291565b90620008e262000163620002e39262000882565b8254620008be565b906000199062000291565b906200090962000163620002e3926200031a565b8254620008ea565b620000a59190620009549060409060029062000940816200093987516001600160401b031690565b90620008ce565b6200095b6001820162000954602088015190565b90620008f5565b0192015190565b90620000a59162000911565b620009916001916200097e815490565b8410156200099a57600052602060002090565b91020190600090565b620009a462000394565b600052602060002090565b90620009db620000a59280549068010000000000000000821015620009e2575b6001820181556200096e565b906200042b565b620009ec62000046565b620009cf565b9062000a89620000a5926200016360009162000a2462000a12846200032a565b6001600160401b038316141562000834565b62000a4f4262000a4862000a3762000876565b6001600160401b0390941686850152565b6020830152565b62000a5b856040830152565b62000a8360039362000a7d60089562000a766200070e885490565b9062000898565b620008b2565b62000962565b620009af565b90620000a5916200081e565b1562000aa357565b60405162461bcd60e51b81528062000282600482016020808252818101527f4f776e61626c653a2063616c6c6572206973206e6f7420746865206f776e6572604082015260600190565b620000a562000afb62000b1e565b62000b1762000b0a3362000175565b916001600160a01b031690565b1462000a9b565b620001636000620007b056fe60806040526004361015610018575b610016600080fd5b005b60003560e01c806306fdde03146102705780631bbc4b83146102675780631ce28e721461025e5780633ccfd60b146102555780633f683b6a1461024c57806345a0aa55146102435780634e5c92dc1461023a5780635b9f001614610231578063694d303d14610228578063715018a61461021f57806374de4ec414610216578063750142e61461020d578063857f9a06146102045780638da5cb5b146101fb5780639946e341146101f25780639b7c7725146101e95780639d76ea58146101e0578063a26dbf26146101d7578063aa5c3ab4146101ce578063bc20a7af146101c5578063bd18b207146101bc578063c5cdcf90146101b3578063cf9b60b2146101aa578063d1d976e9146101a1578063d66692a714610198578063ddd31a871461018f578063ee53529114610186578063efefd46e1461017d578063f2fde38b146101745763f341dba40361000e5761016f610fba565b61000e565b5061016f610f7c565b5061016f610f51565b5061016f610f26565b5061016f610efb565b5061016f610e87565b5061016f610e54565b5061016f610e14565b5061016f610d81565b5061016f610d56565b5061016f610cd2565b5061016f610c2b565b5061016f610bf5565b5061016f610bbf565b5061016f610b6f565b5061016f610a46565b5061016f6109de565b5061016f61098b565b5061016f61087a565b5061016f610844565b5061016f610800565b5061016f6107d8565b5061016f610759565b5061016f61070d565b5061016f6106a9565b5061016f610640565b5061016f6105ee565b5061016f6105a9565b5061016f610539565b5061016f610474565b600080fd5b600091031261028957565b610291600080fd5b565b50634e487b7160e01b600052600060045260246000fd5b50634e487b7160e01b600052602260045260246000fd5b90600160028304921680156102e4575b60208310146102dc57565b6102916102aa565b91607f16916102d1565b8054600093929161030b610301836102c1565b8085529360200190565b916001811690811561035d575060011461032457505050565b6103379192939450600052602060002090565b916000925b8184106103495750500190565b80548484015260209093019260010161033c565b92949550505060ff1916825215156020020190565b9061037c916102ee565b90565b601f01601f191690565b50634e487b7160e01b600052604160045260246000fd5b90601f01601f1916810190811067ffffffffffffffff8211176103c257604052565b6103ca610389565b604052565b906102916103e9926103e060405190565b93848092610372565b03836103a0565b61037c91156103cf57610401610293565b6103cf565b61037c600060016103f0565b60005b8381106104255750506000910152565b8181015183820152602001610415565b61045661037f60209361045f9361044a815190565b80835293849260200190565b95869101610412565b0190565b602080825261037c92910190610435565b50346104a1575b61048636600461027e565b61049d610491610406565b60405191829182610463565b0390f35b6104a9600080fd5b61047b565b61037c916008021c5b73ffffffffffffffffffffffffffffffffffffffff1690565b9061037c91546104ae565b61037c6001600f6104d0565b6104b761037c61037c9273ffffffffffffffffffffffffffffffffffffffff1690565b61037c906104e7565b61037c9061050a565b61052590610513565b9052565b602081019291610291919061051c565b5034610562575b61054b36600461027e565b61049d6105566104db565b60405191829182610529565b61056a600080fd5b610540565b610578816104b7565b0361027957565b905035906102918261056f565b9061037c916020818303121561057f576105a4600080fd5b61057f565b50346105e1575b61049d6105c66105c136600461058c565b612d61565b6040519182918267ffffffffffffffff909116815260200190565b6105e9600080fd5b6105b0565b503461060d575b61060036600461027e565b610608612043565b604051005b610615600080fd5b6105f5565b61037c916008021c5b60ff1690565b9061037c915461061a565b61037c6000600f610629565b503461066f575b61065236600461027e565b61049d61065d610634565b60405191829182901515815260200190565b610677600080fd5b610647565b61037c916008021c5b67ffffffffffffffff1690565b9061037c915461067c565b61037c60006006610692565b50346106c6575b6106bb36600461027e565b61049d6105c661069d565b6106ce600080fd5b6106b0565b67ffffffffffffffff8116610578565b90503590610291826106d3565b9061037c91602081830312156106e357610708600080fd5b6106e3565b503461072a575b61049d61065d6107253660046106f0565b612341565b610732600080fd5b610714565b61037c916008021c81565b9061037c9154610737565b61037c6000600a610742565b5034610787575b61076b36600461027e565b61049d61077661074d565b6040515b9182918290815260200190565b61078f600080fd5b610760565b80610578565b9050359061029182610794565b919061037c906040848203126107cb575b6107c281856106e3565b9360200161079a565b6107d3600080fd5b6107b8565b50346107f3575b6106086107ed3660046107a7565b90611436565b6107fb600080fd5b6107df565b503461081a575b61081236600461027e565b610608611039565b610822600080fd5b610807565b9061037c916020818303121561079a5761083f600080fd5b61079a565b5034610861575b61049d61065d61085c366004610827565b611a00565b610869600080fd5b61084b565b61037c6000600d610742565b5034610897575b61088c36600461027e565b61049d61077661086e565b61089f600080fd5b610881565b919061037c906040848203126108c8575b6108bf81856106e3565b936020016106e3565b6108d0600080fd5b6108b5565b61068561037c61037c9267ffffffffffffffff1690565b906108f6906108d5565b600052602052604060002090565b61037c90610685565b61037c9054610904565b61037c9081565b61037c9054610917565b9061093761093c9260036108ec565b6108ec565b6109458161090d565b9161037c60026109576001850161091e565b930161091e565b67ffffffffffffffff9091168152606081019392610291929091604091610987905b6020830152565b0152565b50346109b8575b61049d6109a96109a33660046108a4565b90610928565b6040519193919384938461095e565b6109c0600080fd5b610992565b610525906104b7565b60208101929161029191906109c5565b5034610a07575b6109f036600461027e565b61049d6109fb610ff7565b604051918291826109ce565b610a0f600080fd5b6109e5565b801515610578565b9050359061029182610a14565b9061037c9160208183031215610a1c57610a41600080fd5b610a1c565b5034610a60575b610608610a5b366004610a29565b6116a0565b610a68600080fd5b610a4d565b919061037c90604084820312610a91575b610a8881856106e3565b9360200161057f565b610a99600080fd5b610a7e565b906108f690610513565b61037c90610623565b61037c9054610aa8565b90610aca610acf9260026108ec565b610a9e565b90610ad98261091e565b91610ae66001820161091e565b91610af36002830161091e565b91610b006003820161090d565b9161037c6005610b126004850161091e565b9301610ab1565b9194610b60610b6792989795610b4f60a096610b486102919a610b4160c08a019e60008b0152565b6020890152565b6040870152565b67ffffffffffffffff166060850152565b6080830152565b019015159052565b5034610ba6575b61049d610b8d610b87366004610a6d565b90610abb565b92610b9d96949692919260405190565b96879687610b19565b610bae600080fd5b610b76565b61037c600060096104d0565b5034610bdc575b610bd136600461027e565b61049d6109fb610bb3565b610be4600080fd5b610bc6565b61037c6000600e610742565b5034610c12575b610c0736600461027e565b61049d610776610be9565b610c1a600080fd5b610bfc565b61037c6000600b610742565b5034610c48575b610c3d36600461027e565b61049d610776610c1f565b610c50600080fd5b610c32565b50634e487b7160e01b600052603260045260246000fd5b610c8c600191610c7a815490565b841015610c9557600052602060002090565b91020190600090565b610c9d610c55565b600052602060002090565b60086000610cb4825490565b831015610ccf575061037c91610cc991610c6c565b90610742565b80fd5b5034610cef575b61049d610776610cea366004610827565b610ca8565b610cf7600080fd5b610cd9565b919060a083820312610d49575b610d1381846106e3565b92610d21826020830161079a565b9261037c610d32846040850161079a565b93610d4081606086016106e3565b9360800161079a565b610d51600080fd5b610d09565b5034610d74575b610608610d6b366004610cfc565b93929092612d34565b610d7c600080fd5b610d5d565b5034610d9c575b610608610d963660046108a4565b9061160d565b610da4600080fd5b610d88565b610db49060076108ec565b90610dbe8261091e565b91610dcb6001820161091e565b9161037c60036109576002850161090d565b61098761029194610e03606094989795610dfc608086019a6000870152565b6020850152565b67ffffffffffffffff166040830152565b5034610e47575b61049d610e31610e2c3660046106f0565b610da9565b90610e3e94929460405190565b94859485610ddd565b610e4f600080fd5b610e1b565b5034610e6e575b610e6636600461027e565b610608612d59565b610e76600080fd5b610e5b565b61037c6000600c610742565b5034610ea4575b610e9936600461027e565b61049d610776610e7b565b610eac600080fd5b610e8e565b608081830312610eee575b610ec6828261079a565b9261037c610ed7846020850161079a565b93610ee581604086016106e3565b9360600161079a565b610ef6600080fd5b610ebc565b5034610f19575b610608610f10366004610eb1565b92919091612cd5565b610f21600080fd5b610f02565b5034610f44575b61049d61065d610f3e3660046107a7565b90611b3a565b610f4c600080fd5b610f2d565b5034610f6f575b61049d610776610f69366004610a6d565b90612464565b610f77600080fd5b610f58565b5034610f96575b610608610f9136600461058c565b611164565b610f9e600080fd5b610f83565b61037c90610fb56004916000926108ec565b610692565b5034610fd7575b61049d6105c6610fd23660046106f0565b610fa3565b610fdf600080fd5b610fc1565b61037c906104b7565b61037c9054610fe4565b61037c6000610fed565b611009611095565b610291611027565b6104b761037c61037c9290565b61037c90611011565b610291611034600061101e565b6111aa565b610291611001565b1561104857565b60405162461bcd60e51b815280611091600482016020808252818101527f4f776e61626c653a2063616c6c6572206973206e6f7420746865206f776e6572604082015260600190565b0390fd5b6102916110a0610ff7565b6110b76110b1336104b7565b6104b7565b916104b7565b14611041565b610291906110c9611095565b611140565b156110d557565b60405162461bcd60e51b815260206004820152602660248201527f4f776e61626c653a206e6577206f776e657220697320746865207a65726f206160448201527f64647265737300000000000000000000000000000000000000000000000000006064820152608490fd5b610291906110346111546110ac600061101e565b61115d836104b7565b14156110ce565b610291906110bd565b9073ffffffffffffffffffffffffffffffffffffffff905b9181191691161790565b9061119f61037c6111a692610513565b825461116d565b9055565b6111b46000610fed565b906111c081600061118f565b6111f36111ed7f8be0079c531659141344cd1fd0a4f28419497f9722a3daafe3b4186f6b6457e093610513565b91610513565b916111fd60405190565b600090a3565b9061029191611210611095565b6113ad565b61068561037c61037c9290565b1561122957565b60405162461bcd60e51b815260206004820152601260248201527f5a65726f20696e746572657374207261746500000000000000000000000000006044820152606490fd5b9061029161127b60405190565b92836103a0565b61037c606061126e565b906108f690611215565b9067ffffffffffffffff90611185565b906112b661037c6111a6926108d5565b8254611296565b9060001990611185565b61037c61037c61037c9290565b906112e461037c6111a6926112c7565b82546112bd565b61029191906113289060409060029061131681611310875167ffffffffffffffff1690565b906112a6565b61132e60018201611328602088015190565b906112d4565b0192015190565b90610291916112eb565b91906008611185910291611354600019841b90565b921b90565b919061136a61037c6111a6936112c7565b90835461133f565b9061139a61029192805490680100000000000000008210156113a0575b600182018155610c6c565b90611359565b6113a8610389565b61138f565b906114316102919261037c6000916113d96113c784611215565b67ffffffffffffffff83161415611222565b6113fa426109806113e8611282565b67ffffffffffffffff90941686850152565b611405856040830152565b61142c60039361142760089561142161141c885490565b611215565b906108ec565b61128c565b611335565b611372565b9061029191611203565b906102919161144d611095565b6114d4565b50634e487b7160e01b600052601160045260246000fd5b60019067ffffffffffffffff1667ffffffffffffffff8114611489570190565b61045f611452565b610987610291946114cd6060949897956114bc608086019a600087019067ffffffffffffffff169052565b67ffffffffffffffff166020850152565b6040830152565b906000906114e182611215565b67ffffffffffffffff821614156114f790611222565b60039261150481856108ec565b9060049161151282846108ec565b61151b9061090d565b611524916108ec565b6002016115309061091e565b9361153b82846108ec565b6115448161090d565b61154d90611469565b611556916112a6565b429584611561611282565b92830190611578919067ffffffffffffffff169052565b611583876020840152565b8261158f876040850152565b611598916108ec565b6115a283856108ec565b6115ab9061090d565b6115b4916108ec565b906115be91611335565b6115c7916108ec565b6115d09061090d565b7fcef8b5fd0fe8d4a25244c395e72076a1d6a1b552c7116e90af6f8b2d7f61aeb0936115fb60405190565b9384936116089385611491565b0390a1565b9061029191611440565b61029190611623611095565b61165d565b9060ff90611185565b9061164161037c6111a692151590565b8254611628565b90151581526040810192916102919160200152565b61166881600f611631565b427f36e3f34a0ee7e675c6e4fb54887d109037e69fb0e40bffc3b86a4887960a019b9161160861169760405190565b92839283611648565b61029190611617565b156116b057565b60405162461bcd60e51b815260206004820152600c60248201527f5a65726f206164647265737300000000000000000000000000000000000000006044820152606490fd5b9061037c916117153361170e6110b16110ac600061101e565b14156116a9565b611832565b9074ffffffffffffffffffffffffffffffffffffffff009060081b611185565b9061174a61037c6111a692610513565b825461171a565b61037c9060081c6104b7565b61037c9054611751565b9050519061029182610794565b9061037c91602081830312156117675761178c600080fd5b611767565b9160206102919294936117ac604082019660008301906109c5565b01906109c5565b506040513d6000823e3d90fd5b156117c757565b60405162461bcd60e51b815260206004820152602160248201527f4d616b65207375726520746f2061646420656e6f75676820616c6c6f77616e6360448201527f65000000000000000000000000000000000000000000000000000000000000006064820152608490fd5b9061037c916118c16118b83361185a61185361184e6009610fed565b610513565b600f61173a565b602061186961184e600f61175d565b9163dd62ed3e9261189661187c30610513565b946118a161188960405190565b9687958694859460e01b90565b845260048401611791565b03915afa9081156118ee575b6000916118c6575090565b835b11156117c0565b61195a565b61037c915060203d81116118e7575b6118df81836103a0565b810190611774565b503d6118d5565b6118f66117b3565b6118ad565b1561190257565b60405162461bcd60e51b815260206004820152601760248201527f526577617264206d75737420626520706f7369746976650000000000000000006044820152606490fd5b9081526040810192916102919160200152565b506000611970611969826112c7565b83116118fb565b61198d61198683611981600d61091e565b611a20565b600d6112d4565b6119a561199e83611981600b61091e565b600b6112d4565b6119b66119b283336126e3565b1590565b6119fb5750427f40df43107e8b4d467127964bd3c966687c0a6a39aaede970755397fd09535e98916119f36119ea60405190565b92839283611947565b0390a1600190565b905090565b61037c9060006116f5565b91908201809211611a1857565b610291611452565b61037c9190611a0b565b9061037c9291611a443361170e6110b16110ac600061101e565b9061037c9291611a67611a613361185a61185361184e6009610fed565b846118ba565b611b04565b15611a7357565b60405162461bcd60e51b815260206004820152601460248201527f43616e2774207374616b65203020616d6f756e740000000000000000000000006044820152606490fd5b15611abf57565b60405162461bcd60e51b815260206004820152600e60248201527f5374616b696e67207061757365640000000000000000000000000000000000006044820152606490fd5b5061037c9190611b1e611b1760006112c7565b8311611a6c565b611b33611b2e6119b2600f610ab1565b611ab8565b3390611c94565b61037c91906000611a2a565b15611b4d57565b60405162461bcd60e51b815260206004820152602d60248201527f4c6f636b20657870697265642c20706c6561736520776974686472617720616e60448201527f64207374616b6520616761696e000000000000000000000000000000000000006064820152608490fd5b61037c60c061126e565b6102919190611c389060a090600590611bdd81611328875190565b611bef60018201611328602088015190565b611c0160028201611328604088015190565b611c1d60038201611310606088015167ffffffffffffffff1690565b611c2f60048201611328608088015190565b01920151151590565b90611631565b9061029191611bc2565b15611c4f57565b60405162461bcd60e51b815260206004820152600e60248201527f5061796d656e74206661696c65640000000000000000000000000000000000006044820152606490fd5b816005611cac6119b2611ca78484610a9e565b610ab1565b15611e235790611d6f611d28611d6a83610aca611d8f97611cdc611d8898611cd76001998a92610a9e565b611631565b611d638b611d4742611d36611cfe611cf8610cc9886008610c6c565b83611a20565b611d2f611d14611d0f8960046108ec565b61090d565b9360009c8d97611d22611bb8565b9e8f0152565b60208d0152565b60408b0152565b67ffffffffffffffff166060890152565b611d5a611d53826112c7565b6080890152565b151560a0870152565b60026108ec565b611c3e565b611d82611d7c600e61091e565b916112c7565b90611a20565b600e6112d4565b611da7611da083611981600a61091e565b600a6112d4565b611dbf611db883611981600c61091e565b600c6112d4565b611dd1611dcc83836126e3565b611c48565b611ddb6009610fed565b611e1b611e11611e0b7f5dac0c1b1112564a045ba943c9d50270893e8e826c49be8e7073adc713ab7bd793610513565b93610513565b9361077a60405190565b0390a3600190565b5042916002908183611e3583836108ec565b90611e3f91610a9e565b01611e499061091e565b8410611e5490611b46565b8583611e6083856108ec565b90611e6a91610a9e565b611e739061091e565b90611e7d91611a20565b93611e898185846124a2565b84611e9484866108ec565b90611e9e91610a9e565b600401611eaa9061091e565b611eb391611a20565b611ebe836008610c6c565b611ec791610742565b611ed19083611a20565b611edc8460046108ec565b611ee59061090d565b90600093611ef1611bb8565b98611efc90868b0152565b6020890152604088015267ffffffffffffffff1660608701526080860152151560a0850152611f2a916108ec565b90611f3491610a9e565b90611f3e91611c3e565b611d8f565b611f573361170e6110b16110ac600061101e565b610291611fc2565b15611f6657565b60405162461bcd60e51b815260206004820152601860248201527f4e6f207374616b657320666f756e6420666f72207573657200000000000000006044820152606490fd5b61037c61037c61037c9267ffffffffffffffff1690565b33611fd9611fd4611ca7836005610a9e565b611f5f565b600090611fe582611215565b611ff161037c60085490565b611ffa82611fab565b101561203e576120299061200f4284836124a2565b61201f61201b866112c7565b9190565b1161202e57611469565b611fe5565b612038838261212f565b50611469565b505050565b610291611f43565b1561205257565b60405162461bcd60e51b815260206004820152601060248201527f416c72656164792070616964206f7574000000000000000000000000000000006044820152606490fd5b1561209e57565b60405162461bcd60e51b815260206004820152601b60248201527f52657175657374696e67206265666f7265206c6f636b2074696d6500000000006044820152606490fd5b156120ea57565b60405162461bcd60e51b815260206004820152601260248201527f4e6f7420656e6f756768207265776172647300000000000000000000000000006044820152606490fd5b600261218561213e83836108ec565b61215f61215a6119b26005612154338096610a9e565b01610ab1565b61204b565b61217e61201b61037c856121784295610aca8a846108ec565b0161091e565b1015612097565b6121b76121a461219d8361217887610aca88846108ec565b85856124a2565b611d82600461217887610aca88886108ec565b926122276121ce600061217884610aca88886108ec565b926121e76121df61037c600b61091e565b8711156120e3565b6121fd611da0856121f8600a61091e565b6122d3565b61220e61199e876121f8600b61091e565b600561222184610aca60019889956108ec565b01611631565b60009361223985611cd7846005610a9e565b612258611d88612249600e61091e565b612252876112c7565b906122d3565b61226b6122658285611a20565b83612b8c565b612276575050505090565b90919293506122856009610fed565b906122b3611e0b7f85ab59351da11b79336de7647172267c33bf533ee87d9d292441c2672177159b93610513565b936122c06119ea60405190565b0390a390565b91908203918211611a1857565b61037c91906122c6565b9061037c916122f63361170e6110b16110ac600061101e565b5061037c90339061233c61215a6119b26005612318611fd4611ca78884610a9e565b61215486610aca8760026109374261217e61201b61037c856121788a8a8a846108ec565b6123b7565b61037c9060006122dd565b1561235357565b60405162461bcd60e51b815260206004820152600c60248201527f4572726f7220706179696e6700000000000000000000000000000000000000006044820152606490fd5b610525906112c7565b9081526040810192916102919160200190612398565b906002906123e36123d1600061217884610aca88886108ec565b9261220e611da0856121f8600a61091e565b60006123f481611cd7846005610a9e565b612404611d88612249600e61091e565b6124166124118484612b8c565b61234c565b6124206009610fed565b9061244e611e0b7f85ab59351da11b79336de7647172267c33bf533ee87d9d292441c2672177159b93610513565b936122c061245b60405190565b928392836123a1565b61037c9161247b600261217883610aca86846108ec565b916124a2565b67ffffffffffffffff9081169116019067ffffffffffffffff8211611a1857565b90919060006124b86119b2611ca7866005610a9e565b612681576002926124d2600061217887610aca87896108ec565b936124e6600161217888610aca88866108ec565b9161251a61250360036124fd8a610aca8a886108ec565b0161090d565b96936121f881946121788a989b610aca8b846108ec565b955b61252d610685611d0f8860046108ec565b67ffffffffffffffff8216101561267b57600361217861256a61037c6125538a856108ec565b600193849161142161256484611215565b89612481565b8410156125e4575050505b808210612586575b50505050505090565b6125d9965060006124fd6125c7956109376125b46125d399976125af6125c1986125bc986122d3565b6126a2565b9660036108ec565b611fab565b906126a2565b916125c16127106112c7565b906126d9565b38808080808061257d565b859950806121786126588a61264b6126518e6125d36125c78b9f9d9a9e8f906125af906125c16126769f6126709f61266a9f6125bc926109378e61264b6000956121f86124fd966121786126398f87906108ec565b61142161264584611215565b8a612481565b996108ec565b809f611a20565b61142161266484611215565b8b612481565b93611469565b94611469565b61251c565b50612575565b5050505061037c60006112c7565b81810292918115918404141715611a1857565b61037c919061268f565b50634e487b7160e01b600052601260045260246000fd5b81156126cd570490565b6126d56126ac565b0490565b61037c91906126c3565b61037c91906126f130610513565b9061278c565b9061037c93929161270e61185361184e6009610fed565b61276161275b6118a1602061272661184e600f61175d565b63dd62ed3e9061274f61273830610513565b9261274260405190565b9586948593849360e01b90565b83528b60048401611791565b856118ba565b5061278792919061277861185361184e6009610fed565b612782600f61175d565b612801565b600190565b61037c92919060006126f7565b6127b26127ac61037c9263ffffffff1690565b60e01b90565b7fffffffff000000000000000000000000000000000000000000000000000000001690565b60409061098761029194969593966127f7606084019860008501906109c5565b60208301906109c5565b90612846906128376102919560049561281d6323b872dd612799565b9361282760405190565b97889560208701908152016127d7565b602082018103825203836103a0565b612960565b61045f60209167ffffffffffffffff811161286a57601f01601f191690565b61037f610389565b9061288461287f8361284b565b61126e565b918252565b6128936020612872565b7f5361666545524332303a206c6f772d6c6576656c2063616c6c206661696c6564602082015290565b61037c612889565b9050519061029182610a14565b9061037c91602081830312156128c4576128e9600080fd5b6128c4565b156128f557565b60405162461bcd60e51b815260206004820152602a60248201527f5361666545524332303a204552433230206f7065726174696f6e20646964206e60448201527f6f742073756363656564000000000000000000000000000000000000000000006064820152608490fd5b6102919161297061297f92610513565b906129796128bc565b916129bd565b805161298e61201b60006112c7565b1490811561299d575b506128ee565b6129b7915060206129ac825190565b8183010191016128d1565b38612997565b61037c92916129cc60006112c7565b91612a63565b156129d957565b60405162461bcd60e51b815260206004820152602660248201527f416464726573733a20696e73756666696369656e742062616c616e636520666f60448201527f722063616c6c00000000000000000000000000000000000000000000000000006064820152608490fd5b3d15612a5e57612a533d612872565b903d6000602084013e565b606090565b90600061037c94938192612a75606090565b50612a8c612a8230610513565b83903110156129d2565b60208101905191855af1612a9e612a44565b91612af0565b15612aab57565b60405162461bcd60e51b815260206004820152601d60248201527f416464726573733a2063616c6c20746f206e6f6e2d636f6e74726163740000006044820152606490fd5b919260609115612b255750508151612b0b61201b60006112c7565b14612b14575090565b612b2061037c91612b32565b612aa4565b9093926102919250612b44565b3b612b4061201b60006112c7565b1190565b9150612b4e825190565b612b5b61201b60006112c7565b1115612b6a5750805190602001fd5b61109190612b7760405190565b91829162461bcd60e51b835260048301610463565b6127879190612ba161185361184e6009610fed565b612bab600f61175d565b612bcb565b916020610291929493610987604082019660008301906109c5565b61284660049261283761029195612be563a9059cbb612799565b92612bef60405190565b9687946020860190815201612bb0565b90610291939291612c0e611095565b612c6e565b61037c608061126e565b610291919061132890606090600390612c368185875190565b612c4860018201611328602088015190565b61132e60028201611310604088015167ffffffffffffffff1690565b9061029191612c1d565b9192612ca661029194612c95612cad94612c8e612c89612c13565b978852565b6020870152565b67ffffffffffffffff166040850152565b6060830152565b612cd06007612cbc600661090d565b90610937612cc983611469565b60066112a6565b612c64565b90610291939291612bff565b9061029194939291612cf1611095565b909261029194612d26612d2d92612d15612cd096610b41612d10612c13565b998a52565b67ffffffffffffffff166040870152565b6060850152565b60076108ec565b9061029194939291612ce1565b612d49611095565b610291610291612cc96000611215565b610291612d41565b906000612d6d81611215565b90815b6008612d7d61037c825490565b612d8683611fab565b1015612ec9576002612da08461217889610aca87866108ec565b612dac61201b866112c7565b11612dc2575b5050612dbd90611469565b612d70565b939094612dd0849394611215565b612ddd610685600661090d565b67ffffffffffffffff82161015612eba5785600788612e1461201b61037c610cc98b612e0e60036121788b8a6108ec565b95610c6c565b1487878c83612e8e575b83612e5a575b505050612e3c575b5050612e3790611469565b612dd0565b829450906124fd612e3793612e50936108ec565b9290508538612e2c565b612e8492935061201b9161217861037c92610aca612e7d60016121788d8c6108ec565b978a6108ec565b101587878c612e24565b612eb09293508161217861037c92610aca612e7d61201b966121788d8c6108ec565b111587878c612e1e565b509450925090612dbd38612db2565b50919350505056fea26469706673582212201eb3f6fe9e57912a749715528883e824e3f01f0b14135e3ab28f9d32cd9b7f4d64736f6c63430008110033",
  "linkReferences": {},
  "deployedLinkReferences": {}
}