{
  "_format": "hh-sol-artifact-1",
  "contractName": "Staking",
  "sourceName": "contracts/Staking.sol",
  "abi": [
    {
      "inputs": [
        {
          "internalType": "address",
          "name": "owner_",
          "type": "address"
        },
        {
          "internalType": "string",
          "name": "name_",
          "type": "string"
        },
        {
          "internalType": "address",
          "name": "stakeTokenAddr_",
          "type": "address"
        },
        {
          "internalType": "address",
          "name": "rewardTokenAddr_",
          "type": "address"
        },
        {
          "internalType": "uint256[]",
          "name": "durations_",
          "type": "uint256[]"
        },
        {
          "internalType": "uint64[]",
          "name": "rates_",
          "type": "uint64[]"
        }
      ],
      "stateMutability": "nonpayable",
      "type": "constructor"
    },
    {
      "anonymous": false,
      "inputs": [
        {
          "indexed": true,
          "internalType": "address",
          "name": "previousOwner",
          "type": "address"
        },
        {
          "indexed": true,
          "internalType": "address",
          "name": "newOwner",
          "type": "address"
        }
      ],
      "name": "OwnershipTransferred",
      "type": "event"
    },
    {
      "anonymous": false,
      "inputs": [
        {
          "indexed": true,
          "internalType": "address",
          "name": "token",
          "type": "address"
        },
        {
          "indexed": true,
          "internalType": "address",
          "name": "staker",
          "type": "address"
        },
        {
          "indexed": false,
          "internalType": "uint256",
          "name": "amount",
          "type": "uint256"
        },
        {
          "indexed": false,
          "internalType": "uint256",
          "name": "reward",
          "type": "uint256"
        }
      ],
      "name": "PaidOut",
      "type": "event"
    },
    {
      "anonymous": false,
      "inputs": [
        {
          "indexed": false,
          "internalType": "uint64",
          "name": "index",
          "type": "uint64"
        },
        {
          "indexed": false,
          "internalType": "uint64",
          "name": "newRate",
          "type": "uint64"
        },
        {
          "indexed": false,
          "internalType": "uint256",
          "name": "lockDuration",
          "type": "uint256"
        },
        {
          "indexed": false,
          "internalType": "uint256",
          "name": "time",
          "type": "uint256"
        }
      ],
      "name": "RateAndLockduration",
      "type": "event"
    },
    {
      "anonymous": false,
      "inputs": [
        {
          "indexed": false,
          "internalType": "uint256",
          "name": "rewards",
          "type": "uint256"
        },
        {
          "indexed": false,
          "internalType": "uint256",
          "name": "time",
          "type": "uint256"
        }
      ],
      "name": "RewardsAdded",
      "type": "event"
    },
    {
      "anonymous": false,
      "inputs": [
        {
          "indexed": true,
          "internalType": "address",
          "name": "token",
          "type": "address"
        },
        {
          "indexed": true,
          "internalType": "address",
          "name": "staker",
          "type": "address"
        },
        {
          "indexed": false,
          "internalType": "uint256",
          "name": "stakedAmount",
          "type": "uint256"
        },
        {
          "indexed": false,
          "internalType": "uint256",
          "name": "duration",
          "type": "uint256"
        }
      ],
      "name": "Staked",
      "type": "event"
    },
    {
      "anonymous": false,
      "inputs": [
        {
          "indexed": false,
          "internalType": "bool",
          "name": "status",
          "type": "bool"
        },
        {
          "indexed": false,
          "internalType": "uint256",
          "name": "time",
          "type": "uint256"
        }
      ],
      "name": "StakingStopped",
      "type": "event"
    },
    {
      "inputs": [],
      "name": "ERC20Interface",
      "outputs": [
        {
          "internalType": "contract IERC20",
          "name": "",
          "type": "address"
        }
      ],
      "stateMutability": "view",
      "type": "function"
    },
    {
      "inputs": [
        {
          "internalType": "uint64",
          "name": "rate_",
          "type": "uint64"
        },
        {
          "internalType": "uint256",
          "name": "duration_",
          "type": "uint256"
        }
      ],
      "name": "addRateAndDuration",
      "outputs": [],
      "stateMutability": "nonpayable",
      "type": "function"
    },
    {
      "inputs": [
        {
          "internalType": "uint256",
          "name": "rewardAmount",
          "type": "uint256"
        }
      ],
      "name": "addReward",
      "outputs": [
        {
          "internalType": "bool",
          "name": "",
          "type": "bool"
        }
      ],
      "stateMutability": "nonpayable",
      "type": "function"
    },
    {
      "inputs": [
        {
          "internalType": "uint64",
          "name": "durationIndex",
          "type": "uint64"
        },
        {
          "internalType": "address",
          "name": "from",
          "type": "address"
        }
      ],
      "name": "calculate",
      "outputs": [
        {
          "internalType": "uint256",
          "name": "",
          "type": "uint256"
        }
      ],
      "stateMutability": "view",
      "type": "function"
    },
    {
      "inputs": [
        {
          "internalType": "bool",
          "name": "_status",
          "type": "bool"
        }
      ],
      "name": "changeStakingStatus",
      "outputs": [],
      "stateMutability": "nonpayable",
      "type": "function"
    },
    {
      "inputs": [
        {
          "internalType": "uint64",
          "name": "durationIndex",
          "type": "uint64"
        }
      ],
      "name": "claim",
      "outputs": [
        {
          "internalType": "bool",
          "name": "",
          "type": "bool"
        }
      ],
      "stateMutability": "nonpayable",
      "type": "function"
    },
    {
      "inputs": [
        {
          "internalType": "uint64",
          "name": "",
          "type": "uint64"
        },
        {
          "internalType": "address",
          "name": "",
          "type": "address"
        }
      ],
      "name": "deposits",
      "outputs": [
        {
          "internalType": "uint256",
          "name": "depositAmount",
          "type": "uint256"
        },
        {
          "internalType": "uint256",
          "name": "depositTime",
          "type": "uint256"
        },
        {
          "internalType": "uint256",
          "name": "endTime",
          "type": "uint256"
        },
        {
          "internalType": "uint64",
          "name": "userIndex",
          "type": "uint64"
        },
        {
          "internalType": "uint256",
          "name": "rewards",
          "type": "uint256"
        },
        {
          "internalType": "bool",
          "name": "paid",
          "type": "bool"
        }
      ],
      "stateMutability": "view",
      "type": "function"
    },
    {
      "inputs": [
        {
          "internalType": "uint256",
          "name": "",
          "type": "uint256"
        }
      ],
      "name": "durations",
      "outputs": [
        {
          "internalType": "uint256",
          "name": "",
          "type": "uint256"
        }
      ],
      "stateMutability": "view",
      "type": "function"
    },
    {
      "inputs": [
        {
          "internalType": "uint64",
          "name": "durationIndex",
          "type": "uint64"
        }
      ],
      "name": "emergencyWithdraw",
      "outputs": [
        {
          "internalType": "bool",
          "name": "",
          "type": "bool"
        }
      ],
      "stateMutability": "nonpayable",
      "type": "function"
    },
    {
      "inputs": [
        {
          "internalType": "uint64",
          "name": "",
          "type": "uint64"
        }
      ],
      "name": "index",
      "outputs": [
        {
          "internalType": "uint64",
          "name": "",
          "type": "uint64"
        }
      ],
      "stateMutability": "view",
      "type": "function"
    },
    {
      "inputs": [],
      "name": "isStopped",
      "outputs": [
        {
          "internalType": "bool",
          "name": "",
          "type": "bool"
        }
      ],
      "stateMutability": "view",
      "type": "function"
    },
    {
      "inputs": [],
      "name": "name",
      "outputs": [
        {
          "internalType": "string",
          "name": "",
          "type": "string"
        }
      ],
      "stateMutability": "view",
      "type": "function"
    },
    {
      "inputs": [],
      "name": "owner",
      "outputs": [
        {
          "internalType": "address",
          "name": "",
          "type": "address"
        }
      ],
      "stateMutability": "view",
      "type": "function"
    },
    {
      "inputs": [
        {
          "internalType": "uint64",
          "name": "",
          "type": "uint64"
        },
        {
          "internalType": "uint64",
          "name": "",
          "type": "uint64"
        }
      ],
      "name": "rateAndDurations",
      "outputs": [
        {
          "internalType": "uint64",
          "name": "newInterestRate",
          "type": "uint64"
        },
        {
          "internalType": "uint256",
          "name": "timeStamp",
          "type": "uint256"
        },
        {
          "internalType": "uint256",
          "name": "duration",
          "type": "uint256"
        }
      ],
      "stateMutability": "view",
      "type": "function"
    },
    {
      "inputs": [],
      "name": "renounceOwnership",
      "outputs": [],
      "stateMutability": "nonpayable",
      "type": "function"
    },
    {
      "inputs": [],
      "name": "rewardBalance",
      "outputs": [
        {
          "internalType": "uint256",
          "name": "",
          "type": "uint256"
        }
      ],
      "stateMutability": "view",
      "type": "function"
    },
    {
      "inputs": [],
      "name": "rewardTokenAddr",
      "outputs": [
        {
          "internalType": "address",
          "name": "",
          "type": "address"
        }
      ],
      "stateMutability": "view",
      "type": "function"
    },
    {
      "inputs": [
        {
          "internalType": "uint64",
          "name": "index_",
          "type": "uint64"
        },
        {
          "internalType": "uint64",
          "name": "rate_",
          "type": "uint64"
        }
      ],
      "name": "setRate",
      "outputs": [],
      "stateMutability": "nonpayable",
      "type": "function"
    },
    {
      "inputs": [
        {
          "internalType": "uint64",
          "name": "durationIndex",
          "type": "uint64"
        },
        {
          "internalType": "uint256",
          "name": "amount",
          "type": "uint256"
        }
      ],
      "name": "stake",
      "outputs": [
        {
          "internalType": "bool",
          "name": "",
          "type": "bool"
        }
      ],
      "stateMutability": "nonpayable",
      "type": "function"
    },
    {
      "inputs": [],
      "name": "stakeTokenAddr",
      "outputs": [
        {
          "internalType": "address",
          "name": "",
          "type": "address"
        }
      ],
      "stateMutability": "view",
      "type": "function"
    },
    {
      "inputs": [],
      "name": "stakedBalance",
      "outputs": [
        {
          "internalType": "uint256",
          "name": "",
          "type": "uint256"
        }
      ],
      "stateMutability": "view",
      "type": "function"
    },
    {
      "inputs": [],
      "name": "stakedTotal",
      "outputs": [
        {
          "internalType": "uint256",
          "name": "",
          "type": "uint256"
        }
      ],
      "stateMutability": "view",
      "type": "function"
    },
    {
      "inputs": [],
      "name": "totalParticipants",
      "outputs": [
        {
          "internalType": "uint256",
          "name": "",
          "type": "uint256"
        }
      ],
      "stateMutability": "view",
      "type": "function"
    },
    {
      "inputs": [
        {
          "internalType": "address",
          "name": "newOwner",
          "type": "address"
        }
      ],
      "name": "transferOwnership",
      "outputs": [],
      "stateMutability": "nonpayable",
      "type": "function"
    },
    {
      "inputs": [
        {
          "internalType": "uint64",
          "name": "durationIndex",
          "type": "uint64"
        }
      ],
      "name": "withdraw",
      "outputs": [
        {
          "internalType": "bool",
          "name": "",
          "type": "bool"
        }
      ],
      "stateMutability": "nonpayable",
      "type": "function"
    }
  ],
  "bytecode": "0x604060808152346200059c576200311b803803806200001e81620005c7565b928339810160c0828203126200059c576200003982620005ed565b916020918282015160018060401b03908181116200059c57830191601f8181850112156200059c578351938385116200038f57601f19946200008183820187168901620005c7565b91818352848983830101116200059c57889060005b838110620005b257505060009183010152620000b4898701620005ed565b95620000c360608201620005ed565b9360808201518681116200059c578201918185840112156200059c57825192620000f7620000f18562000602565b620005c7565b938b8086838152019160051b830101918483116200059c578c809101915b838310620005a1575050505060a0810151908782116200059c5701908085830112156200059c5781516200014d620000f18262000602565b928b8085848152019260051b8201019283116200059c578b01905b82821062000582575050506200017e336200069e565b60018080556001600160a01b03989095908916908115620005495783518351036200050757600880546001600160a01b0319908116909317905560098054909216908a16179055906000855b620003a5575b50505080519384116200038f576002548381811c9116801562000384575b888210146200036e5782811162000322575b5086918411600114620002ba5783945090839291600094620002ae575b50501b916000199060031b1c1916176002555b6200023a62000645565b8216156200025c57506200024e906200069e565b51612a359081620006e68239f35b60849083519062461bcd60e51b82526004820152602660248201527f4f776e61626c653a206e6577206f776e657220697320746865207a65726f206160448201526564647265737360d01b6064820152fd5b0151925038806200021d565b9193831691600260005283876000209360005b89888383106200030a5750505010620002f0575b505050811b0160025562000230565b015160001960f88460031b161c19169055388080620002e1565b868601518855909601959485019487935001620002cd565b6002600052876000208380870160051c8201928a881062000364575b0160051c019084905b8281106200035757505062000200565b6000815501849062000347565b925081926200033e565b634e487b7160e01b600052602260045260246000fd5b90607f1690620001ee565b634e487b7160e01b600052604160045260246000fd5b8151878216908110156200050057620003ce88620003c483876200061a565b511691846200061a565b5190620003da62000645565b8015620004c7578d5160608101908082108b8311176200038f578f91928e93835281526002838201428152838301908682528d600795818754166000526004978881528160002090600080525260002094511660018060401b0319855416178455518c8401555191015580549168010000000000000000831015620004b2578983018083558310156200049d575060009081528c90200155861691828714620004875791850185620001ca565b634e487b7160e01b600052601160045260246000fd5b603290634e487b7160e01b6000525260246000fd5b604190634e487b7160e01b6000525260246000fd5b8d5162461bcd60e51b8152600481018d905260126024820152715a65726f20696e746572657374207261746560701b6044820152606490fd5b50620001d0565b60648b8e519062461bcd60e51b825280600483015260248201527f426f7468206172726179206c656e6774682073686f756c642062652073616d656044820152fd5b8c5162461bcd60e51b8152600481018c905260126024820152715a65726f20746f6b656e206164647265737360701b6044820152606490fd5b815189811681036200059c578152908b01908b0162000168565b600080fd5b82518152918101918d910162000115565b8181018301518582018401528a920162000096565b6040519190601f01601f191682016001600160401b038111838210176200038f57604052565b51906001600160a01b03821682036200059c57565b6001600160401b0381116200038f5760051b60200190565b80518210156200062f5760209160051b010190565b634e487b7160e01b600052603260045260246000fd5b6000546001600160a01b031633036200065a57565b606460405162461bcd60e51b815260206004820152602060248201527f4f776e61626c653a2063616c6c6572206973206e6f7420746865206f776e65726044820152fd5b600080546001600160a01b039283166001600160a01b03198216811783559216907f8be0079c531659141344cd1fd0a4f28419497f9722a3daafe3b4186f6b6457e09080a356fe608060408181526004918236101561001657600080fd5b600092833560e01c91826306fdde0314611a28575081631bbc4b83146119d25781633f683b6a146119905781634e5c92dc1461176f5781635b9f001614611732578163694d303d146115e2578163715018a61461154657816374de4ec4146113fb578163750f0acc146110f4578163857f9a06146110725781638da5cb5b146110215781639946e34114610f7e5781639b7c772514610ec3578163a26dbf2614610e86578163aa5c3ab414610e4b578163aab8ab0c14610ce2578163bc20a7af14610c76578163c5cdcf9014610b19578163d66692a714610adc578163d9385c9914610a89578163e89dec6d14610a36578163ee5352911461035e578163efefd46e146102d4578163f2fde38b14610193575063f341dba41461013857600080fd5b3461018f5760207ffffffffffffffffffffffffffffffffffffffffffffffffffffffffffffffffc36011261018f576020918167ffffffffffffffff918261017e611c8e565b168152600585522054169051908152f35b5080fd5b919050346102d05760207ffffffffffffffffffffffffffffffffffffffffffffffffffffffffffffffffc3601126102d05781359173ffffffffffffffffffffffffffffffffffffffff918284168094036102cc576101f0611d4a565b83156102495750508254827fffffffffffffffffffffffff00000000000000000000000000000000000000008216178455167f8be0079c531659141344cd1fd0a4f28419497f9722a3daafe3b4186f6b6457e08380a380f35b90602060849251917f08c379a0000000000000000000000000000000000000000000000000000000008352820152602660248201527f4f776e61626c653a206e6577206f776e657220697320746865207a65726f206160448201527f64647265737300000000000000000000000000000000000000000000000000006064820152fd5b8480fd5b8280fd5b50503461018f57807ffffffffffffffffffffffffffffffffffffffffffffffffffffffffffffffffc36011261018f57610357602092610312611c8e565b9060028461031e611cc1565b9267ffffffffffffffff851681526003885281812073ffffffffffffffffffffffffffffffffffffffff8516825288522001549161248f565b9051908152f35b9050346102d057817ffffffffffffffffffffffffffffffffffffffffffffffffffffffffffffffffc3601126102d057610396611c8e565b602435916103a5331515611e76565b6008805495600d549074ffffffffffffffffffffffffffffffffffffffff0093847fffffffffffffffffffffff0000000000000000000000000000000000000000ff99851b16898416179485600d558851997fdd62ed3e0000000000000000000000000000000000000000000000000000000094858c5260209b8c818061045630338a840190602090939293604083019473ffffffffffffffffffffffffffffffffffffffff809216845216910152565b038173ffffffffffffffffffffffffffffffffffffffff809d8d1c165afa8015610a2c5786906109f9575b61048e91508b11156121e3565b891561099d5760ff166109415733845260068b528a89898c60ff81892054161560001461074e576105de936105076104fa600594338c5260068452848c2060017fffffffffffffffffffffffffffffffffffffffffffffffffffffffffffffff00825416179055611ce4565b90549060031b1c4261226e565b918d67ffffffffffffffff80911693848c5285845281838d2054169280519761052f89611bcb565b885284880190428252808901928352606089019485528d60808a019681885260a08b0198828a5282526003815282822091339052528d2097518855516001880155516002870155600386019151167fffffffffffffffffffffffffffffffffffffffffffffffff0000000000000000825416179055518784015551151591019060ff7fffffffffffffffffffffffffffffffffffffffffffffffffffffffffffffff0083541691151516179055565b600c5460018101809111610722578b9261066794928992600c555b6106058c600a5461226e565b600a556106148c600b5461226e565b600b55885491600d54928a1b1691161780600d55871c16948a519384928392835230903390840190602090939293604083019473ffffffffffffffffffffffffffffffffffffffff809216845216910152565b0381865afa9182156107175790818894936106dd575b5050916106a49161069b67ffffffffffffffff9695948311156121e3565b30903390611edb565b541691845193845216848301527f6c86f3fd5118b3aa8bb4f389a617046de0a3d3d477de1a1673d227f802f616dc833393a35160018152f35b91509192508882813d8311610710575b6106f78183611be7565b8101031261070d5750518591908161069b61067d565b80fd5b503d6106ed565b8851903d90823e3d90fd5b6024856011867f4e487b7100000000000000000000000000000000000000000000000000000000835252fd5b5050505067ffffffffffffffff808916908186528c60038091528d8d8820903389525260028d882001544210156108bf57926108ba868f96938f958f8f908f98936106679c9a6005958f936107f78f916107e56107bf6107eb928b8a52878652868a20338b528652868a205461226e565b9b6107cb42338c61248f565b908b8a52878652868a20338b528652868a2001549061226e565b97611ce4565b905490851b1c4261226e565b918786528882528481872054169581519a6108118c611bcb565b8b52828b0192428452828c0194855260608c0197885260808c0198895260a08c0199828b5282528581528282209033835252209851895551600189015551600288015586019151167fffffffffffffffffffffffffffffffffffffffffffffffff0000000000000000825416179055518884015551151591019060ff7fffffffffffffffffffffffffffffffffffffffffffffffffffffffffffffff0083541691151516179055565b6105f9565b6084868f8f51917f08c379a0000000000000000000000000000000000000000000000000000000008352820152602d60248201527f4c6f636b20657870697265642c20706c6561736520776974686472617720616e60448201527f64207374616b6520616761696e000000000000000000000000000000000000006064820152fd5b6064838c8c51917f08c379a0000000000000000000000000000000000000000000000000000000008352820152600e60248201527f5374616b696e67207061757365640000000000000000000000000000000000006044820152fd5b6064848d8d51917f08c379a0000000000000000000000000000000000000000000000000000000008352820152601460248201527f43616e2774207374616b65203020616d6f756e740000000000000000000000006044820152fd5b508c81813d8311610a25575b610a0f8183611be7565b81010312610a215761048e9051610481565b8580fd5b503d610a05565b8c513d88823e3d90fd5b50503461018f57817ffffffffffffffffffffffffffffffffffffffffffffffffffffffffffffffffc36011261018f5760209073ffffffffffffffffffffffffffffffffffffffff600954169051908152f35b50503461018f57817ffffffffffffffffffffffffffffffffffffffffffffffffffffffffffffffffc36011261018f5760209073ffffffffffffffffffffffffffffffffffffffff600854169051908152f35b50503461018f57817ffffffffffffffffffffffffffffffffffffffffffffffffffffffffffffffffc36011261018f57602090600b549051908152f35b9050346102d057817ffffffffffffffffffffffffffffffffffffffffffffffffffffffffffffffffc3601126102d0577fcef8b5fd0fe8d4a25244c395e72076a1d6a1b552c7116e90af6f8b2d7f61aeb091608091610b76611c8e565b91610b7f611caa565b92610b88611d4a565b67ffffffffffffffff8080951691610ba1831515611dc9565b16938488526020948486528389206005875282858b2054168a5286526002848a20015494818a5260058752600286888c86898083209283549383610be6818716611e2e565b167fffffffffffffffffffffffffffffffffffffffffffffffff0000000000000000809616179055815197610c1a89611b80565b8b895285890195428752838a019788528a8352528d82822090600581528484842054168352522095511690855416178455516001840155519101558852600585528288205416938251948552840152820152426060820152a180f35b9050346102d05760207ffffffffffffffffffffffffffffffffffffffffffffffffffffffffffffffffc3601126102d057356007548110156102d0576007602093527fa66cc928b5edb82af9bd49922954155ab7b0942694bea4ce44661d9a8736c68801549051908152f35b82843461070d57602092837ffffffffffffffffffffffffffffffffffffffffffffffffffffffffffffffffc36011261018f57610d1d611c8e565b91610d29331515611e76565b610d316123d0565b610d9e610d8367ffffffffffffffff851694858452600388528684203385528852610d6560ff6005898720015416156122e0565b8584526003885286842033855288526002878520015490339061248f565b8483526003875285832033845287528386842001549061226e565b918382526003865284822033835286528482205493610dc685610dbf612964565b1015612345565b8252600386528482203383528652848220015573ffffffffffffffffffffffffffffffffffffffff610dfd8233836009541661289d565b610e10575b505050600180555160018152f35b60095416908351928352848301527f85ab59351da11b79336de7647172267c33bf533ee87d9d292441c2672177159b833393a3828080610e02565b50503461018f57817ffffffffffffffffffffffffffffffffffffffffffffffffffffffffffffffffc36011261018f57602090610357612964565b50503461018f57817ffffffffffffffffffffffffffffffffffffffffffffffffffffffffffffffffc36011261018f57602090600c549051908152f35b83833461018f57807ffffffffffffffffffffffffffffffffffffffffffffffffffffffffffffffffc36011261018f5760c09281610eff611c8e565b93610f08611cc1565b67ffffffffffffffff8096168252600360205273ffffffffffffffffffffffffffffffffffffffff83832091168252602052209081549360018301549360ff60056002860154936003870154169486015495015416948151968752602087015285015260608401526080830152151560a0820152f35b9050346102d05760207ffffffffffffffffffffffffffffffffffffffffffffffffffffffffffffffffc3601126102d05735908115158092036102d0577f36e3f34a0ee7e675c6e4fb54887d109037e69fb0e40bffc3b86a4887960a019b91610fe5611d4a565b7fffffffffffffffffffffffffffffffffffffffffffffffffffffffffffffff00600d541660ff821617600d558151908152426020820152a180f35b50503461018f57817ffffffffffffffffffffffffffffffffffffffffffffffffffffffffffffffffc36011261018f5773ffffffffffffffffffffffffffffffffffffffff60209254169051908152f35b9050346102d057817ffffffffffffffffffffffffffffffffffffffffffffffffffffffffffffffffc3601126102d057816060936110ae611c8e565b926110b7611caa565b9067ffffffffffffffff80951683526020528383832091168252602052209081541691600260018301549201549181519384526020840152820152f35b9050346102d057602092837ffffffffffffffffffffffffffffffffffffffffffffffffffffffffffffffffc36011261070d5761112f611c8e565b9061113b331515611e76565b6111436123d0565b3381526006855261115960ff858320541661227b565b67ffffffffffffffff821690818152600392838752858220338352875261118960ff6005888520015416156122e0565b828252838752858220338352875260028683200154421061139f576111c86111e29184845285895287842033855289526002888520015490339061248f565b83835284885286832033845288528587842001549061226e565b928282528087528582203383528752858220549461120286610dbf612964565b61120e86600a5461243f565b600a5583835281885286832033845288526005878420017fffffffffffffffffffffffffffffffffffffffffffffffffffffffffffffff009060018282541617905560068952878420908154169055600c54907fffffffffffffffffffffffffffffffffffffffffffffffffffffffffffffffff82019182116113735750918691600293600c5573ffffffffffffffffffffffffffffffffffffffff946112ba8733886009541661289d565b611339575b82528852818120338252885220015442101580611324575b6112e957505050600180555160018152f35b60085416908351928352848301527f85ab59351da11b79336de7647172267c33bf533ee87d9d292441c2672177159b833393a3388080610e02565b506113348333836008541661289d565b6112d7565b8560095416845190898252888c8301527f85ab59351da11b79336de7647172267c33bf533ee87d9d292441c2672177159b863393a36112bf565b8360116024927f4e487b7100000000000000000000000000000000000000000000000000000000835252fd5b606485888851917f08c379a0000000000000000000000000000000000000000000000000000000008352820152601b60248201527f52657175657374696e67206265666f7265206c6f636b2074696d6500000000006044820152fd5b9050823461070d5760207ffffffffffffffffffffffffffffffffffffffffffffffffffffffffffffffffc36011261070d575080359061143c331515611e76565b81156114e9576020837f40df43107e8b4d467127964bd3c966687c0a6a39aaede970755397fd09535e9881856114d7816009547fffffffffffffffffffffff0000000000000000000000000000000000000000ff74ffffffffffffffffffffffffffffffffffffffff00600d549260081b1691161780600d55309073ffffffffffffffffffffffffffffffffffffffff339160081c16611edb565b81519081524285820152a15160018152f35b60649060208451917f08c379a0000000000000000000000000000000000000000000000000000000008352820152601760248201527f526577617264206d75737420626520706f7369746976650000000000000000006044820152fd5b833461070d57807ffffffffffffffffffffffffffffffffffffffffffffffffffffffffffffffffc36011261070d5761157d611d4a565b8073ffffffffffffffffffffffffffffffffffffffff81547fffffffffffffffffffffffff000000000000000000000000000000000000000081168355167f8be0079c531659141344cd1fd0a4f28419497f9722a3daafe3b4186f6b6457e08280a380f35b9050346102d057817ffffffffffffffffffffffffffffffffffffffffffffffffffffffffffffffffc3601126102d05761161a611c8e565b600260243593611628611d4a565b67ffffffffffffffff80931692611640841515611dc9565b81519361164c85611b80565b8452602084019042825282850192878452816007541689528660205280892089805260205288209451167fffffffffffffffffffffffffffffffffffffffffffffffff000000000000000085541617845551600184015551910155600754906801000000000000000082101561170657508060016116cd9201600755611ce4565b819291549060031b7fffffffffffffffffffffffffffffffffffffffffffffffffffffffffffffffff811b9283911b1691191617905580f35b8360416024927f4e487b7100000000000000000000000000000000000000000000000000000000835252fd5b50503461018f57817ffffffffffffffffffffffffffffffffffffffffffffffffffffffffffffffffc36011261018f57602090600a549051908152f35b9050346102d057602092837ffffffffffffffffffffffffffffffffffffffffffffffffffffffffffffffffc36011261070d5767ffffffffffffffff6117b3611c8e565b6117be331515611e76565b6117c66123d0565b338352600686526117dc60ff868520541661227b565b169182825260038552838220338352855261180060ff6005868520015416156122e0565b828252600385528382203383528552838220549261182084600a5461243f565b600a5582526003855283822033835285526005848320017fffffffffffffffffffffffffffffffffffffffffffffffffffffffffffffff009060018282541617905560068652848320908154169055600c547fffffffffffffffffffffffffffffffffffffffffffffffffffffffffffffffff810190811161196457600c5573ffffffffffffffffffffffffffffffffffffffff906118c48433846009541661289d565b15611908575060085416908351928352848301527f85ab59351da11b79336de7647172267c33bf533ee87d9d292441c2672177159b833393a3600180555160018152f35b606490868651917f08c379a0000000000000000000000000000000000000000000000000000000008352820152600c60248201527f4572726f7220706179696e6700000000000000000000000000000000000000006044820152fd5b6024836011847f4e487b7100000000000000000000000000000000000000000000000000000000835252fd5b50503461018f57817ffffffffffffffffffffffffffffffffffffffffffffffffffffffffffffffffc36011261018f5760209060ff600d541690519015158152f35b50503461018f57817ffffffffffffffffffffffffffffffffffffffffffffffffffffffffffffffffc36011261018f5760209073ffffffffffffffffffffffffffffffffffffffff600d5460081c169051908152f35b92915034611b7c57837ffffffffffffffffffffffffffffffffffffffffffffffffffffffffffffffffc360112611b7c57600254600181811c9186908281168015611b72575b6020958686108214611b465750848852908115611b065750600114611aad575b611aa98686611a9f828b0383611be7565b5191829182611c28565b0390f35b929550600283527f405787fa12a823e0f2b7631cc41b3ba8828b3321ca811111fa75cd3aa3bb5ace5b828410611af35750505082611aa994611a9f928201019438611a8e565b8054868501880152928601928101611ad6565b7fffffffffffffffffffffffffffffffffffffffffffffffffffffffffffffff001687860152505050151560051b8301019250611a9f82611aa938611a8e565b8360226024927f4e487b7100000000000000000000000000000000000000000000000000000000835252fd5b93607f1693611a6e565b8380fd5b6060810190811067ffffffffffffffff821117611b9c57604052565b7f4e487b7100000000000000000000000000000000000000000000000000000000600052604160045260246000fd5b60c0810190811067ffffffffffffffff821117611b9c57604052565b90601f7fffffffffffffffffffffffffffffffffffffffffffffffffffffffffffffffe0910116810190811067ffffffffffffffff821117611b9c57604052565b60208082528251818301819052939260005b858110611c7a575050507fffffffffffffffffffffffffffffffffffffffffffffffffffffffffffffffe0601f8460006040809697860101520116010190565b818101830151848201604001528201611c3a565b6004359067ffffffffffffffff82168203611ca557565b600080fd5b6024359067ffffffffffffffff82168203611ca557565b6024359073ffffffffffffffffffffffffffffffffffffffff82168203611ca557565b600754811015611d1b5760076000527fa66cc928b5edb82af9bd49922954155ab7b0942694bea4ce44661d9a8736c6880190600090565b7f4e487b7100000000000000000000000000000000000000000000000000000000600052603260045260246000fd5b73ffffffffffffffffffffffffffffffffffffffff600054163303611d6b57565b60646040517f08c379a000000000000000000000000000000000000000000000000000000000815260206004820152602060248201527f4f776e61626c653a2063616c6c6572206973206e6f7420746865206f776e65726044820152fd5b15611dd057565b60646040517f08c379a000000000000000000000000000000000000000000000000000000000815260206004820152601260248201527f5a65726f20696e746572657374207261746500000000000000000000000000006044820152fd5b67ffffffffffffffff809116908114611e475760010190565b7f4e487b7100000000000000000000000000000000000000000000000000000000600052601160045260246000fd5b15611e7d57565b60646040517f08c379a000000000000000000000000000000000000000000000000000000000815260206004820152600c60248201527f5a65726f206164647265737300000000000000000000000000000000000000006044820152fd5b9290604051927f23b872dd00000000000000000000000000000000000000000000000000000000602085015273ffffffffffffffffffffffffffffffffffffffff809216602485015216604483015260648201526064815260a081019181831067ffffffffffffffff841117611b9c57611f5792604052611f59565b565b73ffffffffffffffffffffffffffffffffffffffff16906040516040810167ffffffffffffffff9082811082821117611b9c576040526020938483527f5361666545524332303a206c6f772d6c6576656c2063616c6c206661696c6564858401526000808587829751910182855af1903d15612110573d9283116120e3579061202093929160405192612013887fffffffffffffffffffffffffffffffffffffffffffffffffffffffffffffffe0601f8401160185611be7565b83523d868885013e61211b565b8051918215918483156120bf575b50505090501561203b5750565b608490604051907f08c379a00000000000000000000000000000000000000000000000000000000082526004820152602a60248201527f5361666545524332303a204552433230206f7065726174696f6e20646964206e60448201527f6f742073756363656564000000000000000000000000000000000000000000006064820152fd5b91938180945001031261018f5782015190811515820361070d57508038808461202e565b6024857f4e487b710000000000000000000000000000000000000000000000000000000081526041600452fd5b906120209392506060915b91929015612196575081511561212f575090565b3b156121385790565b60646040517f08c379a000000000000000000000000000000000000000000000000000000000815260206004820152601d60248201527f416464726573733a2063616c6c20746f206e6f6e2d636f6e74726163740000006044820152fd5b8251909150156121a95750805190602001fd5b6121df906040519182917f08c379a000000000000000000000000000000000000000000000000000000000835260048301611c28565b0390fd5b156121ea57565b60846040517f08c379a000000000000000000000000000000000000000000000000000000000815260206004820152602160248201527f4d616b65207375726520746f2061646420656e6f75676820616c6c6f77616e6360448201527f65000000000000000000000000000000000000000000000000000000000000006064820152fd5b91908201809211611e4757565b1561228257565b60646040517f08c379a000000000000000000000000000000000000000000000000000000000815260206004820152601860248201527f4e6f207374616b657320666f756e6420666f72207573657200000000000000006044820152fd5b156122e757565b60646040517f08c379a000000000000000000000000000000000000000000000000000000000815260206004820152601060248201527f416c72656164792070616964206f7574000000000000000000000000000000006044820152fd5b1561234c57565b60846040517f08c379a000000000000000000000000000000000000000000000000000000000815260206004820152602a60248201527f5374616b696e673a20496e73756666696369656e742072657761726420746f6b60448201527f656e2062616c616e6365000000000000000000000000000000000000000000006064820152fd5b6002600154146123e1576002600155565b60646040517f08c379a000000000000000000000000000000000000000000000000000000000815260206004820152601f60248201527f5265656e7472616e637947756172643a207265656e7472616e742063616c6c006044820152fd5b91908203918211611e4757565b90816020910312611ca5575160ff81168103611ca55790565b60ff16604d8111611e4757600a0a90565b90600167ffffffffffffffff80931601918211611e4757565b91909173ffffffffffffffffffffffffffffffffffffffff809316926000918483526020916006835260ff604085205416156128815767ffffffffffffffff809216928385526003815260408520878652815260408520548486526003825260408620888752825260016040872001549085875260038352604087208988528352846003604089200154169782918995806008541660405187816004817f313ce56700000000000000000000000000000000000000000000000000000000958682525afa908115612876579061256c918d9161285f575b50612465565b918215612832578790600954169160046040518094819382525afa90811561282757916125a76125ce94926125ae948e916127fa5750612465565b910461288a565b93899b898b526003875260408b20908b528652600260408b20015461243f565b985b878952600585528660408a205416878216908110156127f3576004865260408a20886125fb84612476565b168b52865260408a20600101548310156126e25750505b808210612626575b50505050505050505090565b61265d97989950612640929161263b9161243f565b61288a565b93865260048152826040872092168652526040842054169061288a565b90612710928381029381850414901517156126b557821561268857500438808080808080808061261a565b807f4e487b7100000000000000000000000000000000000000000000000000000000602492526012600452fd5b807f4e487b7100000000000000000000000000000000000000000000000000000000602492526011600452fd5b90959261273892949b5061271790898b526004875260408b20896127058a612476565b168c528752600160408c20015461243f565b90888a526004865260408a20908a52855261263b8760408b2054168c61288a565b61271090818a02918a8304148a1517156127c6578115612799579061275f9104809a61226e565b9186885260048452604088208661277587612476565b168952845261279461278e600160408b20015493611e2e565b95611e2e565b6125d0565b6024897f4e487b710000000000000000000000000000000000000000000000000000000081526012600452fd5b6024897f4e487b710000000000000000000000000000000000000000000000000000000081526011600452fd5b5050612612565b61281a91508a3d8c11612820575b6128128183611be7565b81019061244c565b38612566565b503d612808565b6040513d8d823e3d90fd5b60248c7f4e487b710000000000000000000000000000000000000000000000000000000081526012600452fd5b61281a9150893d8b11612820576128128183611be7565b6040513d8e823e3d90fd5b50505091505090565b81810292918115918404141715611e4757565b9190917fffffffffffffffffffffff0000000000000000000000000000000000000000ff74ffffffffffffffffffffffffffffffffffffffff00600d549260081b169116179182600d55604051917fa9059cbb00000000000000000000000000000000000000000000000000000000602084015273ffffffffffffffffffffffffffffffffffffffff8092166024840152604483015260448252608082019282841067ffffffffffffffff851117611b9c5761295f9360405260081c16611f59565b600190565b6024602073ffffffffffffffffffffffffffffffffffffffff60095416604051928380927f70a082310000000000000000000000000000000000000000000000000000000082523060048301525afa9081156129f3576000916129c5575090565b906020823d82116129eb575b816129de60209383611be7565b8101031261070d57505190565b3d91506129d1565b6040513d6000823e3d90fdfea2646970667358221220788df5db4213bab0bedd7d933db58b61416058416b53c719b4df0be947831ed064736f6c63430008110033",
  "linkReferences": {},
  "deployedLinkReferences": {}
}