{
  "_format": "hh-sol-artifact-1",
  "contractName": "YieldFarming",
  "sourceName": "contracts/YieldFarming.sol",
  "abi": [
    {
      "inputs": [
        {
          "internalType": "address",
          "name": "_tokenAddress",
          "type": "address"
        },
        {
          "internalType": "address",
          "name": "_rewardTokenAddress",
          "type": "address"
        }
      ],
      "stateMutability": "nonpayable",
      "type": "constructor"
    },
    {
      "anonymous": false,
      "inputs": [
        {
          "indexed": true,
          "internalType": "address",
          "name": "previousOwner",
          "type": "address"
        },
        {
          "indexed": true,
          "internalType": "address",
          "name": "newOwner",
          "type": "address"
        }
      ],
      "name": "OwnershipTransferred",
      "type": "event"
    },
    {
      "anonymous": false,
      "inputs": [
        {
          "indexed": true,
          "internalType": "address",
          "name": "token",
          "type": "address"
        },
        {
          "indexed": true,
          "internalType": "address",
          "name": "rewardToken",
          "type": "address"
        },
        {
          "indexed": true,
          "internalType": "address",
          "name": "staker_",
          "type": "address"
        },
        {
          "indexed": false,
          "internalType": "uint256",
          "name": "amount_",
          "type": "uint256"
        },
        {
          "indexed": false,
          "internalType": "uint256",
          "name": "reward_",
          "type": "uint256"
        }
      ],
      "name": "PaidOut",
      "type": "event"
    },
    {
      "anonymous": false,
      "inputs": [
        {
          "indexed": true,
          "internalType": "address",
          "name": "token",
          "type": "address"
        },
        {
          "indexed": true,
          "internalType": "address",
          "name": "staker_",
          "type": "address"
        },
        {
          "indexed": false,
          "internalType": "uint256",
          "name": "stakedAmount_",
          "type": "uint256"
        }
      ],
      "name": "Staked",
      "type": "event"
    },
    {
      "inputs": [],
      "name": "ERC20Interface",
      "outputs": [
        {
          "internalType": "contract IERC20",
          "name": "",
          "type": "address"
        }
      ],
      "stateMutability": "view",
      "type": "function"
    },
    {
      "inputs": [],
      "name": "accShare",
      "outputs": [
        {
          "internalType": "uint256",
          "name": "",
          "type": "uint256"
        }
      ],
      "stateMutability": "view",
      "type": "function"
    },
    {
      "inputs": [
        {
          "internalType": "address",
          "name": "from",
          "type": "address"
        }
      ],
      "name": "calculate",
      "outputs": [
        {
          "internalType": "uint256",
          "name": "",
          "type": "uint256"
        }
      ],
      "stateMutability": "view",
      "type": "function"
    },
    {
      "inputs": [],
      "name": "claimOldRewards",
      "outputs": [
        {
          "internalType": "bool",
          "name": "",
          "type": "bool"
        }
      ],
      "stateMutability": "nonpayable",
      "type": "function"
    },
    {
      "inputs": [],
      "name": "claimRewards",
      "outputs": [
        {
          "internalType": "bool",
          "name": "",
          "type": "bool"
        }
      ],
      "stateMutability": "nonpayable",
      "type": "function"
    },
    {
      "inputs": [],
      "name": "currentBlock",
      "outputs": [
        {
          "internalType": "uint256",
          "name": "",
          "type": "uint256"
        }
      ],
      "stateMutability": "view",
      "type": "function"
    },
    {
      "inputs": [
        {
          "internalType": "address",
          "name": "",
          "type": "address"
        }
      ],
      "name": "deposits",
      "outputs": [
        {
          "internalType": "uint256",
          "name": "amount",
          "type": "uint256"
        },
        {
          "internalType": "uint256",
          "name": "initialStake",
          "type": "uint256"
        },
        {
          "internalType": "uint256",
          "name": "latestClaim",
          "type": "uint256"
        },
        {
          "internalType": "uint256",
          "name": "userAccShare",
          "type": "uint256"
        },
        {
          "internalType": "uint256",
          "name": "currentPeriod",
          "type": "uint256"
        }
      ],
      "stateMutability": "view",
      "type": "function"
    },
    {
      "inputs": [],
      "name": "emergencyWithdraw",
      "outputs": [
        {
          "internalType": "bool",
          "name": "",
          "type": "bool"
        }
      ],
      "stateMutability": "nonpayable",
      "type": "function"
    },
    {
      "inputs": [],
      "name": "endingBlock",
      "outputs": [
        {
          "internalType": "uint256",
          "name": "",
          "type": "uint256"
        }
      ],
      "stateMutability": "view",
      "type": "function"
    },
    {
      "inputs": [
        {
          "internalType": "address",
          "name": "from",
          "type": "address"
        }
      ],
      "name": "fetchUserShare",
      "outputs": [
        {
          "internalType": "uint256",
          "name": "",
          "type": "uint256"
        }
      ],
      "stateMutability": "view",
      "type": "function"
    },
    {
      "inputs": [
        {
          "internalType": "address",
          "name": "",
          "type": "address"
        }
      ],
      "name": "hasStaked",
      "outputs": [
        {
          "internalType": "bool",
          "name": "",
          "type": "bool"
        }
      ],
      "stateMutability": "view",
      "type": "function"
    },
    {
      "inputs": [],
      "name": "incBlock",
      "outputs": [],
      "stateMutability": "nonpayable",
      "type": "function"
    },
    {
      "inputs": [
        {
          "internalType": "address",
          "name": "",
          "type": "address"
        }
      ],
      "name": "isPaid",
      "outputs": [
        {
          "internalType": "bool",
          "name": "",
          "type": "bool"
        }
      ],
      "stateMutability": "view",
      "type": "function"
    },
    {
      "inputs": [],
      "name": "isPaused",
      "outputs": [
        {
          "internalType": "bool",
          "name": "",
          "type": "bool"
        }
      ],
      "stateMutability": "view",
      "type": "function"
    },
    {
      "inputs": [],
      "name": "lastRewardBlock",
      "outputs": [
        {
          "internalType": "uint256",
          "name": "",
          "type": "uint256"
        }
      ],
      "stateMutability": "view",
      "type": "function"
    },
    {
      "inputs": [],
      "name": "name",
      "outputs": [
        {
          "internalType": "string",
          "name": "",
          "type": "string"
        }
      ],
      "stateMutability": "view",
      "type": "function"
    },
    {
      "inputs": [],
      "name": "owner",
      "outputs": [
        {
          "internalType": "address",
          "name": "",
          "type": "address"
        }
      ],
      "stateMutability": "view",
      "type": "function"
    },
    {
      "inputs": [],
      "name": "period",
      "outputs": [
        {
          "internalType": "uint256",
          "name": "",
          "type": "uint256"
        }
      ],
      "stateMutability": "view",
      "type": "function"
    },
    {
      "inputs": [],
      "name": "renew",
      "outputs": [
        {
          "internalType": "bool",
          "name": "",
          "type": "bool"
        }
      ],
      "stateMutability": "nonpayable",
      "type": "function"
    },
    {
      "inputs": [],
      "name": "renounceOwnership",
      "outputs": [],
      "stateMutability": "nonpayable",
      "type": "function"
    },
    {
      "inputs": [
        {
          "internalType": "uint256",
          "name": "_rewardAmount",
          "type": "uint256"
        },
        {
          "internalType": "uint256",
          "name": "_start",
          "type": "uint256"
        },
        {
          "internalType": "uint256",
          "name": "_end",
          "type": "uint256"
        }
      ],
      "name": "resetAndsetStartEndBlock",
      "outputs": [
        {
          "internalType": "bool",
          "name": "",
          "type": "bool"
        }
      ],
      "stateMutability": "nonpayable",
      "type": "function"
    },
    {
      "inputs": [],
      "name": "rewPerBlock",
      "outputs": [
        {
          "internalType": "uint256",
          "name": "",
          "type": "uint256"
        }
      ],
      "stateMutability": "view",
      "type": "function"
    },
    {
      "inputs": [],
      "name": "rewardBalance",
      "outputs": [
        {
          "internalType": "uint256",
          "name": "",
          "type": "uint256"
        }
      ],
      "stateMutability": "view",
      "type": "function"
    },
    {
      "inputs": [],
      "name": "rewardTokenAddress",
      "outputs": [
        {
          "internalType": "address",
          "name": "",
          "type": "address"
        }
      ],
      "stateMutability": "view",
      "type": "function"
    },
    {
      "inputs": [
        {
          "internalType": "uint256",
          "name": "amount",
          "type": "uint256"
        }
      ],
      "name": "stake",
      "outputs": [
        {
          "internalType": "bool",
          "name": "",
          "type": "bool"
        }
      ],
      "stateMutability": "nonpayable",
      "type": "function"
    },
    {
      "inputs": [],
      "name": "stakedBalance",
      "outputs": [
        {
          "internalType": "uint256",
          "name": "",
          "type": "uint256"
        }
      ],
      "stateMutability": "view",
      "type": "function"
    },
    {
      "inputs": [],
      "name": "stakedTotal",
      "outputs": [
        {
          "internalType": "uint256",
          "name": "",
          "type": "uint256"
        }
      ],
      "stateMutability": "view",
      "type": "function"
    },
    {
      "inputs": [],
      "name": "startingBlock",
      "outputs": [
        {
          "internalType": "uint256",
          "name": "",
          "type": "uint256"
        }
      ],
      "stateMutability": "view",
      "type": "function"
    },
    {
      "inputs": [],
      "name": "tokenAddress",
      "outputs": [
        {
          "internalType": "address",
          "name": "",
          "type": "address"
        }
      ],
      "stateMutability": "view",
      "type": "function"
    },
    {
      "inputs": [],
      "name": "totalReward",
      "outputs": [
        {
          "internalType": "uint256",
          "name": "",
          "type": "uint256"
        }
      ],
      "stateMutability": "view",
      "type": "function"
    },
    {
      "inputs": [
        {
          "internalType": "address",
          "name": "newOwner",
          "type": "address"
        }
      ],
      "name": "transferOwnership",
      "outputs": [],
      "stateMutability": "nonpayable",
      "type": "function"
    },
    {
      "inputs": [
        {
          "internalType": "address",
          "name": "from",
          "type": "address"
        }
      ],
      "name": "viewOldRewards",
      "outputs": [
        {
          "internalType": "uint256",
          "name": "",
          "type": "uint256"
        }
      ],
      "stateMutability": "view",
      "type": "function"
    },
    {
      "inputs": [],
      "name": "withdraw",
      "outputs": [
        {
          "internalType": "bool",
          "name": "",
          "type": "bool"
        }
      ],
      "stateMutability": "nonpayable",
      "type": "function"
    }
  ],
  "bytecode": "0x60806040523462000032575b62000020620000196200010f565b90620003bf565b6040516132b8620004c982396132b890f35b6200003b600080fd5b6200000b565b600080fd5b50634e487b7160e01b600052604160045260246000fd5b90601f01601f191681019081106001600160401b038211176200007f57604052565b6200008962000046565b604052565b90620000a56200009d60405190565b92836200005d565b565b6001600160a01b031690565b90565b6001600160a01b038116036200004157565b90505190620000a582620000b6565b9190620000b39060408482031262000100575b620000f68185620000c8565b93602001620000c8565b62000109600080fd5b620000ea565b62000132620037818038038062000126816200008e565b928339810190620000d7565b9091565b50634e487b7160e01b600052602260045260246000fd5b906001600283049216801562000174575b60208310146200016a57565b620000a562000136565b91607f16916200015e565b9160001960089290920291821b911b5b9181191691161790565b620000b3620000b3620000b39290565b9190620001be620000b3620001c79362000199565b9083546200017f565b9055565b620000a591600091620001a9565b818110620001e5575050565b80620001f56000600193620001cb565b01620001d9565b9190601f81116200020c57505050565b62000220620000a593600052602060002090565b906020601f84018190048301931062000244575b6020601f909101040190620001d9565b909150819062000234565b62000268600d6200026183546200014d565b83620001fc565b7f5969656c64204661726d696e670000000000000000000000000000000000001a9055565b620000a5906200024f565b620000a7620000b3620000b39290565b620000b39062000298565b15620002bb57565b60405162461bcd60e51b81526020600482015260126024820152715a65726f20746f6b656e206164647265737360701b6044820152606490fd5b906001600160a01b03906200018f565b620000b390620000a7906001600160a01b031682565b620000b39062000305565b620000b3906200031b565b9062000345620000b3620001c79262000326565b8254620002f5565b156200035557565b60405162461bcd60e51b815260206004820152601960248201527f5a65726f2072657761726420746f6b656e2061646472657373000000000000006044820152606490fd5b9060ff906200018f565b90620003b7620000b3620001c792151590565b82546200039a565b906200042e6200041c6200043693620003d762000444565b620003e360016200028d565b620000a7620003f36000620002a8565b91620004146001600160a01b0384166001600160a01b0383161415620002b3565b600262000331565b6001600160a01b03831614156200034d565b600362000331565b620000a56001600d620003a4565b620000a53362000466565b620000b390620000a7565b620000b390546200044f565b6200047260006200045a565b906200048081600062000331565b620004b7620004b07f8be0079c531659141344cd1fd0a4f28419497f9722a3daafe3b4186f6b6457e09362000326565b9162000326565b91620004c260405190565b600090a356fe60806040526004361015610018575b610016600080fd5b005b60003560e01c806303b2e7ed146102ac57806306fdde03146102a3578063096cf03f1461029a5780630d932e7014610291578063125f9e33146102885780631bbc4b831461027f578063372500ab146102765780633ccfd60b1461026d5780634373efa41461026457806350003ca61461025b5780635b9f0016146102525780635f98f4f1146102495780636ded82f814610240578063715018a61461023757806374a4f7d11461022e57806374ca28c114610225578063750142e61461021c5780637b1f337d146102135780638da5cb5b1461020a5780639d76ea5814610201578063a694fc3a146101f8578063a9f8d181146101ef578063aa5c3ab4146101e6578063b187bd26146101dd578063c93c8f34146101d4578063d66692a7146101cb578063d91c98d3146101c2578063db2e21bc146101b9578063e12ed13c146101b0578063e6787b1b146101a7578063ef78d4fd1461019e578063f2fde38b146101955763fc7e286d0361000e57610190610d17565b61000e565b50610190610c5b565b50610190610c31565b50610190610bfb565b50610190610bd3565b50610190610ba9565b50610190610b7f565b50610190610b49565b50610190610b13565b50610190610ad7565b50610190610aa1565b50610190610a6b565b50610190610a35565b506101906109ee565b506101906109b8565b5061019061098e565b50610190610958565b50610190610925565b506101906108fb565b506101906108cf565b506101906108a5565b50610190610831565b506101906107b6565b50610190610780565b50610190610756565b506101906106f2565b506101906106c8565b50610190610692565b50610190610602565b50610190610574565b5061019061054a565b506101906104f2565b506101906102d3565b600080fd5b60009103126102c557565b6102cd600080fd5b565b9052565b5034610304575b6102e53660046102ba565b6103006102f06118ea565b6040519182918290815260200190565b0390f35b61030c600080fd5b6102da565b50634e487b7160e01b600052600060045260246000fd5b50634e487b7160e01b600052602260045260246000fd5b9060016002830492168015610362575b602083101461035a57565b6102cd610328565b91607f169161034f565b8054600093929161038961037f8361033f565b8085529360200190565b91600181169081156103db57506001146103a257505050565b6103b59192939450600052602060002090565b916000925b8184106103c75750500190565b8054848401526020909301926001016103ba565b92949550505060ff1916825215156020020190565b906103fa9161036c565b90565b601f01601f191690565b50634e487b7160e01b600052604160045260246000fd5b90601f01601f1916810190811067ffffffffffffffff82111761044057604052565b610448610407565b604052565b906102cd6104679261045e60405190565b938480926103f0565b038361041e565b6103fa911561044d5761047f610311565b61044d565b6103fa6000600161046e565b60005b8381106104a35750506000910152565b8181015183820152602001610493565b6104d46103fd6020936104dd936104c8815190565b80835293849260200190565b95869101610490565b0190565b60208082526103fa929101906104b3565b503461051b575b6105043660046102ba565b61030061050f610484565b604051918291826104e1565b610523600080fd5b6104f9565b6103fa916008021c81565b906103fa9154610528565b6103fa6000600b610533565b5034610567575b61055c3660046102ba565b6103006102f061053e565b61056f600080fd5b610551565b50346105a3575b6105863660046102ba565b6103006105916123bb565b60405191829182901515815260200190565b6105ab600080fd5b61057b565b6103fa916008021c5b73ffffffffffffffffffffffffffffffffffffffff1690565b906103fa91546105b0565b6103fa600060036105d2565b6102cf906105b9565b6020810192916102cd91906105e9565b503461062b575b6106143660046102ba565b61030061061f6105dd565b604051918291826105f2565b610633600080fd5b610609565b6103fa6001600d6105d2565b6105b96103fa6103fa9273ffffffffffffffffffffffffffffffffffffffff1690565b6103fa90610644565b6103fa90610667565b6102cf90610670565b6020810192916102cd9190610679565b50346106bb575b6106a43660046102ba565b6103006106af610638565b60405191829182610682565b6106c3600080fd5b610699565b50346106e5575b6106da3660046102ba565b610300610591611fe6565b6106ed600080fd5b6106cf565b503461070f575b6107043660046102ba565b610300610591612d8f565b610717600080fd5b6106f9565b610725816105b9565b036102b557565b905035906102cd8261071c565b906103fa916020818303121561072c57610751600080fd5b61072c565b5034610773575b6103006102f061076e366004610739565b6125a1565b61077b600080fd5b61075d565b503461079d575b6103006102f0610798366004610739565b61298b565b6107a5600080fd5b610787565b6103fa60006005610533565b50346107d3575b6107c83660046102ba565b6103006102f06107aa565b6107db600080fd5b6107bd565b80610725565b905035906102cd826107e0565b9091606082840312610824575b6103fa61080d84846107e6565b9361081b81602086016107e6565b936040016107e6565b61082c600080fd5b610800565b503461084f575b6103006105916108493660046107f3565b91611172565b610857600080fd5b610838565b9061086690610670565b600052602052604060002090565b6103fa916008021c5b60ff1690565b906103fa9154610874565b6103fa906108a0600f9160009261085c565b610883565b50346108c2575b6103006105916108bd366004610739565b61088e565b6108ca600080fd5b6108ac565b50346108ee575b6108e13660046102ba565b6108e9610dac565b604051005b6108f6600080fd5b6108d6565b5034610918575b6103006102f0610913366004610739565b611f50565b610920600080fd5b610902565b503461093f575b6109373660046102ba565b6108e9612dca565b610947600080fd5b61092c565b6103fa60006007610533565b5034610975575b61096a3660046102ba565b6103006102f061094c565b61097d600080fd5b61095f565b6103fa60006009610533565b50346109ab575b6109a03660046102ba565b6103006102f0610982565b6109b3600080fd5b610995565b50346109d5575b6109ca3660046102ba565b61030061061f610d6a565b6109dd600080fd5b6109bf565b6103fa600060026105d2565b5034610a0b575b610a003660046102ba565b61030061061f6109e2565b610a13600080fd5b6109f5565b906103fa91602081830312156107e657610a30600080fd5b6107e6565b5034610a52575b610300610591610a4d366004610a18565b611b4c565b610a5a600080fd5b610a3c565b6103fa6000600c610533565b5034610a88575b610a7d3660046102ba565b6103006102f0610a5f565b610a90600080fd5b610a72565b6103fa60006006610533565b5034610abe575b610ab33660046102ba565b6103006102f0610a95565b610ac6600080fd5b610aa8565b6103fa6000600d610883565b5034610af4575b610ae93660046102ba565b610300610591610acb565b610afc600080fd5b610ade565b6103fa906108a060109160009261085c565b5034610b30575b610300610591610b2b366004610739565b610b01565b610b38600080fd5b610b1a565b6103fa60006004610533565b5034610b66575b610b5b3660046102ba565b6103006102f0610b3d565b610b6e600080fd5b610b50565b6103fa60006008610533565b5034610b9c575b610b913660046102ba565b6103006102f0610b73565b610ba4600080fd5b610b86565b5034610bc6575b610bbb3660046102ba565b610300610591612b53565b610bce600080fd5b610bb0565b5034610bee575b610be53660046102ba565b610300436102f0565b610bf6600080fd5b610bda565b5034610c18575b610c0d3660046102ba565b61030061059161276c565b610c20600080fd5b610c02565b6103fa6000600a610533565b5034610c4e575b610c433660046102ba565b6103006102f0610c25565b610c56600080fd5b610c38565b5034610c75575b6108e9610c70366004610739565b610ed7565b610c7d600080fd5b610c62565b6103fa9081565b6103fa9054610c82565b610c9e90600e61085c565b610ca781610c89565b91610cb460018301610c89565b91610cc160028201610c89565b916103fa6004610cd360038501610c89565b9301610c89565b909594926102cd94610d0c610d1392610d05608096610cfe60a088019c6000890152565b6020870152565b6040850152565b6060830152565b0152565b5034610d4a575b610300610d34610d2f366004610739565b610c93565b91610d4195939560405190565b95869586610cda565b610d52600080fd5b610d1e565b6103fa906105b9565b6103fa9054610d57565b6103fa6000610d60565b610d7c610e08565b6102cd610d9a565b6105b96103fa6103fa9290565b6103fa90610d84565b6102cd610da76000610d91565b610f1d565b6102cd610d74565b15610dbb57565b60405162461bcd60e51b815280610e04600482016020808252818101527f4f776e61626c653a2063616c6c6572206973206e6f7420746865206f776e6572604082015260600190565b0390fd5b6102cd610e13610d6a565b610e2a610e24336105b9565b6105b9565b916105b9565b14610db4565b6102cd90610e3c610e08565b610eb3565b15610e4857565b60405162461bcd60e51b815260206004820152602660248201527f4f776e61626c653a206e6577206f776e657220697320746865207a65726f206160448201527f64647265737300000000000000000000000000000000000000000000000000006064820152608490fd5b6102cd90610da7610ec7610e1f6000610d91565b610ed0836105b9565b1415610e41565b6102cd90610e30565b9073ffffffffffffffffffffffffffffffffffffffff905b9181191691161790565b90610f126103fa610f1992610670565b8254610ee0565b9055565b610f276000610d60565b90610f33816000610f02565b610f66610f607f8be0079c531659141344cd1fd0a4f28419497f9722a3daafe3b4186f6b6457e093610670565b91610670565b91610f7060405190565b600090a3565b906103fa939291610f85610e08565b611113565b15610f9157565b60405162461bcd60e51b815260206004820152602760248201527f53746172742073686f756c64206265206d6f7265207468616e2063757272656e60448201527f7420626c6f636b000000000000000000000000000000000000000000000000006064820152608490fd5b1561100357565b60405162461bcd60e51b815260206004820152602660248201527f456e6420626c6f636b2073686f756c642062652067726561746572207468616e60448201527f20737461727400000000000000000000000000000000000000000000000000006064820152608490fd5b6103fa6103fa6103fa9290565b1561108257565b60405162461bcd60e51b815260206004820152601760248201527f526577617264206d75737420626520706f7369746976650000000000000000006044820152606490fd5b156110ce57565b60405162461bcd60e51b815260206004820152600d60248201527f52657761726473206572726f72000000000000000000000000000000000000006044820152606490fd5b61116361116d949392611168925061113661112e6103fa4390565b855b11610f8a565b61114284865b11610ffc565b61115661114f600061106e565b821161107b565b61115e61169a565b611596565b6110c7565b61123b565b600190565b6103fa9291906000610f76565b1561118657565b60405162461bcd60e51b815260206004820152601b60248201527f416464207265776172647320666f72207468697320706572696f6400000000006044820152606490fd5b9060001990610ef8565b906111e56103fa610f199261106e565b82546111cb565b50634e487b7160e01b600052601160045260246000fd5b6001906000198114611213570190565b6104dd6111ec565b9060ff90610ef8565b906112346103fa610f1992151590565b825461121b565b6112be6102cd9261125561124f6103fa4390565b84611130565b61125f838261113c565b61129b61126c6007610c89565b9161128960009361128361127f8661106e565b9190565b1161117f565b6112948560086111d5565b60096111d5565b6112b76112b06112ab600a610c89565b611203565b600a6111d5565b600d611224565b600c6111d5565b156112cc57565b60405162461bcd60e51b815260206004820152601560248201527f496e76616c696420746f6b656e206164647265737300000000000000000000006044820152606490fd5b9074ffffffffffffffffffffffffffffffffffffffff009060081b610ef8565b906113416103fa610f1992610670565b8254611311565b6103fa9060081c6105b9565b6103fa9054611348565b905051906102cd826107e0565b906103fa916020818303121561135e57611383600080fd5b61135e565b9160206102cd9294936113a3604082019660008301906105e9565b01906105e9565b506040513d6000823e3d90fd5b156113be57565b60405162461bcd60e51b815260206004820152602160248201527f4d616b65207375726520746f2061646420656e6f75676820616c6c6f77616e6360448201527f65000000000000000000000000000000000000000000000000000000000000006064820152608490fd5b906103fa916114de6114d6336114786114716114456003610d60565b611452610e1f6002610d60565b61145b826105b9565b148015611518575b61146c906112c5565b610670565b600d611331565b602061148761146c600d611354565b9163dd62ed3e926114b461149a30610670565b946114bf6114a760405190565b9687958694859460e01b90565b845260048401611388565b03915afa90811561150b575b6000916114e3575090565b8311156113b7565b61153a565b6103fa915060203d8111611504575b6114fc818361041e565b81019061136b565b503d6114f2565b6115136113aa565b6114cb565b5061146c611529610e1f6003610d60565b611532836105b9565b149050611463565b50611557611553338361154d6003610d60565b91612dd2565b1590565b611590576115898161157f61157861116d946115736007610c89565b6115b6565b60076111d5565b6115736006610c89565b60066111d5565b50600090565b6103fa906000611429565b919082018092116115ae57565b6102cd6111ec565b6103fa91906115a1565b156115c757565b60405162461bcd60e51b815260206004820152601c60248201527f576169742074696c6c20656e64206f66207468697320706572696f64000000006044820152606490fd5b906102cd61161960405190565b928361041e565b6103fa60a061160c565b906108669061106e565b6102cd919061164d906080906004906116538185875190565b906111d5565b6116656001820161164d602088015190565b6116776002820161164d604088015190565b6116896003820161164d606088015190565b0192015190565b906102cd91611634565b6116b4436116ae61127f6103fa6009610c89565b116115c0565b6116bc61176e565b6117436116c9600a610c89565b6117296116d6600b610c89565b6117226116e16118ea565b61171b6116ee6008610c89565b916117146116fc6009610c89565b9561170d611708611620565b998a52565b6020890152565b6040870152565b6060850152565b6080830152565b61173e6011611738600a610c89565b9061162a565b611690565b611762611750600061106e565b61175b8160076111d5565b60056111d5565b6102cd6001600d611224565b4361177c6103fa600c610c89565b81111561187c5761178d6005610c89565b60009061179c61127f8361106e565b1461187057506117af6103fa6009610c89565b811061184f5761182361181c6117e96117db6117cb6009610c89565b6117d5600c610c89565b9061188c565b6117e36118ea565b906118a9565b6118166118066117f9600b610c89565b926117e3620f424061106e565b6118106005610c89565b906118e0565b906115b6565b600b6111d5565b6118306103fa6009610c89565b811061184457506102cd6112be6009610c89565b6102cd90600c6111d5565b61182361181c6117e961186b611865600c610c89565b8561188c565b6117db565b506102cd90600c6111d5565b50565b919082039182116115ae57565b6103fa919061187f565b818102929181159184041417156115ae57565b6103fa9190611896565b50634e487b7160e01b600052601260045260246000fd5b81156118d4570490565b6118dc6118b3565b0490565b6103fa91906118ca565b6118f46007610c89565b60009061190361127f8361106e565b14801561193d575b61193457506103fa61191d6007610c89565b61181061192a6009610c89565b6117d56008610c89565b6103fa9061106e565b506119486006610c89565b61195461127f8361106e565b1461190b565b1561196157565b60405162461bcd60e51b815260206004820152600c60248201527f5a65726f206164647265737300000000000000000000000000000000000000006044820152606490fd5b906103fa916119c6336119bf610e24610e1f6000610d91565b141561195a565b906103fa916119e26114d6336114786114716114456002610d60565b611ade565b6103fa9061087d565b6103fa90546119e7565b15611a0157565b60405162461bcd60e51b815260206004820152601260248201527f436f6e74726163742069732070617573656400000000000000000000000000006044820152606490fd5b15611a4d57565b60405162461bcd60e51b815260206004820152600e60248201527f496e76616c696420706572696f640000000000000000000000000000000000006044820152606490fd5b15611a9957565b60405162461bcd60e51b815260206004820152601460248201527f43616e2774207374616b65203020616d6f756e740000000000000000000000006044820152606490fd5b506103fa90611af8611af3611553600d6119f0565b6119fa565b611b1943611b096103fa6008610c89565b8110159081611b33575b50611a46565b611b2d611b26600061106e565b8211611a92565b33611bef565b9050611b4561127f6103fa6009610c89565b1038611b13565b6103fa9060006119a6565b15611b5e57565b60405162461bcd60e51b815260206004820152601460248201527f4572726f7220706179696e6720726577617264730000000000000000000000006044820152606490fd5b15611baa57565b60405162461bcd60e51b815260206004820152600e60248201527f4572726f722072656e6577696e670000000000000000000000000000000000006044820152606490fd5b90611bf861176e565b6010611c0f611553611c0a858461085c565b6119f0565b15611d1e57611c2b611553611c246002610d60565b8486612dd2565b611d1657611d098391611cf7611cf06103fa95611c8743611c7c611c4f600b610c89565b611722611c5c600a610c89565b9161171b611c68611620565b95611c71898852565b611714816020890152565b61173e88600e61085c565b611c916002610d60565b611cbb7f5dac0c1b1112564a045ba943c9d50270893e8e826c49be8e7073adc713ab7bd791610670565b611cc488610670565b91611cce60405190565b848152602090a3611ce661175b826115736005610c89565b6115736004610c89565b60046111d5565b611d04600195869261085c565b611224565b611d04600091600f61085c565b505050600090565b5090600e91611d386004611d32848661085c565b01610c89565b611d4861127f6103fa600a610c89565b14611e3057611d5e611d598361249e565b611ba3565b611d75611553611d6e6002610d60565b8385612dd2565b611d1657611cf081611df38561173e86611d9e611d09976115736000611d328561116d9e61085c565b92611dee43611de7611db0600b610c89565b611de0611dbd600a610c89565b93611dce611dc9611620565b9a8b52565b611dd98160208c0152565b60408a0152565b6060880152565b6080860152565b61085c565b611dfd6002610d60565b611e277f5dac0c1b1112564a045ba943c9d50270893e8e826c49be8e7073adc713ab7bd791610670565b611cc486610670565b611e41611e3c8361212b565b611b57565b611d5e565b15611e4d57565b60405162461bcd60e51b815260206004820152601860248201527f4e6f207374616b657320666f756e6420666f72207573657200000000000000006044820152606490fd5b15611e9957565b60405162461bcd60e51b815260206004820152602760248201527f506c656173652072656e657720696e20746865206163746976652076616c696460448201527f20706572696f64000000000000000000000000000000000000000000000000006064820152608490fd5b15611f0b57565b60405162461bcd60e51b815260206004820152601c60248201527f4e6f207374616b657320617661696c61626c6520666f722075736572000000006044820152606490fd5b611f66611f61611c0a83601061085c565b611e46565b611f706005610c89565b90600091611f8061127f8461106e565b14611fdc5781611fd1611fca611fc46103fa95611d3261180696600e611dee611fae6004611d32858561085c565b611fbe61127f6103fa600a610c89565b14611e92565b9261106e565b8211611f04565b6117e361271061106e565b506103fa9061106e565b6103fa33612009611ff682611f50565b61200361127f600061106e565b11611e46565b61212b565b1561201557565b60405162461bcd60e51b815260206004820152601460248201527f4e6f20726577617264732067656e6572617465640000000000000000000000006044820152606490fd5b1561206157565b60405162461bcd60e51b815260206004820152602260248201527f4e6f7420656e6f756768207265776172647320696e2074686520636f6e74726160448201527f63740000000000000000000000000000000000000000000000000000000000006064820152608490fd5b156120d357565b60405162461bcd60e51b815260206004820152601760248201527f52657761726473207472616e73666572206661696c65640000000000000000006044820152606490fd5b9081526040810192916102cd9160200152565b600e9061213d6003611d32838561085c565b9161214661176e565b6121f561219c61216561215e6000611d32878761085c565b95866118a9565b61219761217e612177620f424061106e565b80936118e0565b9161219261218c600b610c89565b896118a9565b6118e0565b61188c565b916121b16121aa600061106e565b841161200e565b6121c96121c16103fa6006610c89565b84111561205a565b6121e86121d6600b610c89565b60036121e2878561085c565b016111d5565b60026121e285439361085c565b612206611589826121976006610c89565b61222261221d6122166003610d60565b8385613204565b6120cc565b61222c6002610d60565b6122366003610d60565b9161226d6122676122677f0fd12da3890315fa38b862dc2fff7f24c95981f6508cc2be090640de791b671e94610670565b94610670565b9461228361227a60405190565b92839283612118565b0390a4600190565b1561229257565b60405162461bcd60e51b815260206004820152600f60248201527f436f6e74726163742070617573656400000000000000000000000000000000006044820152606490fd5b156122de57565b60405162461bcd60e51b815260206004820152601f60248201527f4e6f207374616b696e677320666f756e642c20706c65617365207374616b65006044820152606490fd5b1561232a57565b60405162461bcd60e51b815260206004820152600f60248201527f416c72656164792072656e6577656400000000000000000000000000000000006044820152606490fd5b1561237657565b60405162461bcd60e51b815260206004820152600a60248201527f57726f6e672074696d65000000000000000000000000000000000000000000006044820152606490fd5b6123d06123cb611553600d6119f0565b61228b565b6103fa336123ea6123e5611c0a83601061085c565b6122d7565b6124146123fd6004611d3284600e61085c565b61240d61127f6103fa600a610c89565b1415612323565b612434436124256103fa6008610c89565b81119081612439575b5061236f565b61249e565b905061244b61127f6103fa6009610c89565b103861242e565b1561245957565b60405162461bcd60e51b815260206004820152601860248201527f4572726f7220706179696e67206f6c64207265776172647300000000000000006044820152606490fd5b61175b61116d916124ad600090565b506124b661176e565b6118166124c2826125a1565b6000906124d161127f8361106e565b11612540575b611d326124e4600a610c89565b936124f7600e9560046121e2848961085c565b6125174361250b8160016121e2868b61085c565b60026121e2848961085c565b612530612524600b610c89565b60036121e2848961085c565b61253a6005610c89565b9461085c565b61255061254b61276c565b612452565b6124d7565b1561255c57565b60405162461bcd60e51b815260206004820152601260248201527f4e6f7420656e6f756768207265776172647300000000000000000000000000006044820152606490fd5b6125b16123cb611553600d6119f0565b6125c26123e5611c0a83601061085c565b600e906125d46004611d32838561085c565b6125e461127f6103fa600a610c89565b146126c8576125f3818361085c565b6004016125ff90610c89565b9060119161260d818461162a565b60010161261990610c89565b90612624838661085c565b60030161263090610c89565b9361263b848761085c565b60020161264790610c89565b916126519161162a565b60040161265d90610c89565b11156126ba5761219261268561267e6000611d32612197966126a29961085c565b94856118a9565b9161269c612695620f424061106e565b80946118e0565b946118a9565b6103fa6126b26103fa6006610c89565b821115612555565b505050506103fa600061106e565b50506103fa600061106e565b156126db57565b60405162461bcd60e51b815260206004820152601b60248201527f416c726561647920636c61696d6564206f6c64207265776172647300000000006044820152606490fd5b1561272757565b60405162461bcd60e51b815260206004820152600c60248201527f4572726f7220706179696e6700000000000000000000000000000000000000006044820152606490fd5b612776600d6119f0565b156127809061228b565b3361278c81601061085c565b612795906119f0565b61279e906122d7565b600e906127ab818361085c565b6004016127b790610c89565b6127c1600a610c89565b14156127cc90612323565b6127d6818361085c565b6004016127e290610c89565b91816011916127f1858461162a565b6001016127fd90610c89565b92612808838361085c565b60030161281490610c89565b9361281f848461085c565b60020161282b90610c89565b612835888461162a565b60040161284190610c89565b1161284b906126d4565b612855848461085c565b61285e90610c89565b9461286990866118a9565b612875620f424061106e565b9081612880916118e0565b9161288b90876118a9565b90612895916118e0565b9061289f9161188c565b956128aa6006610c89565b8711156128b690612555565b6128bf9161162a565b6004016128cb90610c89565b916128d59161085c565b600201906128e2916111d5565b826128ed6006610c89565b906128f79161188c565b6129029060066111d5565b61290c6003610d60565b612917908484613204565b61292090612720565b61292a6002610d60565b6129346003610d60565b917f0fd12da3890315fa38b862dc2fff7f24c95981f6508cc2be090640de791b671e9161296090610670565b9261296a90610670565b9361297490610670565b9461297e60405190565b9182916122839183612118565b61299481611f50565b6000906129a361127f8361106e565b146129b257506103fa906129bc565b6103fa915061106e565b600090600e6129d06003611d32848461085c565b916129db600b610c89565b90436129ea6103fa600c610c89565b811115612aa1576129fb6005610c89565b95600096612a0b61127f8961106e565b14612a925761180693612192612a7789611d32612192976121979a9761269c976103fa9e5050612a3e6103fa6009610c89565b8110612a7e5750612a71612a586117db6117cb6009610c89565b96611816612a68620f424061106e565b9c8d809a6118a9565b9761085c565b97886118a9565b612a5861186b612a71926117d5600c610c89565b5050505050506103fa9061106e565b5050505050506103fa600061106e565b6103fa90612ac9336119bf610e24610e1f6000610d91565b612b1a565b15612ad557565b60405162461bcd60e51b815260206004820152600c60248201527f416c7265616479205061696400000000000000000000000000000000000000006044820152606490fd5b506103fa33612b35612b30611c0a83601061085c565b611f04565b612b4e612b49611553611c0a84600f61085c565b612ace565b612c3f565b6103fa6000612ab1565b15612b6457565b60405162461bcd60e51b815260206004820152601560248201527f4572726f7220647572696e6720776974686472617700000000000000000000006044820152606490fd5b91906008610ef8910291612bbe600019841b90565b921b90565b9190612bd46103fa610f199361106e565b908354612ba9565b6102cd91600091612bc3565b600060046102cd92612bfc83808301612bdc565b612c098360018301612bdc565b612c168360028301612bdc565b612c238360038301612bdc565b01612bdc565b6102cd9115612be857612c3a610311565b612be8565b612c4761176e565b6103fa600e91612cb8612c5f6000611d32848761085c565b91612c6d611553600d6119f0565b80612cd3575b612cbd575b600194612c8a86611d0484600f61085c565b611dee612cb3600095612ca287611d0487601061085c565b612cac6002610d60565b9085613204565b612b5d565b612c29565b612cce61175b846121976005610c89565b612c78565b50612ce36004611d32838861085c565b612cf361127f6103fa600a610c89565b14612c73565b6103fa90612d11336119bf610e24610e1f6000610d91565b506103fa33612d266004611d3283600e61085c565b612d3661127f6103fa600a610c89565b14612d63575b612d45816125a1565b612d5261127f600061106e565b1115612c3f57612b4e61254b61276c565b612d6c8161298b565b612d7961127f600061106e565b1115612d3c57612d8a611e3c611fe6565b612d3c565b6103fa6000612cf9565b612da1610e08565b6102cd6102cd612dc3612db4600161106e565b612dbe6008610c89565b6115a1565b60086111d5565b6102cd612d99565b6103fa929190612de130610670565b90612dfa61147161116d95612df4600090565b50610670565b612e04600d611354565b612e71565b612e22612e1c6103fa9263ffffffff1690565b60e01b90565b7fffffffff000000000000000000000000000000000000000000000000000000001690565b604090610d136102cd9496959396612e67606084019860008501906105e9565b60208301906105e9565b90612eb690612ea76102cd95600495612e8d6323b872dd612e09565b93612e9760405190565b9788956020870190815201612e47565b6020820181038252038361041e565b612fd8565b6104dd60209167ffffffffffffffff8111612eda57601f01601f191690565b6103fd610407565b90612ef4612eef83612ebb565b61160c565b918252565b612f036020612ee2565b7f5361666545524332303a206c6f772d6c6576656c2063616c6c206661696c6564602082015290565b6103fa612ef9565b801515610725565b905051906102cd82612f34565b906103fa9160208183031215612f3c57612f61600080fd5b612f3c565b15612f6d57565b60405162461bcd60e51b815260206004820152602a60248201527f5361666545524332303a204552433230206f7065726174696f6e20646964206e60448201527f6f742073756363656564000000000000000000000000000000000000000000006064820152608490fd5b6102cd91612fe8612ff792610670565b90612ff1612f2c565b91613035565b805161300661127f600061106e565b14908115613015575b50612f66565b61302f91506020613024825190565b818301019101612f49565b3861300f565b6103fa9291613044600061106e565b916130db565b1561305157565b60405162461bcd60e51b815260206004820152602660248201527f416464726573733a20696e73756666696369656e742062616c616e636520666f60448201527f722063616c6c00000000000000000000000000000000000000000000000000006064820152608490fd5b3d156130d6576130cb3d612ee2565b903d6000602084013e565b606090565b9060006103fa949381926130ed606090565b506131046130fa30610670565b839031101561304a565b60208101905191855af16131166130bc565b91613168565b1561312357565b60405162461bcd60e51b815260206004820152601d60248201527f416464726573733a2063616c6c20746f206e6f6e2d636f6e74726163740000006044820152606490fd5b91926060911561319d575050815161318361127f600061106e565b1461318c575090565b6131986103fa916131aa565b61311c565b9093926102cd92506131bc565b3b6131b861127f600061106e565b1190565b91506131c6825190565b6131d361127f600061106e565b11156131e25750805190602001fd5b610e04906131ef60405190565b91829162461bcd60e51b8352600483016104e1565b61322461147161116d94613216600090565b50611452610e1f6002610d60565b61322e600d611354565b61324e565b9160206102cd929493610d13604082019660008301906105e9565b612eb6600492612ea76102cd9561326863a9059cbb612e09565b9261327260405190565b968794602086019081520161323356fea2646970667358221220deb87d06fc75b1055ae6ccd3eec75d4e069bb0e16ca31a1779691c7e19bf4bbd64736f6c63430008110033",
  "linkReferences": {},
  "deployedLinkReferences": {}
}